{
  "contractName": "BurialStokvelAccount",
  "abi": [
    {
      "inputs": [
        {
          "internalType": "address[]",
          "name": "_owners",
          "type": "address[]"
        },
        {
          "internalType": "uint256",
          "name": "_required",
          "type": "uint256"
        },
        {
          "internalType": "uint256",
          "name": "_contribution",
          "type": "uint256"
        }
      ],
      "stateMutability": "nonpayable",
      "type": "constructor"
    },
    {
      "anonymous": false,
      "inputs": [
        {
          "indexed": true,
          "internalType": "address",
          "name": "sender",
          "type": "address"
        },
        {
          "indexed": true,
          "internalType": "uint256",
          "name": "transactionId",
          "type": "uint256"
        },
        {
          "indexed": false,
          "internalType": "string",
          "name": "approved",
          "type": "string"
        }
      ],
      "name": "Confirmation",
      "type": "event"
    },
    {
      "anonymous": false,
      "inputs": [
        {
          "indexed": true,
          "internalType": "address",
          "name": "sender",
          "type": "address"
        },
        {
          "indexed": false,
          "internalType": "uint256",
          "name": "value",
          "type": "uint256"
        }
      ],
      "name": "Deposit",
      "type": "event"
    },
    {
      "anonymous": false,
      "inputs": [
        {
          "indexed": true,
          "internalType": "uint256",
          "name": "transactionId",
          "type": "uint256"
        }
      ],
      "name": "Execution",
      "type": "event"
    },
    {
      "anonymous": false,
      "inputs": [
        {
          "indexed": true,
          "internalType": "uint256",
          "name": "transactionId",
          "type": "uint256"
        }
      ],
      "name": "ExecutionFailure",
      "type": "event"
    },
    {
      "anonymous": false,
      "inputs": [
        {
          "indexed": true,
          "internalType": "address",
          "name": "accountAddress",
          "type": "address"
        }
      ],
      "name": "LogEnrolled",
      "type": "event"
    },
    {
      "anonymous": false,
      "inputs": [
        {
          "indexed": false,
          "internalType": "address",
          "name": "account",
          "type": "address"
        }
      ],
      "name": "Paused",
      "type": "event"
    },
    {
      "anonymous": false,
      "inputs": [
        {
          "indexed": true,
          "internalType": "uint256",
          "name": "transactionId",
          "type": "uint256"
        }
      ],
      "name": "Submission",
      "type": "event"
    },
    {
      "anonymous": false,
      "inputs": [
        {
          "indexed": false,
          "internalType": "address",
          "name": "account",
          "type": "address"
        }
      ],
      "name": "Unpaused",
      "type": "event"
    },
    {
      "stateMutability": "payable",
      "type": "fallback"
    },
    {
      "inputs": [],
      "name": "balance",
      "outputs": [
        {
          "internalType": "uint256",
          "name": "",
          "type": "uint256"
        }
      ],
      "stateMutability": "view",
      "type": "function"
    },
    {
      "inputs": [
        {
          "internalType": "uint256",
          "name": "",
          "type": "uint256"
        },
        {
          "internalType": "address",
          "name": "",
          "type": "address"
        }
      ],
      "name": "confirmations",
      "outputs": [
        {
          "internalType": "bool",
          "name": "",
          "type": "bool"
        }
      ],
      "stateMutability": "view",
      "type": "function"
    },
    {
      "inputs": [],
      "name": "contribution",
      "outputs": [
        {
          "internalType": "uint256",
          "name": "",
          "type": "uint256"
        }
      ],
      "stateMutability": "view",
      "type": "function"
    },
    {
      "inputs": [
        {
          "internalType": "address",
          "name": "",
          "type": "address"
        }
      ],
      "name": "isMember",
      "outputs": [
        {
          "internalType": "bool",
          "name": "",
          "type": "bool"
        }
      ],
      "stateMutability": "view",
      "type": "function"
    },
    {
      "inputs": [
        {
          "internalType": "address",
          "name": "",
          "type": "address"
        }
      ],
      "name": "isOwner",
      "outputs": [
        {
          "internalType": "bool",
          "name": "",
          "type": "bool"
        }
      ],
      "stateMutability": "view",
      "type": "function"
    },
    {
      "inputs": [
        {
          "internalType": "uint256",
          "name": "",
          "type": "uint256"
        }
      ],
      "name": "members",
      "outputs": [
        {
          "internalType": "address",
          "name": "",
          "type": "address"
        }
      ],
      "stateMutability": "view",
      "type": "function"
    },
    {
      "inputs": [
        {
          "internalType": "uint256",
          "name": "",
          "type": "uint256"
        }
      ],
      "name": "owners",
      "outputs": [
        {
          "internalType": "address",
          "name": "",
          "type": "address"
        }
      ],
      "stateMutability": "view",
      "type": "function"
    },
    {
      "inputs": [],
      "name": "paused",
      "outputs": [
        {
          "internalType": "bool",
          "name": "",
          "type": "bool"
        }
      ],
      "stateMutability": "view",
      "type": "function"
    },
    {
      "inputs": [],
      "name": "required",
      "outputs": [
        {
          "internalType": "uint256",
          "name": "",
          "type": "uint256"
        }
      ],
      "stateMutability": "view",
      "type": "function"
    },
    {
      "inputs": [],
      "name": "transactionCount",
      "outputs": [
        {
          "internalType": "uint256",
          "name": "",
          "type": "uint256"
        }
      ],
      "stateMutability": "view",
      "type": "function"
    },
    {
      "inputs": [
        {
          "internalType": "uint256",
          "name": "",
          "type": "uint256"
        }
      ],
      "name": "transactions",
      "outputs": [
        {
          "internalType": "string",
          "name": "name",
          "type": "string"
        },
        {
          "internalType": "address",
          "name": "destination",
          "type": "address"
        },
        {
          "internalType": "uint256",
          "name": "value",
          "type": "uint256"
        },
        {
          "internalType": "enum BurialStokvelAccount.State",
          "name": "state",
          "type": "uint8"
        }
      ],
      "stateMutability": "view",
      "type": "function"
    },
    {
      "stateMutability": "payable",
      "type": "receive"
    },
    {
      "inputs": [],
      "name": "pause",
      "outputs": [],
      "stateMutability": "nonpayable",
      "type": "function"
    },
    {
      "inputs": [],
      "name": "unpause",
      "outputs": [],
      "stateMutability": "nonpayable",
      "type": "function"
    },
    {
      "inputs": [],
      "name": "enroll",
      "outputs": [
        {
          "internalType": "bool",
          "name": "",
          "type": "bool"
        }
      ],
      "stateMutability": "payable",
      "type": "function"
    },
    {
      "inputs": [
        {
          "internalType": "uint256",
          "name": "_value",
          "type": "uint256"
        },
        {
          "internalType": "string",
          "name": "_name",
          "type": "string"
        }
      ],
      "name": "submitRequest",
      "outputs": [
        {
          "internalType": "uint256",
          "name": "",
          "type": "uint256"
        }
      ],
      "stateMutability": "nonpayable",
      "type": "function"
    },
    {
      "inputs": [
        {
          "internalType": "uint256",
          "name": "_transactionId",
          "type": "uint256"
        }
      ],
      "name": "confirmTransaction",
      "outputs": [],
      "stateMutability": "nonpayable",
      "type": "function"
    },
    {
      "inputs": [
        {
          "internalType": "uint256",
          "name": "_transactionId",
          "type": "uint256"
        }
      ],
      "name": "isConfirmed",
      "outputs": [
        {
          "internalType": "bool",
          "name": "confirmed",
          "type": "bool"
        }
      ],
      "stateMutability": "view",
      "type": "function"
    },
    {
      "inputs": [
        {
          "internalType": "uint256",
          "name": "_transactionId",
          "type": "uint256"
        }
      ],
      "name": "withdraw",
      "outputs": [],
      "stateMutability": "nonpayable",
      "type": "function"
    },
    {
      "inputs": [],
      "name": "getAllTransactionIDs",
      "outputs": [
        {
          "internalType": "uint256[]",
          "name": "",
          "type": "uint256[]"
        }
      ],
      "stateMutability": "view",
      "type": "function"
    },
    {
      "inputs": [
        {
          "internalType": "uint256",
          "name": "_transactionId",
          "type": "uint256"
        }
      ],
      "name": "fetchTransaction",
      "outputs": [
        {
          "internalType": "string",
          "name": "name",
          "type": "string"
        },
        {
          "internalType": "uint256",
          "name": "value",
          "type": "uint256"
        },
        {
          "internalType": "address",
          "name": "destination",
          "type": "address"
        },
        {
          "internalType": "string",
          "name": "state",
          "type": "string"
        }
      ],
      "stateMutability": "view",
      "type": "function"
    },
    {
      "inputs": [],
      "name": "getOwners",
      "outputs": [
        {
          "internalType": "address[]",
          "name": "",
          "type": "address[]"
        }
      ],
      "stateMutability": "view",
      "type": "function"
    },
    {
      "inputs": [],
      "name": "getMinimumContribution",
      "outputs": [
        {
          "internalType": "uint256",
          "name": "",
          "type": "uint256"
        }
      ],
      "stateMutability": "view",
      "type": "function"
    },
    {
      "inputs": [],
      "name": "getNumberofRequiredApprovals",
      "outputs": [
        {
          "internalType": "uint256",
          "name": "",
          "type": "uint256"
        }
      ],
      "stateMutability": "view",
      "type": "function"
    },
    {
      "inputs": [],
      "name": "getBalance",
      "outputs": [
        {
          "internalType": "uint256",
          "name": "",
          "type": "uint256"
        }
      ],
      "stateMutability": "view",
      "type": "function"
    },
    {
      "inputs": [],
      "name": "getMembers",
      "outputs": [
        {
          "internalType": "address[]",
          "name": "",
          "type": "address[]"
        }
      ],
      "stateMutability": "view",
      "type": "function"
    }
  ],
  "bytecode": "0x60806040523480156200001157600080fd5b5060405162002ba638038062002ba6833981810160405281019062000037919062000304565b60008060006101000a81548160ff02191690831515021790555082518281811180620000635750600081145b806200006f5750600082145b156200007a57600080fd5b600083116200008857600080fd5b83855110156200009757600080fd5b60005b85518110156200015357600160066000888481518110620000e4577f4e487b7100000000000000000000000000000000000000000000000000000000600052603260045260246000fd5b602002602001015173ffffffffffffffffffffffffffffffffffffffff1673ffffffffffffffffffffffffffffffffffffffff16815260200190815260200160002060006101000a81548160ff02191690831515021790555080806200014a9062000414565b9150506200009a565b5084600190805190602001906200016c92919062000186565b5083600381905550826005819055505050505050620004f4565b82805482825590600052602060002090810192821562000202579160200282015b82811115620002015782518260006101000a81548173ffffffffffffffffffffffffffffffffffffffff021916908373ffffffffffffffffffffffffffffffffffffffff16021790555091602001919060010190620001a7565b5b50905062000211919062000215565b5090565b5b808211156200023057600081600090555060010162000216565b5090565b60006200024b6200024584620003a7565b62000373565b905080838252602082019050828560208602820111156200026b57600080fd5b60005b858110156200029f5781620002848882620002a9565b8452602084019350602083019250506001810190506200026e565b5050509392505050565b600081519050620002ba81620004c0565b92915050565b600082601f830112620002d257600080fd5b8151620002e484826020860162000234565b91505092915050565b600081519050620002fe81620004da565b92915050565b6000806000606084860312156200031a57600080fd5b600084015167ffffffffffffffff8111156200033557600080fd5b6200034386828701620002c0565b93505060206200035686828701620002ed565b92505060406200036986828701620002ed565b9150509250925092565b6000604051905081810181811067ffffffffffffffff821117156200039d576200039c62000491565b5b8060405250919050565b600067ffffffffffffffff821115620003c557620003c462000491565b5b602082029050602081019050919050565b6000620003e382620003ea565b9050919050565b600073ffffffffffffffffffffffffffffffffffffffff82169050919050565b6000819050919050565b600062000421826200040a565b91507fffffffffffffffffffffffffffffffffffffffffffffffffffffffffffffffff82141562000457576200045662000462565b5b600182019050919050565b7f4e487b7100000000000000000000000000000000000000000000000000000000600052601160045260246000fd5b7f4e487b7100000000000000000000000000000000000000000000000000000000600052604160045260246000fd5b620004cb81620003d6565b8114620004d757600080fd5b50565b620004e5816200040a565b8114620004f157600080fd5b50565b6126a280620005046000396000f3fe60806040526004361061016a5760003560e01c80638456cb59116100d1578063b77bf6001161008a578063dc8452cd11610064578063dc8452cd14610656578063e65f2a7e14610681578063eafa23bd1461069f578063f84038b1146106ca576101e1565b8063b77bf600146105d7578063b8d437bd14610602578063c01a8c841461062d576101e1565b80638456cb59146104c25780639ace38c2146104d95780639eab525314610519578063a0e67e2b14610544578063a230c5241461056f578063b69ef8a8146105ac576101e1565b80633f4ba83a116101235780633f4ba83a1461039b57806350520b1f146103b25780635c975abb146103dd5780635daf08ca14610408578063685067d514610445578063784547a714610485576101e1565b8063025e7c271461025357806312065fe01461029057806316366b26146102bb5780632e1a7d4d146102f85780632f54bf6e146103215780633411c81c1461035e576101e1565b366101e15760003411156101df573373ffffffffffffffffffffffffffffffffffffffff167fe1fffcc4923d04b559f4d29a8bfc6cda04eb5b0d3c460751c2402c5c5cc9109c346040516101be9190612294565b60405180910390a2600460008154809291906101d990612514565b91905055505b005b6000341115610251573373ffffffffffffffffffffffffffffffffffffffff167fe1fffcc4923d04b559f4d29a8bfc6cda04eb5b0d3c460751c2402c5c5cc9109c346040516102309190612294565b60405180910390a26004600081548092919061024b90612514565b91905055505b005b34801561025f57600080fd5b5061027a60048036038101906102759190611dd2565b6106f5565b60405161028791906120f9565b60405180910390f35b34801561029c57600080fd5b506102a5610734565b6040516102b29190612294565b60405180910390f35b3480156102c757600080fd5b506102e260048036038101906102dd9190611e37565b61073e565b6040516102ef9190612294565b60405180910390f35b34801561030457600080fd5b5061031f600480360381019061031a9190611dd2565b6107be565b005b34801561032d57600080fd5b5061034860048036038101906103439190611da9565b610880565b6040516103559190612158565b60405180910390f35b34801561036a57600080fd5b5061038560048036038101906103809190611dfb565b6108a0565b6040516103929190612158565b60405180910390f35b3480156103a757600080fd5b506103b06108cf565b005b3480156103be57600080fd5b506103c7610931565b6040516103d49190612294565b60405180910390f35b3480156103e957600080fd5b506103f2610937565b6040516103ff9190612158565b60405180910390f35b34801561041457600080fd5b5061042f600480360381019061042a9190611dd2565b61094d565b60405161043c91906120f9565b60405180910390f35b34801561045157600080fd5b5061046c60048036038101906104679190611dd2565b61098c565b60405161047c94939291906121e1565b60405180910390f35b34801561049157600080fd5b506104ac60048036038101906104a79190611dd2565b610d2c565b6040516104b99190612158565b60405180910390f35b3480156104ce57600080fd5b506104d7610e47565b005b3480156104e557600080fd5b5061050060048036038101906104fb9190611dd2565b610ea9565b6040516105109493929190612195565b60405180910390f35b34801561052557600080fd5b5061052e610f8e565b60405161053b9190612114565b60405180910390f35b34801561055057600080fd5b5061055961101c565b6040516105669190612114565b60405180910390f35b34801561057b57600080fd5b5061059660048036038101906105919190611da9565b6110aa565b6040516105a39190612158565b60405180910390f35b3480156105b857600080fd5b506105c16110ca565b6040516105ce9190612294565b60405180910390f35b3480156105e357600080fd5b506105ec6110d0565b6040516105f99190612294565b60405180910390f35b34801561060e57600080fd5b506106176110d6565b6040516106249190612294565b60405180910390f35b34801561063957600080fd5b50610654600480360381019061064f9190611dd2565b6110e0565b005b34801561066257600080fd5b5061066b6113b6565b6040516106789190612294565b60405180910390f35b6106896113bc565b6040516106969190612158565b60405180910390f35b3480156106ab57600080fd5b506106b46115e0565b6040516106c19190612136565b60405180910390f35b3480156106d657600080fd5b506106df611638565b6040516106ec9190612294565b60405180910390f35b6001818154811061070557600080fd5b906000526020600020016000915054906101000a900473ffffffffffffffffffffffffffffffffffffffff1681565b6000600454905090565b6000600760003373ffffffffffffffffffffffffffffffffffffffff1673ffffffffffffffffffffffffffffffffffffffff16815260200190815260200160002060009054906101000a900460ff1661079657600080fd5b6004548311156107a557600080fd5b60006107b2338585611642565b90508091505092915050565b6107c6610937565b15610806576040517f08c379a00000000000000000000000000000000000000000000000000000000081526004016107fd90612274565b60405180910390fd5b3373ffffffffffffffffffffffffffffffffffffffff16600a600083815260200190815260200160002060010160009054906101000a900473ffffffffffffffffffffffffffffffffffffffff1673ffffffffffffffffffffffffffffffffffffffff161461087457600080fd5b61087d8161180a565b50565b60066020528060005260406000206000915054906101000a900460ff1681565b600b6020528160005260406000206020528060005260406000206000915091509054906101000a900460ff1681565b33600660003373ffffffffffffffffffffffffffffffffffffffff1673ffffffffffffffffffffffffffffffffffffffff16815260200190815260200160002060009054906101000a900460ff1661092657600080fd5b61092e611b29565b50565b60055481565b60008060009054906101000a900460ff16905090565b6002818154811061095d57600080fd5b906000526020600020016000915054906101000a900473ffffffffffffffffffffffffffffffffffffffff1681565b60606000806060600a600086815260200190815260200160002060000180546109b4906124e2565b80601f01602080910402602001604051908101604052809291908181526020018280546109e0906124e2565b8015610a2d5780601f10610a0257610100808354040283529160200191610a2d565b820191906000526020600020905b815481529060010190602001808311610a1057829003601f168201915b50505050509350600a6000868152602001908152602001600020600201549250600a600086815260200190815260200160002060010160009054906101000a900473ffffffffffffffffffffffffffffffffffffffff16915060006002811115610ac0577f4e487b7100000000000000000000000000000000000000000000000000000000600052602160045260246000fd5b600a600087815260200190815260200160002060030160009054906101000a900460ff166002811115610b1c577f4e487b7100000000000000000000000000000000000000000000000000000000600052602160045260246000fd5b1415610b5f576040518060400160405280600881526020017f45786563757465640000000000000000000000000000000000000000000000008152509050610d25565b60016002811115610b99577f4e487b7100000000000000000000000000000000000000000000000000000000600052602160045260246000fd5b600a600087815260200190815260200160002060030160009054906101000a900460ff166002811115610bf5577f4e487b7100000000000000000000000000000000000000000000000000000000600052602160045260246000fd5b1415610c38576040518060400160405280600781526020017f50656e64696e67000000000000000000000000000000000000000000000000008152509050610d24565b600280811115610c71577f4e487b7100000000000000000000000000000000000000000000000000000000600052602160045260246000fd5b600a600087815260200190815260200160002060030160009054906101000a900460ff166002811115610ccd577f4e487b7100000000000000000000000000000000000000000000000000000000600052602160045260246000fd5b1415610d10576040518060400160405280600881526020017f417070726f7665640000000000000000000000000000000000000000000000008152509050610d23565b6040518060200160405280600081525090505b5b5b9193509193565b600080600090506000915060005b600180549050811015610e4057600b6000858152602001908152602001600020600060018381548110610d96577f4e487b7100000000000000000000000000000000000000000000000000000000600052603260045260246000fd5b9060005260206000200160009054906101000a900473ffffffffffffffffffffffffffffffffffffffff1673ffffffffffffffffffffffffffffffffffffffff1673ffffffffffffffffffffffffffffffffffffffff16815260200190815260200160002060009054906101000a900460ff1615610e1e57600182610e1b91906123a9565b91505b600354821415610e2d57600192505b8080610e3890612514565b915050610d3a565b5050919050565b33600660003373ffffffffffffffffffffffffffffffffffffffff1673ffffffffffffffffffffffffffffffffffffffff16815260200190815260200160002060009054906101000a900460ff16610e9e57600080fd5b610ea6611bca565b50565b600a602052806000526040600020600091509050806000018054610ecc906124e2565b80601f0160208091040260200160405190810160405280929190818152602001828054610ef8906124e2565b8015610f455780601f10610f1a57610100808354040283529160200191610f45565b820191906000526020600020905b815481529060010190602001808311610f2857829003601f168201915b5050505050908060010160009054906101000a900473ffffffffffffffffffffffffffffffffffffffff16908060020154908060030160009054906101000a900460ff16905084565b6060600280548060200260200160405190810160405280929190818152602001828054801561101257602002820191906000526020600020905b8160009054906101000a900473ffffffffffffffffffffffffffffffffffffffff1673ffffffffffffffffffffffffffffffffffffffff1681526020019060010190808311610fc8575b5050505050905090565b606060018054806020026020016040519081016040528092919081815260200182805480156110a057602002820191906000526020600020905b8160009054906101000a900473ffffffffffffffffffffffffffffffffffffffff1673ffffffffffffffffffffffffffffffffffffffff1681526020019060010190808311611056575b5050505050905090565b60076020528060005260406000206000915054906101000a900460ff1681565b60045481565b60085481565b6000600354905090565b600660003373ffffffffffffffffffffffffffffffffffffffff1673ffffffffffffffffffffffffffffffffffffffff16815260200190815260200160002060009054906101000a900460ff1661113657600080fd5b600073ffffffffffffffffffffffffffffffffffffffff16600a600083815260200190815260200160002060010160009054906101000a900473ffffffffffffffffffffffffffffffffffffffff1673ffffffffffffffffffffffffffffffffffffffff1614156111a657600080fd5b60001515600b600083815260200190815260200160002060003373ffffffffffffffffffffffffffffffffffffffff1673ffffffffffffffffffffffffffffffffffffffff16815260200190815260200160002060009054906101000a900460ff1615151461121457600080fd5b6001600b600083815260200190815260200160002060003373ffffffffffffffffffffffffffffffffffffffff1673ffffffffffffffffffffffffffffffffffffffff16815260200190815260200160002060006101000a81548160ff02191690831515021790555060006040518060400160405280600581526020017f66616c736500000000000000000000000000000000000000000000000000000081525090506112c082610d2c565b15611363576002600a600084815260200190815260200160002060030160006101000a81548160ff02191690836002811115611325577f4e487b7100000000000000000000000000000000000000000000000000000000600052602160045260246000fd5b02179055506040518060400160405280600481526020017f747275650000000000000000000000000000000000000000000000000000000081525090505b813373ffffffffffffffffffffffffffffffffffffffff167fbbd347b0b26e5ecc8cd8676faf574878fdbc8fc0d744f3a8d42f72ce24eb2251836040516113aa9190612173565b60405180910390a35050565b60035481565b6000801515600760003373ffffffffffffffffffffffffffffffffffffffff1673ffffffffffffffffffffffffffffffffffffffff16815260200190815260200160002060009054906101000a900460ff1615151461141a57600080fd5b60055434101561142957600080fd5b6001600760003373ffffffffffffffffffffffffffffffffffffffff1673ffffffffffffffffffffffffffffffffffffffff16815260200190815260200160002060006101000a81548160ff0219169083151502179055506002339080600181540180825580915050600190039060005260206000200160009091909190916101000a81548173ffffffffffffffffffffffffffffffffffffffff021916908373ffffffffffffffffffffffffffffffffffffffff1602179055503373ffffffffffffffffffffffffffffffffffffffff167f990c442e6adb818b8fa7db3cf1023decd07f7b66e5306928c7ed527d974192bb60405160405180910390a2346004600082825461153991906123a9565b925050819055503373ffffffffffffffffffffffffffffffffffffffff167fe1fffcc4923d04b559f4d29a8bfc6cda04eb5b0d3c460751c2402c5c5cc9109c346040516115869190612294565b60405180910390a2600760003373ffffffffffffffffffffffffffffffffffffffff1673ffffffffffffffffffffffffffffffffffffffff16815260200190815260200160002060009054906101000a900460ff16905090565b6060600980548060200260200160405190810160405280929190818152602001828054801561162e57602002820191906000526020600020905b81548152602001906001019080831161161a575b5050505050905090565b6000600554905090565b6000600854905060405180608001604052808381526020018573ffffffffffffffffffffffffffffffffffffffff168152602001848152602001600160028111156116b6577f4e487b7100000000000000000000000000000000000000000000000000000000600052602160045260246000fd5b815250600a600083815260200190815260200160002060008201518160000190805190602001906116e8929190611c74565b5060208201518160010160006101000a81548173ffffffffffffffffffffffffffffffffffffffff021916908373ffffffffffffffffffffffffffffffffffffffff1602179055506040820151816002015560608201518160030160006101000a81548160ff0219169083600281111561178b577f4e487b7100000000000000000000000000000000000000000000000000000000600052602160045260246000fd5b021790555090505060098190806001815401808255809150506001900390600052602060002001600090919091909150556001600860008282546117cf91906123a9565b92505081905550807fc0ba8fe4b176c1714197d43b9cc6bcf797a4a7461c5fe8d0ef6e184ae7601e5160405160405180910390a29392505050565b600280811115611843577f4e487b7100000000000000000000000000000000000000000000000000000000600052602160045260246000fd5b600a600083815260200190815260200160002060030160009054906101000a900460ff16600281111561189f577f4e487b7100000000000000000000000000000000000000000000000000000000600052602160045260246000fd5b146118a957600080fd5b600454600a60008381526020019081526020016000206002015411156118ce57600080fd5b6118d781610d2c565b15611b26576000600a6000838152602001908152602001600020905060008160030160006101000a81548160ff02191690836002811115611941577f4e487b7100000000000000000000000000000000000000000000000000000000600052602160045260246000fd5b0217905550600a60008381526020019081526020016000206002015460045461196a91906123ff565b60048190555060008160010160009054906101000a900473ffffffffffffffffffffffffffffffffffffffff1673ffffffffffffffffffffffffffffffffffffffff16346040516119ba906120e4565b60006040518083038185875af1925050503d80600081146119f7576040519150601f19603f3d011682016040523d82523d6000602084013e6119fc565b606091505b505090508015611a3857827f33e13ecb54c3076d8e8bb8c2881800a4d972b792045ffae98fdf46df365fed7560405160405180910390a2611b23565b827f526441bb6c1aba3c9a4a6ca1d6545da9c2333c8c48343ef398eb858d72b7923660405160405180910390a260028260030160006101000a81548160ff02191690836002811115611ab3577f4e487b7100000000000000000000000000000000000000000000000000000000600052602160045260246000fd5b0217905550600a600084815260200190815260200160002060020154600454611adc91906123a9565b60048190555080611b22576040517f08c379a0000000000000000000000000000000000000000000000000000000008152600401611b1990612254565b60405180910390fd5b5b50505b50565b611b31610937565b611b70576040517f08c379a0000000000000000000000000000000000000000000000000000000008152600401611b6790612234565b60405180910390fd5b60008060006101000a81548160ff0219169083151502179055507f5db9ee0a495bf2e6ff9c91a7834c1ba4fdd244a5e8aa4e537bd38aeae4b073aa611bb3611c6c565b604051611bc091906120f9565b60405180910390a1565b611bd2610937565b15611c12576040517f08c379a0000000000000000000000000000000000000000000000000000000008152600401611c0990612274565b60405180910390fd5b60016000806101000a81548160ff0219169083151502179055507f62e78cea01bee320cd4e420270b5ea74000d11b0c9f74754ebdbfc544b05a258611c55611c6c565b604051611c6291906120f9565b60405180910390a1565b600033905090565b828054611c80906124e2565b90600052602060002090601f016020900481019282611ca25760008555611ce9565b82601f10611cbb57805160ff1916838001178555611ce9565b82800160010185558215611ce9579182015b82811115611ce8578251825591602001919060010190611ccd565b5b509050611cf69190611cfa565b5090565b5b80821115611d13576000816000905550600101611cfb565b5090565b6000611d2a611d25846122e0565b6122af565b905082815260208101848484011115611d4257600080fd5b611d4d8482856124a0565b509392505050565b600081359050611d648161263e565b92915050565b600082601f830112611d7b57600080fd5b8135611d8b848260208601611d17565b91505092915050565b600081359050611da381612655565b92915050565b600060208284031215611dbb57600080fd5b6000611dc984828501611d55565b91505092915050565b600060208284031215611de457600080fd5b6000611df284828501611d94565b91505092915050565b60008060408385031215611e0e57600080fd5b6000611e1c85828601611d94565b9250506020611e2d85828601611d55565b9150509250929050565b60008060408385031215611e4a57600080fd5b6000611e5885828601611d94565b925050602083013567ffffffffffffffff811115611e7557600080fd5b611e8185828601611d6a565b9150509250929050565b6000611e978383611ebb565b60208301905092915050565b6000611eaf83836120c6565b60208301905092915050565b611ec481612433565b82525050565b611ed381612433565b82525050565b6000611ee482612330565b611eee818561236b565b9350611ef983612310565b8060005b83811015611f2a578151611f118882611e8b565b9750611f1c83612351565b925050600181019050611efd565b5085935050505092915050565b6000611f428261233b565b611f4c818561237c565b9350611f5783612320565b8060005b83811015611f88578151611f6f8882611ea3565b9750611f7a8361235e565b925050600181019050611f5b565b5085935050505092915050565b611f9e81612445565b82525050565b611fad8161248e565b82525050565b6000611fbe82612346565b611fc88185612398565b9350611fd88185602086016124af565b611fe181612619565b840191505092915050565b6000611ff9601483612398565b91507f5061757361626c653a206e6f74207061757365640000000000000000000000006000830152602082019050919050565b6000612039601483612398565b91507f4661696c656420746f2073656e64206d6f6e65790000000000000000000000006000830152602082019050919050565b6000612079601083612398565b91507f5061757361626c653a20706175736564000000000000000000000000000000006000830152602082019050919050565b60006120b960008361238d565b9150600082019050919050565b6120cf81612484565b82525050565b6120de81612484565b82525050565b60006120ef826120ac565b9150819050919050565b600060208201905061210e6000830184611eca565b92915050565b6000602082019050818103600083015261212e8184611ed9565b905092915050565b600060208201905081810360008301526121508184611f37565b905092915050565b600060208201905061216d6000830184611f95565b92915050565b6000602082019050818103600083015261218d8184611fb3565b905092915050565b600060808201905081810360008301526121af8187611fb3565b90506121be6020830186611eca565b6121cb60408301856120d5565b6121d86060830184611fa4565b95945050505050565b600060808201905081810360008301526121fb8187611fb3565b905061220a60208301866120d5565b6122176040830185611eca565b81810360608301526122298184611fb3565b905095945050505050565b6000602082019050818103600083015261224d81611fec565b9050919050565b6000602082019050818103600083015261226d8161202c565b9050919050565b6000602082019050818103600083015261228d8161206c565b9050919050565b60006020820190506122a960008301846120d5565b92915050565b6000604051905081810181811067ffffffffffffffff821117156122d6576122d56125ea565b5b8060405250919050565b600067ffffffffffffffff8211156122fb576122fa6125ea565b5b601f19601f8301169050602081019050919050565b6000819050602082019050919050565b6000819050602082019050919050565b600081519050919050565b600081519050919050565b600081519050919050565b6000602082019050919050565b6000602082019050919050565b600082825260208201905092915050565b600082825260208201905092915050565b600081905092915050565b600082825260208201905092915050565b60006123b482612484565b91506123bf83612484565b9250827fffffffffffffffffffffffffffffffffffffffffffffffffffffffffffffffff038211156123f4576123f361255d565b5b828201905092915050565b600061240a82612484565b915061241583612484565b9250828210156124285761242761255d565b5b828203905092915050565b600061243e82612464565b9050919050565b60008115159050919050565b600081905061245f8261262a565b919050565b600073ffffffffffffffffffffffffffffffffffffffff82169050919050565b6000819050919050565b600061249982612451565b9050919050565b82818337600083830152505050565b60005b838110156124cd5780820151818401526020810190506124b2565b838111156124dc576000848401525b50505050565b600060028204905060018216806124fa57607f821691505b6020821081141561250e5761250d6125bb565b5b50919050565b600061251f82612484565b91507fffffffffffffffffffffffffffffffffffffffffffffffffffffffffffffffff8214156125525761255161255d565b5b600182019050919050565b7f4e487b7100000000000000000000000000000000000000000000000000000000600052601160045260246000fd5b7f4e487b7100000000000000000000000000000000000000000000000000000000600052602160045260246000fd5b7f4e487b7100000000000000000000000000000000000000000000000000000000600052602260045260246000fd5b7f4e487b7100000000000000000000000000000000000000000000000000000000600052604160045260246000fd5b6000601f19601f8301169050919050565b6003811061263b5761263a61258c565b5b50565b61264781612433565b811461265257600080fd5b50565b61265e81612484565b811461266957600080fd5b5056fea2646970667358221220c3555b62b120cb5e7f585683aa3ea80a7599fa773095f1674f1757551402b2be64736f6c63430008000033",
  "immutableReferences": {},
  "source": "// SPDX-License-Identifier: MIT\npragma solidity 0.8.0;\n\nimport \"@openzeppelin/contracts/security/Pausable.sol\";\n\n/// @title A smart contract for a South African Burial Stokvel\n/// @author Jurgen Schulte\n/// @notice The contract allows for multiple owners and members After members pay a contribution they are able to submit requests for payment which need to be approved by owners.\n/// @dev Deletion and non approval of request will be implemented in later version\ncontract BurialStokvelAccount is Pausable {\n    address[] public owners;\n    address[] public members;\n    uint256 public required;\n    uint256 public balance;\n    uint256 public contribution;\n\n    mapping(address => bool) public isOwner;\n    mapping(address => bool) public isMember;\n\n    uint256 public transactionCount;\n    uint256[] private transactionIDs;\n    mapping(uint256 => Transaction) public transactions;\n\n    mapping(uint256 => mapping(address => bool)) public confirmations;\n\n    enum State {\n        Executed,\n        Pending,\n        Approved\n    }\n\n    struct Transaction {\n        string name;\n        address destination;\n        uint256 value;\n        State state;\n    }\n\n    //Events\n    event Submission(uint256 indexed transactionId);\n    event Confirmation(\n        address indexed sender,\n        uint256 indexed transactionId,\n        string approved\n    );\n    event Execution(uint256 indexed transactionId);\n    event ExecutionFailure(uint256 indexed transactionId);\n    event LogEnrolled(address indexed accountAddress);\n    event Deposit(address indexed sender, uint256 value);\n\n    /// @dev Fallback function allows to deposit ether.\n    fallback() external payable {\n        if (msg.value > 0) {\n            emit Deposit(msg.sender, msg.value);\n            balance++;\n        }\n    }\n\n    /// @dev Receive function allows to deposit ether.\n    receive() external payable {\n        if (msg.value > 0) {\n            emit Deposit(msg.sender, msg.value);\n            balance++;\n        }\n    }\n\n    modifier validRequirement(uint256 _ownerCount, uint256 _required) {\n        if (_required > _ownerCount || _required == 0 || _ownerCount == 0)\n            revert();\n        _;\n    }\n\n    modifier onlyOwners(address _address) {\n        require(isOwner[msg.sender]);\n        _;\n    }\n\n    modifier onlyMembers(address _address) {\n        require(isMember[msg.sender]);\n        _;\n    }\n\n    function pause() public onlyOwners(msg.sender) {\n        _pause();\n    }\n\n    function unpause() public onlyOwners(msg.sender) {\n        _unpause();\n    }\n\n    /// @dev Contract constructor sets initial owners of the stokvel account and required number of confirmations.\n    /// @param _owners List of initial owners.\n    /// @param _required Number of required confirmations.\n    /// @param _contribution Required minimum contribution.\n    constructor(\n        address[] memory _owners,\n        uint256 _required,\n        uint256 _contribution\n    ) validRequirement(_owners.length, _required) {\n        require(_contribution > 0);\n        require(_owners.length >= _required);\n        for (uint256 i = 0; i < _owners.length; i++) {\n            isOwner[_owners[i]] = true;\n        }\n        owners = _owners;\n        required = _required;\n        contribution = _contribution;\n    }\n\n    function enroll() public payable returns (bool) {\n        require(isMember[msg.sender] == false);\n        require(msg.value >= contribution);\n        isMember[msg.sender] = true;\n        members.push(msg.sender);\n        emit LogEnrolled(msg.sender);\n        balance += msg.value;\n        emit Deposit(msg.sender, msg.value);\n        return isMember[msg.sender];\n    }\n\n    /// @dev Allows a member to submit a transaction request.\n    /// @param _value Amount requested.\n    function submitRequest(uint256 _value, string memory _name)\n        public\n        returns (uint256)\n    {\n        require(isMember[msg.sender]);\n        require(_value <= balance);\n        uint256 transactionId = addTransaction(msg.sender, _value, _name);\n        return transactionId;\n    }\n\n    /// @dev Adds a new transaction to the transaction mapping, if transaction does not exist yet.\n    /// @param _destination Transaction target address.\n    /// @param _value Transaction ether value.\n    /// @return transactionId Returns transaction ID.\n    function addTransaction(\n        address _destination,\n        uint256 _value,\n        string memory _name\n    ) internal returns (uint256 transactionId) {\n        transactionId = transactionCount;\n        transactions[transactionId] = Transaction({\n            name: _name,\n            destination: _destination,\n            value: _value,\n            state: State.Pending\n        });\n        transactionIDs.push(transactionId);\n        transactionCount += 1;\n        emit Submission(transactionId);\n    }\n\n    /// @dev Allows an owner to confirm a transaction.\n    /// @param _transactionId Transaction ID.\n    function confirmTransaction(uint256 _transactionId) public {\n        require(isOwner[msg.sender]);\n        require(transactions[_transactionId].destination != address(0));\n        require(confirmations[_transactionId][msg.sender] == false);\n\n        confirmations[_transactionId][msg.sender] = true;\n        string memory approved = \"false\";\n        if (isConfirmed(_transactionId)) {\n            transactions[_transactionId].state = State.Approved;\n            approved = \"true\";\n        }\n\n        emit Confirmation(msg.sender, _transactionId, approved);\n    }\n\n    /// @dev Returns the confirmation status of a transaction.\n    /// @param _transactionId Transaction ID.\n    /// @return confirmed Confirmation status.\n    function isConfirmed(uint256 _transactionId)\n        public\n        view\n        returns (bool confirmed)\n    {\n        uint256 count = 0;\n        confirmed = false;\n        for (uint256 i = 0; i < owners.length; i++) {\n            if (confirmations[_transactionId][owners[i]]) count += 1;\n            if (count == required) confirmed = true;\n        }\n        return confirmed;\n    }\n\n    function withdraw(uint256 _transactionId) public whenNotPaused {\n        require(transactions[_transactionId].destination == msg.sender);\n        executeTransaction(_transactionId);\n    }\n\n    /// @dev Transaction is executed if enough confirmations have been\n    /// received and the balance is sufficient.\n    /// @param _transactionId Transaction ID.\n    function executeTransaction(uint256 _transactionId) internal {\n        require(transactions[_transactionId].state == State.Approved);\n        // Check balance\n        require(transactions[_transactionId].value <= balance);\n        if (isConfirmed(_transactionId)) {\n            Transaction storage t = transactions[_transactionId]; // using the \"storage\" keyword makes \"t\" a pointer to storage\n            t.state = State.Executed;\n            balance = balance - transactions[_transactionId].value;\n            (bool success, ) = t.destination.call{value: msg.value}(\"\");\n            if (success) emit Execution(_transactionId);\n            else {\n                emit ExecutionFailure(_transactionId);\n                t.state = State.Approved;\n                balance = balance + transactions[_transactionId].value;\n                require(success, \"Failed to send money\");\n            }\n        }\n    }\n\n    function getAllTransactionIDs() public view returns (uint256[] memory) {\n        // Only three pending transactions allowed\n        return transactionIDs;\n    }\n\n    //\n    function fetchTransaction(uint256 _transactionId)\n        public\n        view\n        returns (\n            string memory name,\n            uint256 value,\n            address destination,\n            string memory state\n        )\n    {\n        name = transactions[_transactionId].name;\n        value = transactions[_transactionId].value;\n        destination = transactions[_transactionId].destination;\n        if (transactions[_transactionId].state == State.Executed) {\n            state = \"Executed\";\n        } else if (transactions[_transactionId].state == State.Pending) {\n            state = \"Pending\";\n        } else if (transactions[_transactionId].state == State.Approved) {\n            state = \"Approved\";\n        } else {\n            state = \"\";\n        }\n\n        return (name, value, destination, state);\n    }\n\n    function getOwners() public view returns (address[] memory) {\n        return owners;\n    }\n\n    function getMinimumContribution() public view returns (uint256) {\n        return contribution;\n    }\n\n    function getNumberofRequiredApprovals() public view returns (uint256) {\n        return required;\n    }\n\n    function getBalance() public view returns (uint256) {\n        return balance;\n    }\n\n    function getMembers() public view returns (address[] memory) {\n        return members;\n    }\n}\n",
  "sourcePath": "/Users/jurgen/Consensys/blockchain-developer-bootcamp-final-project/contracts/BurialStokvelAccount.sol",
  "compiler": {
    "name": "solc",
    "version": "0.8.0+commit.c7dfd78e.Emscripten.clang"
  },
  "schemaVersion": "3.4.3",
  "updatedAt": "2021-11-21T18:57:28.076Z",
  "devdoc": {
    "author": "Jurgen Schulte",
    "details": "Deletion and non approval of request will be implemented in later version",
    "kind": "dev",
    "methods": {
      "confirmTransaction(uint256)": {
        "details": "Allows an owner to confirm a transaction.",
        "params": {
          "_transactionId": "Transaction ID."
        }
      },
      "constructor": {
        "details": "Contract constructor sets initial owners of the stokvel account and required number of confirmations.",
        "params": {
          "_contribution": "Required minimum contribution.",
          "_owners": "List of initial owners.",
          "_required": "Number of required confirmations."
        }
      },
      "isConfirmed(uint256)": {
        "details": "Returns the confirmation status of a transaction.",
        "params": {
          "_transactionId": "Transaction ID."
        },
        "returns": {
          "confirmed": "Confirmation status."
        }
      },
      "paused()": {
        "details": "Returns true if the contract is paused, and false otherwise."
      },
      "submitRequest(uint256,string)": {
        "details": "Allows a member to submit a transaction request.",
        "params": {
          "_value": "Amount requested."
        }
      }
    },
    "title": "A smart contract for a South African Burial Stokvel",
    "version": 1
  },
  "userdoc": {
    "kind": "user",
    "methods": {},
    "notice": "The contract allows for multiple owners and members After members pay a contribution they are able to submit requests for payment which need to be approved by owners.",
    "version": 1
  }
}