{
  "contractName": "BurialStokvelAccount",
  "abi": [
    {
      "inputs": [
        {
          "internalType": "address[]",
          "name": "_owners",
          "type": "address[]"
        },
        {
          "internalType": "uint256",
          "name": "_required",
          "type": "uint256"
        },
        {
          "internalType": "uint256",
          "name": "_contribution",
          "type": "uint256"
        }
      ],
      "stateMutability": "nonpayable",
      "type": "constructor"
    },
    {
      "anonymous": false,
      "inputs": [
        {
          "indexed": true,
          "internalType": "address",
          "name": "sender",
          "type": "address"
        },
        {
          "indexed": true,
          "internalType": "uint256",
          "name": "transactionId",
          "type": "uint256"
        },
        {
          "indexed": false,
          "internalType": "string",
          "name": "approved",
          "type": "string"
        }
      ],
      "name": "Confirmation",
      "type": "event"
    },
    {
      "anonymous": false,
      "inputs": [
        {
          "indexed": true,
          "internalType": "address",
          "name": "sender",
          "type": "address"
        },
        {
          "indexed": false,
          "internalType": "uint256",
          "name": "value",
          "type": "uint256"
        }
      ],
      "name": "Deposit",
      "type": "event"
    },
    {
      "anonymous": false,
      "inputs": [
        {
          "indexed": true,
          "internalType": "uint256",
          "name": "transactionId",
          "type": "uint256"
        }
      ],
      "name": "Execution",
      "type": "event"
    },
    {
      "anonymous": false,
      "inputs": [
        {
          "indexed": true,
          "internalType": "uint256",
          "name": "transactionId",
          "type": "uint256"
        }
      ],
      "name": "ExecutionFailure",
      "type": "event"
    },
    {
      "anonymous": false,
      "inputs": [
        {
          "indexed": true,
          "internalType": "address",
          "name": "accountAddress",
          "type": "address"
        }
      ],
      "name": "LogEnrolled",
      "type": "event"
    },
    {
      "anonymous": false,
      "inputs": [
        {
          "indexed": false,
          "internalType": "address",
          "name": "account",
          "type": "address"
        }
      ],
      "name": "Paused",
      "type": "event"
    },
    {
      "anonymous": false,
      "inputs": [
        {
          "indexed": true,
          "internalType": "bytes32",
          "name": "role",
          "type": "bytes32"
        },
        {
          "indexed": true,
          "internalType": "bytes32",
          "name": "previousAdminRole",
          "type": "bytes32"
        },
        {
          "indexed": true,
          "internalType": "bytes32",
          "name": "newAdminRole",
          "type": "bytes32"
        }
      ],
      "name": "RoleAdminChanged",
      "type": "event"
    },
    {
      "anonymous": false,
      "inputs": [
        {
          "indexed": true,
          "internalType": "bytes32",
          "name": "role",
          "type": "bytes32"
        },
        {
          "indexed": true,
          "internalType": "address",
          "name": "account",
          "type": "address"
        },
        {
          "indexed": true,
          "internalType": "address",
          "name": "sender",
          "type": "address"
        }
      ],
      "name": "RoleGranted",
      "type": "event"
    },
    {
      "anonymous": false,
      "inputs": [
        {
          "indexed": true,
          "internalType": "bytes32",
          "name": "role",
          "type": "bytes32"
        },
        {
          "indexed": true,
          "internalType": "address",
          "name": "account",
          "type": "address"
        },
        {
          "indexed": true,
          "internalType": "address",
          "name": "sender",
          "type": "address"
        }
      ],
      "name": "RoleRevoked",
      "type": "event"
    },
    {
      "anonymous": false,
      "inputs": [
        {
          "indexed": true,
          "internalType": "uint256",
          "name": "transactionId",
          "type": "uint256"
        }
      ],
      "name": "Submission",
      "type": "event"
    },
    {
      "anonymous": false,
      "inputs": [
        {
          "indexed": false,
          "internalType": "address",
          "name": "account",
          "type": "address"
        }
      ],
      "name": "Unpaused",
      "type": "event"
    },
    {
      "stateMutability": "payable",
      "type": "fallback",
      "payable": true
    },
    {
      "inputs": [],
      "name": "DEFAULT_ADMIN_ROLE",
      "outputs": [
        {
          "internalType": "bytes32",
          "name": "",
          "type": "bytes32"
        }
      ],
      "stateMutability": "view",
      "type": "function",
      "constant": true
    },
    {
      "inputs": [],
      "name": "MEMBER_ROLE",
      "outputs": [
        {
          "internalType": "bytes32",
          "name": "",
          "type": "bytes32"
        }
      ],
      "stateMutability": "view",
      "type": "function",
      "constant": true
    },
    {
      "inputs": [],
      "name": "OWNER_ROLE",
      "outputs": [
        {
          "internalType": "bytes32",
          "name": "",
          "type": "bytes32"
        }
      ],
      "stateMutability": "view",
      "type": "function",
      "constant": true
    },
    {
      "inputs": [],
      "name": "balance",
      "outputs": [
        {
          "internalType": "uint256",
          "name": "",
          "type": "uint256"
        }
      ],
      "stateMutability": "view",
      "type": "function",
      "constant": true
    },
    {
      "inputs": [
        {
          "internalType": "uint256",
          "name": "",
          "type": "uint256"
        },
        {
          "internalType": "address",
          "name": "",
          "type": "address"
        }
      ],
      "name": "confirmations",
      "outputs": [
        {
          "internalType": "bool",
          "name": "",
          "type": "bool"
        }
      ],
      "stateMutability": "view",
      "type": "function",
      "constant": true
    },
    {
      "inputs": [],
      "name": "contribution",
      "outputs": [
        {
          "internalType": "uint256",
          "name": "",
          "type": "uint256"
        }
      ],
      "stateMutability": "view",
      "type": "function",
      "constant": true
    },
    {
      "inputs": [
        {
          "internalType": "bytes32",
          "name": "role",
          "type": "bytes32"
        }
      ],
      "name": "getRoleAdmin",
      "outputs": [
        {
          "internalType": "bytes32",
          "name": "",
          "type": "bytes32"
        }
      ],
      "stateMutability": "view",
      "type": "function",
      "constant": true
    },
    {
      "inputs": [
        {
          "internalType": "bytes32",
          "name": "role",
          "type": "bytes32"
        },
        {
          "internalType": "address",
          "name": "account",
          "type": "address"
        }
      ],
      "name": "grantRole",
      "outputs": [],
      "stateMutability": "nonpayable",
      "type": "function"
    },
    {
      "inputs": [
        {
          "internalType": "bytes32",
          "name": "role",
          "type": "bytes32"
        },
        {
          "internalType": "address",
          "name": "account",
          "type": "address"
        }
      ],
      "name": "hasRole",
      "outputs": [
        {
          "internalType": "bool",
          "name": "",
          "type": "bool"
        }
      ],
      "stateMutability": "view",
      "type": "function",
      "constant": true
    },
    {
      "inputs": [
        {
          "internalType": "uint256",
          "name": "",
          "type": "uint256"
        }
      ],
      "name": "members",
      "outputs": [
        {
          "internalType": "address",
          "name": "",
          "type": "address"
        }
      ],
      "stateMutability": "view",
      "type": "function",
      "constant": true
    },
    {
      "inputs": [
        {
          "internalType": "uint256",
          "name": "",
          "type": "uint256"
        }
      ],
      "name": "owners",
      "outputs": [
        {
          "internalType": "address",
          "name": "",
          "type": "address"
        }
      ],
      "stateMutability": "view",
      "type": "function",
      "constant": true
    },
    {
      "inputs": [],
      "name": "paused",
      "outputs": [
        {
          "internalType": "bool",
          "name": "",
          "type": "bool"
        }
      ],
      "stateMutability": "view",
      "type": "function",
      "constant": true
    },
    {
      "inputs": [
        {
          "internalType": "bytes32",
          "name": "role",
          "type": "bytes32"
        },
        {
          "internalType": "address",
          "name": "account",
          "type": "address"
        }
      ],
      "name": "renounceRole",
      "outputs": [],
      "stateMutability": "nonpayable",
      "type": "function"
    },
    {
      "inputs": [],
      "name": "required",
      "outputs": [
        {
          "internalType": "uint256",
          "name": "",
          "type": "uint256"
        }
      ],
      "stateMutability": "view",
      "type": "function",
      "constant": true
    },
    {
      "inputs": [
        {
          "internalType": "bytes32",
          "name": "role",
          "type": "bytes32"
        },
        {
          "internalType": "address",
          "name": "account",
          "type": "address"
        }
      ],
      "name": "revokeRole",
      "outputs": [],
      "stateMutability": "nonpayable",
      "type": "function"
    },
    {
      "inputs": [
        {
          "internalType": "bytes4",
          "name": "interfaceId",
          "type": "bytes4"
        }
      ],
      "name": "supportsInterface",
      "outputs": [
        {
          "internalType": "bool",
          "name": "",
          "type": "bool"
        }
      ],
      "stateMutability": "view",
      "type": "function",
      "constant": true
    },
    {
      "inputs": [],
      "name": "transactionCount",
      "outputs": [
        {
          "internalType": "uint256",
          "name": "",
          "type": "uint256"
        }
      ],
      "stateMutability": "view",
      "type": "function",
      "constant": true
    },
    {
      "inputs": [
        {
          "internalType": "uint256",
          "name": "",
          "type": "uint256"
        }
      ],
      "name": "transactions",
      "outputs": [
        {
          "internalType": "string",
          "name": "name",
          "type": "string"
        },
        {
          "internalType": "address",
          "name": "destination",
          "type": "address"
        },
        {
          "internalType": "uint256",
          "name": "value",
          "type": "uint256"
        },
        {
          "internalType": "enum BurialStokvelAccount.State",
          "name": "state",
          "type": "uint8"
        }
      ],
      "stateMutability": "view",
      "type": "function",
      "constant": true
    },
    {
      "stateMutability": "payable",
      "type": "receive",
      "payable": true
    },
    {
      "inputs": [],
      "name": "unpause",
      "outputs": [],
      "stateMutability": "nonpayable",
      "type": "function"
    },
    {
      "inputs": [],
      "name": "pause",
      "outputs": [],
      "stateMutability": "nonpayable",
      "type": "function"
    },
    {
      "inputs": [],
      "name": "enroll",
      "outputs": [],
      "stateMutability": "payable",
      "type": "function",
      "payable": true
    },
    {
      "inputs": [
        {
          "internalType": "uint256",
          "name": "_value",
          "type": "uint256"
        },
        {
          "internalType": "string",
          "name": "_name",
          "type": "string"
        }
      ],
      "name": "submitRequest",
      "outputs": [
        {
          "internalType": "uint256",
          "name": "",
          "type": "uint256"
        }
      ],
      "stateMutability": "nonpayable",
      "type": "function"
    },
    {
      "inputs": [
        {
          "internalType": "uint256",
          "name": "_transactionId",
          "type": "uint256"
        }
      ],
      "name": "confirmTransaction",
      "outputs": [],
      "stateMutability": "nonpayable",
      "type": "function"
    },
    {
      "inputs": [
        {
          "internalType": "uint256",
          "name": "_transactionId",
          "type": "uint256"
        }
      ],
      "name": "isConfirmed",
      "outputs": [
        {
          "internalType": "bool",
          "name": "confirmed",
          "type": "bool"
        }
      ],
      "stateMutability": "view",
      "type": "function",
      "constant": true
    },
    {
      "inputs": [
        {
          "internalType": "uint256",
          "name": "_transactionId",
          "type": "uint256"
        }
      ],
      "name": "withdraw",
      "outputs": [],
      "stateMutability": "nonpayable",
      "type": "function"
    },
    {
      "inputs": [],
      "name": "getAllTransactionIDs",
      "outputs": [
        {
          "internalType": "uint256[]",
          "name": "",
          "type": "uint256[]"
        }
      ],
      "stateMutability": "view",
      "type": "function",
      "constant": true
    },
    {
      "inputs": [
        {
          "internalType": "uint256",
          "name": "_transactionId",
          "type": "uint256"
        }
      ],
      "name": "fetchTransaction",
      "outputs": [
        {
          "internalType": "string",
          "name": "name",
          "type": "string"
        },
        {
          "internalType": "uint256",
          "name": "value",
          "type": "uint256"
        },
        {
          "internalType": "address",
          "name": "destination",
          "type": "address"
        },
        {
          "internalType": "string",
          "name": "state",
          "type": "string"
        }
      ],
      "stateMutability": "view",
      "type": "function",
      "constant": true
    },
    {
      "inputs": [],
      "name": "getOwners",
      "outputs": [
        {
          "internalType": "address[]",
          "name": "",
          "type": "address[]"
        }
      ],
      "stateMutability": "view",
      "type": "function",
      "constant": true
    },
    {
      "inputs": [],
      "name": "getMembers",
      "outputs": [
        {
          "internalType": "address[]",
          "name": "",
          "type": "address[]"
        }
      ],
      "stateMutability": "view",
      "type": "function",
      "constant": true
    },
    {
      "inputs": [],
      "name": "getMinimumContribution",
      "outputs": [
        {
          "internalType": "uint256",
          "name": "",
          "type": "uint256"
        }
      ],
      "stateMutability": "view",
      "type": "function",
      "constant": true
    },
    {
      "inputs": [],
      "name": "getNumberofRequiredApprovals",
      "outputs": [
        {
          "internalType": "uint256",
          "name": "",
          "type": "uint256"
        }
      ],
      "stateMutability": "view",
      "type": "function",
      "constant": true
    },
    {
      "inputs": [],
      "name": "getBalance",
      "outputs": [
        {
          "internalType": "uint256",
          "name": "",
          "type": "uint256"
        }
      ],
      "stateMutability": "view",
      "type": "function",
      "constant": true
    },
    {
      "inputs": [],
      "name": "cancelTransaction",
      "outputs": [],
      "stateMutability": "nonpayable",
      "type": "function"
    },
    {
      "inputs": [],
      "name": "removeMember",
      "outputs": [],
      "stateMutability": "nonpayable",
      "type": "function"
    }
  ],
  "bytecode": "0x60806040523480156200001157600080fd5b506040516200414b3803806200414b8339818101604052810190620000379190620004e3565b60008060006101000a81548160ff0219169083151502179055506000811162000097576040517f08c379a00000000000000000000000000000000000000000000000000000000081526004016200008e90620006f4565b60405180910390fd5b60008211620000dd576040517f08c379a0000000000000000000000000000000000000000000000000000000008152600401620000d490620006b0565b60405180910390fd5b818351101562000124576040517f08c379a00000000000000000000000000000000000000000000000000000000081526004016200011b90620006d2565b60405180910390fd5b60005b8351811015620001ba57620001a47fb19546dff01e856fb3f010c267a7b1c60363cf8a4664e21cc89c26224620214e85838151811062000190577f4e487b7100000000000000000000000000000000000000000000000000000000600052603260045260246000fd5b6020026020010151620001eb60201b60201c565b8080620001b190620007c8565b91505062000127565b508260029080519060200190620001d392919062000365565b508160048190555080600681905550505050620008a8565b620001fd82826200020160201b60201c565b5050565b620002138282620002f260201b60201c565b620002ee57600180600084815260200190815260200160002060000160008373ffffffffffffffffffffffffffffffffffffffff1673ffffffffffffffffffffffffffffffffffffffff16815260200190815260200160002060006101000a81548160ff021916908315150217905550620002936200035d60201b60201c565b73ffffffffffffffffffffffffffffffffffffffff168173ffffffffffffffffffffffffffffffffffffffff16837f2f8788117e7eff1d82e926ec794901d17c78024a50270940304540a733656f0d60405160405180910390a45b5050565b60006001600084815260200190815260200160002060000160008373ffffffffffffffffffffffffffffffffffffffff1673ffffffffffffffffffffffffffffffffffffffff16815260200190815260200160002060009054906101000a900460ff16905092915050565b600033905090565b828054828255906000526020600020908101928215620003e1579160200282015b82811115620003e05782518260006101000a81548173ffffffffffffffffffffffffffffffffffffffff021916908373ffffffffffffffffffffffffffffffffffffffff1602179055509160200191906001019062000386565b5b509050620003f09190620003f4565b5090565b5b808211156200040f576000816000905550600101620003f5565b5090565b60006200042a62000424846200074a565b62000716565b905080838252602082019050828560208602820111156200044a57600080fd5b60005b858110156200047e578162000463888262000488565b8452602084019350602083019250506001810190506200044d565b5050509392505050565b600081519050620004998162000874565b92915050565b600082601f830112620004b157600080fd5b8151620004c384826020860162000413565b91505092915050565b600081519050620004dd816200088e565b92915050565b600080600060608486031215620004f957600080fd5b600084015167ffffffffffffffff8111156200051457600080fd5b62000522868287016200049f565b93505060206200053586828701620004cc565b92505060406200054886828701620004cc565b9150509250925092565b60006200056160348362000779565b91507f4e756d626572206f6620726571756972656420617070726f766572732068617360008301527f20746f206265206c6172676572207468616e20300000000000000000000000006020830152604082019050919050565b6000620005c9604a8362000779565b91507f4e756d626572206f6620726571756972656420617070726f766572732068617360008301527f20746f206265206c6172676572206f7220657175616c20746f206e756d62657260208301527f206f66206f776e657273000000000000000000000000000000000000000000006040830152606082019050919050565b60006200065760248362000779565b91507f436f6e747269627574696f6e2068617320746f206265206c617267657220746860008301527f616e2030000000000000000000000000000000000000000000000000000000006020830152604082019050919050565b60006020820190508181036000830152620006cb8162000552565b9050919050565b60006020820190508181036000830152620006ed81620005ba565b9050919050565b600060208201905081810360008301526200070f8162000648565b9050919050565b6000604051905081810181811067ffffffffffffffff8211171562000740576200073f62000845565b5b8060405250919050565b600067ffffffffffffffff82111562000768576200076762000845565b5b602082029050602081019050919050565b600082825260208201905092915050565b600062000797826200079e565b9050919050565b600073ffffffffffffffffffffffffffffffffffffffff82169050919050565b6000819050919050565b6000620007d582620007be565b91507fffffffffffffffffffffffffffffffffffffffffffffffffffffffffffffffff8214156200080b576200080a62000816565b5b600182019050919050565b7f4e487b7100000000000000000000000000000000000000000000000000000000600052601160045260246000fd5b7f4e487b7100000000000000000000000000000000000000000000000000000000600052604160045260246000fd5b6200087f816200078a565b81146200088b57600080fd5b50565b6200089981620007be565b8114620008a557600080fd5b50565b61389380620008b86000396000f3fe6080604052600436106101fd5760003560e01c8063904c0b3a1161010d578063b77bf600116100a0578063dc8452cd1161006f578063dc8452cd14610825578063e58378bb14610850578063e65f2a7e1461087b578063eafa23bd14610885578063f84038b1146108b057610274565b8063b77bf6001461077d578063b8d437bd146107a8578063c01a8c84146107d3578063d547741f146107fc57610274565b8063a0e67e2b116100dc578063a0e67e2b146106d1578063a10f469e146106fc578063a217fddf14610727578063b69ef8a81461075257610274565b8063904c0b3a1461061257806391d14854146106295780639ace38c2146106665780639eab5253146106a657610274565b806336568abe116101905780635c975abb1161015f5780635c975abb146105165780635daf08ca14610541578063685067d51461057e578063784547a7146105be5780638456cb59146105fb57610274565b806336568abe146104945780633f4ba83a146104bd57806350520b1f146104d45780635c8cf750146104ff57610274565b8063248a9ca3116101cc578063248a9ca3146103c85780632e1a7d4d146104055780632f2ff15d1461042e5780633411c81c1461045757610274565b806301ffc9a7146102e6578063025e7c271461032357806312065fe01461036057806316366b261461038b57610274565b36610274576000341115610272573373ffffffffffffffffffffffffffffffffffffffff167fe1fffcc4923d04b559f4d29a8bfc6cda04eb5b0d3c460751c2402c5c5cc9109c346040516102519190613392565b60405180910390a26005600081548092919061026c906136d7565b91905055505b005b60003411156102e4573373ffffffffffffffffffffffffffffffffffffffff167fe1fffcc4923d04b559f4d29a8bfc6cda04eb5b0d3c460751c2402c5c5cc9109c346040516102c39190613392565b60405180910390a2600560008154809291906102de906136d7565b91905055505b005b3480156102f257600080fd5b5061030d60048036038101906103089190612856565b6108db565b60405161031a91906130fb565b60405180910390f35b34801561032f57600080fd5b5061034a6004803603810190610345919061287f565b610955565b604051610357919061309c565b60405180910390f35b34801561036c57600080fd5b50610375610994565b6040516103829190613392565b60405180910390f35b34801561039757600080fd5b506103b260048036038101906103ad91906128e4565b61099e565b6040516103bf9190613392565b60405180910390f35b3480156103d457600080fd5b506103ef60048036038101906103ea91906127f1565b610a31565b6040516103fc9190613116565b60405180910390f35b34801561041157600080fd5b5061042c6004803603810190610427919061287f565b610a51565b005b34801561043a57600080fd5b506104556004803603810190610450919061281a565b610b49565b005b34801561046357600080fd5b5061047e600480360381019061047991906128a8565b610b72565b60405161048b91906130fb565b60405180910390f35b3480156104a057600080fd5b506104bb60048036038101906104b6919061281a565b610ba1565b005b3480156104c957600080fd5b506104d2610c24565b005b3480156104e057600080fd5b506104e9610c61565b6040516104f69190613392565b60405180910390f35b34801561050b57600080fd5b50610514610c67565b005b34801561052257600080fd5b5061052b610c69565b60405161053891906130fb565b60405180910390f35b34801561054d57600080fd5b506105686004803603810190610563919061287f565b610c7f565b604051610575919061309c565b60405180910390f35b34801561058a57600080fd5b506105a560048036038101906105a0919061287f565b610cbe565b6040516105b5949392919061319f565b60405180910390f35b3480156105ca57600080fd5b506105e560048036038101906105e0919061287f565b61105e565b6040516105f291906130fb565b60405180910390f35b34801561060757600080fd5b50610610611179565b005b34801561061e57600080fd5b506106276111b6565b005b34801561063557600080fd5b50610650600480360381019061064b919061281a565b6111b8565b60405161065d91906130fb565b60405180910390f35b34801561067257600080fd5b5061068d6004803603810190610688919061287f565b611223565b60405161069d9493929190613153565b60405180910390f35b3480156106b257600080fd5b506106bb611308565b6040516106c891906130b7565b60405180910390f35b3480156106dd57600080fd5b506106e6611396565b6040516106f391906130b7565b60405180910390f35b34801561070857600080fd5b50610711611424565b60405161071e9190613116565b60405180910390f35b34801561073357600080fd5b5061073c611448565b6040516107499190613116565b60405180910390f35b34801561075e57600080fd5b5061076761144f565b6040516107749190613392565b60405180910390f35b34801561078957600080fd5b50610792611455565b60405161079f9190613392565b60405180910390f35b3480156107b457600080fd5b506107bd61145b565b6040516107ca9190613392565b60405180910390f35b3480156107df57600080fd5b506107fa60048036038101906107f5919061287f565b611465565b005b34801561080857600080fd5b50610823600480360381019061081e919061281a565b611784565b005b34801561083157600080fd5b5061083a6117ad565b6040516108479190613392565b60405180910390f35b34801561085c57600080fd5b506108656117b3565b6040516108729190613116565b60405180910390f35b6108836117d7565b005b34801561089157600080fd5b5061089a6119c1565b6040516108a791906130d9565b60405180910390f35b3480156108bc57600080fd5b506108c5611a19565b6040516108d29190613392565b60405180910390f35b60007f7965db0b000000000000000000000000000000000000000000000000000000007bffffffffffffffffffffffffffffffffffffffffffffffffffffffff1916827bffffffffffffffffffffffffffffffffffffffffffffffffffffffff1916148061094e575061094d82611a23565b5b9050919050565b6002818154811061096557600080fd5b906000526020600020016000915054906101000a900473ffffffffffffffffffffffffffffffffffffffff1681565b6000600554905090565b60007f829b824e2329e205435d941c9f13baf578548505283d29261236d8e6596d46366109d2816109cd611a8d565b611a95565b600554841115610a17576040517f08c379a0000000000000000000000000000000000000000000000000000000008152600401610a0e90613332565b60405180910390fd5b6000610a24338686611b32565b9050809250505092915050565b600060016000838152602001908152602001600020600101549050919050565b610a59610c69565b15610a99576040517f08c379a0000000000000000000000000000000000000000000000000000000008152600401610a9090613292565b60405180910390fd5b3373ffffffffffffffffffffffffffffffffffffffff166009600083815260200190815260200160002060010160009054906101000a900473ffffffffffffffffffffffffffffffffffffffff1673ffffffffffffffffffffffffffffffffffffffff1614610b3d576040517f08c379a0000000000000000000000000000000000000000000000000000000008152600401610b34906132f2565b60405180910390fd5b610b4681611cfa565b50565b610b5282610a31565b610b6381610b5e611a8d565b611a95565b610b6d8383612085565b505050565b600a6020528160005260406000206020528060005260406000206000915091509054906101000a900460ff1681565b610ba9611a8d565b73ffffffffffffffffffffffffffffffffffffffff168173ffffffffffffffffffffffffffffffffffffffff1614610c16576040517f08c379a0000000000000000000000000000000000000000000000000000000008152600401610c0d90613372565b60405180910390fd5b610c208282612165565b5050565b7fb19546dff01e856fb3f010c267a7b1c60363cf8a4664e21cc89c26224620214e610c5681610c51611a8d565b611a95565b610c5e612247565b50565b60065481565b565b60008060009054906101000a900460ff16905090565b60038181548110610c8f57600080fd5b906000526020600020016000915054906101000a900473ffffffffffffffffffffffffffffffffffffffff1681565b60606000806060600960008681526020019081526020016000206000018054610ce6906136a5565b80601f0160208091040260200160405190810160405280929190818152602001828054610d12906136a5565b8015610d5f5780601f10610d3457610100808354040283529160200191610d5f565b820191906000526020600020905b815481529060010190602001808311610d4257829003601f168201915b50505050509350600960008681526020019081526020016000206002015492506009600086815260200190815260200160002060010160009054906101000a900473ffffffffffffffffffffffffffffffffffffffff16915060006002811115610df2577f4e487b7100000000000000000000000000000000000000000000000000000000600052602160045260246000fd5b6009600087815260200190815260200160002060030160009054906101000a900460ff166002811115610e4e577f4e487b7100000000000000000000000000000000000000000000000000000000600052602160045260246000fd5b1415610e91576040518060400160405280600881526020017f45786563757465640000000000000000000000000000000000000000000000008152509050611057565b60016002811115610ecb577f4e487b7100000000000000000000000000000000000000000000000000000000600052602160045260246000fd5b6009600087815260200190815260200160002060030160009054906101000a900460ff166002811115610f27577f4e487b7100000000000000000000000000000000000000000000000000000000600052602160045260246000fd5b1415610f6a576040518060400160405280600781526020017f50656e64696e67000000000000000000000000000000000000000000000000008152509050611056565b600280811115610fa3577f4e487b7100000000000000000000000000000000000000000000000000000000600052602160045260246000fd5b6009600087815260200190815260200160002060030160009054906101000a900460ff166002811115610fff577f4e487b7100000000000000000000000000000000000000000000000000000000600052602160045260246000fd5b1415611042576040518060400160405280600881526020017f417070726f7665640000000000000000000000000000000000000000000000008152509050611055565b6040518060200160405280600081525090505b5b5b9193509193565b600080600090506000915060005b60028054905081101561117257600a60008581526020019081526020016000206000600283815481106110c8577f4e487b7100000000000000000000000000000000000000000000000000000000600052603260045260246000fd5b9060005260206000200160009054906101000a900473ffffffffffffffffffffffffffffffffffffffff1673ffffffffffffffffffffffffffffffffffffffff1673ffffffffffffffffffffffffffffffffffffffff16815260200190815260200160002060009054906101000a900460ff16156111505760018261114d91906134b2565b91505b60045482141561115f57600192505b808061116a906136d7565b91505061106c565b5050919050565b7fb19546dff01e856fb3f010c267a7b1c60363cf8a4664e21cc89c26224620214e6111ab816111a6611a8d565b611a95565b6111b36122e8565b50565b565b60006001600084815260200190815260200160002060000160008373ffffffffffffffffffffffffffffffffffffffff1673ffffffffffffffffffffffffffffffffffffffff16815260200190815260200160002060009054906101000a900460ff16905092915050565b6009602052806000526040600020600091509050806000018054611246906136a5565b80601f0160208091040260200160405190810160405280929190818152602001828054611272906136a5565b80156112bf5780601f10611294576101008083540402835291602001916112bf565b820191906000526020600020905b8154815290600101906020018083116112a257829003601f168201915b5050505050908060010160009054906101000a900473ffffffffffffffffffffffffffffffffffffffff16908060020154908060030160009054906101000a900460ff16905084565b6060600380548060200260200160405190810160405280929190818152602001828054801561138c57602002820191906000526020600020905b8160009054906101000a900473ffffffffffffffffffffffffffffffffffffffff1673ffffffffffffffffffffffffffffffffffffffff1681526020019060010190808311611342575b5050505050905090565b6060600280548060200260200160405190810160405280929190818152602001828054801561141a57602002820191906000526020600020905b8160009054906101000a900473ffffffffffffffffffffffffffffffffffffffff1673ffffffffffffffffffffffffffffffffffffffff16815260200190600101908083116113d0575b5050505050905090565b7f829b824e2329e205435d941c9f13baf578548505283d29261236d8e6596d463681565b6000801b81565b60055481565b60075481565b6000600454905090565b7fb19546dff01e856fb3f010c267a7b1c60363cf8a4664e21cc89c26224620214e61149781611492611a8d565b611a95565b600073ffffffffffffffffffffffffffffffffffffffff166009600084815260200190815260200160002060010160009054906101000a900473ffffffffffffffffffffffffffffffffffffffff1673ffffffffffffffffffffffffffffffffffffffff16141561153d576040517f08c379a0000000000000000000000000000000000000000000000000000000008152600401611534906132b2565b60405180910390fd5b60001515600a600084815260200190815260200160002060003373ffffffffffffffffffffffffffffffffffffffff1673ffffffffffffffffffffffffffffffffffffffff16815260200190815260200160002060009054906101000a900460ff161515146115e1576040517f08c379a00000000000000000000000000000000000000000000000000000000081526004016115d890613312565b60405180910390fd5b6001600a600084815260200190815260200160002060003373ffffffffffffffffffffffffffffffffffffffff1673ffffffffffffffffffffffffffffffffffffffff16815260200190815260200160002060006101000a81548160ff02191690831515021790555060006040518060400160405280600581526020017f66616c7365000000000000000000000000000000000000000000000000000000815250905061168d8361105e565b156117305760026009600085815260200190815260200160002060030160006101000a81548160ff021916908360028111156116f2577f4e487b7100000000000000000000000000000000000000000000000000000000600052602160045260246000fd5b02179055506040518060400160405280600481526020017f747275650000000000000000000000000000000000000000000000000000000081525090505b823373ffffffffffffffffffffffffffffffffffffffff167fbbd347b0b26e5ecc8cd8676faf574878fdbc8fc0d744f3a8d42f72ce24eb2251836040516117779190613131565b60405180910390a3505050565b61178d82610a31565b61179e81611799611a8d565b611a95565b6117a88383612165565b505050565b60045481565b7fb19546dff01e856fb3f010c267a7b1c60363cf8a4664e21cc89c26224620214e81565b336118027f829b824e2329e205435d941c9f13baf578548505283d29261236d8e6596d4636826111b8565b15611842576040517f08c379a000000000000000000000000000000000000000000000000000000000815260040161183990613232565b60405180910390fd5b600654341015611887576040517f08c379a000000000000000000000000000000000000000000000000000000000815260040161187e90613352565b60405180910390fd5b6118b17f829b824e2329e205435d941c9f13baf578548505283d29261236d8e6596d46363361238a565b6003339080600181540180825580915050600190039060005260206000200160009091909190916101000a81548173ffffffffffffffffffffffffffffffffffffffff021916908373ffffffffffffffffffffffffffffffffffffffff1602179055503373ffffffffffffffffffffffffffffffffffffffff167f990c442e6adb818b8fa7db3cf1023decd07f7b66e5306928c7ed527d974192bb60405160405180910390a2346005600082825461196991906134b2565b925050819055503373ffffffffffffffffffffffffffffffffffffffff167fe1fffcc4923d04b559f4d29a8bfc6cda04eb5b0d3c460751c2402c5c5cc9109c346040516119b69190613392565b60405180910390a250565b60606008805480602002602001604051908101604052809291908181526020018280548015611a0f57602002820191906000526020600020905b8154815260200190600101908083116119fb575b5050505050905090565b6000600654905090565b60007f01ffc9a7000000000000000000000000000000000000000000000000000000007bffffffffffffffffffffffffffffffffffffffffffffffffffffffff1916827bffffffffffffffffffffffffffffffffffffffffffffffffffffffff1916149050919050565b600033905090565b611a9f82826111b8565b611b2e57611ac48173ffffffffffffffffffffffffffffffffffffffff166014612398565b611ad28360001c6020612398565b604051602001611ae3929190613062565b6040516020818303038152906040526040517f08c379a0000000000000000000000000000000000000000000000000000000008152600401611b259190613131565b60405180910390fd5b5050565b6000600754905060405180608001604052808381526020018573ffffffffffffffffffffffffffffffffffffffff16815260200184815260200160016002811115611ba6577f4e487b7100000000000000000000000000000000000000000000000000000000600052602160045260246000fd5b815250600960008381526020019081526020016000206000820151816000019080519060200190611bd8929190612692565b5060208201518160010160006101000a81548173ffffffffffffffffffffffffffffffffffffffff021916908373ffffffffffffffffffffffffffffffffffffffff1602179055506040820151816002015560608201518160030160006101000a81548160ff02191690836002811115611c7b577f4e487b7100000000000000000000000000000000000000000000000000000000600052602160045260246000fd5b02179055509050506008819080600181540180825580915050600190039060005260206000200160009091909190915055600160076000828254611cbf91906134b2565b92505081905550807fc0ba8fe4b176c1714197d43b9cc6bcf797a4a7461c5fe8d0ef6e184ae7601e5160405160405180910390a29392505050565b600280811115611d33577f4e487b7100000000000000000000000000000000000000000000000000000000600052602160045260246000fd5b6009600083815260200190815260200160002060030160009054906101000a900460ff166002811115611d8f577f4e487b7100000000000000000000000000000000000000000000000000000000600052602160045260246000fd5b14611dcf576040517f08c379a0000000000000000000000000000000000000000000000000000000008152600401611dc6906132d2565b60405180910390fd5b60055460096000838152602001908152602001600020600201541115611e2a576040517f08c379a0000000000000000000000000000000000000000000000000000000008152600401611e2190613272565b60405180910390fd5b611e338161105e565b1561208257600060096000838152602001908152602001600020905060008160030160006101000a81548160ff02191690836002811115611e9d577f4e487b7100000000000000000000000000000000000000000000000000000000600052602160045260246000fd5b02179055506009600083815260200190815260200160002060020154600554611ec69190613562565b60058190555060008160010160009054906101000a900473ffffffffffffffffffffffffffffffffffffffff1673ffffffffffffffffffffffffffffffffffffffff1634604051611f169061304d565b60006040518083038185875af1925050503d8060008114611f53576040519150601f19603f3d011682016040523d82523d6000602084013e611f58565b606091505b505090508015611f9457827f33e13ecb54c3076d8e8bb8c2881800a4d972b792045ffae98fdf46df365fed7560405160405180910390a261207f565b827f526441bb6c1aba3c9a4a6ca1d6545da9c2333c8c48343ef398eb858d72b7923660405160405180910390a260028260030160006101000a81548160ff0219169083600281111561200f577f4e487b7100000000000000000000000000000000000000000000000000000000600052602160045260246000fd5b0217905550600960008481526020019081526020016000206002015460055461203891906134b2565b6005819055508061207e576040517f08c379a000000000000000000000000000000000000000000000000000000000815260040161207590613252565b60405180910390fd5b5b50505b50565b61208f82826111b8565b61216157600180600084815260200190815260200160002060000160008373ffffffffffffffffffffffffffffffffffffffff1673ffffffffffffffffffffffffffffffffffffffff16815260200190815260200160002060006101000a81548160ff021916908315150217905550612106611a8d565b73ffffffffffffffffffffffffffffffffffffffff168173ffffffffffffffffffffffffffffffffffffffff16837f2f8788117e7eff1d82e926ec794901d17c78024a50270940304540a733656f0d60405160405180910390a45b5050565b61216f82826111b8565b156122435760006001600084815260200190815260200160002060000160008373ffffffffffffffffffffffffffffffffffffffff1673ffffffffffffffffffffffffffffffffffffffff16815260200190815260200160002060006101000a81548160ff0219169083151502179055506121e8611a8d565b73ffffffffffffffffffffffffffffffffffffffff168173ffffffffffffffffffffffffffffffffffffffff16837ff6391f5c32d9c69d2a47ea670b442974b53935d1edc7fd64eb21e047a839171b60405160405180910390a45b5050565b61224f610c69565b61228e576040517f08c379a000000000000000000000000000000000000000000000000000000000815260040161228590613212565b60405180910390fd5b60008060006101000a81548160ff0219169083151502179055507f5db9ee0a495bf2e6ff9c91a7834c1ba4fdd244a5e8aa4e537bd38aeae4b073aa6122d1611a8d565b6040516122de919061309c565b60405180910390a1565b6122f0610c69565b15612330576040517f08c379a000000000000000000000000000000000000000000000000000000000815260040161232790613292565b60405180910390fd5b60016000806101000a81548160ff0219169083151502179055507f62e78cea01bee320cd4e420270b5ea74000d11b0c9f74754ebdbfc544b05a258612373611a8d565b604051612380919061309c565b60405180910390a1565b6123948282612085565b5050565b6060600060028360026123ab9190613508565b6123b591906134b2565b67ffffffffffffffff8111156123f4577f4e487b7100000000000000000000000000000000000000000000000000000000600052604160045260246000fd5b6040519080825280601f01601f1916602001820160405280156124265781602001600182028036833780820191505090505b5090507f300000000000000000000000000000000000000000000000000000000000000081600081518110612484577f4e487b7100000000000000000000000000000000000000000000000000000000600052603260045260246000fd5b60200101907effffffffffffffffffffffffffffffffffffffffffffffffffffffffffffff1916908160001a9053507f78000000000000000000000000000000000000000000000000000000000000008160018151811061250e577f4e487b7100000000000000000000000000000000000000000000000000000000600052603260045260246000fd5b60200101907effffffffffffffffffffffffffffffffffffffffffffffffffffffffffffff1916908160001a9053506000600184600261254e9190613508565b61255891906134b2565b90505b6001811115612644577f3031323334353637383961626364656600000000000000000000000000000000600f8616601081106125c0577f4e487b7100000000000000000000000000000000000000000000000000000000600052603260045260246000fd5b1a60f81b8282815181106125fd577f4e487b7100000000000000000000000000000000000000000000000000000000600052603260045260246000fd5b60200101907effffffffffffffffffffffffffffffffffffffffffffffffffffffffffffff1916908160001a905350600485901c94508061263d9061367b565b905061255b565b5060008414612688576040517f08c379a000000000000000000000000000000000000000000000000000000000815260040161267f906131f2565b60405180910390fd5b8091505092915050565b82805461269e906136a5565b90600052602060002090601f0160209004810192826126c05760008555612707565b82601f106126d957805160ff1916838001178555612707565b82800160010185558215612707579182015b828111156127065782518255916020019190600101906126eb565b5b5090506127149190612718565b5090565b5b80821115612731576000816000905550600101612719565b5090565b6000612748612743846133de565b6133ad565b90508281526020810184848401111561276057600080fd5b61276b848285613639565b509392505050565b60008135905061278281613801565b92915050565b60008135905061279781613818565b92915050565b6000813590506127ac8161382f565b92915050565b600082601f8301126127c357600080fd5b81356127d3848260208601612735565b91505092915050565b6000813590506127eb81613846565b92915050565b60006020828403121561280357600080fd5b600061281184828501612788565b91505092915050565b6000806040838503121561282d57600080fd5b600061283b85828601612788565b925050602061284c85828601612773565b9150509250929050565b60006020828403121561286857600080fd5b60006128768482850161279d565b91505092915050565b60006020828403121561289157600080fd5b600061289f848285016127dc565b91505092915050565b600080604083850312156128bb57600080fd5b60006128c9858286016127dc565b92505060206128da85828601612773565b9150509250929050565b600080604083850312156128f757600080fd5b6000612905858286016127dc565b925050602083013567ffffffffffffffff81111561292257600080fd5b61292e858286016127b2565b9150509250929050565b60006129448383612968565b60208301905092915050565b600061295c838361302f565b60208301905092915050565b61297181613596565b82525050565b61298081613596565b82525050565b60006129918261342e565b61299b8185613469565b93506129a68361340e565b8060005b838110156129d75781516129be8882612938565b97506129c98361344f565b9250506001810190506129aa565b5085935050505092915050565b60006129ef82613439565b6129f9818561347a565b9350612a048361341e565b8060005b83811015612a35578151612a1c8882612950565b9750612a278361345c565b925050600181019050612a08565b5085935050505092915050565b612a4b816135a8565b82525050565b612a5a816135b4565b82525050565b612a6981613627565b82525050565b6000612a7a82613444565b612a848185613496565b9350612a94818560208601613648565b612a9d816137dc565b840191505092915050565b6000612ab382613444565b612abd81856134a7565b9350612acd818560208601613648565b80840191505092915050565b6000612ae6602083613496565b91507f537472696e67733a20686578206c656e67746820696e73756666696369656e746000830152602082019050919050565b6000612b26601483613496565b91507f5061757361626c653a206e6f74207061757365640000000000000000000000006000830152602082019050919050565b6000612b66601d83613496565b91507f4170706c6963616e7420697320616c72656164792061206d656d6265720000006000830152602082019050919050565b6000612ba6601483613496565b91507f4661696c656420746f2073656e64206d6f6e65790000000000000000000000006000830152602082019050919050565b6000612be6603a83613496565b91507f42616c616e6365206e6565647320746f20626520657175616c206f722067726560008301527f61746572207468616e2072657175657374656420616d6f756e740000000000006020830152604082019050919050565b6000612c4c601083613496565b91507f5061757361626c653a20706175736564000000000000000000000000000000006000830152602082019050919050565b6000612c8c601e83613496565b91507f446573696e6174696f6e20616464726573732063616e6e6f74206265203000006000830152602082019050919050565b6000612ccc602983613496565b91507f5472616e73616374696f6e206e6565647320746f20626520696e20417070726f60008301527f76656420737461746500000000000000000000000000000000000000000000006020830152604082019050919050565b6000612d32605083613496565b91507f526571756573746572206f66207769746864726177616c206e6565647320746f60008301527f206265207468652073616d652061732074686520696e69746961746f72206f6660208301527f20696e697469616c2072657175657374000000000000000000000000000000006040830152606082019050919050565b6000612dbe60008361348b565b9150600082019050919050565b6000612dd86017836134a7565b91507f416363657373436f6e74726f6c3a206163636f756e74200000000000000000006000830152601782019050919050565b6000612e18605283613496565b91507f53656e64657220616464726573732068617320746f20626520657175616c207460008301527f6f2061646472657373206f66206164726573732074686174207375626d69747460208301527f656420696e697469616c207265717565737400000000000000000000000000006040830152606082019050919050565b6000612ea4604283613496565b91507f416d6f756e74207265717565737465642068617320746f20626520736d616c6c60008301527f6572206f7220657175616c20746f2062616c616e636520696e20636f6e74726160208301527f63740000000000000000000000000000000000000000000000000000000000006040830152606082019050919050565b6000612f30603d83613496565b91507f416d6f756e742073656e742068617320746f206265206c61726765722074686160008301527f6e206d696e696d756d20636f6e747269627574696f6e20616d6f756e740000006020830152604082019050919050565b6000612f966011836134a7565b91507f206973206d697373696e6720726f6c65200000000000000000000000000000006000830152601182019050919050565b6000612fd6602f83613496565b91507f416363657373436f6e74726f6c3a2063616e206f6e6c792072656e6f756e636560008301527f20726f6c657320666f722073656c6600000000000000000000000000000000006020830152604082019050919050565b6130388161361d565b82525050565b6130478161361d565b82525050565b600061305882612db1565b9150819050919050565b600061306d82612dcb565b91506130798285612aa8565b915061308482612f89565b91506130908284612aa8565b91508190509392505050565b60006020820190506130b16000830184612977565b92915050565b600060208201905081810360008301526130d18184612986565b905092915050565b600060208201905081810360008301526130f381846129e4565b905092915050565b60006020820190506131106000830184612a42565b92915050565b600060208201905061312b6000830184612a51565b92915050565b6000602082019050818103600083015261314b8184612a6f565b905092915050565b6000608082019050818103600083015261316d8187612a6f565b905061317c6020830186612977565b613189604083018561303e565b6131966060830184612a60565b95945050505050565b600060808201905081810360008301526131b98187612a6f565b90506131c8602083018661303e565b6131d56040830185612977565b81810360608301526131e78184612a6f565b905095945050505050565b6000602082019050818103600083015261320b81612ad9565b9050919050565b6000602082019050818103600083015261322b81612b19565b9050919050565b6000602082019050818103600083015261324b81612b59565b9050919050565b6000602082019050818103600083015261326b81612b99565b9050919050565b6000602082019050818103600083015261328b81612bd9565b9050919050565b600060208201905081810360008301526132ab81612c3f565b9050919050565b600060208201905081810360008301526132cb81612c7f565b9050919050565b600060208201905081810360008301526132eb81612cbf565b9050919050565b6000602082019050818103600083015261330b81612d25565b9050919050565b6000602082019050818103600083015261332b81612e0b565b9050919050565b6000602082019050818103600083015261334b81612e97565b9050919050565b6000602082019050818103600083015261336b81612f23565b9050919050565b6000602082019050818103600083015261338b81612fc9565b9050919050565b60006020820190506133a7600083018461303e565b92915050565b6000604051905081810181811067ffffffffffffffff821117156133d4576133d36137ad565b5b8060405250919050565b600067ffffffffffffffff8211156133f9576133f86137ad565b5b601f19601f8301169050602081019050919050565b6000819050602082019050919050565b6000819050602082019050919050565b600081519050919050565b600081519050919050565b600081519050919050565b6000602082019050919050565b6000602082019050919050565b600082825260208201905092915050565b600082825260208201905092915050565b600081905092915050565b600082825260208201905092915050565b600081905092915050565b60006134bd8261361d565b91506134c88361361d565b9250827fffffffffffffffffffffffffffffffffffffffffffffffffffffffffffffffff038211156134fd576134fc613720565b5b828201905092915050565b60006135138261361d565b915061351e8361361d565b9250817fffffffffffffffffffffffffffffffffffffffffffffffffffffffffffffffff048311821515161561355757613556613720565b5b828202905092915050565b600061356d8261361d565b91506135788361361d565b92508282101561358b5761358a613720565b5b828203905092915050565b60006135a1826135fd565b9050919050565b60008115159050919050565b6000819050919050565b60007fffffffff0000000000000000000000000000000000000000000000000000000082169050919050565b60008190506135f8826137ed565b919050565b600073ffffffffffffffffffffffffffffffffffffffff82169050919050565b6000819050919050565b6000613632826135ea565b9050919050565b82818337600083830152505050565b60005b8381101561366657808201518184015260208101905061364b565b83811115613675576000848401525b50505050565b60006136868261361d565b9150600082141561369a57613699613720565b5b600182039050919050565b600060028204905060018216806136bd57607f821691505b602082108114156136d1576136d061377e565b5b50919050565b60006136e28261361d565b91507fffffffffffffffffffffffffffffffffffffffffffffffffffffffffffffffff82141561371557613714613720565b5b600182019050919050565b7f4e487b7100000000000000000000000000000000000000000000000000000000600052601160045260246000fd5b7f4e487b7100000000000000000000000000000000000000000000000000000000600052602160045260246000fd5b7f4e487b7100000000000000000000000000000000000000000000000000000000600052602260045260246000fd5b7f4e487b7100000000000000000000000000000000000000000000000000000000600052604160045260246000fd5b6000601f19601f8301169050919050565b600381106137fe576137fd61374f565b5b50565b61380a81613596565b811461381557600080fd5b50565b613821816135b4565b811461382c57600080fd5b50565b613838816135be565b811461384357600080fd5b50565b61384f8161361d565b811461385a57600080fd5b5056fea26469706673582212202b821c3778d3b4e13ac3db80fd551a0b56746726411ca7e85a874e2b94d5600564736f6c63430008000033",
  "immutableReferences": {},
  "source": "// SPDX-License-Identifier: MIT\npragma solidity 0.8.0;\n\nimport \"@openzeppelin/contracts/security/Pausable.sol\";\nimport \"@openzeppelin/contracts/access/AccessControl.sol\";\n\n/// @title A smart contract for a South African Burial Stokvel\n/// @author Jurgen Schulte\n/// @notice The contract allows for multiple owners and members After members pay a contribution they are able to submit requests for payment which need to be approved by owners.\n/// @dev Deletion and non approval of request will be implemented in later version\ncontract BurialStokvelAccount is Pausable, AccessControl {\n    address[] public owners;\n    address[] public members;\n    bytes32 public constant OWNER_ROLE = keccak256(\"OWNER_ROLE\");\n    bytes32 public constant MEMBER_ROLE = keccak256(\"MEMBER_ROLE\");\n\n    uint256 public required;\n    uint256 public balance;\n    uint256 public contribution;\n\n    // Used to assign transactionID's by incrementing the value\n    uint256 public transactionCount;\n    uint256[] private transactionIDs;\n\n    mapping(uint256 => Transaction) public transactions;\n    mapping(uint256 => mapping(address => bool)) public confirmations;\n\n    enum State {\n        Executed,\n        Pending,\n        Approved\n    }\n\n    struct Transaction {\n        string name;\n        address destination;\n        uint256 value;\n        State state;\n    }\n\n    /// @notice Emitted when a request is submitted\n    /// @param transactionId Transaction ID\n    event Submission(uint256 indexed transactionId);\n\n    /// @notice Emitted when a submitted request is confirmed\n    /// @param sender Sender address\n    /// @param transactionId Transaction id\n    /// @param approved A boolean indication if the confirmed transaction is approved\n    event Confirmation(\n        address indexed sender,\n        uint256 indexed transactionId,\n        string approved\n    );\n\n    /// @notice Emitted when a transfer of funds is executed\n    /// @param transactionId Transaction ID\n    event Execution(uint256 indexed transactionId);\n\n    /// @notice Emitted when a transfer of funds fails\n    /// @param transactionId Transaction ID\n    event ExecutionFailure(uint256 indexed transactionId);\n\n    /// @notice Emitted when a address is enrolled as a member\n    /// @param accountAddress Account of member\n    event LogEnrolled(address indexed accountAddress);\n\n    /// @notice Emitted when a member deposits his contribution\n    /// @param sender Sender address\n    /// @param value Value of contribution\n    event Deposit(address indexed sender, uint256 value);\n\n    /// @notice Fallback function\n    /// @dev Fallback function allows to deposit ether.\n    fallback() external payable {\n        if (msg.value > 0) {\n            emit Deposit(msg.sender, msg.value);\n            balance++;\n        }\n    }\n\n    /// @notice Receive function\n    /// @dev Receive function allows to deposit ether.\n    receive() external payable {\n        if (msg.value > 0) {\n            emit Deposit(msg.sender, msg.value);\n            balance++;\n        }\n    }\n\n    modifier notMember(address _address) {\n        require(\n            !hasRole(MEMBER_ROLE, _address),\n            \"Applicant is already a member\"\n        );\n        _;\n    }\n\n    /// @notice Unpause the contract by owners only.\n    /// @dev This function controls the unpause/pause modifier which is used to prevent withdrawals in case an attack on the contract.\n    function unpause() public onlyRole(OWNER_ROLE) {\n        _unpause();\n    }\n\n    /// @notice Pause the contract by owners only.\n    /// @dev This function controls the unpause/pause modifier which is used to prevent withdrawals in case an attack on the contract.\n    function pause() public onlyRole(OWNER_ROLE) {\n        _pause();\n    }\n\n    /// @notice Contract constructor sets initial owners of the stokvel\n    // account and required number of confirmations.\n    /// @dev Contract constructor sets initial owners of the stokvel account\n    /// and required number of confirmations.\n    /// @param _owners List of initial owners.\n    /// @param _required Number of required confirmations.\n    /// @param _contribution Required minimum contribution.\n    constructor(\n        address[] memory _owners,\n        uint256 _required,\n        uint256 _contribution\n    ) {\n        require(_contribution > 0, \"Contribution has to be larger than 0\");\n        require(\n            _required > 0,\n            \"Number of required approvers has to be larger than 0\"\n        );\n        require(\n            _owners.length >= _required,\n            \"Number of required approvers has to be larger or equal to number of owners\"\n        );\n        for (uint256 i = 0; i < _owners.length; i++) {\n            _setupRole(OWNER_ROLE, _owners[i]);\n        }\n        owners = _owners;\n        required = _required;\n        contribution = _contribution;\n    }\n\n    /// @notice Enrolls the address as a member\n    /// @dev Checks that the address is not already a member\n    function enroll() public payable notMember(msg.sender) {\n        require(\n            msg.value >= contribution,\n            \"Amount sent has to be larger than minimum contribution amount\"\n        );\n        _setupRole(MEMBER_ROLE, msg.sender);\n        members.push(msg.sender);\n        emit LogEnrolled(msg.sender);\n        balance += msg.value;\n        emit Deposit(msg.sender, msg.value);\n    }\n\n    /// @notice Allows member to submit a payment request\n    /// @dev The value of the contribution is checked aaginst the minimum contribution\n    /// stipulated during contract creation\n    /// @param _value Value of contribution in Wei\n    /// @param _name Name of request\n    function submitRequest(uint256 _value, string memory _name)\n        public\n        onlyRole(MEMBER_ROLE)\n        returns (uint256)\n    {\n        require(\n            _value <= balance,\n            \"Amount requested has to be smaller or equal to balance in contract\"\n        );\n        uint256 transactionId = addTransaction(msg.sender, _value, _name);\n        return transactionId;\n    }\n\n    /// @dev Adds a new transaction to the transaction mapping, if transaction does not exist yet.\n    /// @param _destination Transaction target address.\n    /// @param _value Transaction wei value.\n    /// @param _name Name of submitted request.\n    /// @return transactionId Returns transaction ID.\n    function addTransaction(\n        address _destination,\n        uint256 _value,\n        string memory _name\n    ) internal returns (uint256 transactionId) {\n        transactionId = transactionCount;\n        transactions[transactionId] = Transaction({\n            name: _name,\n            destination: _destination,\n            value: _value,\n            state: State.Pending\n        });\n        transactionIDs.push(transactionId);\n        transactionCount += 1;\n        emit Submission(transactionId);\n    }\n\n    /// @dev Allows an owner to confirm a transaction.\n    /// @param _transactionId Transaction ID.\n    function confirmTransaction(uint256 _transactionId)\n        public\n        onlyRole(OWNER_ROLE)\n    {\n        //require(isOwner[msg.sender]);\n        require(\n            transactions[_transactionId].destination != address(0),\n            \"Desination address cannot be 0\"\n        );\n        require(\n            confirmations[_transactionId][msg.sender] == false,\n            \"Sender address has to be equal to address of adress that submitted initial request\"\n        );\n        confirmations[_transactionId][msg.sender] = true;\n        string memory approved = \"false\";\n        if (isConfirmed(_transactionId)) {\n            transactions[_transactionId].state = State.Approved;\n            approved = \"true\";\n        }\n\n        emit Confirmation(msg.sender, _transactionId, approved);\n    }\n\n    /// @notice Returns the confirmation status of a transaction.\n    /// @param _transactionId Transaction ID.\n    /// @return confirmed Confirmation status.\n    function isConfirmed(uint256 _transactionId)\n        public\n        view\n        returns (bool confirmed)\n    {\n        uint256 count = 0;\n        confirmed = false;\n        for (uint256 i = 0; i < owners.length; i++) {\n            if (confirmations[_transactionId][owners[i]]) count += 1;\n            if (count == required) confirmed = true;\n        }\n        return confirmed;\n    }\n\n    /// @notice Withdraws the reqiested amount by the member.\n    /// @dev The sender address is checked to ensure it matches that of the initial requestor\n    /// @param _transactionId Transaction ID.\n    function withdraw(uint256 _transactionId) public whenNotPaused {\n        require(\n            transactions[_transactionId].destination == msg.sender,\n            \"Requester of withdrawal needs to be the same as the initiator of initial request\"\n        );\n        executeTransaction(_transactionId);\n    }\n\n    /// @notice Executes the submitted request.\n    /// @dev Transaction is executed if enough confirmations have been\n    /// received and the balance is sufficient.\n    /// @param _transactionId Transaction ID.\n    function executeTransaction(uint256 _transactionId) internal {\n        require(\n            transactions[_transactionId].state == State.Approved,\n            \"Transaction needs to be in Approved state\"\n        );\n        // Check balance\n        require(\n            transactions[_transactionId].value <= balance,\n            \"Balance needs to be equal or greater than requested amount\"\n        );\n        if (isConfirmed(_transactionId)) {\n            Transaction storage t = transactions[_transactionId]; // using the \"storage\" keyword makes \"t\" a pointer to storage\n            t.state = State.Executed;\n            balance = balance - transactions[_transactionId].value;\n            (bool success, ) = t.destination.call{value: msg.value}(\"\");\n            if (success) emit Execution(_transactionId);\n            else {\n                emit ExecutionFailure(_transactionId);\n                t.state = State.Approved;\n                balance = balance + transactions[_transactionId].value;\n                require(success, \"Failed to send money\");\n            }\n        }\n    }\n\n    /// @notice Returns all transaction IDs.\n    /// @return memory All transaction IDs.\n    function getAllTransactionIDs() public view returns (uint256[] memory) {\n        return transactionIDs;\n    }\n\n    /// @notice Returns the details of a transaction.\n    /// @param _transactionId The transaction ID.\n    function fetchTransaction(uint256 _transactionId)\n        public\n        view\n        returns (\n            string memory name,\n            uint256 value,\n            address destination,\n            string memory state\n        )\n    {\n        name = transactions[_transactionId].name;\n        value = transactions[_transactionId].value;\n        destination = transactions[_transactionId].destination;\n        if (transactions[_transactionId].state == State.Executed) {\n            state = \"Executed\";\n        } else if (transactions[_transactionId].state == State.Pending) {\n            state = \"Pending\";\n        } else if (transactions[_transactionId].state == State.Approved) {\n            state = \"Approved\";\n        } else {\n            state = \"\";\n        }\n\n        return (name, value, destination, state);\n    }\n\n    /// @notice Get all owners.\n    /// @return memory All owner addresses.\n    function getOwners() public view returns (address[] memory) {\n        return owners;\n    }\n\n    /// @notice Get all members.\n    /// @return memory All member addresses.\n    function getMembers() public view returns (address[] memory) {\n        return members;\n    }\n\n    /// @notice Get minimum contribution required.\n    /// @return uint256 Minimum contribution.\n    function getMinimumContribution() public view returns (uint256) {\n        return contribution;\n    }\n\n    /// @notice Get number of required approvals.\n    /// @return uint256 Number of required approvals.\n    function getNumberofRequiredApprovals() public view returns (uint256) {\n        return required;\n    }\n\n    /// @notice Get balance of contract.\n    /// @return uint256 Balance of contract.\n    function getBalance() public view returns (uint256) {\n        return balance;\n    }\n\n    /// @notice Allows approver to cancel submitted transaction\n    /// @dev This function will allow owners to cancel submitted requests by members\n    function cancelTransaction() external {\n        // TODO: this will allow owners to cancel transaction. We will need to ensure that a\n        // transaction is only cancelled when enough owners cancel.\n    }\n\n    /// @notice Allows approvers to remove members\n    /// @dev This function will allow owners to remove members members\n    function removeMember() external {\n        // TODO: this will allow owners to remove members and refund their contributions.\n        // This mechanism will ensure owners can remove misbehaving members.\n    }\n}\n",
  "sourcePath": "/Users/jurgen/Consensys/blockchain-developer-bootcamp-final-project/contracts/BurialStokvelAccount.sol",
  "compiler": {
    "name": "solc",
    "version": "0.8.0+commit.c7dfd78e.Emscripten.clang"
  },
  "schemaVersion": "3.4.3",
  "updatedAt": "2021-12-20T13:17:25.225Z",
  "networkType": "ethereum",
  "devdoc": {
    "author": "Jurgen Schulte",
    "details": "Deletion and non approval of request will be implemented in later version",
    "events": {
      "Confirmation(address,uint256,string)": {
        "params": {
          "approved": "A boolean indication if the confirmed transaction is approved",
          "sender": "Sender address",
          "transactionId": "Transaction id"
        }
      },
      "Deposit(address,uint256)": {
        "params": {
          "sender": "Sender address",
          "value": "Value of contribution"
        }
      },
      "Execution(uint256)": {
        "params": {
          "transactionId": "Transaction ID"
        }
      },
      "ExecutionFailure(uint256)": {
        "params": {
          "transactionId": "Transaction ID"
        }
      },
      "LogEnrolled(address)": {
        "params": {
          "accountAddress": "Account of member"
        }
      },
      "Submission(uint256)": {
        "params": {
          "transactionId": "Transaction ID"
        }
      }
    },
    "kind": "dev",
    "methods": {
      "cancelTransaction()": {
        "details": "This function will allow owners to cancel submitted requests by members"
      },
      "confirmTransaction(uint256)": {
        "details": "Allows an owner to confirm a transaction.",
        "params": {
          "_transactionId": "Transaction ID."
        }
      },
      "constructor": {
        "details": "Contract constructor sets initial owners of the stokvel account and required number of confirmations.",
        "params": {
          "_contribution": "Required minimum contribution.",
          "_owners": "List of initial owners.",
          "_required": "Number of required confirmations."
        }
      },
      "enroll()": {
        "details": "Checks that the address is not already a member"
      },
      "fetchTransaction(uint256)": {
        "params": {
          "_transactionId": "The transaction ID."
        }
      },
      "getAllTransactionIDs()": {
        "returns": {
          "_0": "memory All transaction IDs."
        }
      },
      "getBalance()": {
        "returns": {
          "_0": "uint256 Balance of contract."
        }
      },
      "getMembers()": {
        "returns": {
          "_0": "memory All member addresses."
        }
      },
      "getMinimumContribution()": {
        "returns": {
          "_0": "uint256 Minimum contribution."
        }
      },
      "getNumberofRequiredApprovals()": {
        "returns": {
          "_0": "uint256 Number of required approvals."
        }
      },
      "getOwners()": {
        "returns": {
          "_0": "memory All owner addresses."
        }
      },
      "getRoleAdmin(bytes32)": {
        "details": "Returns the admin role that controls `role`. See {grantRole} and {revokeRole}. To change a role's admin, use {_setRoleAdmin}."
      },
      "grantRole(bytes32,address)": {
        "details": "Grants `role` to `account`. If `account` had not been already granted `role`, emits a {RoleGranted} event. Requirements: - the caller must have ``role``'s admin role."
      },
      "hasRole(bytes32,address)": {
        "details": "Returns `true` if `account` has been granted `role`."
      },
      "isConfirmed(uint256)": {
        "params": {
          "_transactionId": "Transaction ID."
        },
        "returns": {
          "confirmed": "Confirmation status."
        }
      },
      "pause()": {
        "details": "This function controls the unpause/pause modifier which is used to prevent withdrawals in case an attack on the contract."
      },
      "paused()": {
        "details": "Returns true if the contract is paused, and false otherwise."
      },
      "removeMember()": {
        "details": "This function will allow owners to remove members members"
      },
      "renounceRole(bytes32,address)": {
        "details": "Revokes `role` from the calling account. Roles are often managed via {grantRole} and {revokeRole}: this function's purpose is to provide a mechanism for accounts to lose their privileges if they are compromised (such as when a trusted device is misplaced). If the calling account had been granted `role`, emits a {RoleRevoked} event. Requirements: - the caller must be `account`."
      },
      "revokeRole(bytes32,address)": {
        "details": "Revokes `role` from `account`. If `account` had been granted `role`, emits a {RoleRevoked} event. Requirements: - the caller must have ``role``'s admin role."
      },
      "submitRequest(uint256,string)": {
        "details": "The value of the contribution is checked aaginst the minimum contribution stipulated during contract creation",
        "params": {
          "_name": "Name of request",
          "_value": "Value of contribution in Wei"
        }
      },
      "supportsInterface(bytes4)": {
        "details": "See {IERC165-supportsInterface}."
      },
      "unpause()": {
        "details": "This function controls the unpause/pause modifier which is used to prevent withdrawals in case an attack on the contract."
      },
      "withdraw(uint256)": {
        "details": "The sender address is checked to ensure it matches that of the initial requestor",
        "params": {
          "_transactionId": "Transaction ID."
        }
      }
    },
    "title": "A smart contract for a South African Burial Stokvel",
    "version": 1
  },
  "userdoc": {
    "events": {
      "Confirmation(address,uint256,string)": {
        "notice": "Emitted when a submitted request is confirmed"
      },
      "Deposit(address,uint256)": {
        "notice": "Emitted when a member deposits his contribution"
      },
      "Execution(uint256)": {
        "notice": "Emitted when a transfer of funds is executed"
      },
      "ExecutionFailure(uint256)": {
        "notice": "Emitted when a transfer of funds fails"
      },
      "LogEnrolled(address)": {
        "notice": "Emitted when a address is enrolled as a member"
      },
      "Submission(uint256)": {
        "notice": "Emitted when a request is submitted"
      }
    },
    "kind": "user",
    "methods": {
      "cancelTransaction()": {
        "notice": "Allows approver to cancel submitted transaction"
      },
      "enroll()": {
        "notice": "Enrolls the address as a member"
      },
      "fetchTransaction(uint256)": {
        "notice": "Returns the details of a transaction."
      },
      "getAllTransactionIDs()": {
        "notice": "Returns all transaction IDs."
      },
      "getBalance()": {
        "notice": "Get balance of contract."
      },
      "getMembers()": {
        "notice": "Get all members."
      },
      "getMinimumContribution()": {
        "notice": "Get minimum contribution required."
      },
      "getNumberofRequiredApprovals()": {
        "notice": "Get number of required approvals."
      },
      "getOwners()": {
        "notice": "Get all owners."
      },
      "isConfirmed(uint256)": {
        "notice": "Returns the confirmation status of a transaction."
      },
      "pause()": {
        "notice": "Pause the contract by owners only."
      },
      "removeMember()": {
        "notice": "Allows approvers to remove members"
      },
      "submitRequest(uint256,string)": {
        "notice": "Allows member to submit a payment request"
      },
      "unpause()": {
        "notice": "Unpause the contract by owners only."
      },
      "withdraw(uint256)": {
        "notice": "Withdraws the reqiested amount by the member."
      }
    },
    "notice": "The contract allows for multiple owners and members After members pay a contribution they are able to submit requests for payment which need to be approved by owners.",
    "version": 1
  }
}