{
  "contractName": "BurialStokvelAccount",
  "abi": [
    {
      "inputs": [
        {
          "internalType": "address[]",
          "name": "_owners",
          "type": "address[]"
        },
        {
          "internalType": "uint256",
          "name": "_required",
          "type": "uint256"
        },
        {
          "internalType": "uint256",
          "name": "_contribution",
          "type": "uint256"
        }
      ],
      "stateMutability": "nonpayable",
      "type": "constructor"
    },
    {
      "anonymous": false,
      "inputs": [
        {
          "indexed": true,
          "internalType": "address",
          "name": "sender",
          "type": "address"
        },
        {
          "indexed": true,
          "internalType": "uint256",
          "name": "transactionId",
          "type": "uint256"
        },
        {
          "indexed": false,
          "internalType": "string",
          "name": "approved",
          "type": "string"
        }
      ],
      "name": "Confirmation",
      "type": "event"
    },
    {
      "anonymous": false,
      "inputs": [
        {
          "indexed": true,
          "internalType": "address",
          "name": "sender",
          "type": "address"
        },
        {
          "indexed": false,
          "internalType": "uint256",
          "name": "value",
          "type": "uint256"
        }
      ],
      "name": "Deposit",
      "type": "event"
    },
    {
      "anonymous": false,
      "inputs": [
        {
          "indexed": true,
          "internalType": "uint256",
          "name": "transactionId",
          "type": "uint256"
        }
      ],
      "name": "Execution",
      "type": "event"
    },
    {
      "anonymous": false,
      "inputs": [
        {
          "indexed": true,
          "internalType": "uint256",
          "name": "transactionId",
          "type": "uint256"
        }
      ],
      "name": "ExecutionFailure",
      "type": "event"
    },
    {
      "anonymous": false,
      "inputs": [
        {
          "indexed": true,
          "internalType": "address",
          "name": "accountAddress",
          "type": "address"
        }
      ],
      "name": "LogEnrolled",
      "type": "event"
    },
    {
      "anonymous": false,
      "inputs": [
        {
          "indexed": false,
          "internalType": "address",
          "name": "account",
          "type": "address"
        }
      ],
      "name": "Paused",
      "type": "event"
    },
    {
      "anonymous": false,
      "inputs": [
        {
          "indexed": true,
          "internalType": "uint256",
          "name": "transactionId",
          "type": "uint256"
        }
      ],
      "name": "Submission",
      "type": "event"
    },
    {
      "anonymous": false,
      "inputs": [
        {
          "indexed": false,
          "internalType": "address",
          "name": "account",
          "type": "address"
        }
      ],
      "name": "Unpaused",
      "type": "event"
    },
    {
      "stateMutability": "payable",
      "type": "fallback"
    },
    {
      "inputs": [],
      "name": "balance",
      "outputs": [
        {
          "internalType": "uint256",
          "name": "",
          "type": "uint256"
        }
      ],
      "stateMutability": "view",
      "type": "function"
    },
    {
      "inputs": [
        {
          "internalType": "uint256",
          "name": "",
          "type": "uint256"
        },
        {
          "internalType": "address",
          "name": "",
          "type": "address"
        }
      ],
      "name": "confirmations",
      "outputs": [
        {
          "internalType": "bool",
          "name": "",
          "type": "bool"
        }
      ],
      "stateMutability": "view",
      "type": "function"
    },
    {
      "inputs": [],
      "name": "contribution",
      "outputs": [
        {
          "internalType": "uint256",
          "name": "",
          "type": "uint256"
        }
      ],
      "stateMutability": "view",
      "type": "function"
    },
    {
      "inputs": [
        {
          "internalType": "address",
          "name": "",
          "type": "address"
        }
      ],
      "name": "isMember",
      "outputs": [
        {
          "internalType": "bool",
          "name": "",
          "type": "bool"
        }
      ],
      "stateMutability": "view",
      "type": "function"
    },
    {
      "inputs": [
        {
          "internalType": "address",
          "name": "",
          "type": "address"
        }
      ],
      "name": "isOwner",
      "outputs": [
        {
          "internalType": "bool",
          "name": "",
          "type": "bool"
        }
      ],
      "stateMutability": "view",
      "type": "function"
    },
    {
      "inputs": [
        {
          "internalType": "uint256",
          "name": "",
          "type": "uint256"
        }
      ],
      "name": "members",
      "outputs": [
        {
          "internalType": "address",
          "name": "",
          "type": "address"
        }
      ],
      "stateMutability": "view",
      "type": "function"
    },
    {
      "inputs": [
        {
          "internalType": "uint256",
          "name": "",
          "type": "uint256"
        }
      ],
      "name": "owners",
      "outputs": [
        {
          "internalType": "address",
          "name": "",
          "type": "address"
        }
      ],
      "stateMutability": "view",
      "type": "function"
    },
    {
      "inputs": [],
      "name": "paused",
      "outputs": [
        {
          "internalType": "bool",
          "name": "",
          "type": "bool"
        }
      ],
      "stateMutability": "view",
      "type": "function"
    },
    {
      "inputs": [],
      "name": "required",
      "outputs": [
        {
          "internalType": "uint256",
          "name": "",
          "type": "uint256"
        }
      ],
      "stateMutability": "view",
      "type": "function"
    },
    {
      "inputs": [],
      "name": "transactionCount",
      "outputs": [
        {
          "internalType": "uint256",
          "name": "",
          "type": "uint256"
        }
      ],
      "stateMutability": "view",
      "type": "function"
    },
    {
      "inputs": [
        {
          "internalType": "uint256",
          "name": "",
          "type": "uint256"
        }
      ],
      "name": "transactions",
      "outputs": [
        {
          "internalType": "string",
          "name": "name",
          "type": "string"
        },
        {
          "internalType": "address",
          "name": "destination",
          "type": "address"
        },
        {
          "internalType": "uint256",
          "name": "value",
          "type": "uint256"
        },
        {
          "internalType": "enum BurialStokvelAccount.State",
          "name": "state",
          "type": "uint8"
        }
      ],
      "stateMutability": "view",
      "type": "function"
    },
    {
      "stateMutability": "payable",
      "type": "receive"
    },
    {
      "inputs": [],
      "name": "unpause",
      "outputs": [],
      "stateMutability": "nonpayable",
      "type": "function"
    },
    {
      "inputs": [],
      "name": "pause",
      "outputs": [],
      "stateMutability": "nonpayable",
      "type": "function"
    },
    {
      "inputs": [],
      "name": "enroll",
      "outputs": [
        {
          "internalType": "bool",
          "name": "",
          "type": "bool"
        }
      ],
      "stateMutability": "payable",
      "type": "function"
    },
    {
      "inputs": [
        {
          "internalType": "uint256",
          "name": "_value",
          "type": "uint256"
        },
        {
          "internalType": "string",
          "name": "_name",
          "type": "string"
        }
      ],
      "name": "submitRequest",
      "outputs": [
        {
          "internalType": "uint256",
          "name": "",
          "type": "uint256"
        }
      ],
      "stateMutability": "nonpayable",
      "type": "function"
    },
    {
      "inputs": [
        {
          "internalType": "uint256",
          "name": "_transactionId",
          "type": "uint256"
        }
      ],
      "name": "confirmTransaction",
      "outputs": [],
      "stateMutability": "nonpayable",
      "type": "function"
    },
    {
      "inputs": [
        {
          "internalType": "uint256",
          "name": "_transactionId",
          "type": "uint256"
        }
      ],
      "name": "isConfirmed",
      "outputs": [
        {
          "internalType": "bool",
          "name": "confirmed",
          "type": "bool"
        }
      ],
      "stateMutability": "view",
      "type": "function"
    },
    {
      "inputs": [
        {
          "internalType": "uint256",
          "name": "_transactionId",
          "type": "uint256"
        }
      ],
      "name": "withdraw",
      "outputs": [],
      "stateMutability": "nonpayable",
      "type": "function"
    },
    {
      "inputs": [],
      "name": "getAllTransactionIDs",
      "outputs": [
        {
          "internalType": "uint256[]",
          "name": "",
          "type": "uint256[]"
        }
      ],
      "stateMutability": "view",
      "type": "function"
    },
    {
      "inputs": [
        {
          "internalType": "uint256",
          "name": "_transactionId",
          "type": "uint256"
        }
      ],
      "name": "fetchTransaction",
      "outputs": [
        {
          "internalType": "string",
          "name": "name",
          "type": "string"
        },
        {
          "internalType": "uint256",
          "name": "value",
          "type": "uint256"
        },
        {
          "internalType": "address",
          "name": "destination",
          "type": "address"
        },
        {
          "internalType": "string",
          "name": "state",
          "type": "string"
        }
      ],
      "stateMutability": "view",
      "type": "function"
    },
    {
      "inputs": [],
      "name": "getOwners",
      "outputs": [
        {
          "internalType": "address[]",
          "name": "",
          "type": "address[]"
        }
      ],
      "stateMutability": "view",
      "type": "function"
    },
    {
      "inputs": [],
      "name": "getMinimumContribution",
      "outputs": [
        {
          "internalType": "uint256",
          "name": "",
          "type": "uint256"
        }
      ],
      "stateMutability": "view",
      "type": "function"
    },
    {
      "inputs": [],
      "name": "getNumberofRequiredApprovals",
      "outputs": [
        {
          "internalType": "uint256",
          "name": "",
          "type": "uint256"
        }
      ],
      "stateMutability": "view",
      "type": "function"
    },
    {
      "inputs": [],
      "name": "getBalance",
      "outputs": [
        {
          "internalType": "uint256",
          "name": "",
          "type": "uint256"
        }
      ],
      "stateMutability": "view",
      "type": "function"
    },
    {
      "inputs": [],
      "name": "getMembers",
      "outputs": [
        {
          "internalType": "address[]",
          "name": "",
          "type": "address[]"
        }
      ],
      "stateMutability": "view",
      "type": "function"
    }
  ],
  "bytecode": "0x60806040523480156200001157600080fd5b5060405162002be438038062002be4833981810160405281019062000037919062000304565b60008060006101000a81548160ff02191690831515021790555082518281811180620000635750600081145b806200006f5750600082145b156200007a57600080fd5b600083116200008857600080fd5b83855110156200009757600080fd5b60005b85518110156200015357600160066000888481518110620000e4577f4e487b7100000000000000000000000000000000000000000000000000000000600052603260045260246000fd5b602002602001015173ffffffffffffffffffffffffffffffffffffffff1673ffffffffffffffffffffffffffffffffffffffff16815260200190815260200160002060006101000a81548160ff02191690831515021790555080806200014a9062000414565b9150506200009a565b5084600190805190602001906200016c92919062000186565b5083600381905550826005819055505050505050620004f4565b82805482825590600052602060002090810192821562000202579160200282015b82811115620002015782518260006101000a81548173ffffffffffffffffffffffffffffffffffffffff021916908373ffffffffffffffffffffffffffffffffffffffff16021790555091602001919060010190620001a7565b5b50905062000211919062000215565b5090565b5b808211156200023057600081600090555060010162000216565b5090565b60006200024b6200024584620003a7565b62000373565b905080838252602082019050828560208602820111156200026b57600080fd5b60005b858110156200029f5781620002848882620002a9565b8452602084019350602083019250506001810190506200026e565b5050509392505050565b600081519050620002ba81620004c0565b92915050565b600082601f830112620002d257600080fd5b8151620002e484826020860162000234565b91505092915050565b600081519050620002fe81620004da565b92915050565b6000806000606084860312156200031a57600080fd5b600084015167ffffffffffffffff8111156200033557600080fd5b6200034386828701620002c0565b93505060206200035686828701620002ed565b92505060406200036986828701620002ed565b9150509250925092565b6000604051905081810181811067ffffffffffffffff821117156200039d576200039c62000491565b5b8060405250919050565b600067ffffffffffffffff821115620003c557620003c462000491565b5b602082029050602081019050919050565b6000620003e382620003ea565b9050919050565b600073ffffffffffffffffffffffffffffffffffffffff82169050919050565b6000819050919050565b600062000421826200040a565b91507fffffffffffffffffffffffffffffffffffffffffffffffffffffffffffffffff82141562000457576200045662000462565b5b600182019050919050565b7f4e487b7100000000000000000000000000000000000000000000000000000000600052601160045260246000fd5b7f4e487b7100000000000000000000000000000000000000000000000000000000600052604160045260246000fd5b620004cb81620003d6565b8114620004d757600080fd5b50565b620004e5816200040a565b8114620004f157600080fd5b50565b6126e080620005046000396000f3fe60806040526004361061016a5760003560e01c80638456cb59116100d1578063b77bf6001161008a578063dc8452cd11610064578063dc8452cd14610656578063e65f2a7e14610681578063eafa23bd1461069f578063f84038b1146106ca576101e1565b8063b77bf600146105d7578063b8d437bd14610602578063c01a8c841461062d576101e1565b80638456cb59146104c25780639ace38c2146104d95780639eab525314610519578063a0e67e2b14610544578063a230c5241461056f578063b69ef8a8146105ac576101e1565b80633f4ba83a116101235780633f4ba83a1461039b57806350520b1f146103b25780635c975abb146103dd5780635daf08ca14610408578063685067d514610445578063784547a714610485576101e1565b8063025e7c271461025357806312065fe01461029057806316366b26146102bb5780632e1a7d4d146102f85780632f54bf6e146103215780633411c81c1461035e576101e1565b366101e15760003411156101df573373ffffffffffffffffffffffffffffffffffffffff167fe1fffcc4923d04b559f4d29a8bfc6cda04eb5b0d3c460751c2402c5c5cc9109c346040516101be91906122d2565b60405180910390a2600460008154809291906101d990612552565b91905055505b005b6000341115610251573373ffffffffffffffffffffffffffffffffffffffff167fe1fffcc4923d04b559f4d29a8bfc6cda04eb5b0d3c460751c2402c5c5cc9109c3460405161023091906122d2565b60405180910390a26004600081548092919061024b90612552565b91905055505b005b34801561025f57600080fd5b5061027a60048036038101906102759190611db0565b6106f5565b6040516102879190612117565b60405180910390f35b34801561029c57600080fd5b506102a5610734565b6040516102b291906122d2565b60405180910390f35b3480156102c757600080fd5b506102e260048036038101906102dd9190611e15565b61073e565b6040516102ef91906122d2565b60405180910390f35b34801561030457600080fd5b5061031f600480360381019061031a9190611db0565b6107be565b005b34801561032d57600080fd5b5061034860048036038101906103439190611d87565b610880565b6040516103559190612176565b60405180910390f35b34801561036a57600080fd5b5061038560048036038101906103809190611dd9565b6108a0565b6040516103929190612176565b60405180910390f35b3480156103a757600080fd5b506103b06108cf565b005b3480156103be57600080fd5b506103c7610967565b6040516103d491906122d2565b60405180910390f35b3480156103e957600080fd5b506103f261096d565b6040516103ff9190612176565b60405180910390f35b34801561041457600080fd5b5061042f600480360381019061042a9190611db0565b610983565b60405161043c9190612117565b60405180910390f35b34801561045157600080fd5b5061046c60048036038101906104679190611db0565b6109c2565b60405161047c94939291906121ff565b60405180910390f35b34801561049157600080fd5b506104ac60048036038101906104a79190611db0565b610d62565b6040516104b99190612176565b60405180910390f35b3480156104ce57600080fd5b506104d7610e7d565b005b3480156104e557600080fd5b5061050060048036038101906104fb9190611db0565b610e87565b60405161051094939291906121b3565b60405180910390f35b34801561052557600080fd5b5061052e610f6c565b60405161053b9190612132565b60405180910390f35b34801561055057600080fd5b50610559610ffa565b6040516105669190612132565b60405180910390f35b34801561057b57600080fd5b5061059660048036038101906105919190611d87565b611088565b6040516105a39190612176565b60405180910390f35b3480156105b857600080fd5b506105c16110a8565b6040516105ce91906122d2565b60405180910390f35b3480156105e357600080fd5b506105ec6110ae565b6040516105f991906122d2565b60405180910390f35b34801561060e57600080fd5b506106176110b4565b60405161062491906122d2565b60405180910390f35b34801561063957600080fd5b50610654600480360381019061064f9190611db0565b6110be565b005b34801561066257600080fd5b5061066b611394565b60405161067891906122d2565b60405180910390f35b61068961139a565b6040516106969190612176565b60405180910390f35b3480156106ab57600080fd5b506106b46115be565b6040516106c19190612154565b60405180910390f35b3480156106d657600080fd5b506106df611616565b6040516106ec91906122d2565b60405180910390f35b6001818154811061070557600080fd5b906000526020600020016000915054906101000a900473ffffffffffffffffffffffffffffffffffffffff1681565b6000600454905090565b6000600760003373ffffffffffffffffffffffffffffffffffffffff1673ffffffffffffffffffffffffffffffffffffffff16815260200190815260200160002060009054906101000a900460ff1661079657600080fd5b6004548311156107a557600080fd5b60006107b2338585611620565b90508091505092915050565b6107c661096d565b15610806576040517f08c379a00000000000000000000000000000000000000000000000000000000081526004016107fd906122b2565b60405180910390fd5b3373ffffffffffffffffffffffffffffffffffffffff16600a600083815260200190815260200160002060010160009054906101000a900473ffffffffffffffffffffffffffffffffffffffff1673ffffffffffffffffffffffffffffffffffffffff161461087457600080fd5b61087d816117e8565b50565b60066020528060005260406000206000915054906101000a900460ff1681565b600b6020528160005260406000206020528060005260406000206000915091509054906101000a900460ff1681565b33600660008273ffffffffffffffffffffffffffffffffffffffff1673ffffffffffffffffffffffffffffffffffffffff16815260200190815260200160002060009054906101000a900460ff1661095c576040517f08c379a000000000000000000000000000000000000000000000000000000000815260040161095390612292565b60405180910390fd5b610964611b07565b50565b60055481565b60008060009054906101000a900460ff16905090565b6002818154811061099357600080fd5b906000526020600020016000915054906101000a900473ffffffffffffffffffffffffffffffffffffffff1681565b60606000806060600a600086815260200190815260200160002060000180546109ea90612520565b80601f0160208091040260200160405190810160405280929190818152602001828054610a1690612520565b8015610a635780601f10610a3857610100808354040283529160200191610a63565b820191906000526020600020905b815481529060010190602001808311610a4657829003601f168201915b50505050509350600a6000868152602001908152602001600020600201549250600a600086815260200190815260200160002060010160009054906101000a900473ffffffffffffffffffffffffffffffffffffffff16915060006002811115610af6577f4e487b7100000000000000000000000000000000000000000000000000000000600052602160045260246000fd5b600a600087815260200190815260200160002060030160009054906101000a900460ff166002811115610b52577f4e487b7100000000000000000000000000000000000000000000000000000000600052602160045260246000fd5b1415610b95576040518060400160405280600881526020017f45786563757465640000000000000000000000000000000000000000000000008152509050610d5b565b60016002811115610bcf577f4e487b7100000000000000000000000000000000000000000000000000000000600052602160045260246000fd5b600a600087815260200190815260200160002060030160009054906101000a900460ff166002811115610c2b577f4e487b7100000000000000000000000000000000000000000000000000000000600052602160045260246000fd5b1415610c6e576040518060400160405280600781526020017f50656e64696e67000000000000000000000000000000000000000000000000008152509050610d5a565b600280811115610ca7577f4e487b7100000000000000000000000000000000000000000000000000000000600052602160045260246000fd5b600a600087815260200190815260200160002060030160009054906101000a900460ff166002811115610d03577f4e487b7100000000000000000000000000000000000000000000000000000000600052602160045260246000fd5b1415610d46576040518060400160405280600881526020017f417070726f7665640000000000000000000000000000000000000000000000008152509050610d59565b6040518060200160405280600081525090505b5b5b9193509193565b600080600090506000915060005b600180549050811015610e7657600b6000858152602001908152602001600020600060018381548110610dcc577f4e487b7100000000000000000000000000000000000000000000000000000000600052603260045260246000fd5b9060005260206000200160009054906101000a900473ffffffffffffffffffffffffffffffffffffffff1673ffffffffffffffffffffffffffffffffffffffff1673ffffffffffffffffffffffffffffffffffffffff16815260200190815260200160002060009054906101000a900460ff1615610e5457600182610e5191906123e7565b91505b600354821415610e6357600192505b8080610e6e90612552565b915050610d70565b5050919050565b610e85611ba8565b565b600a602052806000526040600020600091509050806000018054610eaa90612520565b80601f0160208091040260200160405190810160405280929190818152602001828054610ed690612520565b8015610f235780601f10610ef857610100808354040283529160200191610f23565b820191906000526020600020905b815481529060010190602001808311610f0657829003601f168201915b5050505050908060010160009054906101000a900473ffffffffffffffffffffffffffffffffffffffff16908060020154908060030160009054906101000a900460ff16905084565b60606002805480602002602001604051908101604052809291908181526020018280548015610ff057602002820191906000526020600020905b8160009054906101000a900473ffffffffffffffffffffffffffffffffffffffff1673ffffffffffffffffffffffffffffffffffffffff1681526020019060010190808311610fa6575b5050505050905090565b6060600180548060200260200160405190810160405280929190818152602001828054801561107e57602002820191906000526020600020905b8160009054906101000a900473ffffffffffffffffffffffffffffffffffffffff1673ffffffffffffffffffffffffffffffffffffffff1681526020019060010190808311611034575b5050505050905090565b60076020528060005260406000206000915054906101000a900460ff1681565b60045481565b60085481565b6000600354905090565b600660003373ffffffffffffffffffffffffffffffffffffffff1673ffffffffffffffffffffffffffffffffffffffff16815260200190815260200160002060009054906101000a900460ff1661111457600080fd5b600073ffffffffffffffffffffffffffffffffffffffff16600a600083815260200190815260200160002060010160009054906101000a900473ffffffffffffffffffffffffffffffffffffffff1673ffffffffffffffffffffffffffffffffffffffff16141561118457600080fd5b60001515600b600083815260200190815260200160002060003373ffffffffffffffffffffffffffffffffffffffff1673ffffffffffffffffffffffffffffffffffffffff16815260200190815260200160002060009054906101000a900460ff161515146111f257600080fd5b6001600b600083815260200190815260200160002060003373ffffffffffffffffffffffffffffffffffffffff1673ffffffffffffffffffffffffffffffffffffffff16815260200190815260200160002060006101000a81548160ff02191690831515021790555060006040518060400160405280600581526020017f66616c7365000000000000000000000000000000000000000000000000000000815250905061129e82610d62565b15611341576002600a600084815260200190815260200160002060030160006101000a81548160ff02191690836002811115611303577f4e487b7100000000000000000000000000000000000000000000000000000000600052602160045260246000fd5b02179055506040518060400160405280600481526020017f747275650000000000000000000000000000000000000000000000000000000081525090505b813373ffffffffffffffffffffffffffffffffffffffff167fbbd347b0b26e5ecc8cd8676faf574878fdbc8fc0d744f3a8d42f72ce24eb2251836040516113889190612191565b60405180910390a35050565b60035481565b6000801515600760003373ffffffffffffffffffffffffffffffffffffffff1673ffffffffffffffffffffffffffffffffffffffff16815260200190815260200160002060009054906101000a900460ff161515146113f857600080fd5b60055434101561140757600080fd5b6001600760003373ffffffffffffffffffffffffffffffffffffffff1673ffffffffffffffffffffffffffffffffffffffff16815260200190815260200160002060006101000a81548160ff0219169083151502179055506002339080600181540180825580915050600190039060005260206000200160009091909190916101000a81548173ffffffffffffffffffffffffffffffffffffffff021916908373ffffffffffffffffffffffffffffffffffffffff1602179055503373ffffffffffffffffffffffffffffffffffffffff167f990c442e6adb818b8fa7db3cf1023decd07f7b66e5306928c7ed527d974192bb60405160405180910390a2346004600082825461151791906123e7565b925050819055503373ffffffffffffffffffffffffffffffffffffffff167fe1fffcc4923d04b559f4d29a8bfc6cda04eb5b0d3c460751c2402c5c5cc9109c3460405161156491906122d2565b60405180910390a2600760003373ffffffffffffffffffffffffffffffffffffffff1673ffffffffffffffffffffffffffffffffffffffff16815260200190815260200160002060009054906101000a900460ff16905090565b6060600980548060200260200160405190810160405280929190818152602001828054801561160c57602002820191906000526020600020905b8154815260200190600101908083116115f8575b5050505050905090565b6000600554905090565b6000600854905060405180608001604052808381526020018573ffffffffffffffffffffffffffffffffffffffff16815260200184815260200160016002811115611694577f4e487b7100000000000000000000000000000000000000000000000000000000600052602160045260246000fd5b815250600a600083815260200190815260200160002060008201518160000190805190602001906116c6929190611c52565b5060208201518160010160006101000a81548173ffffffffffffffffffffffffffffffffffffffff021916908373ffffffffffffffffffffffffffffffffffffffff1602179055506040820151816002015560608201518160030160006101000a81548160ff02191690836002811115611769577f4e487b7100000000000000000000000000000000000000000000000000000000600052602160045260246000fd5b021790555090505060098190806001815401808255809150506001900390600052602060002001600090919091909150556001600860008282546117ad91906123e7565b92505081905550807fc0ba8fe4b176c1714197d43b9cc6bcf797a4a7461c5fe8d0ef6e184ae7601e5160405160405180910390a29392505050565b600280811115611821577f4e487b7100000000000000000000000000000000000000000000000000000000600052602160045260246000fd5b600a600083815260200190815260200160002060030160009054906101000a900460ff16600281111561187d577f4e487b7100000000000000000000000000000000000000000000000000000000600052602160045260246000fd5b1461188757600080fd5b600454600a60008381526020019081526020016000206002015411156118ac57600080fd5b6118b581610d62565b15611b04576000600a6000838152602001908152602001600020905060008160030160006101000a81548160ff0219169083600281111561191f577f4e487b7100000000000000000000000000000000000000000000000000000000600052602160045260246000fd5b0217905550600a600083815260200190815260200160002060020154600454611948919061243d565b60048190555060008160010160009054906101000a900473ffffffffffffffffffffffffffffffffffffffff1673ffffffffffffffffffffffffffffffffffffffff163460405161199890612102565b60006040518083038185875af1925050503d80600081146119d5576040519150601f19603f3d011682016040523d82523d6000602084013e6119da565b606091505b505090508015611a1657827f33e13ecb54c3076d8e8bb8c2881800a4d972b792045ffae98fdf46df365fed7560405160405180910390a2611b01565b827f526441bb6c1aba3c9a4a6ca1d6545da9c2333c8c48343ef398eb858d72b7923660405160405180910390a260028260030160006101000a81548160ff02191690836002811115611a91577f4e487b7100000000000000000000000000000000000000000000000000000000600052602160045260246000fd5b0217905550600a600084815260200190815260200160002060020154600454611aba91906123e7565b60048190555080611b00576040517f08c379a0000000000000000000000000000000000000000000000000000000008152600401611af790612272565b60405180910390fd5b5b50505b50565b611b0f61096d565b611b4e576040517f08c379a0000000000000000000000000000000000000000000000000000000008152600401611b4590612252565b60405180910390fd5b60008060006101000a81548160ff0219169083151502179055507f5db9ee0a495bf2e6ff9c91a7834c1ba4fdd244a5e8aa4e537bd38aeae4b073aa611b91611c4a565b604051611b9e9190612117565b60405180910390a1565b611bb061096d565b15611bf0576040517f08c379a0000000000000000000000000000000000000000000000000000000008152600401611be7906122b2565b60405180910390fd5b60016000806101000a81548160ff0219169083151502179055507f62e78cea01bee320cd4e420270b5ea74000d11b0c9f74754ebdbfc544b05a258611c33611c4a565b604051611c409190612117565b60405180910390a1565b600033905090565b828054611c5e90612520565b90600052602060002090601f016020900481019282611c805760008555611cc7565b82601f10611c9957805160ff1916838001178555611cc7565b82800160010185558215611cc7579182015b82811115611cc6578251825591602001919060010190611cab565b5b509050611cd49190611cd8565b5090565b5b80821115611cf1576000816000905550600101611cd9565b5090565b6000611d08611d038461231e565b6122ed565b905082815260208101848484011115611d2057600080fd5b611d2b8482856124de565b509392505050565b600081359050611d428161267c565b92915050565b600082601f830112611d5957600080fd5b8135611d69848260208601611cf5565b91505092915050565b600081359050611d8181612693565b92915050565b600060208284031215611d9957600080fd5b6000611da784828501611d33565b91505092915050565b600060208284031215611dc257600080fd5b6000611dd084828501611d72565b91505092915050565b60008060408385031215611dec57600080fd5b6000611dfa85828601611d72565b9250506020611e0b85828601611d33565b9150509250929050565b60008060408385031215611e2857600080fd5b6000611e3685828601611d72565b925050602083013567ffffffffffffffff811115611e5357600080fd5b611e5f85828601611d48565b9150509250929050565b6000611e758383611e99565b60208301905092915050565b6000611e8d83836120e4565b60208301905092915050565b611ea281612471565b82525050565b611eb181612471565b82525050565b6000611ec28261236e565b611ecc81856123a9565b9350611ed78361234e565b8060005b83811015611f08578151611eef8882611e69565b9750611efa8361238f565b925050600181019050611edb565b5085935050505092915050565b6000611f2082612379565b611f2a81856123ba565b9350611f358361235e565b8060005b83811015611f66578151611f4d8882611e81565b9750611f588361239c565b925050600181019050611f39565b5085935050505092915050565b611f7c81612483565b82525050565b611f8b816124cc565b82525050565b6000611f9c82612384565b611fa681856123d6565b9350611fb68185602086016124ed565b611fbf81612657565b840191505092915050565b6000611fd76014836123d6565b91507f5061757361626c653a206e6f74207061757365640000000000000000000000006000830152602082019050919050565b60006120176014836123d6565b91507f4661696c656420746f2073656e64206d6f6e65790000000000000000000000006000830152602082019050919050565b60006120576013836123d6565b91507f4f6e6c79206f776e65727320616c6c6f776564000000000000000000000000006000830152602082019050919050565b60006120976010836123d6565b91507f5061757361626c653a20706175736564000000000000000000000000000000006000830152602082019050919050565b60006120d76000836123cb565b9150600082019050919050565b6120ed816124c2565b82525050565b6120fc816124c2565b82525050565b600061210d826120ca565b9150819050919050565b600060208201905061212c6000830184611ea8565b92915050565b6000602082019050818103600083015261214c8184611eb7565b905092915050565b6000602082019050818103600083015261216e8184611f15565b905092915050565b600060208201905061218b6000830184611f73565b92915050565b600060208201905081810360008301526121ab8184611f91565b905092915050565b600060808201905081810360008301526121cd8187611f91565b90506121dc6020830186611ea8565b6121e960408301856120f3565b6121f66060830184611f82565b95945050505050565b600060808201905081810360008301526122198187611f91565b905061222860208301866120f3565b6122356040830185611ea8565b81810360608301526122478184611f91565b905095945050505050565b6000602082019050818103600083015261226b81611fca565b9050919050565b6000602082019050818103600083015261228b8161200a565b9050919050565b600060208201905081810360008301526122ab8161204a565b9050919050565b600060208201905081810360008301526122cb8161208a565b9050919050565b60006020820190506122e760008301846120f3565b92915050565b6000604051905081810181811067ffffffffffffffff8211171561231457612313612628565b5b8060405250919050565b600067ffffffffffffffff82111561233957612338612628565b5b601f19601f8301169050602081019050919050565b6000819050602082019050919050565b6000819050602082019050919050565b600081519050919050565b600081519050919050565b600081519050919050565b6000602082019050919050565b6000602082019050919050565b600082825260208201905092915050565b600082825260208201905092915050565b600081905092915050565b600082825260208201905092915050565b60006123f2826124c2565b91506123fd836124c2565b9250827fffffffffffffffffffffffffffffffffffffffffffffffffffffffffffffffff038211156124325761243161259b565b5b828201905092915050565b6000612448826124c2565b9150612453836124c2565b9250828210156124665761246561259b565b5b828203905092915050565b600061247c826124a2565b9050919050565b60008115159050919050565b600081905061249d82612668565b919050565b600073ffffffffffffffffffffffffffffffffffffffff82169050919050565b6000819050919050565b60006124d78261248f565b9050919050565b82818337600083830152505050565b60005b8381101561250b5780820151818401526020810190506124f0565b8381111561251a576000848401525b50505050565b6000600282049050600182168061253857607f821691505b6020821081141561254c5761254b6125f9565b5b50919050565b600061255d826124c2565b91507fffffffffffffffffffffffffffffffffffffffffffffffffffffffffffffffff8214156125905761258f61259b565b5b600182019050919050565b7f4e487b7100000000000000000000000000000000000000000000000000000000600052601160045260246000fd5b7f4e487b7100000000000000000000000000000000000000000000000000000000600052602160045260246000fd5b7f4e487b7100000000000000000000000000000000000000000000000000000000600052602260045260246000fd5b7f4e487b7100000000000000000000000000000000000000000000000000000000600052604160045260246000fd5b6000601f19601f8301169050919050565b60038110612679576126786125ca565b5b50565b61268581612471565b811461269057600080fd5b50565b61269c816124c2565b81146126a757600080fd5b5056fea2646970667358221220f887f41125f041787a0ce219275cbd57dd6fab7e0f9f3c0ef4cea10934a3d41f64736f6c63430008000033",
  "immutableReferences": {},
  "source": "// SPDX-License-Identifier: MIT\npragma solidity 0.8.0;\n\nimport \"@openzeppelin/contracts/security/Pausable.sol\";\n\n/// @title A smart contract for a South African Burial Stokvel\n/// @author Jurgen Schulte\n/// @notice The contract allows for multiple owners and members After members pay a contribution they are able to submit requests for payment which need to be approved by owners.\n/// @dev Deletion and non approval of request will be implemented in later version\ncontract BurialStokvelAccount is Pausable {\n    address[] public owners;\n    address[] public members;\n    uint256 public required;\n    uint256 public balance;\n    uint256 public contribution;\n\n    mapping(address => bool) public isOwner;\n    mapping(address => bool) public isMember;\n\n    uint256 public transactionCount;\n    uint256[] private transactionIDs;\n    mapping(uint256 => Transaction) public transactions;\n\n    mapping(uint256 => mapping(address => bool)) public confirmations;\n\n    enum State {\n        Executed,\n        Pending,\n        Approved\n    }\n\n    struct Transaction {\n        string name;\n        address destination;\n        uint256 value;\n        State state;\n    }\n\n    //Events\n    event Submission(uint256 indexed transactionId);\n    event Confirmation(\n        address indexed sender,\n        uint256 indexed transactionId,\n        string approved\n    );\n    event Execution(uint256 indexed transactionId);\n    event ExecutionFailure(uint256 indexed transactionId);\n    event LogEnrolled(address indexed accountAddress);\n    event Deposit(address indexed sender, uint256 value);\n\n    /// @dev Fallback function allows to deposit ether.\n    fallback() external payable {\n        if (msg.value > 0) {\n            emit Deposit(msg.sender, msg.value);\n            balance++;\n        }\n    }\n\n    /// @dev Receive function allows to deposit ether.\n    receive() external payable {\n        if (msg.value > 0) {\n            emit Deposit(msg.sender, msg.value);\n            balance++;\n        }\n    }\n\n    // NOT a valid modifier\n    modifier validRequirement(uint256 _ownerCount, uint256 _required) {\n        if (_required > _ownerCount || _required == 0 || _ownerCount == 0)\n            revert();\n        _;\n    }\n\n    modifier onlyOwners(address _address) {\n        require(isOwner[_address], \"Only owners allowed\");\n        _;\n    }\n\n    modifier onlyMembers(address _address) {\n        require(isMember[_address], \"Only members allowed\");\n        _;\n    }\n\n    function unpause() public onlyOwners(msg.sender) {\n        _unpause();\n    }\n\n    function pause() public {\n        _pause();\n    }\n\n    /// @dev Contract constructor sets initial owners of the stokvel account and required number of confirmations.\n    /// @param _owners List of initial owners.\n    /// @param _required Number of required confirmations.\n    /// @param _contribution Required minimum contribution.\n    constructor(\n        address[] memory _owners,\n        uint256 _required,\n        uint256 _contribution\n    ) validRequirement(_owners.length, _required) {\n        require(_contribution > 0);\n        require(_owners.length >= _required);\n        for (uint256 i = 0; i < _owners.length; i++) {\n            isOwner[_owners[i]] = true;\n        }\n        owners = _owners;\n        required = _required;\n        contribution = _contribution;\n    }\n\n    function enroll() public payable returns (bool) {\n        require(isMember[msg.sender] == false);\n        require(msg.value >= contribution);\n        isMember[msg.sender] = true;\n        members.push(msg.sender);\n        emit LogEnrolled(msg.sender);\n        balance += msg.value;\n        emit Deposit(msg.sender, msg.value);\n        return isMember[msg.sender];\n    }\n\n    /// @dev Allows a member to submit a transaction request.\n    /// @param _value Amount requested.\n    function submitRequest(uint256 _value, string memory _name)\n        public\n        returns (uint256)\n    {\n        require(isMember[msg.sender]);\n        require(_value <= balance);\n        uint256 transactionId = addTransaction(msg.sender, _value, _name);\n        return transactionId;\n    }\n\n    /// @dev Adds a new transaction to the transaction mapping, if transaction does not exist yet.\n    /// @param _destination Transaction target address.\n    /// @param _value Transaction ether value.\n    /// @return transactionId Returns transaction ID.\n    function addTransaction(\n        address _destination,\n        uint256 _value,\n        string memory _name\n    ) internal returns (uint256 transactionId) {\n        transactionId = transactionCount;\n        transactions[transactionId] = Transaction({\n            name: _name,\n            destination: _destination,\n            value: _value,\n            state: State.Pending\n        });\n        transactionIDs.push(transactionId);\n        transactionCount += 1;\n        emit Submission(transactionId);\n    }\n\n    /// @dev Allows an owner to confirm a transaction.\n    /// @param _transactionId Transaction ID.\n    function confirmTransaction(uint256 _transactionId) public {\n        require(isOwner[msg.sender]);\n        require(transactions[_transactionId].destination != address(0));\n        require(confirmations[_transactionId][msg.sender] == false);\n\n        confirmations[_transactionId][msg.sender] = true;\n        string memory approved = \"false\";\n        if (isConfirmed(_transactionId)) {\n            transactions[_transactionId].state = State.Approved;\n            approved = \"true\";\n        }\n\n        emit Confirmation(msg.sender, _transactionId, approved);\n    }\n\n    /// @dev Returns the confirmation status of a transaction.\n    /// @param _transactionId Transaction ID.\n    /// @return confirmed Confirmation status.\n    function isConfirmed(uint256 _transactionId)\n        public\n        view\n        returns (bool confirmed)\n    {\n        uint256 count = 0;\n        confirmed = false;\n        for (uint256 i = 0; i < owners.length; i++) {\n            if (confirmations[_transactionId][owners[i]]) count += 1;\n            if (count == required) confirmed = true;\n        }\n        return confirmed;\n    }\n\n    function withdraw(uint256 _transactionId) public whenNotPaused {\n        require(transactions[_transactionId].destination == msg.sender);\n        executeTransaction(_transactionId);\n    }\n\n    /// @dev Transaction is executed if enough confirmations have been\n    /// received and the balance is sufficient.\n    /// @param _transactionId Transaction ID.\n    function executeTransaction(uint256 _transactionId) internal {\n        require(transactions[_transactionId].state == State.Approved);\n        // Check balance\n        require(transactions[_transactionId].value <= balance);\n        if (isConfirmed(_transactionId)) {\n            Transaction storage t = transactions[_transactionId]; // using the \"storage\" keyword makes \"t\" a pointer to storage\n            t.state = State.Executed;\n            balance = balance - transactions[_transactionId].value;\n            (bool success, ) = t.destination.call{value: msg.value}(\"\");\n            if (success) emit Execution(_transactionId);\n            else {\n                emit ExecutionFailure(_transactionId);\n                t.state = State.Approved;\n                balance = balance + transactions[_transactionId].value;\n                require(success, \"Failed to send money\");\n            }\n        }\n    }\n\n    function getAllTransactionIDs() public view returns (uint256[] memory) {\n        // Only three pending transactions allowed\n        return transactionIDs;\n    }\n\n    //\n    function fetchTransaction(uint256 _transactionId)\n        public\n        view\n        returns (\n            string memory name,\n            uint256 value,\n            address destination,\n            string memory state\n        )\n    {\n        name = transactions[_transactionId].name;\n        value = transactions[_transactionId].value;\n        destination = transactions[_transactionId].destination;\n        if (transactions[_transactionId].state == State.Executed) {\n            state = \"Executed\";\n        } else if (transactions[_transactionId].state == State.Pending) {\n            state = \"Pending\";\n        } else if (transactions[_transactionId].state == State.Approved) {\n            state = \"Approved\";\n        } else {\n            state = \"\";\n        }\n\n        return (name, value, destination, state);\n    }\n\n    function getOwners() public view returns (address[] memory) {\n        return owners;\n    }\n\n    function getMinimumContribution() public view returns (uint256) {\n        return contribution;\n    }\n\n    function getNumberofRequiredApprovals() public view returns (uint256) {\n        return required;\n    }\n\n    function getBalance() public view returns (uint256) {\n        return balance;\n    }\n\n    function getMembers() public view returns (address[] memory) {\n        return members;\n    }\n}\n",
  "sourcePath": "/Users/jurgen/Consensys/blockchain-developer-bootcamp-final-project/contracts/BurialStokvelAccount.sol",
  "compiler": {
    "name": "solc",
    "version": "0.8.0+commit.c7dfd78e.Emscripten.clang"
  },
  "schemaVersion": "3.4.3",
  "updatedAt": "2021-11-22T17:02:58.591Z",
  "devdoc": {
    "author": "Jurgen Schulte",
    "details": "Deletion and non approval of request will be implemented in later version",
    "kind": "dev",
    "methods": {
      "confirmTransaction(uint256)": {
        "details": "Allows an owner to confirm a transaction.",
        "params": {
          "_transactionId": "Transaction ID."
        }
      },
      "constructor": {
        "details": "Contract constructor sets initial owners of the stokvel account and required number of confirmations.",
        "params": {
          "_contribution": "Required minimum contribution.",
          "_owners": "List of initial owners.",
          "_required": "Number of required confirmations."
        }
      },
      "isConfirmed(uint256)": {
        "details": "Returns the confirmation status of a transaction.",
        "params": {
          "_transactionId": "Transaction ID."
        },
        "returns": {
          "confirmed": "Confirmation status."
        }
      },
      "paused()": {
        "details": "Returns true if the contract is paused, and false otherwise."
      },
      "submitRequest(uint256,string)": {
        "details": "Allows a member to submit a transaction request.",
        "params": {
          "_value": "Amount requested."
        }
      }
    },
    "title": "A smart contract for a South African Burial Stokvel",
    "version": 1
  },
  "userdoc": {
    "kind": "user",
    "methods": {},
    "notice": "The contract allows for multiple owners and members After members pay a contribution they are able to submit requests for payment which need to be approved by owners.",
    "version": 1
  }
}