{
  "contractName": "BurialStokvelAccount",
  "abi": [
    {
      "inputs": [
        {
          "internalType": "uint256",
          "name": "_required",
          "type": "uint256"
        },
        {
          "internalType": "uint256",
          "name": "_contribution",
          "type": "uint256"
        }
      ],
      "stateMutability": "nonpayable",
      "type": "constructor"
    },
    {
      "anonymous": false,
      "inputs": [
        {
          "indexed": true,
          "internalType": "address",
          "name": "sender",
          "type": "address"
        },
        {
          "indexed": true,
          "internalType": "uint256",
          "name": "transactionId",
          "type": "uint256"
        },
        {
          "indexed": false,
          "internalType": "string",
          "name": "approved",
          "type": "string"
        }
      ],
      "name": "Confirmation",
      "type": "event"
    },
    {
      "anonymous": false,
      "inputs": [
        {
          "indexed": true,
          "internalType": "address",
          "name": "sender",
          "type": "address"
        },
        {
          "indexed": false,
          "internalType": "uint256",
          "name": "value",
          "type": "uint256"
        }
      ],
      "name": "Deposit",
      "type": "event"
    },
    {
      "anonymous": false,
      "inputs": [
        {
          "indexed": true,
          "internalType": "uint256",
          "name": "transactionId",
          "type": "uint256"
        }
      ],
      "name": "Execution",
      "type": "event"
    },
    {
      "anonymous": false,
      "inputs": [
        {
          "indexed": true,
          "internalType": "uint256",
          "name": "transactionId",
          "type": "uint256"
        }
      ],
      "name": "ExecutionFailure",
      "type": "event"
    },
    {
      "anonymous": false,
      "inputs": [
        {
          "indexed": true,
          "internalType": "address",
          "name": "accountAddress",
          "type": "address"
        }
      ],
      "name": "LogEnrolled",
      "type": "event"
    },
    {
      "anonymous": false,
      "inputs": [
        {
          "indexed": false,
          "internalType": "address",
          "name": "account",
          "type": "address"
        }
      ],
      "name": "Paused",
      "type": "event"
    },
    {
      "anonymous": false,
      "inputs": [
        {
          "indexed": true,
          "internalType": "bytes32",
          "name": "role",
          "type": "bytes32"
        },
        {
          "indexed": true,
          "internalType": "bytes32",
          "name": "previousAdminRole",
          "type": "bytes32"
        },
        {
          "indexed": true,
          "internalType": "bytes32",
          "name": "newAdminRole",
          "type": "bytes32"
        }
      ],
      "name": "RoleAdminChanged",
      "type": "event"
    },
    {
      "anonymous": false,
      "inputs": [
        {
          "indexed": true,
          "internalType": "bytes32",
          "name": "role",
          "type": "bytes32"
        },
        {
          "indexed": true,
          "internalType": "address",
          "name": "account",
          "type": "address"
        },
        {
          "indexed": true,
          "internalType": "address",
          "name": "sender",
          "type": "address"
        }
      ],
      "name": "RoleGranted",
      "type": "event"
    },
    {
      "anonymous": false,
      "inputs": [
        {
          "indexed": true,
          "internalType": "bytes32",
          "name": "role",
          "type": "bytes32"
        },
        {
          "indexed": true,
          "internalType": "address",
          "name": "account",
          "type": "address"
        },
        {
          "indexed": true,
          "internalType": "address",
          "name": "sender",
          "type": "address"
        }
      ],
      "name": "RoleRevoked",
      "type": "event"
    },
    {
      "anonymous": false,
      "inputs": [
        {
          "indexed": true,
          "internalType": "uint256",
          "name": "transactionId",
          "type": "uint256"
        }
      ],
      "name": "Submission",
      "type": "event"
    },
    {
      "anonymous": false,
      "inputs": [
        {
          "indexed": false,
          "internalType": "address",
          "name": "account",
          "type": "address"
        }
      ],
      "name": "Unpaused",
      "type": "event"
    },
    {
      "stateMutability": "payable",
      "type": "fallback",
      "payable": true
    },
    {
      "inputs": [],
      "name": "DEFAULT_ADMIN_ROLE",
      "outputs": [
        {
          "internalType": "bytes32",
          "name": "",
          "type": "bytes32"
        }
      ],
      "stateMutability": "view",
      "type": "function",
      "constant": true
    },
    {
      "inputs": [],
      "name": "MEMBER_ROLE",
      "outputs": [
        {
          "internalType": "bytes32",
          "name": "",
          "type": "bytes32"
        }
      ],
      "stateMutability": "view",
      "type": "function",
      "constant": true
    },
    {
      "inputs": [],
      "name": "OWNER_ROLE",
      "outputs": [
        {
          "internalType": "bytes32",
          "name": "",
          "type": "bytes32"
        }
      ],
      "stateMutability": "view",
      "type": "function",
      "constant": true
    },
    {
      "inputs": [],
      "name": "balance",
      "outputs": [
        {
          "internalType": "uint256",
          "name": "",
          "type": "uint256"
        }
      ],
      "stateMutability": "view",
      "type": "function",
      "constant": true
    },
    {
      "inputs": [
        {
          "internalType": "uint256",
          "name": "",
          "type": "uint256"
        },
        {
          "internalType": "address",
          "name": "",
          "type": "address"
        }
      ],
      "name": "confirmations",
      "outputs": [
        {
          "internalType": "bool",
          "name": "",
          "type": "bool"
        }
      ],
      "stateMutability": "view",
      "type": "function",
      "constant": true
    },
    {
      "inputs": [],
      "name": "contribution",
      "outputs": [
        {
          "internalType": "uint256",
          "name": "",
          "type": "uint256"
        }
      ],
      "stateMutability": "view",
      "type": "function",
      "constant": true
    },
    {
      "inputs": [
        {
          "internalType": "bytes32",
          "name": "role",
          "type": "bytes32"
        }
      ],
      "name": "getRoleAdmin",
      "outputs": [
        {
          "internalType": "bytes32",
          "name": "",
          "type": "bytes32"
        }
      ],
      "stateMutability": "view",
      "type": "function",
      "constant": true
    },
    {
      "inputs": [
        {
          "internalType": "bytes32",
          "name": "role",
          "type": "bytes32"
        },
        {
          "internalType": "address",
          "name": "account",
          "type": "address"
        }
      ],
      "name": "grantRole",
      "outputs": [],
      "stateMutability": "nonpayable",
      "type": "function"
    },
    {
      "inputs": [
        {
          "internalType": "bytes32",
          "name": "role",
          "type": "bytes32"
        },
        {
          "internalType": "address",
          "name": "account",
          "type": "address"
        }
      ],
      "name": "hasRole",
      "outputs": [
        {
          "internalType": "bool",
          "name": "",
          "type": "bool"
        }
      ],
      "stateMutability": "view",
      "type": "function",
      "constant": true
    },
    {
      "inputs": [
        {
          "internalType": "uint256",
          "name": "",
          "type": "uint256"
        }
      ],
      "name": "members",
      "outputs": [
        {
          "internalType": "address",
          "name": "",
          "type": "address"
        }
      ],
      "stateMutability": "view",
      "type": "function",
      "constant": true
    },
    {
      "inputs": [
        {
          "internalType": "uint256",
          "name": "",
          "type": "uint256"
        }
      ],
      "name": "owners",
      "outputs": [
        {
          "internalType": "address",
          "name": "",
          "type": "address"
        }
      ],
      "stateMutability": "view",
      "type": "function",
      "constant": true
    },
    {
      "inputs": [],
      "name": "paused",
      "outputs": [
        {
          "internalType": "bool",
          "name": "",
          "type": "bool"
        }
      ],
      "stateMutability": "view",
      "type": "function",
      "constant": true
    },
    {
      "inputs": [
        {
          "internalType": "bytes32",
          "name": "role",
          "type": "bytes32"
        },
        {
          "internalType": "address",
          "name": "account",
          "type": "address"
        }
      ],
      "name": "renounceRole",
      "outputs": [],
      "stateMutability": "nonpayable",
      "type": "function"
    },
    {
      "inputs": [],
      "name": "required",
      "outputs": [
        {
          "internalType": "uint256",
          "name": "",
          "type": "uint256"
        }
      ],
      "stateMutability": "view",
      "type": "function",
      "constant": true
    },
    {
      "inputs": [
        {
          "internalType": "bytes32",
          "name": "role",
          "type": "bytes32"
        },
        {
          "internalType": "address",
          "name": "account",
          "type": "address"
        }
      ],
      "name": "revokeRole",
      "outputs": [],
      "stateMutability": "nonpayable",
      "type": "function"
    },
    {
      "inputs": [
        {
          "internalType": "bytes4",
          "name": "interfaceId",
          "type": "bytes4"
        }
      ],
      "name": "supportsInterface",
      "outputs": [
        {
          "internalType": "bool",
          "name": "",
          "type": "bool"
        }
      ],
      "stateMutability": "view",
      "type": "function",
      "constant": true
    },
    {
      "inputs": [],
      "name": "transactionCount",
      "outputs": [
        {
          "internalType": "uint256",
          "name": "",
          "type": "uint256"
        }
      ],
      "stateMutability": "view",
      "type": "function",
      "constant": true
    },
    {
      "inputs": [
        {
          "internalType": "uint256",
          "name": "",
          "type": "uint256"
        }
      ],
      "name": "transactions",
      "outputs": [
        {
          "internalType": "string",
          "name": "name",
          "type": "string"
        },
        {
          "internalType": "address",
          "name": "destination",
          "type": "address"
        },
        {
          "internalType": "uint256",
          "name": "value",
          "type": "uint256"
        },
        {
          "internalType": "enum BurialStokvelAccount.State",
          "name": "state",
          "type": "uint8"
        }
      ],
      "stateMutability": "view",
      "type": "function",
      "constant": true
    },
    {
      "stateMutability": "payable",
      "type": "receive",
      "payable": true
    },
    {
      "inputs": [],
      "name": "unpause",
      "outputs": [],
      "stateMutability": "nonpayable",
      "type": "function"
    },
    {
      "inputs": [],
      "name": "pause",
      "outputs": [],
      "stateMutability": "nonpayable",
      "type": "function"
    },
    {
      "inputs": [],
      "name": "applyAsApprover",
      "outputs": [],
      "stateMutability": "nonpayable",
      "type": "function"
    },
    {
      "inputs": [],
      "name": "enroll",
      "outputs": [],
      "stateMutability": "payable",
      "type": "function",
      "payable": true
    },
    {
      "inputs": [
        {
          "internalType": "uint256",
          "name": "_value",
          "type": "uint256"
        },
        {
          "internalType": "string",
          "name": "_name",
          "type": "string"
        }
      ],
      "name": "submitRequest",
      "outputs": [
        {
          "internalType": "uint256",
          "name": "",
          "type": "uint256"
        }
      ],
      "stateMutability": "nonpayable",
      "type": "function"
    },
    {
      "inputs": [
        {
          "internalType": "uint256",
          "name": "_transactionId",
          "type": "uint256"
        }
      ],
      "name": "confirmTransaction",
      "outputs": [],
      "stateMutability": "nonpayable",
      "type": "function"
    },
    {
      "inputs": [
        {
          "internalType": "uint256",
          "name": "_transactionId",
          "type": "uint256"
        }
      ],
      "name": "isConfirmed",
      "outputs": [
        {
          "internalType": "bool",
          "name": "confirmed",
          "type": "bool"
        }
      ],
      "stateMutability": "view",
      "type": "function",
      "constant": true
    },
    {
      "inputs": [
        {
          "internalType": "uint256",
          "name": "_transactionId",
          "type": "uint256"
        }
      ],
      "name": "withdraw",
      "outputs": [],
      "stateMutability": "nonpayable",
      "type": "function"
    },
    {
      "inputs": [],
      "name": "getAllTransactionIDs",
      "outputs": [
        {
          "internalType": "uint256[]",
          "name": "",
          "type": "uint256[]"
        }
      ],
      "stateMutability": "view",
      "type": "function",
      "constant": true
    },
    {
      "inputs": [
        {
          "internalType": "uint256",
          "name": "_transactionId",
          "type": "uint256"
        }
      ],
      "name": "fetchTransaction",
      "outputs": [
        {
          "internalType": "string",
          "name": "name",
          "type": "string"
        },
        {
          "internalType": "uint256",
          "name": "value",
          "type": "uint256"
        },
        {
          "internalType": "address",
          "name": "destination",
          "type": "address"
        },
        {
          "internalType": "string",
          "name": "state",
          "type": "string"
        }
      ],
      "stateMutability": "view",
      "type": "function",
      "constant": true
    },
    {
      "inputs": [],
      "name": "getOwners",
      "outputs": [
        {
          "internalType": "address[]",
          "name": "",
          "type": "address[]"
        }
      ],
      "stateMutability": "view",
      "type": "function",
      "constant": true
    },
    {
      "inputs": [],
      "name": "getMembers",
      "outputs": [
        {
          "internalType": "address[]",
          "name": "",
          "type": "address[]"
        }
      ],
      "stateMutability": "view",
      "type": "function",
      "constant": true
    },
    {
      "inputs": [],
      "name": "getMinimumContribution",
      "outputs": [
        {
          "internalType": "uint256",
          "name": "",
          "type": "uint256"
        }
      ],
      "stateMutability": "view",
      "type": "function",
      "constant": true
    },
    {
      "inputs": [],
      "name": "getNumberofRequiredApprovals",
      "outputs": [
        {
          "internalType": "uint256",
          "name": "",
          "type": "uint256"
        }
      ],
      "stateMutability": "view",
      "type": "function",
      "constant": true
    },
    {
      "inputs": [],
      "name": "getBalance",
      "outputs": [
        {
          "internalType": "uint256",
          "name": "",
          "type": "uint256"
        }
      ],
      "stateMutability": "view",
      "type": "function",
      "constant": true
    },
    {
      "inputs": [],
      "name": "cancelTransaction",
      "outputs": [],
      "stateMutability": "nonpayable",
      "type": "function"
    },
    {
      "inputs": [],
      "name": "removeMember",
      "outputs": [],
      "stateMutability": "nonpayable",
      "type": "function"
    }
  ],
  "bytecode": "0x60806040523480156200001157600080fd5b5060405162003df838038062003df883398181016040528101906200003791906200010a565b60008060006101000a81548160ff0219169083151502179055506000811162000097576040517f08c379a00000000000000000000000000000000000000000000000000000000081526004016200008e906200023d565b60405180910390fd5b60008211620000dd576040517f08c379a0000000000000000000000000000000000000000000000000000000008152600401620000d4906200021b565b60405180910390fd5b8160048190555080600681905550505062000294565b60008151905062000104816200027a565b92915050565b600080604083850312156200011e57600080fd5b60006200012e85828601620000f3565b92505060206200014185828601620000f3565b9150509250929050565b60006200015a6034836200025f565b91507f4e756d626572206f6620726571756972656420617070726f766572732068617360008301527f20746f206265206c6172676572207468616e20300000000000000000000000006020830152604082019050919050565b6000620001c26024836200025f565b91507f436f6e747269627574696f6e2068617320746f206265206c617267657220746860008301527f616e2030000000000000000000000000000000000000000000000000000000006020830152604082019050919050565b6000602082019050818103600083015262000236816200014b565b9050919050565b600060208201905081810360008301526200025881620001b3565b9050919050565b600082825260208201905092915050565b6000819050919050565b620002858162000270565b81146200029157600080fd5b50565b613b5480620002a46000396000f3fe6080604052600436106102085760003560e01c8063893b28d811610118578063b77bf600116100a0578063dc8452cd1161006f578063dc8452cd14610847578063e58378bb14610872578063e65f2a7e1461089d578063eafa23bd146108a7578063f84038b1146108d25761027f565b8063b77bf6001461079f578063b8d437bd146107ca578063c01a8c84146107f5578063d547741f1461081e5761027f565b80639eab5253116100e75780639eab5253146106c8578063a0e67e2b146106f3578063a10f469e1461071e578063a217fddf14610749578063b69ef8a8146107745761027f565b8063893b28d81461061d578063904c0b3a1461063457806391d148541461064b5780639ace38c2146106885761027f565b806336568abe1161019b5780635c975abb1161016a5780635c975abb146105215780635daf08ca1461054c578063685067d514610589578063784547a7146105c95780638456cb59146106065761027f565b806336568abe1461049f5780633f4ba83a146104c857806350520b1f146104df5780635c8cf7501461050a5761027f565b8063248a9ca3116101d7578063248a9ca3146103d35780632e1a7d4d146104105780632f2ff15d146104395780633411c81c146104625761027f565b806301ffc9a7146102f1578063025e7c271461032e57806312065fe01461036b57806316366b26146103965761027f565b3661027f57600034111561027d573373ffffffffffffffffffffffffffffffffffffffff167fe1fffcc4923d04b559f4d29a8bfc6cda04eb5b0d3c460751c2402c5c5cc9109c3460405161025c9190613653565b60405180910390a26005600081548092919061027790613998565b91905055505b005b60003411156102ef573373ffffffffffffffffffffffffffffffffffffffff167fe1fffcc4923d04b559f4d29a8bfc6cda04eb5b0d3c460751c2402c5c5cc9109c346040516102ce9190613653565b60405180910390a2600560008154809291906102e990613998565b91905055505b005b3480156102fd57600080fd5b5061031860048036038101906103139190612ab7565b6108fd565b604051610325919061339c565b60405180910390f35b34801561033a57600080fd5b5061035560048036038101906103509190612ae0565b610977565b604051610362919061333d565b60405180910390f35b34801561037757600080fd5b506103806109b6565b60405161038d9190613653565b60405180910390f35b3480156103a257600080fd5b506103bd60048036038101906103b89190612b45565b6109c0565b6040516103ca9190613653565b60405180910390f35b3480156103df57600080fd5b506103fa60048036038101906103f59190612a52565b610abf565b60405161040791906133b7565b60405180910390f35b34801561041c57600080fd5b5061043760048036038101906104329190612ae0565b610adf565b005b34801561044557600080fd5b50610460600480360381019061045b9190612a7b565b610bd7565b005b34801561046e57600080fd5b5061048960048036038101906104849190612b09565b610c00565b604051610496919061339c565b60405180910390f35b3480156104ab57600080fd5b506104c660048036038101906104c19190612a7b565b610c2f565b005b3480156104d457600080fd5b506104dd610cb2565b005b3480156104eb57600080fd5b506104f4610cef565b6040516105019190613653565b60405180910390f35b34801561051657600080fd5b5061051f610cf5565b005b34801561052d57600080fd5b50610536610cf7565b604051610543919061339c565b60405180910390f35b34801561055857600080fd5b50610573600480360381019061056e9190612ae0565b610d0d565b604051610580919061333d565b60405180910390f35b34801561059557600080fd5b506105b060048036038101906105ab9190612ae0565b610d4c565b6040516105c09493929190613440565b60405180910390f35b3480156105d557600080fd5b506105f060048036038101906105eb9190612ae0565b6110ec565b6040516105fd919061339c565b60405180910390f35b34801561061257600080fd5b5061061b611207565b005b34801561062957600080fd5b50610632611244565b005b34801561064057600080fd5b506106496113ab565b005b34801561065757600080fd5b50610672600480360381019061066d9190612a7b565b6113ad565b60405161067f919061339c565b60405180910390f35b34801561069457600080fd5b506106af60048036038101906106aa9190612ae0565b611418565b6040516106bf94939291906133f4565b60405180910390f35b3480156106d457600080fd5b506106dd6114fd565b6040516106ea9190613358565b60405180910390f35b3480156106ff57600080fd5b5061070861158b565b6040516107159190613358565b60405180910390f35b34801561072a57600080fd5b50610733611619565b60405161074091906133b7565b60405180910390f35b34801561075557600080fd5b5061075e61163d565b60405161076b91906133b7565b60405180910390f35b34801561078057600080fd5b50610789611644565b6040516107969190613653565b60405180910390f35b3480156107ab57600080fd5b506107b461164a565b6040516107c19190613653565b60405180910390f35b3480156107d657600080fd5b506107df611650565b6040516107ec9190613653565b60405180910390f35b34801561080157600080fd5b5061081c60048036038101906108179190612ae0565b61165a565b005b34801561082a57600080fd5b5061084560048036038101906108409190612a7b565b611979565b005b34801561085357600080fd5b5061085c6119a2565b6040516108699190613653565b60405180910390f35b34801561087e57600080fd5b506108876119a8565b60405161089491906133b7565b60405180910390f35b6108a56119cc565b005b3480156108b357600080fd5b506108bc611c22565b6040516108c9919061337a565b60405180910390f35b3480156108de57600080fd5b506108e7611c7a565b6040516108f49190613653565b60405180910390f35b60007f7965db0b000000000000000000000000000000000000000000000000000000007bffffffffffffffffffffffffffffffffffffffffffffffffffffffff1916827bffffffffffffffffffffffffffffffffffffffffffffffffffffffff19161480610970575061096f82611c84565b5b9050919050565b6002818154811061098757600080fd5b906000526020600020016000915054906101000a900473ffffffffffffffffffffffffffffffffffffffff1681565b6000600554905090565b60007f829b824e2329e205435d941c9f13baf578548505283d29261236d8e6596d46366109f4816109ef611cee565b611cf6565b33610a1f7fb19546dff01e856fb3f010c267a7b1c60363cf8a4664e21cc89c26224620214e336113ad565b15610a5f576040517f08c379a0000000000000000000000000000000000000000000000000000000008152600401610a5690613513565b60405180910390fd5b600554851115610aa4576040517f08c379a0000000000000000000000000000000000000000000000000000000008152600401610a9b906135f3565b60405180910390fd5b6000610ab1338787611d93565b905080935050505092915050565b600060016000838152602001908152602001600020600101549050919050565b610ae7610cf7565b15610b27576040517f08c379a0000000000000000000000000000000000000000000000000000000008152600401610b1e90613553565b60405180910390fd5b3373ffffffffffffffffffffffffffffffffffffffff166009600083815260200190815260200160002060010160009054906101000a900473ffffffffffffffffffffffffffffffffffffffff1673ffffffffffffffffffffffffffffffffffffffff1614610bcb576040517f08c379a0000000000000000000000000000000000000000000000000000000008152600401610bc2906135b3565b60405180910390fd5b610bd481611f5b565b50565b610be082610abf565b610bf181610bec611cee565b611cf6565b610bfb83836122e6565b505050565b600a6020528160005260406000206020528060005260406000206000915091509054906101000a900460ff1681565b610c37611cee565b73ffffffffffffffffffffffffffffffffffffffff168173ffffffffffffffffffffffffffffffffffffffff1614610ca4576040517f08c379a0000000000000000000000000000000000000000000000000000000008152600401610c9b90613633565b60405180910390fd5b610cae82826123c6565b5050565b7fb19546dff01e856fb3f010c267a7b1c60363cf8a4664e21cc89c26224620214e610ce481610cdf611cee565b611cf6565b610cec6124a8565b50565b60065481565b565b60008060009054906101000a900460ff16905090565b60038181548110610d1d57600080fd5b906000526020600020016000915054906101000a900473ffffffffffffffffffffffffffffffffffffffff1681565b60606000806060600960008681526020019081526020016000206000018054610d7490613966565b80601f0160208091040260200160405190810160405280929190818152602001828054610da090613966565b8015610ded5780601f10610dc257610100808354040283529160200191610ded565b820191906000526020600020905b815481529060010190602001808311610dd057829003601f168201915b50505050509350600960008681526020019081526020016000206002015492506009600086815260200190815260200160002060010160009054906101000a900473ffffffffffffffffffffffffffffffffffffffff16915060006002811115610e80577f4e487b7100000000000000000000000000000000000000000000000000000000600052602160045260246000fd5b6009600087815260200190815260200160002060030160009054906101000a900460ff166002811115610edc577f4e487b7100000000000000000000000000000000000000000000000000000000600052602160045260246000fd5b1415610f1f576040518060400160405280600881526020017f457865637574656400000000000000000000000000000000000000000000000081525090506110e5565b60016002811115610f59577f4e487b7100000000000000000000000000000000000000000000000000000000600052602160045260246000fd5b6009600087815260200190815260200160002060030160009054906101000a900460ff166002811115610fb5577f4e487b7100000000000000000000000000000000000000000000000000000000600052602160045260246000fd5b1415610ff8576040518060400160405280600781526020017f50656e64696e670000000000000000000000000000000000000000000000000081525090506110e4565b600280811115611031577f4e487b7100000000000000000000000000000000000000000000000000000000600052602160045260246000fd5b6009600087815260200190815260200160002060030160009054906101000a900460ff16600281111561108d577f4e487b7100000000000000000000000000000000000000000000000000000000600052602160045260246000fd5b14156110d0576040518060400160405280600881526020017f417070726f76656400000000000000000000000000000000000000000000000081525090506110e3565b6040518060200160405280600081525090505b5b5b9193509193565b600080600090506000915060005b60028054905081101561120057600a6000858152602001908152602001600020600060028381548110611156577f4e487b7100000000000000000000000000000000000000000000000000000000600052603260045260246000fd5b9060005260206000200160009054906101000a900473ffffffffffffffffffffffffffffffffffffffff1673ffffffffffffffffffffffffffffffffffffffff1673ffffffffffffffffffffffffffffffffffffffff16815260200190815260200160002060009054906101000a900460ff16156111de576001826111db9190613773565b91505b6004548214156111ed57600192505b80806111f890613998565b9150506110fa565b5050919050565b7fb19546dff01e856fb3f010c267a7b1c60363cf8a4664e21cc89c26224620214e61123981611234611cee565b611cf6565b611241612549565b50565b3361126f7f829b824e2329e205435d941c9f13baf578548505283d29261236d8e6596d4636336113ad565b156112af576040517f08c379a00000000000000000000000000000000000000000000000000000000081526004016112a6906134d3565b60405180910390fd5b336112da7fb19546dff01e856fb3f010c267a7b1c60363cf8a4664e21cc89c26224620214e336113ad565b1561131a576040517f08c379a000000000000000000000000000000000000000000000000000000000815260040161131190613513565b60405180910390fd5b6113447fb19546dff01e856fb3f010c267a7b1c60363cf8a4664e21cc89c26224620214e336125eb565b6002339080600181540180825580915050600190039060005260206000200160009091909190916101000a81548173ffffffffffffffffffffffffffffffffffffffff021916908373ffffffffffffffffffffffffffffffffffffffff1602179055505050565b565b60006001600084815260200190815260200160002060000160008373ffffffffffffffffffffffffffffffffffffffff1673ffffffffffffffffffffffffffffffffffffffff16815260200190815260200160002060009054906101000a900460ff16905092915050565b600960205280600052604060002060009150905080600001805461143b90613966565b80601f016020809104026020016040519081016040528092919081815260200182805461146790613966565b80156114b45780601f10611489576101008083540402835291602001916114b4565b820191906000526020600020905b81548152906001019060200180831161149757829003601f168201915b5050505050908060010160009054906101000a900473ffffffffffffffffffffffffffffffffffffffff16908060020154908060030160009054906101000a900460ff16905084565b6060600380548060200260200160405190810160405280929190818152602001828054801561158157602002820191906000526020600020905b8160009054906101000a900473ffffffffffffffffffffffffffffffffffffffff1673ffffffffffffffffffffffffffffffffffffffff1681526020019060010190808311611537575b5050505050905090565b6060600280548060200260200160405190810160405280929190818152602001828054801561160f57602002820191906000526020600020905b8160009054906101000a900473ffffffffffffffffffffffffffffffffffffffff1673ffffffffffffffffffffffffffffffffffffffff16815260200190600101908083116115c5575b5050505050905090565b7f829b824e2329e205435d941c9f13baf578548505283d29261236d8e6596d463681565b6000801b81565b60055481565b60075481565b6000600454905090565b7fb19546dff01e856fb3f010c267a7b1c60363cf8a4664e21cc89c26224620214e61168c81611687611cee565b611cf6565b600073ffffffffffffffffffffffffffffffffffffffff166009600084815260200190815260200160002060010160009054906101000a900473ffffffffffffffffffffffffffffffffffffffff1673ffffffffffffffffffffffffffffffffffffffff161415611732576040517f08c379a000000000000000000000000000000000000000000000000000000000815260040161172990613573565b60405180910390fd5b60001515600a600084815260200190815260200160002060003373ffffffffffffffffffffffffffffffffffffffff1673ffffffffffffffffffffffffffffffffffffffff16815260200190815260200160002060009054906101000a900460ff161515146117d6576040517f08c379a00000000000000000000000000000000000000000000000000000000081526004016117cd906135d3565b60405180910390fd5b6001600a600084815260200190815260200160002060003373ffffffffffffffffffffffffffffffffffffffff1673ffffffffffffffffffffffffffffffffffffffff16815260200190815260200160002060006101000a81548160ff02191690831515021790555060006040518060400160405280600581526020017f66616c73650000000000000000000000000000000000000000000000000000008152509050611882836110ec565b156119255760026009600085815260200190815260200160002060030160006101000a81548160ff021916908360028111156118e7577f4e487b7100000000000000000000000000000000000000000000000000000000600052602160045260246000fd5b02179055506040518060400160405280600481526020017f747275650000000000000000000000000000000000000000000000000000000081525090505b823373ffffffffffffffffffffffffffffffffffffffff167fbbd347b0b26e5ecc8cd8676faf574878fdbc8fc0d744f3a8d42f72ce24eb22518360405161196c91906133d2565b60405180910390a3505050565b61198282610abf565b6119938161198e611cee565b611cf6565b61199d83836123c6565b505050565b60045481565b7fb19546dff01e856fb3f010c267a7b1c60363cf8a4664e21cc89c26224620214e81565b336119f77f829b824e2329e205435d941c9f13baf578548505283d29261236d8e6596d4636336113ad565b15611a37576040517f08c379a0000000000000000000000000000000000000000000000000000000008152600401611a2e906134d3565b60405180910390fd5b33611a627fb19546dff01e856fb3f010c267a7b1c60363cf8a4664e21cc89c26224620214e336113ad565b15611aa2576040517f08c379a0000000000000000000000000000000000000000000000000000000008152600401611a9990613513565b60405180910390fd5b600654341015611ae7576040517f08c379a0000000000000000000000000000000000000000000000000000000008152600401611ade90613613565b60405180910390fd5b611b117f829b824e2329e205435d941c9f13baf578548505283d29261236d8e6596d4636336125eb565b6003339080600181540180825580915050600190039060005260206000200160009091909190916101000a81548173ffffffffffffffffffffffffffffffffffffffff021916908373ffffffffffffffffffffffffffffffffffffffff1602179055503373ffffffffffffffffffffffffffffffffffffffff167f990c442e6adb818b8fa7db3cf1023decd07f7b66e5306928c7ed527d974192bb60405160405180910390a23460056000828254611bc99190613773565b925050819055503373ffffffffffffffffffffffffffffffffffffffff167fe1fffcc4923d04b559f4d29a8bfc6cda04eb5b0d3c460751c2402c5c5cc9109c34604051611c169190613653565b60405180910390a25050565b60606008805480602002602001604051908101604052809291908181526020018280548015611c7057602002820191906000526020600020905b815481526020019060010190808311611c5c575b5050505050905090565b6000600654905090565b60007f01ffc9a7000000000000000000000000000000000000000000000000000000007bffffffffffffffffffffffffffffffffffffffffffffffffffffffff1916827bffffffffffffffffffffffffffffffffffffffffffffffffffffffff1916149050919050565b600033905090565b611d0082826113ad565b611d8f57611d258173ffffffffffffffffffffffffffffffffffffffff1660146125f9565b611d338360001c60206125f9565b604051602001611d44929190613303565b6040516020818303038152906040526040517f08c379a0000000000000000000000000000000000000000000000000000000008152600401611d8691906133d2565b60405180910390fd5b5050565b6000600754905060405180608001604052808381526020018573ffffffffffffffffffffffffffffffffffffffff16815260200184815260200160016002811115611e07577f4e487b7100000000000000000000000000000000000000000000000000000000600052602160045260246000fd5b815250600960008381526020019081526020016000206000820151816000019080519060200190611e399291906128f3565b5060208201518160010160006101000a81548173ffffffffffffffffffffffffffffffffffffffff021916908373ffffffffffffffffffffffffffffffffffffffff1602179055506040820151816002015560608201518160030160006101000a81548160ff02191690836002811115611edc577f4e487b7100000000000000000000000000000000000000000000000000000000600052602160045260246000fd5b02179055509050506008819080600181540180825580915050600190039060005260206000200160009091909190915055600160076000828254611f209190613773565b92505081905550807fc0ba8fe4b176c1714197d43b9cc6bcf797a4a7461c5fe8d0ef6e184ae7601e5160405160405180910390a29392505050565b600280811115611f94577f4e487b7100000000000000000000000000000000000000000000000000000000600052602160045260246000fd5b6009600083815260200190815260200160002060030160009054906101000a900460ff166002811115611ff0577f4e487b7100000000000000000000000000000000000000000000000000000000600052602160045260246000fd5b14612030576040517f08c379a000000000000000000000000000000000000000000000000000000000815260040161202790613593565b60405180910390fd5b6005546009600083815260200190815260200160002060020154111561208b576040517f08c379a000000000000000000000000000000000000000000000000000000000815260040161208290613533565b60405180910390fd5b612094816110ec565b156122e357600060096000838152602001908152602001600020905060008160030160006101000a81548160ff021916908360028111156120fe577f4e487b7100000000000000000000000000000000000000000000000000000000600052602160045260246000fd5b021790555060096000838152602001908152602001600020600201546005546121279190613823565b60058190555060008160010160009054906101000a900473ffffffffffffffffffffffffffffffffffffffff1673ffffffffffffffffffffffffffffffffffffffff1634604051612177906132ee565b60006040518083038185875af1925050503d80600081146121b4576040519150601f19603f3d011682016040523d82523d6000602084013e6121b9565b606091505b5050905080156121f557827f33e13ecb54c3076d8e8bb8c2881800a4d972b792045ffae98fdf46df365fed7560405160405180910390a26122e0565b827f526441bb6c1aba3c9a4a6ca1d6545da9c2333c8c48343ef398eb858d72b7923660405160405180910390a260028260030160006101000a81548160ff02191690836002811115612270577f4e487b7100000000000000000000000000000000000000000000000000000000600052602160045260246000fd5b021790555060096000848152602001908152602001600020600201546005546122999190613773565b600581905550806122df576040517f08c379a00000000000000000000000000000000000000000000000000000000081526004016122d6906134f3565b60405180910390fd5b5b50505b50565b6122f082826113ad565b6123c257600180600084815260200190815260200160002060000160008373ffffffffffffffffffffffffffffffffffffffff1673ffffffffffffffffffffffffffffffffffffffff16815260200190815260200160002060006101000a81548160ff021916908315150217905550612367611cee565b73ffffffffffffffffffffffffffffffffffffffff168173ffffffffffffffffffffffffffffffffffffffff16837f2f8788117e7eff1d82e926ec794901d17c78024a50270940304540a733656f0d60405160405180910390a45b5050565b6123d082826113ad565b156124a45760006001600084815260200190815260200160002060000160008373ffffffffffffffffffffffffffffffffffffffff1673ffffffffffffffffffffffffffffffffffffffff16815260200190815260200160002060006101000a81548160ff021916908315150217905550612449611cee565b73ffffffffffffffffffffffffffffffffffffffff168173ffffffffffffffffffffffffffffffffffffffff16837ff6391f5c32d9c69d2a47ea670b442974b53935d1edc7fd64eb21e047a839171b60405160405180910390a45b5050565b6124b0610cf7565b6124ef576040517f08c379a00000000000000000000000000000000000000000000000000000000081526004016124e6906134b3565b60405180910390fd5b60008060006101000a81548160ff0219169083151502179055507f5db9ee0a495bf2e6ff9c91a7834c1ba4fdd244a5e8aa4e537bd38aeae4b073aa612532611cee565b60405161253f919061333d565b60405180910390a1565b612551610cf7565b15612591576040517f08c379a000000000000000000000000000000000000000000000000000000000815260040161258890613553565b60405180910390fd5b60016000806101000a81548160ff0219169083151502179055507f62e78cea01bee320cd4e420270b5ea74000d11b0c9f74754ebdbfc544b05a2586125d4611cee565b6040516125e1919061333d565b60405180910390a1565b6125f582826122e6565b5050565b60606000600283600261260c91906137c9565b6126169190613773565b67ffffffffffffffff811115612655577f4e487b7100000000000000000000000000000000000000000000000000000000600052604160045260246000fd5b6040519080825280601f01601f1916602001820160405280156126875781602001600182028036833780820191505090505b5090507f3000000000000000000000000000000000000000000000000000000000000000816000815181106126e5577f4e487b7100000000000000000000000000000000000000000000000000000000600052603260045260246000fd5b60200101907effffffffffffffffffffffffffffffffffffffffffffffffffffffffffffff1916908160001a9053507f78000000000000000000000000000000000000000000000000000000000000008160018151811061276f577f4e487b7100000000000000000000000000000000000000000000000000000000600052603260045260246000fd5b60200101907effffffffffffffffffffffffffffffffffffffffffffffffffffffffffffff1916908160001a905350600060018460026127af91906137c9565b6127b99190613773565b90505b60018111156128a5577f3031323334353637383961626364656600000000000000000000000000000000600f861660108110612821577f4e487b7100000000000000000000000000000000000000000000000000000000600052603260045260246000fd5b1a60f81b82828151811061285e577f4e487b7100000000000000000000000000000000000000000000000000000000600052603260045260246000fd5b60200101907effffffffffffffffffffffffffffffffffffffffffffffffffffffffffffff1916908160001a905350600485901c94508061289e9061393c565b90506127bc565b50600084146128e9576040517f08c379a00000000000000000000000000000000000000000000000000000000081526004016128e090613493565b60405180910390fd5b8091505092915050565b8280546128ff90613966565b90600052602060002090601f0160209004810192826129215760008555612968565b82601f1061293a57805160ff1916838001178555612968565b82800160010185558215612968579182015b8281111561296757825182559160200191906001019061294c565b5b5090506129759190612979565b5090565b5b8082111561299257600081600090555060010161297a565b5090565b60006129a96129a48461369f565b61366e565b9050828152602081018484840111156129c157600080fd5b6129cc8482856138fa565b509392505050565b6000813590506129e381613ac2565b92915050565b6000813590506129f881613ad9565b92915050565b600081359050612a0d81613af0565b92915050565b600082601f830112612a2457600080fd5b8135612a34848260208601612996565b91505092915050565b600081359050612a4c81613b07565b92915050565b600060208284031215612a6457600080fd5b6000612a72848285016129e9565b91505092915050565b60008060408385031215612a8e57600080fd5b6000612a9c858286016129e9565b9250506020612aad858286016129d4565b9150509250929050565b600060208284031215612ac957600080fd5b6000612ad7848285016129fe565b91505092915050565b600060208284031215612af257600080fd5b6000612b0084828501612a3d565b91505092915050565b60008060408385031215612b1c57600080fd5b6000612b2a85828601612a3d565b9250506020612b3b858286016129d4565b9150509250929050565b60008060408385031215612b5857600080fd5b6000612b6685828601612a3d565b925050602083013567ffffffffffffffff811115612b8357600080fd5b612b8f85828601612a13565b9150509250929050565b6000612ba58383612bc9565b60208301905092915050565b6000612bbd83836132d0565b60208301905092915050565b612bd281613857565b82525050565b612be181613857565b82525050565b6000612bf2826136ef565b612bfc818561372a565b9350612c07836136cf565b8060005b83811015612c38578151612c1f8882612b99565b9750612c2a83613710565b925050600181019050612c0b565b5085935050505092915050565b6000612c50826136fa565b612c5a818561373b565b9350612c65836136df565b8060005b83811015612c96578151612c7d8882612bb1565b9750612c888361371d565b925050600181019050612c69565b5085935050505092915050565b612cac81613869565b82525050565b612cbb81613875565b82525050565b612cca816138e8565b82525050565b6000612cdb82613705565b612ce58185613757565b9350612cf5818560208601613909565b612cfe81613a9d565b840191505092915050565b6000612d1482613705565b612d1e8185613768565b9350612d2e818560208601613909565b80840191505092915050565b6000612d47602083613757565b91507f537472696e67733a20686578206c656e67746820696e73756666696369656e746000830152602082019050919050565b6000612d87601483613757565b91507f5061757361626c653a206e6f74207061757365640000000000000000000000006000830152602082019050919050565b6000612dc7601d83613757565b91507f4170706c6963616e7420697320616c72656164792061206d656d6265720000006000830152602082019050919050565b6000612e07601483613757565b91507f4661696c656420746f2073656e64206d6f6e65790000000000000000000000006000830152602082019050919050565b6000612e47601f83613757565b91507f4170706c6963616e7420697320616c7265616479206120617070726f766572006000830152602082019050919050565b6000612e87603a83613757565b91507f42616c616e6365206e6565647320746f20626520657175616c206f722067726560008301527f61746572207468616e2072657175657374656420616d6f756e740000000000006020830152604082019050919050565b6000612eed601083613757565b91507f5061757361626c653a20706175736564000000000000000000000000000000006000830152602082019050919050565b6000612f2d601e83613757565b91507f446573696e6174696f6e20616464726573732063616e6e6f74206265203000006000830152602082019050919050565b6000612f6d602983613757565b91507f5472616e73616374696f6e206e6565647320746f20626520696e20417070726f60008301527f76656420737461746500000000000000000000000000000000000000000000006020830152604082019050919050565b6000612fd3605083613757565b91507f526571756573746572206f66207769746864726177616c206e6565647320746f60008301527f206265207468652073616d652061732074686520696e69746961746f72206f6660208301527f20696e697469616c2072657175657374000000000000000000000000000000006040830152606082019050919050565b600061305f60008361374c565b9150600082019050919050565b6000613079601783613768565b91507f416363657373436f6e74726f6c3a206163636f756e74200000000000000000006000830152601782019050919050565b60006130b9605283613757565b91507f53656e64657220616464726573732068617320746f20626520657175616c207460008301527f6f2061646472657373206f66206164726573732074686174207375626d69747460208301527f656420696e697469616c207265717565737400000000000000000000000000006040830152606082019050919050565b6000613145604283613757565b91507f416d6f756e74207265717565737465642068617320746f20626520736d616c6c60008301527f6572206f7220657175616c20746f2062616c616e636520696e20636f6e74726160208301527f63740000000000000000000000000000000000000000000000000000000000006040830152606082019050919050565b60006131d1603d83613757565b91507f416d6f756e742073656e742068617320746f206265206c61726765722074686160008301527f6e206d696e696d756d20636f6e747269627574696f6e20616d6f756e740000006020830152604082019050919050565b6000613237601183613768565b91507f206973206d697373696e6720726f6c65200000000000000000000000000000006000830152601182019050919050565b6000613277602f83613757565b91507f416363657373436f6e74726f6c3a2063616e206f6e6c792072656e6f756e636560008301527f20726f6c657320666f722073656c6600000000000000000000000000000000006020830152604082019050919050565b6132d9816138de565b82525050565b6132e8816138de565b82525050565b60006132f982613052565b9150819050919050565b600061330e8261306c565b915061331a8285612d09565b91506133258261322a565b91506133318284612d09565b91508190509392505050565b60006020820190506133526000830184612bd8565b92915050565b600060208201905081810360008301526133728184612be7565b905092915050565b600060208201905081810360008301526133948184612c45565b905092915050565b60006020820190506133b16000830184612ca3565b92915050565b60006020820190506133cc6000830184612cb2565b92915050565b600060208201905081810360008301526133ec8184612cd0565b905092915050565b6000608082019050818103600083015261340e8187612cd0565b905061341d6020830186612bd8565b61342a60408301856132df565b6134376060830184612cc1565b95945050505050565b6000608082019050818103600083015261345a8187612cd0565b905061346960208301866132df565b6134766040830185612bd8565b81810360608301526134888184612cd0565b905095945050505050565b600060208201905081810360008301526134ac81612d3a565b9050919050565b600060208201905081810360008301526134cc81612d7a565b9050919050565b600060208201905081810360008301526134ec81612dba565b9050919050565b6000602082019050818103600083015261350c81612dfa565b9050919050565b6000602082019050818103600083015261352c81612e3a565b9050919050565b6000602082019050818103600083015261354c81612e7a565b9050919050565b6000602082019050818103600083015261356c81612ee0565b9050919050565b6000602082019050818103600083015261358c81612f20565b9050919050565b600060208201905081810360008301526135ac81612f60565b9050919050565b600060208201905081810360008301526135cc81612fc6565b9050919050565b600060208201905081810360008301526135ec816130ac565b9050919050565b6000602082019050818103600083015261360c81613138565b9050919050565b6000602082019050818103600083015261362c816131c4565b9050919050565b6000602082019050818103600083015261364c8161326a565b9050919050565b600060208201905061366860008301846132df565b92915050565b6000604051905081810181811067ffffffffffffffff8211171561369557613694613a6e565b5b8060405250919050565b600067ffffffffffffffff8211156136ba576136b9613a6e565b5b601f19601f8301169050602081019050919050565b6000819050602082019050919050565b6000819050602082019050919050565b600081519050919050565b600081519050919050565b600081519050919050565b6000602082019050919050565b6000602082019050919050565b600082825260208201905092915050565b600082825260208201905092915050565b600081905092915050565b600082825260208201905092915050565b600081905092915050565b600061377e826138de565b9150613789836138de565b9250827fffffffffffffffffffffffffffffffffffffffffffffffffffffffffffffffff038211156137be576137bd6139e1565b5b828201905092915050565b60006137d4826138de565b91506137df836138de565b9250817fffffffffffffffffffffffffffffffffffffffffffffffffffffffffffffffff0483118215151615613818576138176139e1565b5b828202905092915050565b600061382e826138de565b9150613839836138de565b92508282101561384c5761384b6139e1565b5b828203905092915050565b6000613862826138be565b9050919050565b60008115159050919050565b6000819050919050565b60007fffffffff0000000000000000000000000000000000000000000000000000000082169050919050565b60008190506138b982613aae565b919050565b600073ffffffffffffffffffffffffffffffffffffffff82169050919050565b6000819050919050565b60006138f3826138ab565b9050919050565b82818337600083830152505050565b60005b8381101561392757808201518184015260208101905061390c565b83811115613936576000848401525b50505050565b6000613947826138de565b9150600082141561395b5761395a6139e1565b5b600182039050919050565b6000600282049050600182168061397e57607f821691505b6020821081141561399257613991613a3f565b5b50919050565b60006139a3826138de565b91507fffffffffffffffffffffffffffffffffffffffffffffffffffffffffffffffff8214156139d6576139d56139e1565b5b600182019050919050565b7f4e487b7100000000000000000000000000000000000000000000000000000000600052601160045260246000fd5b7f4e487b7100000000000000000000000000000000000000000000000000000000600052602160045260246000fd5b7f4e487b7100000000000000000000000000000000000000000000000000000000600052602260045260246000fd5b7f4e487b7100000000000000000000000000000000000000000000000000000000600052604160045260246000fd5b6000601f19601f8301169050919050565b60038110613abf57613abe613a10565b5b50565b613acb81613857565b8114613ad657600080fd5b50565b613ae281613875565b8114613aed57600080fd5b50565b613af98161387f565b8114613b0457600080fd5b50565b613b10816138de565b8114613b1b57600080fd5b5056fea264697066735822122067892b15841af81c984d84afdf6b95965295a7b38b1815bda38c63aafce545f064736f6c63430008000033",
  "immutableReferences": {},
  "source": "// SPDX-License-Identifier: MIT\npragma solidity 0.8.0;\n\nimport \"@openzeppelin/contracts/security/Pausable.sol\";\nimport \"@openzeppelin/contracts/access/AccessControl.sol\";\n\n/// @title A smart contract for a South African Burial Stokvel\n/// @author Jurgen Schulte\n/// @notice The contract allows for multiple owners and members After members pay a contribution they are able to submit requests for payment which need to be approved by owners.\n/// @dev Deletion and non approval of request will be implemented in later version\ncontract BurialStokvelAccount is Pausable, AccessControl {\n    address[] public owners;\n    address[] public members;\n    bytes32 public constant OWNER_ROLE = keccak256(\"OWNER_ROLE\");\n    bytes32 public constant MEMBER_ROLE = keccak256(\"MEMBER_ROLE\");\n\n    uint256 public required;\n    uint256 public balance;\n    uint256 public contribution;\n\n    // Used to assign transactionID's by incrementing the value\n    uint256 public transactionCount;\n    uint256[] private transactionIDs;\n\n    mapping(uint256 => Transaction) public transactions;\n    mapping(uint256 => mapping(address => bool)) public confirmations;\n\n    enum State {\n        Executed,\n        Pending,\n        Approved\n    }\n\n    struct Transaction {\n        string name;\n        address destination;\n        uint256 value;\n        State state;\n    }\n\n    /// @notice Emitted when a request is submitted\n    /// @param transactionId Transaction ID\n    event Submission(uint256 indexed transactionId);\n\n    /// @notice Emitted when a submitted request is confirmed\n    /// @param sender Sender address\n    /// @param transactionId Transaction id\n    /// @param approved A boolean indication if the confirmed transaction is approved\n    event Confirmation(\n        address indexed sender,\n        uint256 indexed transactionId,\n        string approved\n    );\n\n    /// @notice Emitted when a transfer of funds is executed\n    /// @param transactionId Transaction ID\n    event Execution(uint256 indexed transactionId);\n\n    /// @notice Emitted when a transfer of funds fails\n    /// @param transactionId Transaction ID\n    event ExecutionFailure(uint256 indexed transactionId);\n\n    /// @notice Emitted when a address is enrolled as a member\n    /// @param accountAddress Account of member\n    event LogEnrolled(address indexed accountAddress);\n\n    /// @notice Emitted when a member deposits his contribution\n    /// @param sender Sender address\n    /// @param value Value of contribution\n    event Deposit(address indexed sender, uint256 value);\n\n    /// @notice Fallback function\n    /// @dev Fallback function allows to deposit ether.\n    fallback() external payable {\n        if (msg.value > 0) {\n            emit Deposit(msg.sender, msg.value);\n            balance++;\n        }\n    }\n\n    /// @notice Receive function\n    /// @dev Receive function allows to deposit ether.\n    receive() external payable {\n        if (msg.value > 0) {\n            emit Deposit(msg.sender, msg.value);\n            balance++;\n        }\n    }\n\n    modifier notMember(address _address) {\n        require(\n            !hasRole(MEMBER_ROLE, msg.sender),\n            \"Applicant is already a member\"\n        );\n        _;\n    }\n\n    modifier notOwner(address _address) {\n        require(\n            !hasRole(OWNER_ROLE, msg.sender),\n            \"Applicant is already a approver\"\n        );\n        _;\n    }\n\n    /// @notice Unpause the contract by owners only.\n    /// @dev This function controls the unpause/pause modifier which is used to prevent withdrawals in case an attack on the contract.\n    function unpause() public onlyRole(OWNER_ROLE) {\n        _unpause();\n    }\n\n    /// @notice Pause the contract by owners only.\n    /// @dev This function controls the unpause/pause modifier which is used to prevent withdrawals in case an attack on the contract.\n    function pause() public onlyRole(OWNER_ROLE) {\n        _pause();\n    }\n\n    /// @notice Contract constructor sets initial owners of the stokvel\n    // account and required number of confirmations.\n    /// @dev Contract constructor sets initial owners of the stokvel account\n    /// and required number of confirmations.\n    /// @param _required Number of required confirmations.\n    /// @param _contribution Required minimum contribution.\n    constructor(uint256 _required, uint256 _contribution) {\n        require(_contribution > 0, \"Contribution has to be larger than 0\");\n        require(\n            _required > 0,\n            \"Number of required approvers has to be larger than 0\"\n        );\n\n        required = _required;\n        contribution = _contribution;\n    }\n\n    /// @notice Enrolls the address as a member\n    /// @dev Checks that the address is not already a member\n    function applyAsApprover()\n        public\n        notMember(msg.sender)\n        notOwner(msg.sender)\n    {\n        _setupRole(OWNER_ROLE, msg.sender);\n        owners.push(msg.sender);\n    }\n\n    /// @notice Enrolls the address as a member\n    /// @dev Checks that the address is not already a member\n    function enroll()\n        public\n        payable\n        notMember(msg.sender)\n        notOwner(msg.sender)\n    {\n        require(\n            msg.value >= contribution,\n            \"Amount sent has to be larger than minimum contribution amount\"\n        );\n        _setupRole(MEMBER_ROLE, msg.sender);\n        members.push(msg.sender);\n        emit LogEnrolled(msg.sender);\n        balance += msg.value;\n        emit Deposit(msg.sender, msg.value);\n    }\n\n    /// @notice Allows member to submit a payment request\n    /// @dev The value of the contribution is checked aaginst the minimum contribution\n    /// stipulated during contract creation\n    /// @param _value Value of contribution in Wei\n    /// @param _name Name of request\n    function submitRequest(uint256 _value, string memory _name)\n        public\n        onlyRole(MEMBER_ROLE)\n        notOwner(msg.sender)\n        returns (uint256)\n    {\n        require(\n            _value <= balance,\n            \"Amount requested has to be smaller or equal to balance in contract\"\n        );\n        uint256 transactionId = addTransaction(msg.sender, _value, _name);\n        return transactionId;\n    }\n\n    /// @dev Adds a new transaction to the transaction mapping, if transaction does not exist yet.\n    /// @param _destination Transaction target address.\n    /// @param _value Transaction wei value.\n    /// @param _name Name of submitted request.\n    /// @return transactionId Returns transaction ID.\n    function addTransaction(\n        address _destination,\n        uint256 _value,\n        string memory _name\n    ) internal returns (uint256 transactionId) {\n        transactionId = transactionCount;\n        transactions[transactionId] = Transaction({\n            name: _name,\n            destination: _destination,\n            value: _value,\n            state: State.Pending\n        });\n        transactionIDs.push(transactionId);\n        transactionCount += 1;\n        emit Submission(transactionId);\n    }\n\n    /// @dev Allows an owner to confirm a transaction.\n    /// @param _transactionId Transaction ID.\n    function confirmTransaction(uint256 _transactionId)\n        public\n        onlyRole(OWNER_ROLE)\n    {\n        //require(isOwner[msg.sender]);\n        require(\n            transactions[_transactionId].destination != address(0),\n            \"Desination address cannot be 0\"\n        );\n        require(\n            confirmations[_transactionId][msg.sender] == false,\n            \"Sender address has to be equal to address of adress that submitted initial request\"\n        );\n        confirmations[_transactionId][msg.sender] = true;\n        string memory approved = \"false\";\n        if (isConfirmed(_transactionId)) {\n            transactions[_transactionId].state = State.Approved;\n            approved = \"true\";\n        }\n\n        emit Confirmation(msg.sender, _transactionId, approved);\n    }\n\n    /// @notice Returns the confirmation status of a transaction.\n    /// @param _transactionId Transaction ID.\n    /// @return confirmed Confirmation status.\n    function isConfirmed(uint256 _transactionId)\n        public\n        view\n        returns (bool confirmed)\n    {\n        uint256 count = 0;\n        confirmed = false;\n        for (uint256 i = 0; i < owners.length; i++) {\n            if (confirmations[_transactionId][owners[i]]) count += 1;\n            if (count == required) confirmed = true;\n        }\n        return confirmed;\n    }\n\n    /// @notice Withdraws the reqiested amount by the member.\n    /// @dev The sender address is checked to ensure it matches that of the initial requestor\n    /// @param _transactionId Transaction ID.\n    function withdraw(uint256 _transactionId) public whenNotPaused {\n        require(\n            transactions[_transactionId].destination == msg.sender,\n            \"Requester of withdrawal needs to be the same as the initiator of initial request\"\n        );\n        executeTransaction(_transactionId);\n    }\n\n    /// @notice Executes the submitted request.\n    /// @dev Transaction is executed if enough confirmations have been\n    /// received and the balance is sufficient.\n    /// @param _transactionId Transaction ID.\n    function executeTransaction(uint256 _transactionId) internal {\n        require(\n            transactions[_transactionId].state == State.Approved,\n            \"Transaction needs to be in Approved state\"\n        );\n        // Check balance\n        require(\n            transactions[_transactionId].value <= balance,\n            \"Balance needs to be equal or greater than requested amount\"\n        );\n        if (isConfirmed(_transactionId)) {\n            Transaction storage t = transactions[_transactionId]; // using the \"storage\" keyword makes \"t\" a pointer to storage\n            t.state = State.Executed;\n            balance = balance - transactions[_transactionId].value;\n            (bool success, ) = t.destination.call{value: msg.value}(\"\");\n            if (success) emit Execution(_transactionId);\n            else {\n                emit ExecutionFailure(_transactionId);\n                t.state = State.Approved;\n                balance = balance + transactions[_transactionId].value;\n                require(success, \"Failed to send money\");\n            }\n        }\n    }\n\n    /// @notice Returns all transaction IDs.\n    /// @return memory All transaction IDs.\n    function getAllTransactionIDs() public view returns (uint256[] memory) {\n        return transactionIDs;\n    }\n\n    /// @notice Returns the details of a transaction.\n    /// @param _transactionId The transaction ID.\n    function fetchTransaction(uint256 _transactionId)\n        public\n        view\n        returns (\n            string memory name,\n            uint256 value,\n            address destination,\n            string memory state\n        )\n    {\n        name = transactions[_transactionId].name;\n        value = transactions[_transactionId].value;\n        destination = transactions[_transactionId].destination;\n        if (transactions[_transactionId].state == State.Executed) {\n            state = \"Executed\";\n        } else if (transactions[_transactionId].state == State.Pending) {\n            state = \"Pending\";\n        } else if (transactions[_transactionId].state == State.Approved) {\n            state = \"Approved\";\n        } else {\n            state = \"\";\n        }\n\n        return (name, value, destination, state);\n    }\n\n    /// @notice Get all owners.\n    /// @return memory All owner addresses.\n    function getOwners() public view returns (address[] memory) {\n        return owners;\n    }\n\n    /// @notice Get all members.\n    /// @return memory All member addresses.\n    function getMembers() public view returns (address[] memory) {\n        return members;\n    }\n\n    /// @notice Get minimum contribution required.\n    /// @return uint256 Minimum contribution.\n    function getMinimumContribution() public view returns (uint256) {\n        return contribution;\n    }\n\n    /// @notice Get number of required approvals.\n    /// @return uint256 Number of required approvals.\n    function getNumberofRequiredApprovals() public view returns (uint256) {\n        return required;\n    }\n\n    /// @notice Get balance of contract.\n    /// @return uint256 Balance of contract.\n    function getBalance() public view returns (uint256) {\n        return balance;\n    }\n\n    /// @notice Allows approver to cancel submitted transaction\n    /// @dev This function will allow owners to cancel submitted requests by members\n    function cancelTransaction() external {\n        // TODO: this will allow owners to cancel transaction. We will need to ensure that a\n        // transaction is only cancelled when enough owners cancel.\n    }\n\n    /// @notice Allows approvers to remove members\n    /// @dev This function will allow owners to remove members members\n    function removeMember() external {\n        // TODO: this will allow owners to remove members and refund their contributions.\n        // This mechanism will ensure owners can remove misbehaving members.\n    }\n}\n",
  "sourcePath": "/Users/jurgen/Consensys/blockchain-developer-bootcamp-final-project/contracts/BurialStokvelAccount.sol",
  "compiler": {
    "name": "solc",
    "version": "0.8.0+commit.c7dfd78e.Emscripten.clang"
  },
  "schemaVersion": "3.4.3",
  "updatedAt": "2021-12-30T14:17:36.543Z",
  "networkType": "ethereum",
  "devdoc": {
    "author": "Jurgen Schulte",
    "details": "Deletion and non approval of request will be implemented in later version",
    "events": {
      "Confirmation(address,uint256,string)": {
        "params": {
          "approved": "A boolean indication if the confirmed transaction is approved",
          "sender": "Sender address",
          "transactionId": "Transaction id"
        }
      },
      "Deposit(address,uint256)": {
        "params": {
          "sender": "Sender address",
          "value": "Value of contribution"
        }
      },
      "Execution(uint256)": {
        "params": {
          "transactionId": "Transaction ID"
        }
      },
      "ExecutionFailure(uint256)": {
        "params": {
          "transactionId": "Transaction ID"
        }
      },
      "LogEnrolled(address)": {
        "params": {
          "accountAddress": "Account of member"
        }
      },
      "Submission(uint256)": {
        "params": {
          "transactionId": "Transaction ID"
        }
      }
    },
    "kind": "dev",
    "methods": {
      "applyAsApprover()": {
        "details": "Checks that the address is not already a member"
      },
      "cancelTransaction()": {
        "details": "This function will allow owners to cancel submitted requests by members"
      },
      "confirmTransaction(uint256)": {
        "details": "Allows an owner to confirm a transaction.",
        "params": {
          "_transactionId": "Transaction ID."
        }
      },
      "constructor": {
        "details": "Contract constructor sets initial owners of the stokvel account and required number of confirmations.",
        "params": {
          "_contribution": "Required minimum contribution.",
          "_required": "Number of required confirmations."
        }
      },
      "enroll()": {
        "details": "Checks that the address is not already a member"
      },
      "fetchTransaction(uint256)": {
        "params": {
          "_transactionId": "The transaction ID."
        }
      },
      "getAllTransactionIDs()": {
        "returns": {
          "_0": "memory All transaction IDs."
        }
      },
      "getBalance()": {
        "returns": {
          "_0": "uint256 Balance of contract."
        }
      },
      "getMembers()": {
        "returns": {
          "_0": "memory All member addresses."
        }
      },
      "getMinimumContribution()": {
        "returns": {
          "_0": "uint256 Minimum contribution."
        }
      },
      "getNumberofRequiredApprovals()": {
        "returns": {
          "_0": "uint256 Number of required approvals."
        }
      },
      "getOwners()": {
        "returns": {
          "_0": "memory All owner addresses."
        }
      },
      "getRoleAdmin(bytes32)": {
        "details": "Returns the admin role that controls `role`. See {grantRole} and {revokeRole}. To change a role's admin, use {_setRoleAdmin}."
      },
      "grantRole(bytes32,address)": {
        "details": "Grants `role` to `account`. If `account` had not been already granted `role`, emits a {RoleGranted} event. Requirements: - the caller must have ``role``'s admin role."
      },
      "hasRole(bytes32,address)": {
        "details": "Returns `true` if `account` has been granted `role`."
      },
      "isConfirmed(uint256)": {
        "params": {
          "_transactionId": "Transaction ID."
        },
        "returns": {
          "confirmed": "Confirmation status."
        }
      },
      "pause()": {
        "details": "This function controls the unpause/pause modifier which is used to prevent withdrawals in case an attack on the contract."
      },
      "paused()": {
        "details": "Returns true if the contract is paused, and false otherwise."
      },
      "removeMember()": {
        "details": "This function will allow owners to remove members members"
      },
      "renounceRole(bytes32,address)": {
        "details": "Revokes `role` from the calling account. Roles are often managed via {grantRole} and {revokeRole}: this function's purpose is to provide a mechanism for accounts to lose their privileges if they are compromised (such as when a trusted device is misplaced). If the calling account had been revoked `role`, emits a {RoleRevoked} event. Requirements: - the caller must be `account`."
      },
      "revokeRole(bytes32,address)": {
        "details": "Revokes `role` from `account`. If `account` had been granted `role`, emits a {RoleRevoked} event. Requirements: - the caller must have ``role``'s admin role."
      },
      "submitRequest(uint256,string)": {
        "details": "The value of the contribution is checked aaginst the minimum contribution stipulated during contract creation",
        "params": {
          "_name": "Name of request",
          "_value": "Value of contribution in Wei"
        }
      },
      "supportsInterface(bytes4)": {
        "details": "See {IERC165-supportsInterface}."
      },
      "unpause()": {
        "details": "This function controls the unpause/pause modifier which is used to prevent withdrawals in case an attack on the contract."
      },
      "withdraw(uint256)": {
        "details": "The sender address is checked to ensure it matches that of the initial requestor",
        "params": {
          "_transactionId": "Transaction ID."
        }
      }
    },
    "title": "A smart contract for a South African Burial Stokvel",
    "version": 1
  },
  "userdoc": {
    "events": {
      "Confirmation(address,uint256,string)": {
        "notice": "Emitted when a submitted request is confirmed"
      },
      "Deposit(address,uint256)": {
        "notice": "Emitted when a member deposits his contribution"
      },
      "Execution(uint256)": {
        "notice": "Emitted when a transfer of funds is executed"
      },
      "ExecutionFailure(uint256)": {
        "notice": "Emitted when a transfer of funds fails"
      },
      "LogEnrolled(address)": {
        "notice": "Emitted when a address is enrolled as a member"
      },
      "Submission(uint256)": {
        "notice": "Emitted when a request is submitted"
      }
    },
    "kind": "user",
    "methods": {
      "applyAsApprover()": {
        "notice": "Enrolls the address as a member"
      },
      "cancelTransaction()": {
        "notice": "Allows approver to cancel submitted transaction"
      },
      "enroll()": {
        "notice": "Enrolls the address as a member"
      },
      "fetchTransaction(uint256)": {
        "notice": "Returns the details of a transaction."
      },
      "getAllTransactionIDs()": {
        "notice": "Returns all transaction IDs."
      },
      "getBalance()": {
        "notice": "Get balance of contract."
      },
      "getMembers()": {
        "notice": "Get all members."
      },
      "getMinimumContribution()": {
        "notice": "Get minimum contribution required."
      },
      "getNumberofRequiredApprovals()": {
        "notice": "Get number of required approvals."
      },
      "getOwners()": {
        "notice": "Get all owners."
      },
      "isConfirmed(uint256)": {
        "notice": "Returns the confirmation status of a transaction."
      },
      "pause()": {
        "notice": "Pause the contract by owners only."
      },
      "removeMember()": {
        "notice": "Allows approvers to remove members"
      },
      "submitRequest(uint256,string)": {
        "notice": "Allows member to submit a payment request"
      },
      "unpause()": {
        "notice": "Unpause the contract by owners only."
      },
      "withdraw(uint256)": {
        "notice": "Withdraws the reqiested amount by the member."
      }
    },
    "notice": "The contract allows for multiple owners and members After members pay a contribution they are able to submit requests for payment which need to be approved by owners.",
    "version": 1
  }
}