{
  "contractName": "BurialStokvelAccount",
  "abi": [
    {
      "inputs": [
        {
          "internalType": "address[]",
          "name": "_owners",
          "type": "address[]"
        },
        {
          "internalType": "uint256",
          "name": "_required",
          "type": "uint256"
        },
        {
          "internalType": "uint256",
          "name": "_contribution",
          "type": "uint256"
        }
      ],
      "payable": false,
      "stateMutability": "nonpayable",
      "type": "constructor"
    },
    {
      "anonymous": false,
      "inputs": [
        {
          "indexed": true,
          "internalType": "address",
          "name": "sender",
          "type": "address"
        },
        {
          "indexed": true,
          "internalType": "uint256",
          "name": "transactionId",
          "type": "uint256"
        }
      ],
      "name": "Confirmation",
      "type": "event"
    },
    {
      "anonymous": false,
      "inputs": [
        {
          "indexed": true,
          "internalType": "address",
          "name": "sender",
          "type": "address"
        },
        {
          "indexed": false,
          "internalType": "uint256",
          "name": "value",
          "type": "uint256"
        }
      ],
      "name": "Deposit",
      "type": "event"
    },
    {
      "anonymous": false,
      "inputs": [
        {
          "indexed": true,
          "internalType": "uint256",
          "name": "transactionId",
          "type": "uint256"
        }
      ],
      "name": "Execution",
      "type": "event"
    },
    {
      "anonymous": false,
      "inputs": [
        {
          "indexed": true,
          "internalType": "uint256",
          "name": "transactionId",
          "type": "uint256"
        }
      ],
      "name": "ExecutionFailure",
      "type": "event"
    },
    {
      "anonymous": false,
      "inputs": [
        {
          "indexed": false,
          "internalType": "address",
          "name": "accountAddress",
          "type": "address"
        }
      ],
      "name": "LogEnrolled",
      "type": "event"
    },
    {
      "anonymous": false,
      "inputs": [
        {
          "indexed": true,
          "internalType": "uint256",
          "name": "transactionId",
          "type": "uint256"
        }
      ],
      "name": "Submission",
      "type": "event"
    },
    {
      "payable": true,
      "stateMutability": "payable",
      "type": "fallback"
    },
    {
      "constant": true,
      "inputs": [],
      "name": "balance",
      "outputs": [
        {
          "internalType": "uint256",
          "name": "",
          "type": "uint256"
        }
      ],
      "payable": false,
      "stateMutability": "view",
      "type": "function"
    },
    {
      "constant": true,
      "inputs": [
        {
          "internalType": "uint256",
          "name": "",
          "type": "uint256"
        },
        {
          "internalType": "address",
          "name": "",
          "type": "address"
        }
      ],
      "name": "confirmations",
      "outputs": [
        {
          "internalType": "bool",
          "name": "",
          "type": "bool"
        }
      ],
      "payable": false,
      "stateMutability": "view",
      "type": "function"
    },
    {
      "constant": true,
      "inputs": [],
      "name": "contribution",
      "outputs": [
        {
          "internalType": "uint256",
          "name": "",
          "type": "uint256"
        }
      ],
      "payable": false,
      "stateMutability": "view",
      "type": "function"
    },
    {
      "constant": true,
      "inputs": [
        {
          "internalType": "address",
          "name": "",
          "type": "address"
        }
      ],
      "name": "isMember",
      "outputs": [
        {
          "internalType": "bool",
          "name": "",
          "type": "bool"
        }
      ],
      "payable": false,
      "stateMutability": "view",
      "type": "function"
    },
    {
      "constant": true,
      "inputs": [
        {
          "internalType": "address",
          "name": "",
          "type": "address"
        }
      ],
      "name": "isOwner",
      "outputs": [
        {
          "internalType": "bool",
          "name": "",
          "type": "bool"
        }
      ],
      "payable": false,
      "stateMutability": "view",
      "type": "function"
    },
    {
      "constant": true,
      "inputs": [
        {
          "internalType": "uint256",
          "name": "",
          "type": "uint256"
        }
      ],
      "name": "owners",
      "outputs": [
        {
          "internalType": "address",
          "name": "",
          "type": "address"
        }
      ],
      "payable": false,
      "stateMutability": "view",
      "type": "function"
    },
    {
      "constant": true,
      "inputs": [],
      "name": "required",
      "outputs": [
        {
          "internalType": "uint256",
          "name": "",
          "type": "uint256"
        }
      ],
      "payable": false,
      "stateMutability": "view",
      "type": "function"
    },
    {
      "constant": true,
      "inputs": [],
      "name": "storedData",
      "outputs": [
        {
          "internalType": "uint256",
          "name": "",
          "type": "uint256"
        }
      ],
      "payable": false,
      "stateMutability": "view",
      "type": "function"
    },
    {
      "constant": true,
      "inputs": [],
      "name": "transactionCount",
      "outputs": [
        {
          "internalType": "uint256",
          "name": "",
          "type": "uint256"
        }
      ],
      "payable": false,
      "stateMutability": "view",
      "type": "function"
    },
    {
      "constant": true,
      "inputs": [
        {
          "internalType": "uint256",
          "name": "",
          "type": "uint256"
        }
      ],
      "name": "transactions",
      "outputs": [
        {
          "internalType": "string",
          "name": "name",
          "type": "string"
        },
        {
          "internalType": "address",
          "name": "destination",
          "type": "address"
        },
        {
          "internalType": "uint256",
          "name": "value",
          "type": "uint256"
        },
        {
          "internalType": "enum BurialStokvelAccount.State",
          "name": "state",
          "type": "uint8"
        }
      ],
      "payable": false,
      "stateMutability": "view",
      "type": "function"
    },
    {
      "constant": false,
      "inputs": [
        {
          "internalType": "uint256",
          "name": "x",
          "type": "uint256"
        }
      ],
      "name": "set",
      "outputs": [],
      "payable": false,
      "stateMutability": "nonpayable",
      "type": "function"
    },
    {
      "constant": true,
      "inputs": [],
      "name": "get",
      "outputs": [
        {
          "internalType": "uint256",
          "name": "",
          "type": "uint256"
        }
      ],
      "payable": false,
      "stateMutability": "view",
      "type": "function"
    },
    {
      "constant": false,
      "inputs": [],
      "name": "enroll",
      "outputs": [
        {
          "internalType": "bool",
          "name": "",
          "type": "bool"
        }
      ],
      "payable": true,
      "stateMutability": "payable",
      "type": "function"
    },
    {
      "constant": false,
      "inputs": [
        {
          "internalType": "uint256",
          "name": "_value",
          "type": "uint256"
        },
        {
          "internalType": "string",
          "name": "_name",
          "type": "string"
        }
      ],
      "name": "submitRequest",
      "outputs": [
        {
          "internalType": "uint256",
          "name": "",
          "type": "uint256"
        }
      ],
      "payable": false,
      "stateMutability": "nonpayable",
      "type": "function"
    },
    {
      "constant": false,
      "inputs": [
        {
          "internalType": "uint256",
          "name": "_transactionId",
          "type": "uint256"
        }
      ],
      "name": "confirmTransaction",
      "outputs": [],
      "payable": false,
      "stateMutability": "nonpayable",
      "type": "function"
    },
    {
      "constant": true,
      "inputs": [
        {
          "internalType": "uint256",
          "name": "_transactionId",
          "type": "uint256"
        }
      ],
      "name": "isConfirmed",
      "outputs": [
        {
          "internalType": "bool",
          "name": "",
          "type": "bool"
        }
      ],
      "payable": false,
      "stateMutability": "view",
      "type": "function"
    },
    {
      "constant": true,
      "inputs": [],
      "name": "getAllTransactionIDs",
      "outputs": [
        {
          "internalType": "uint256[]",
          "name": "",
          "type": "uint256[]"
        }
      ],
      "payable": false,
      "stateMutability": "view",
      "type": "function"
    },
    {
      "constant": true,
      "inputs": [
        {
          "internalType": "uint256",
          "name": "_transactionId",
          "type": "uint256"
        }
      ],
      "name": "fetchTransaction",
      "outputs": [
        {
          "internalType": "string",
          "name": "name",
          "type": "string"
        },
        {
          "internalType": "uint256",
          "name": "value",
          "type": "uint256"
        },
        {
          "internalType": "address",
          "name": "destination",
          "type": "address"
        }
      ],
      "payable": false,
      "stateMutability": "view",
      "type": "function"
    }
  ],
  "bytecode": "0x6080604052600080553480156200001557600080fd5b50604051620017f0380380620017f0833981810160405260608110156200003b57600080fd5b81019080805160405193929190846401000000008211156200005c57600080fd5b838201915060208201858111156200007357600080fd5b82518660208202830111640100000000821117156200009157600080fd5b8083526020830192505050908051906020019060200280838360005b83811015620000ca578082015181840152602081019050620000ad565b50505050905001604052602001805190602001909291908051906020019092919050505082518281811180620001005750600081145b806200010c5750600082145b156200011757600080fd5b600083116200012557600080fd5b83855110156200013457600080fd5b60008090505b8551811015620001be576001600360008884815181106200015757fe5b602002602001015173ffffffffffffffffffffffffffffffffffffffff1673ffffffffffffffffffffffffffffffffffffffff16815260200190815260200160002060006101000a81548160ff02191690831515021790555080806001019150506200013a565b508460019080519060200190620001d7929190620001f1565b508360028190555082600a819055505050505050620002c6565b8280548282559060005260206000209081019282156200026d579160200282015b828111156200026c5782518260006101000a81548173ffffffffffffffffffffffffffffffffffffffff021916908373ffffffffffffffffffffffffffffffffffffffff1602179055509160200191906001019062000212565b5b5090506200027c919062000280565b5090565b620002c391905b80821115620002bf57600081816101000a81549073ffffffffffffffffffffffffffffffffffffffff02191690555060010162000287565b5090565b90565b61151a80620002d66000396000f3fe6080604052600436106101095760003560e01c8063784547a711610095578063b77bf60011610064578063b77bf60014610734578063c01a8c841461075f578063dc8452cd1461079a578063e65f2a7e146107c5578063eafa23bd146107e757610109565b8063784547a71461054a5780639ace38c21461059d578063a230c524146106a0578063b69ef8a81461070957610109565b80633411c81c116100dc5780633411c81c1461035857806350520b1f146103cb57806360fe47b1146103f6578063685067d5146104315780636d4ce63c1461051f57610109565b8063025e7c271461016357806316366b26146101de5780632a1afcd9146102c45780632f54bf6e146102ef575b6000341115610161573373ffffffffffffffffffffffffffffffffffffffff167fe1fffcc4923d04b559f4d29a8bfc6cda04eb5b0d3c460751c2402c5c5cc9109c346040518082815260200191505060405180910390a25b005b34801561016f57600080fd5b5061019c6004803603602081101561018657600080fd5b8101908080359060200190929190505050610853565b604051808273ffffffffffffffffffffffffffffffffffffffff1673ffffffffffffffffffffffffffffffffffffffff16815260200191505060405180910390f35b3480156101ea57600080fd5b506102ae6004803603604081101561020157600080fd5b81019080803590602001909291908035906020019064010000000081111561022857600080fd5b82018360208201111561023a57600080fd5b8035906020019184600183028401116401000000008311171561025c57600080fd5b91908080601f016020809104026020016040519081016040528093929190818152602001838380828437600081840152601f19601f82011690508083019250505050505050919291929050505061088f565b6040518082815260200191505060405180910390f35b3480156102d057600080fd5b506102d9610900565b6040518082815260200191505060405180910390f35b3480156102fb57600080fd5b5061033e6004803603602081101561031257600080fd5b81019080803573ffffffffffffffffffffffffffffffffffffffff169060200190929190505050610906565b604051808215151515815260200191505060405180910390f35b34801561036457600080fd5b506103b16004803603604081101561037b57600080fd5b8101908080359060200190929190803573ffffffffffffffffffffffffffffffffffffffff169060200190929190505050610926565b604051808215151515815260200191505060405180910390f35b3480156103d757600080fd5b506103e0610955565b6040518082815260200191505060405180910390f35b34801561040257600080fd5b5061042f6004803603602081101561041957600080fd5b810190808035906020019092919050505061095b565b005b34801561043d57600080fd5b5061046a6004803603602081101561045457600080fd5b8101908080359060200190929190505050610965565b60405180806020018481526020018373ffffffffffffffffffffffffffffffffffffffff1673ffffffffffffffffffffffffffffffffffffffff168152602001828103825285818151815260200191508051906020019080838360005b838110156104e25780820151818401526020810190506104c7565b50505050905090810190601f16801561050f5780820380516001836020036101000a031916815260200191505b5094505050505060405180910390f35b34801561052b57600080fd5b50610534610a7d565b6040518082815260200191505060405180910390f35b34801561055657600080fd5b506105836004803603602081101561056d57600080fd5b8101908080359060200190929190505050610a86565b604051808215151515815260200191505060405180910390f35b3480156105a957600080fd5b506105d6600480360360208110156105c057600080fd5b8101908080359060200190929190505050610b6b565b60405180806020018573ffffffffffffffffffffffffffffffffffffffff1673ffffffffffffffffffffffffffffffffffffffff16815260200184815260200183600281111561062257fe5b60ff168152602001828103825286818151815260200191508051906020019080838360005b83811015610662578082015181840152602081019050610647565b50505050905090810190601f16801561068f5780820380516001836020036101000a031916815260200191505b509550505050505060405180910390f35b3480156106ac57600080fd5b506106ef600480360360208110156106c357600080fd5b81019080803573ffffffffffffffffffffffffffffffffffffffff169060200190929190505050610c60565b604051808215151515815260200191505060405180910390f35b34801561071557600080fd5b5061071e610c80565b6040518082815260200191505060405180910390f35b34801561074057600080fd5b50610749610c86565b6040518082815260200191505060405180910390f35b34801561076b57600080fd5b506107986004803603602081101561078257600080fd5b8101908080359060200190929190505050610c8c565b005b3480156107a657600080fd5b506107af610e79565b6040518082815260200191505060405180910390f35b6107cd610e7f565b604051808215151515815260200191505060405180910390f35b3480156107f357600080fd5b506107fc611059565b6040518080602001828103825283818151815260200191508051906020019060200280838360005b8381101561083f578082015181840152602081019050610824565b505050509050019250505060405180910390f35b6001818154811061086057fe5b906000526020600020016000915054906101000a900473ffffffffffffffffffffffffffffffffffffffff1681565b6000600460003373ffffffffffffffffffffffffffffffffffffffff1673ffffffffffffffffffffffffffffffffffffffff16815260200190815260200160002060009054906101000a900460ff166108e757600080fd5b60006108f43385856110b1565b90508091505092915050565b60005481565b60036020528060005260406000206000915054906101000a900460ff1681565b60086020528160005260406000206020528060005260406000206000915091509054906101000a900460ff1681565b600a5481565b8060008190555050565b6060600080600760008581526020019081526020016000206000018054600181600116156101000203166002900480601f016020809104026020016040519081016040528092919081815260200182805460018160011615610100020316600290048015610a145780601f106109e957610100808354040283529160200191610a14565b820191906000526020600020905b8154815290600101906020018083116109f757829003601f168201915b50505050509250600760008581526020019081526020016000206002015491506007600085815260200190815260200160002060010160009054906101000a900473ffffffffffffffffffffffffffffffffffffffff1690508282829250925092509193909250565b60008054905090565b6000806000905060008090505b600180549050811015610b635760086000858152602001908152602001600020600060018381548110610ac257fe5b9060005260206000200160009054906101000a900473ffffffffffffffffffffffffffffffffffffffff1673ffffffffffffffffffffffffffffffffffffffff1673ffffffffffffffffffffffffffffffffffffffff16815260200190815260200160002060009054906101000a900460ff1615610b41576001820191505b600254821415610b5657600192505050610b66565b8080600101915050610a93565b50505b919050565b6007602052806000526040600020600091509050806000018054600181600116156101000203166002900480601f016020809104026020016040519081016040528092919081815260200182805460018160011615610100020316600290048015610c175780601f10610bec57610100808354040283529160200191610c17565b820191906000526020600020905b815481529060010190602001808311610bfa57829003601f168201915b5050505050908060010160009054906101000a900473ffffffffffffffffffffffffffffffffffffffff16908060020154908060030160009054906101000a900460ff16905084565b60046020528060005260406000206000915054906101000a900460ff1681565b60095481565b60055481565b600360003373ffffffffffffffffffffffffffffffffffffffff1673ffffffffffffffffffffffffffffffffffffffff16815260200190815260200160002060009054906101000a900460ff16610ce257600080fd5b600073ffffffffffffffffffffffffffffffffffffffff166007600083815260200190815260200160002060010160009054906101000a900473ffffffffffffffffffffffffffffffffffffffff1673ffffffffffffffffffffffffffffffffffffffff161415610d5257600080fd5b600015156008600083815260200190815260200160002060003373ffffffffffffffffffffffffffffffffffffffff1673ffffffffffffffffffffffffffffffffffffffff16815260200190815260200160002060009054906101000a900460ff16151514610dc057600080fd5b60016008600083815260200190815260200160002060003373ffffffffffffffffffffffffffffffffffffffff1673ffffffffffffffffffffffffffffffffffffffff16815260200190815260200160002060006101000a81548160ff021916908315150217905550803373ffffffffffffffffffffffffffffffffffffffff167f4a504a94899432a9846e1aa406dceb1bcfd538bb839071d49d1e5e23f5be30ef60405160405180910390a3610e7681611219565b50565b60025481565b600034600a548110610e9057600080fd5b60001515600460003373ffffffffffffffffffffffffffffffffffffffff1673ffffffffffffffffffffffffffffffffffffffff16815260200190815260200160002060009054906101000a900460ff16151514610eed57600080fd5b6001600460003373ffffffffffffffffffffffffffffffffffffffff1673ffffffffffffffffffffffffffffffffffffffff16815260200190815260200160002060006101000a81548160ff0219169083151502179055507f990c442e6adb818b8fa7db3cf1023decd07f7b66e5306928c7ed527d974192bb33604051808273ffffffffffffffffffffffffffffffffffffffff1673ffffffffffffffffffffffffffffffffffffffff16815260200191505060405180910390a1346009600082825401925050819055503373ffffffffffffffffffffffffffffffffffffffff167fe1fffcc4923d04b559f4d29a8bfc6cda04eb5b0d3c460751c2402c5c5cc9109c346040518082815260200191505060405180910390a2600460003373ffffffffffffffffffffffffffffffffffffffff1673ffffffffffffffffffffffffffffffffffffffff16815260200190815260200160002060009054906101000a900460ff1691505090565b606060068054806020026020016040519081016040528092919081815260200182805480156110a757602002820191906000526020600020905b815481526020019060010190808311611093575b5050505050905090565b6000600554905060405180608001604052808381526020018573ffffffffffffffffffffffffffffffffffffffff168152602001848152602001600160028111156110f857fe5b81525060076000838152602001908152602001600020600082015181600001908051906020019061112a929190611440565b5060208201518160010160006101000a81548173ffffffffffffffffffffffffffffffffffffffff021916908373ffffffffffffffffffffffffffffffffffffffff1602179055506040820151816002015560608201518160030160006101000a81548160ff021916908360028111156111a057fe5b021790555090505060068190806001815401808255809150509060018203906000526020600020016000909192909190915055506001600560008282540192505081905550807fc0ba8fe4b176c1714197d43b9cc6bcf797a4a7461c5fe8d0ef6e184ae7601e5160405160405180910390a29392505050565b6001600281111561122657fe5b6007600083815260200190815260200160002060030160009054906101000a900460ff16600281111561125557fe5b1461125f57600080fd5b61126881610a86565b1561143d57600060076000838152602001908152602001600020905060008160030160006101000a81548160ff021916908360028111156112a557fe5b021790555060008160010160009054906101000a900473ffffffffffffffffffffffffffffffffffffffff1673ffffffffffffffffffffffffffffffffffffffff16826002015460405180600001905060006040518083038185875af1925050503d8060008114611332576040519150601f19603f3d011682016040523d82523d6000602084013e611337565b606091505b50509050801561137357827f33e13ecb54c3076d8e8bb8c2881800a4d972b792045ffae98fdf46df365fed7560405160405180910390a261143a565b827f526441bb6c1aba3c9a4a6ca1d6545da9c2333c8c48343ef398eb858d72b7923660405160405180910390a260018260030160006101000a81548160ff021916908360028111156113c157fe5b021790555080611439576040517f08c379a00000000000000000000000000000000000000000000000000000000081526004018080602001828103825260148152602001807f4661696c656420746f2073656e64206d6f6e657900000000000000000000000081525060200191505060405180910390fd5b5b50505b50565b828054600181600116156101000203166002900490600052602060002090601f016020900481019282601f1061148157805160ff19168380011785556114af565b828001600101855582156114af579182015b828111156114ae578251825591602001919060010190611493565b5b5090506114bc91906114c0565b5090565b6114e291905b808211156114de5760008160009055506001016114c6565b5090565b9056fea265627a7a7231582087949dcb6ec9bcf2e17cabd462bc1355503fb28cdc69e0ed4f1d2de809fb8f7464736f6c63430005100032",
  "source": "// SPDX-License-Identifier: MIT\npragma solidity >=0.4.22 <0.9.0;\n\ncontract BurialStokvelAccount {\n    uint256 public storedData = 0;\n\n    function set(uint256 x) public {\n        storedData = x;\n    }\n\n    function get() public view returns (uint256) {\n        return storedData;\n    }\n\n    address[] public owners;\n    uint256 public required;\n\n    mapping(address => bool) public isOwner;\n    mapping(address => bool) public isMember;\n\n    uint256 public transactionCount;\n    uint256[] private transactionIDs;\n    mapping(uint256 => Transaction) public transactions;\n\n    mapping(uint256 => mapping(address => bool)) public confirmations;\n\n    // <enum State: Executed, Pending, Cancelled>\n    enum State {\n        Executed,\n        Pending,\n        Cancelled\n    }\n\n    struct Transaction {\n        string name;\n        address destination;\n        uint256 value;\n        State state;\n    }\n\n    uint256 public balance;\n    uint256 public contribution;\n\n    //Events\n    event Submission(uint256 indexed transactionId);\n    event Confirmation(address indexed sender, uint256 indexed transactionId);\n    event Execution(uint256 indexed transactionId);\n    event ExecutionFailure(uint256 indexed transactionId);\n    event LogEnrolled(address accountAddress);\n    event Deposit(address indexed sender, uint256 value);\n\n    /// @dev Fallback function allows to deposit ether.\n    function() external payable {\n        if (msg.value > 0) {\n            emit Deposit(msg.sender, msg.value);\n        }\n    }\n\n    /// @dev Contract constructor sets initial owners of the stokvel account and required number of confirmations.\n    /// @param _owners List of initial owners.\n    /// @param _required Number of required confirmations.\n    /// @param _contribution Required minimum contribution.\n    constructor(\n        address[] memory _owners,\n        uint256 _required,\n        uint256 _contribution\n    ) public validRequirement(_owners.length, _required) {\n        require(_contribution > 0);\n        require(_owners.length >= _required);\n        for (uint256 i = 0; i < _owners.length; i++) {\n            isOwner[_owners[i]] = true;\n        }\n        owners = _owners;\n        required = _required;\n        contribution = _contribution;\n    }\n\n    modifier validRequirement(uint256 _ownerCount, uint256 _required) {\n        if (_required > _ownerCount || _required == 0 || _ownerCount == 0)\n            revert();\n        _;\n    }\n\n    modifier validContribution(uint256 _contribution) {\n        if (_contribution >= contribution) revert();\n        _;\n    }\n\n    function enroll()\n        public\n        payable\n        validContribution(msg.value)\n        returns (bool)\n    {\n        require(isMember[msg.sender] == false);\n        isMember[msg.sender] = true;\n        emit LogEnrolled(msg.sender);\n        balance += msg.value;\n        emit Deposit(msg.sender, msg.value);\n        return isMember[msg.sender];\n    }\n\n    /// @dev Allows a member to submit a transaction request.\n    /// @param _value Amount requested.\n    function submitRequest(uint256 _value, string memory _name)\n        public\n        returns (uint256)\n    {\n        require(isMember[msg.sender]);\n        uint256 transactionId = addTransaction(msg.sender, _value, _name);\n        return transactionId;\n    }\n\n    /// @dev Adds a new transaction to the transaction mapping, if transaction does not exist yet.\n    /// @param _destination Transaction target address.\n    /// @param _value Transaction ether value.\n    /// @return Returns transaction ID.\n    function addTransaction(\n        address _destination,\n        uint256 _value,\n        string memory _name\n    ) internal returns (uint256 transactionId) {\n        transactionId = transactionCount;\n        transactions[transactionId] = Transaction({\n            name: _name,\n            destination: _destination,\n            value: _value,\n            state: State.Pending\n        });\n        transactionIDs.push(transactionId);\n        transactionCount += 1;\n        emit Submission(transactionId);\n    }\n\n    /// @dev Allows an owner to confirm a transaction.\n    /// @param _transactionId Transaction ID.\n    function confirmTransaction(uint256 _transactionId) public {\n        require(isOwner[msg.sender]);\n        require(transactions[_transactionId].destination != address(0));\n        require(confirmations[_transactionId][msg.sender] == false);\n        confirmations[_transactionId][msg.sender] = true;\n        emit Confirmation(msg.sender, _transactionId);\n        executeTransaction(_transactionId);\n    }\n\n    /// @dev Returns the confirmation status of a transaction.\n    /// @param _transactionId Transaction ID.\n    /// @return Confirmation status.\n    function isConfirmed(uint256 _transactionId) public view returns (bool) {\n        uint256 count = 0;\n        for (uint256 i = 0; i < owners.length; i++) {\n            if (confirmations[_transactionId][owners[i]]) count += 1;\n            if (count == required) return true;\n        }\n    }\n\n    /// @dev Transaction is executed if enough confirmations have been\n    /// received and the balance is not sufficient.\n    /// @param _transactionId Transaction ID.\n    function executeTransaction(uint256 _transactionId) internal {\n        require(transactions[_transactionId].state == State.Pending);\n        // Check balance\n        if (isConfirmed(_transactionId)) {\n            Transaction storage t = transactions[_transactionId]; // using the \"storage\" keyword makes \"t\" a pointer to storage\n            t.state = State.Executed;\n            (bool success, ) = t.destination.call.value(t.value)(\"\");\n\n            if (success) emit Execution(_transactionId);\n            else {\n                emit ExecutionFailure(_transactionId);\n                t.state = State.Pending;\n\n                require(success, \"Failed to send money\");\n            }\n        }\n    }\n\n    function removePendingTransactionID(uint256 _transactionId) internal {\n        for (uint256 i = 0; i < transactionIDs.length - 1; i++) {\n            transactionIDs[i] = transactionIDs[i + 1];\n        }\n        transactionIDs.pop();\n    }\n\n    function getAllTransactionIDs() public view returns (uint256[] memory) {\n        // Only three pending transactions allowed\n        return transactionIDs;\n    }\n\n    //\n    function fetchTransaction(uint256 _transactionId)\n        public\n        view\n        returns (\n            string memory name,\n            uint256 value,\n            address destination\n        )\n    {\n        name = transactions[_transactionId].name;\n        value = transactions[_transactionId].value;\n        destination = transactions[_transactionId].destination;\n        return (name, value, destination);\n    }\n}\n",
  "sourcePath": "/Users/jurgen/Consensys/blockchain-developer-bootcamp-final-project/contracts/BurialStokvelAccount.sol",
  "compiler": {
    "name": "solc",
    "version": "0.5.16+commit.9c3226ce.Emscripten.clang"
  },
  "schemaVersion": "3.4.3",
  "updatedAt": "2021-11-13T21:33:00.870Z",
  "devdoc": {
    "methods": {
      "confirmTransaction(uint256)": {
        "details": "Allows an owner to confirm a transaction.",
        "params": {
          "_transactionId": "Transaction ID."
        }
      },
      "constructor": {
        "details": "Contract constructor sets initial owners of the stokvel account and required number of confirmations.",
        "params": {
          "_contribution": "Required minimum contribution.",
          "_owners": "List of initial owners.",
          "_required": "Number of required confirmations."
        }
      },
      "isConfirmed(uint256)": {
        "details": "Returns the confirmation status of a transaction.",
        "params": {
          "_transactionId": "Transaction ID."
        },
        "return": "Confirmation status."
      },
      "submitRequest(uint256,string)": {
        "details": "Allows a member to submit a transaction request.",
        "params": {
          "_value": "Amount requested."
        }
      }
    }
  },
  "userdoc": {
    "methods": {}
  }
}