{
  "contractName": "BurialStokvelAccount",
  "abi": [
    {
      "inputs": [
        {
          "internalType": "address[]",
          "name": "_owners",
          "type": "address[]"
        },
        {
          "internalType": "uint256",
          "name": "_required",
          "type": "uint256"
        },
        {
          "internalType": "uint256",
          "name": "_contribution",
          "type": "uint256"
        }
      ],
      "stateMutability": "nonpayable",
      "type": "constructor"
    },
    {
      "anonymous": false,
      "inputs": [
        {
          "indexed": true,
          "internalType": "address",
          "name": "sender",
          "type": "address"
        },
        {
          "indexed": true,
          "internalType": "uint256",
          "name": "transactionId",
          "type": "uint256"
        },
        {
          "indexed": false,
          "internalType": "string",
          "name": "approved",
          "type": "string"
        }
      ],
      "name": "Confirmation",
      "type": "event"
    },
    {
      "anonymous": false,
      "inputs": [
        {
          "indexed": true,
          "internalType": "address",
          "name": "sender",
          "type": "address"
        },
        {
          "indexed": false,
          "internalType": "uint256",
          "name": "value",
          "type": "uint256"
        }
      ],
      "name": "Deposit",
      "type": "event"
    },
    {
      "anonymous": false,
      "inputs": [
        {
          "indexed": true,
          "internalType": "uint256",
          "name": "transactionId",
          "type": "uint256"
        }
      ],
      "name": "Execution",
      "type": "event"
    },
    {
      "anonymous": false,
      "inputs": [
        {
          "indexed": true,
          "internalType": "uint256",
          "name": "transactionId",
          "type": "uint256"
        }
      ],
      "name": "ExecutionFailure",
      "type": "event"
    },
    {
      "anonymous": false,
      "inputs": [
        {
          "indexed": true,
          "internalType": "address",
          "name": "accountAddress",
          "type": "address"
        }
      ],
      "name": "LogEnrolled",
      "type": "event"
    },
    {
      "anonymous": false,
      "inputs": [
        {
          "indexed": false,
          "internalType": "address",
          "name": "account",
          "type": "address"
        }
      ],
      "name": "Paused",
      "type": "event"
    },
    {
      "anonymous": false,
      "inputs": [
        {
          "indexed": true,
          "internalType": "uint256",
          "name": "transactionId",
          "type": "uint256"
        }
      ],
      "name": "Submission",
      "type": "event"
    },
    {
      "anonymous": false,
      "inputs": [
        {
          "indexed": false,
          "internalType": "address",
          "name": "account",
          "type": "address"
        }
      ],
      "name": "Unpaused",
      "type": "event"
    },
    {
      "stateMutability": "payable",
      "type": "fallback",
      "payable": true
    },
    {
      "inputs": [],
      "name": "balance",
      "outputs": [
        {
          "internalType": "uint256",
          "name": "",
          "type": "uint256"
        }
      ],
      "stateMutability": "view",
      "type": "function",
      "constant": true
    },
    {
      "inputs": [
        {
          "internalType": "uint256",
          "name": "",
          "type": "uint256"
        },
        {
          "internalType": "address",
          "name": "",
          "type": "address"
        }
      ],
      "name": "confirmations",
      "outputs": [
        {
          "internalType": "bool",
          "name": "",
          "type": "bool"
        }
      ],
      "stateMutability": "view",
      "type": "function",
      "constant": true
    },
    {
      "inputs": [],
      "name": "contribution",
      "outputs": [
        {
          "internalType": "uint256",
          "name": "",
          "type": "uint256"
        }
      ],
      "stateMutability": "view",
      "type": "function",
      "constant": true
    },
    {
      "inputs": [
        {
          "internalType": "address",
          "name": "",
          "type": "address"
        }
      ],
      "name": "isMember",
      "outputs": [
        {
          "internalType": "bool",
          "name": "",
          "type": "bool"
        }
      ],
      "stateMutability": "view",
      "type": "function",
      "constant": true
    },
    {
      "inputs": [
        {
          "internalType": "address",
          "name": "",
          "type": "address"
        }
      ],
      "name": "isOwner",
      "outputs": [
        {
          "internalType": "bool",
          "name": "",
          "type": "bool"
        }
      ],
      "stateMutability": "view",
      "type": "function",
      "constant": true
    },
    {
      "inputs": [
        {
          "internalType": "uint256",
          "name": "",
          "type": "uint256"
        }
      ],
      "name": "members",
      "outputs": [
        {
          "internalType": "address",
          "name": "",
          "type": "address"
        }
      ],
      "stateMutability": "view",
      "type": "function",
      "constant": true
    },
    {
      "inputs": [
        {
          "internalType": "uint256",
          "name": "",
          "type": "uint256"
        }
      ],
      "name": "owners",
      "outputs": [
        {
          "internalType": "address",
          "name": "",
          "type": "address"
        }
      ],
      "stateMutability": "view",
      "type": "function",
      "constant": true
    },
    {
      "inputs": [],
      "name": "paused",
      "outputs": [
        {
          "internalType": "bool",
          "name": "",
          "type": "bool"
        }
      ],
      "stateMutability": "view",
      "type": "function",
      "constant": true
    },
    {
      "inputs": [],
      "name": "required",
      "outputs": [
        {
          "internalType": "uint256",
          "name": "",
          "type": "uint256"
        }
      ],
      "stateMutability": "view",
      "type": "function",
      "constant": true
    },
    {
      "inputs": [],
      "name": "transactionCount",
      "outputs": [
        {
          "internalType": "uint256",
          "name": "",
          "type": "uint256"
        }
      ],
      "stateMutability": "view",
      "type": "function",
      "constant": true
    },
    {
      "inputs": [
        {
          "internalType": "uint256",
          "name": "",
          "type": "uint256"
        }
      ],
      "name": "transactions",
      "outputs": [
        {
          "internalType": "string",
          "name": "name",
          "type": "string"
        },
        {
          "internalType": "address",
          "name": "destination",
          "type": "address"
        },
        {
          "internalType": "uint256",
          "name": "value",
          "type": "uint256"
        },
        {
          "internalType": "enum BurialStokvelAccount.State",
          "name": "state",
          "type": "uint8"
        }
      ],
      "stateMutability": "view",
      "type": "function",
      "constant": true
    },
    {
      "stateMutability": "payable",
      "type": "receive",
      "payable": true
    },
    {
      "inputs": [],
      "name": "unpause",
      "outputs": [],
      "stateMutability": "nonpayable",
      "type": "function"
    },
    {
      "inputs": [],
      "name": "pause",
      "outputs": [],
      "stateMutability": "nonpayable",
      "type": "function"
    },
    {
      "inputs": [],
      "name": "enroll",
      "outputs": [
        {
          "internalType": "bool",
          "name": "",
          "type": "bool"
        }
      ],
      "stateMutability": "payable",
      "type": "function",
      "payable": true
    },
    {
      "inputs": [
        {
          "internalType": "uint256",
          "name": "_value",
          "type": "uint256"
        },
        {
          "internalType": "string",
          "name": "_name",
          "type": "string"
        }
      ],
      "name": "submitRequest",
      "outputs": [
        {
          "internalType": "uint256",
          "name": "",
          "type": "uint256"
        }
      ],
      "stateMutability": "nonpayable",
      "type": "function"
    },
    {
      "inputs": [
        {
          "internalType": "uint256",
          "name": "_transactionId",
          "type": "uint256"
        }
      ],
      "name": "confirmTransaction",
      "outputs": [],
      "stateMutability": "nonpayable",
      "type": "function"
    },
    {
      "inputs": [
        {
          "internalType": "uint256",
          "name": "_transactionId",
          "type": "uint256"
        }
      ],
      "name": "isConfirmed",
      "outputs": [
        {
          "internalType": "bool",
          "name": "confirmed",
          "type": "bool"
        }
      ],
      "stateMutability": "view",
      "type": "function",
      "constant": true
    },
    {
      "inputs": [
        {
          "internalType": "uint256",
          "name": "_transactionId",
          "type": "uint256"
        }
      ],
      "name": "withdraw",
      "outputs": [],
      "stateMutability": "nonpayable",
      "type": "function"
    },
    {
      "inputs": [],
      "name": "getAllTransactionIDs",
      "outputs": [
        {
          "internalType": "uint256[]",
          "name": "",
          "type": "uint256[]"
        }
      ],
      "stateMutability": "view",
      "type": "function",
      "constant": true
    },
    {
      "inputs": [
        {
          "internalType": "uint256",
          "name": "_transactionId",
          "type": "uint256"
        }
      ],
      "name": "fetchTransaction",
      "outputs": [
        {
          "internalType": "string",
          "name": "name",
          "type": "string"
        },
        {
          "internalType": "uint256",
          "name": "value",
          "type": "uint256"
        },
        {
          "internalType": "address",
          "name": "destination",
          "type": "address"
        },
        {
          "internalType": "string",
          "name": "state",
          "type": "string"
        }
      ],
      "stateMutability": "view",
      "type": "function",
      "constant": true
    },
    {
      "inputs": [],
      "name": "getOwners",
      "outputs": [
        {
          "internalType": "address[]",
          "name": "",
          "type": "address[]"
        }
      ],
      "stateMutability": "view",
      "type": "function",
      "constant": true
    },
    {
      "inputs": [],
      "name": "getMinimumContribution",
      "outputs": [
        {
          "internalType": "uint256",
          "name": "",
          "type": "uint256"
        }
      ],
      "stateMutability": "view",
      "type": "function",
      "constant": true
    },
    {
      "inputs": [],
      "name": "getNumberofRequiredApprovals",
      "outputs": [
        {
          "internalType": "uint256",
          "name": "",
          "type": "uint256"
        }
      ],
      "stateMutability": "view",
      "type": "function",
      "constant": true
    },
    {
      "inputs": [],
      "name": "getBalance",
      "outputs": [
        {
          "internalType": "uint256",
          "name": "",
          "type": "uint256"
        }
      ],
      "stateMutability": "view",
      "type": "function",
      "constant": true
    },
    {
      "inputs": [],
      "name": "getMembers",
      "outputs": [
        {
          "internalType": "address[]",
          "name": "",
          "type": "address[]"
        }
      ],
      "stateMutability": "view",
      "type": "function",
      "constant": true
    },
    {
      "inputs": [],
      "name": "cancelTransaction",
      "outputs": [],
      "stateMutability": "nonpayable",
      "type": "function"
    },
    {
      "inputs": [],
      "name": "removeMember",
      "outputs": [],
      "stateMutability": "nonpayable",
      "type": "function"
    }
  ],
  "bytecode": "0x60806040523480156200001157600080fd5b5060405162002c4c38038062002c4c833981810160405281019062000037919062000304565b60008060006101000a81548160ff02191690831515021790555082518281811180620000635750600081145b806200006f5750600082145b156200007a57600080fd5b600083116200008857600080fd5b83855110156200009757600080fd5b60005b85518110156200015357600160086000888481518110620000e4577f4e487b7100000000000000000000000000000000000000000000000000000000600052603260045260246000fd5b602002602001015173ffffffffffffffffffffffffffffffffffffffff1673ffffffffffffffffffffffffffffffffffffffff16815260200190815260200160002060006101000a81548160ff02191690831515021790555080806200014a9062000414565b9150506200009a565b5084600190805190602001906200016c92919062000186565b5083600381905550826005819055505050505050620004f4565b82805482825590600052602060002090810192821562000202579160200282015b82811115620002015782518260006101000a81548173ffffffffffffffffffffffffffffffffffffffff021916908373ffffffffffffffffffffffffffffffffffffffff16021790555091602001919060010190620001a7565b5b50905062000211919062000215565b5090565b5b808211156200023057600081600090555060010162000216565b5090565b60006200024b6200024584620003a7565b62000373565b905080838252602082019050828560208602820111156200026b57600080fd5b60005b858110156200029f5781620002848882620002a9565b8452602084019350602083019250506001810190506200026e565b5050509392505050565b600081519050620002ba81620004c0565b92915050565b600082601f830112620002d257600080fd5b8151620002e484826020860162000234565b91505092915050565b600081519050620002fe81620004da565b92915050565b6000806000606084860312156200031a57600080fd5b600084015167ffffffffffffffff8111156200033557600080fd5b6200034386828701620002c0565b93505060206200035686828701620002ed565b92505060406200036986828701620002ed565b9150509250925092565b6000604051905081810181811067ffffffffffffffff821117156200039d576200039c62000491565b5b8060405250919050565b600067ffffffffffffffff821115620003c557620003c462000491565b5b602082029050602081019050919050565b6000620003e382620003ea565b9050919050565b600073ffffffffffffffffffffffffffffffffffffffff82169050919050565b6000819050919050565b600062000421826200040a565b91507fffffffffffffffffffffffffffffffffffffffffffffffffffffffffffffffff82141562000457576200045662000462565b5b600182019050919050565b7f4e487b7100000000000000000000000000000000000000000000000000000000600052601160045260246000fd5b7f4e487b7100000000000000000000000000000000000000000000000000000000600052604160045260246000fd5b620004cb81620003d6565b8114620004d757600080fd5b50565b620004e5816200040a565b8114620004f157600080fd5b50565b61274880620005046000396000f3fe6080604052600436106101a05760003560e01c80638456cb59116100ec578063b77bf6001161008a578063dc8452cd11610064578063dc8452cd146106ba578063e65f2a7e146106e5578063eafa23bd14610703578063f84038b11461072e57610217565b8063b77bf6001461063b578063b8d437bd14610666578063c01a8c841461069157610217565b80639eab5253116100c65780639eab52531461057d578063a0e67e2b146105a8578063a230c524146105d3578063b69ef8a81461061057610217565b80638456cb591461050f578063904c0b3a146105265780639ace38c21461053d57610217565b80633f4ba83a116101595780635c975abb116101335780635c975abb1461042a5780635daf08ca14610455578063685067d514610492578063784547a7146104d257610217565b80633f4ba83a146103d157806350520b1f146103e85780635c8cf7501461041357610217565b8063025e7c271461028957806312065fe0146102c657806316366b26146102f15780632e1a7d4d1461032e5780632f54bf6e146103575780633411c81c1461039457610217565b36610217576000341115610215573373ffffffffffffffffffffffffffffffffffffffff167fe1fffcc4923d04b559f4d29a8bfc6cda04eb5b0d3c460751c2402c5c5cc9109c346040516101f4919061233a565b60405180910390a26004600081548092919061020f906125ba565b91905055505b005b6000341115610287573373ffffffffffffffffffffffffffffffffffffffff167fe1fffcc4923d04b559f4d29a8bfc6cda04eb5b0d3c460751c2402c5c5cc9109c34604051610266919061233a565b60405180910390a260046000815480929190610281906125ba565b91905055505b005b34801561029557600080fd5b506102b060048036038101906102ab9190611e18565b610759565b6040516102bd919061217f565b60405180910390f35b3480156102d257600080fd5b506102db610798565b6040516102e8919061233a565b60405180910390f35b3480156102fd57600080fd5b5061031860048036038101906103139190611e7d565b6107a2565b604051610325919061233a565b60405180910390f35b34801561033a57600080fd5b5061035560048036038101906103509190611e18565b610822565b005b34801561036357600080fd5b5061037e60048036038101906103799190611def565b6108e4565b60405161038b91906121de565b60405180910390f35b3480156103a057600080fd5b506103bb60048036038101906103b69190611e41565b610904565b6040516103c891906121de565b60405180910390f35b3480156103dd57600080fd5b506103e6610933565b005b3480156103f457600080fd5b506103fd6109cb565b60405161040a919061233a565b60405180910390f35b34801561041f57600080fd5b506104286109d1565b005b34801561043657600080fd5b5061043f6109d3565b60405161044c91906121de565b60405180910390f35b34801561046157600080fd5b5061047c60048036038101906104779190611e18565b6109e9565b604051610489919061217f565b60405180910390f35b34801561049e57600080fd5b506104b960048036038101906104b49190611e18565b610a28565b6040516104c99493929190612267565b60405180910390f35b3480156104de57600080fd5b506104f960048036038101906104f49190611e18565b610dc8565b60405161050691906121de565b60405180910390f35b34801561051b57600080fd5b50610524610ee3565b005b34801561053257600080fd5b5061053b610eed565b005b34801561054957600080fd5b50610564600480360381019061055f9190611e18565b610eef565b604051610574949392919061221b565b60405180910390f35b34801561058957600080fd5b50610592610fd4565b60405161059f919061219a565b60405180910390f35b3480156105b457600080fd5b506105bd611062565b6040516105ca919061219a565b60405180910390f35b3480156105df57600080fd5b506105fa60048036038101906105f59190611def565b6110f0565b60405161060791906121de565b60405180910390f35b34801561061c57600080fd5b50610625611110565b604051610632919061233a565b60405180910390f35b34801561064757600080fd5b50610650611116565b60405161065d919061233a565b60405180910390f35b34801561067257600080fd5b5061067b61111c565b604051610688919061233a565b60405180910390f35b34801561069d57600080fd5b506106b860048036038101906106b39190611e18565b611126565b005b3480156106c657600080fd5b506106cf6113fc565b6040516106dc919061233a565b60405180910390f35b6106ed611402565b6040516106fa91906121de565b60405180910390f35b34801561070f57600080fd5b50610718611626565b60405161072591906121bc565b60405180910390f35b34801561073a57600080fd5b5061074361167e565b604051610750919061233a565b60405180910390f35b6001818154811061076957600080fd5b906000526020600020016000915054906101000a900473ffffffffffffffffffffffffffffffffffffffff1681565b6000600454905090565b6000600960003373ffffffffffffffffffffffffffffffffffffffff1673ffffffffffffffffffffffffffffffffffffffff16815260200190815260200160002060009054906101000a900460ff166107fa57600080fd5b60045483111561080957600080fd5b6000610816338585611688565b90508091505092915050565b61082a6109d3565b1561086a576040517f08c379a00000000000000000000000000000000000000000000000000000000081526004016108619061231a565b60405180910390fd5b3373ffffffffffffffffffffffffffffffffffffffff16600a600083815260200190815260200160002060010160009054906101000a900473ffffffffffffffffffffffffffffffffffffffff1673ffffffffffffffffffffffffffffffffffffffff16146108d857600080fd5b6108e181611850565b50565b60086020528060005260406000206000915054906101000a900460ff1681565b600b6020528160005260406000206020528060005260406000206000915091509054906101000a900460ff1681565b33600860008273ffffffffffffffffffffffffffffffffffffffff1673ffffffffffffffffffffffffffffffffffffffff16815260200190815260200160002060009054906101000a900460ff166109c0576040517f08c379a00000000000000000000000000000000000000000000000000000000081526004016109b7906122fa565b60405180910390fd5b6109c8611b6f565b50565b60055481565b565b60008060009054906101000a900460ff16905090565b600281815481106109f957600080fd5b906000526020600020016000915054906101000a900473ffffffffffffffffffffffffffffffffffffffff1681565b60606000806060600a60008681526020019081526020016000206000018054610a5090612588565b80601f0160208091040260200160405190810160405280929190818152602001828054610a7c90612588565b8015610ac95780601f10610a9e57610100808354040283529160200191610ac9565b820191906000526020600020905b815481529060010190602001808311610aac57829003601f168201915b50505050509350600a6000868152602001908152602001600020600201549250600a600086815260200190815260200160002060010160009054906101000a900473ffffffffffffffffffffffffffffffffffffffff16915060006002811115610b5c577f4e487b7100000000000000000000000000000000000000000000000000000000600052602160045260246000fd5b600a600087815260200190815260200160002060030160009054906101000a900460ff166002811115610bb8577f4e487b7100000000000000000000000000000000000000000000000000000000600052602160045260246000fd5b1415610bfb576040518060400160405280600881526020017f45786563757465640000000000000000000000000000000000000000000000008152509050610dc1565b60016002811115610c35577f4e487b7100000000000000000000000000000000000000000000000000000000600052602160045260246000fd5b600a600087815260200190815260200160002060030160009054906101000a900460ff166002811115610c91577f4e487b7100000000000000000000000000000000000000000000000000000000600052602160045260246000fd5b1415610cd4576040518060400160405280600781526020017f50656e64696e67000000000000000000000000000000000000000000000000008152509050610dc0565b600280811115610d0d577f4e487b7100000000000000000000000000000000000000000000000000000000600052602160045260246000fd5b600a600087815260200190815260200160002060030160009054906101000a900460ff166002811115610d69577f4e487b7100000000000000000000000000000000000000000000000000000000600052602160045260246000fd5b1415610dac576040518060400160405280600881526020017f417070726f7665640000000000000000000000000000000000000000000000008152509050610dbf565b6040518060200160405280600081525090505b5b5b9193509193565b600080600090506000915060005b600180549050811015610edc57600b6000858152602001908152602001600020600060018381548110610e32577f4e487b7100000000000000000000000000000000000000000000000000000000600052603260045260246000fd5b9060005260206000200160009054906101000a900473ffffffffffffffffffffffffffffffffffffffff1673ffffffffffffffffffffffffffffffffffffffff1673ffffffffffffffffffffffffffffffffffffffff16815260200190815260200160002060009054906101000a900460ff1615610eba57600182610eb7919061244f565b91505b600354821415610ec957600192505b8080610ed4906125ba565b915050610dd6565b5050919050565b610eeb611c10565b565b565b600a602052806000526040600020600091509050806000018054610f1290612588565b80601f0160208091040260200160405190810160405280929190818152602001828054610f3e90612588565b8015610f8b5780601f10610f6057610100808354040283529160200191610f8b565b820191906000526020600020905b815481529060010190602001808311610f6e57829003601f168201915b5050505050908060010160009054906101000a900473ffffffffffffffffffffffffffffffffffffffff16908060020154908060030160009054906101000a900460ff16905084565b6060600280548060200260200160405190810160405280929190818152602001828054801561105857602002820191906000526020600020905b8160009054906101000a900473ffffffffffffffffffffffffffffffffffffffff1673ffffffffffffffffffffffffffffffffffffffff168152602001906001019080831161100e575b5050505050905090565b606060018054806020026020016040519081016040528092919081815260200182805480156110e657602002820191906000526020600020905b8160009054906101000a900473ffffffffffffffffffffffffffffffffffffffff1673ffffffffffffffffffffffffffffffffffffffff168152602001906001019080831161109c575b5050505050905090565b60096020528060005260406000206000915054906101000a900460ff1681565b60045481565b60065481565b6000600354905090565b600860003373ffffffffffffffffffffffffffffffffffffffff1673ffffffffffffffffffffffffffffffffffffffff16815260200190815260200160002060009054906101000a900460ff1661117c57600080fd5b600073ffffffffffffffffffffffffffffffffffffffff16600a600083815260200190815260200160002060010160009054906101000a900473ffffffffffffffffffffffffffffffffffffffff1673ffffffffffffffffffffffffffffffffffffffff1614156111ec57600080fd5b60001515600b600083815260200190815260200160002060003373ffffffffffffffffffffffffffffffffffffffff1673ffffffffffffffffffffffffffffffffffffffff16815260200190815260200160002060009054906101000a900460ff1615151461125a57600080fd5b6001600b600083815260200190815260200160002060003373ffffffffffffffffffffffffffffffffffffffff1673ffffffffffffffffffffffffffffffffffffffff16815260200190815260200160002060006101000a81548160ff02191690831515021790555060006040518060400160405280600581526020017f66616c7365000000000000000000000000000000000000000000000000000000815250905061130682610dc8565b156113a9576002600a600084815260200190815260200160002060030160006101000a81548160ff0219169083600281111561136b577f4e487b7100000000000000000000000000000000000000000000000000000000600052602160045260246000fd5b02179055506040518060400160405280600481526020017f747275650000000000000000000000000000000000000000000000000000000081525090505b813373ffffffffffffffffffffffffffffffffffffffff167fbbd347b0b26e5ecc8cd8676faf574878fdbc8fc0d744f3a8d42f72ce24eb2251836040516113f091906121f9565b60405180910390a35050565b60035481565b6000801515600960003373ffffffffffffffffffffffffffffffffffffffff1673ffffffffffffffffffffffffffffffffffffffff16815260200190815260200160002060009054906101000a900460ff1615151461146057600080fd5b60055434101561146f57600080fd5b6001600960003373ffffffffffffffffffffffffffffffffffffffff1673ffffffffffffffffffffffffffffffffffffffff16815260200190815260200160002060006101000a81548160ff0219169083151502179055506002339080600181540180825580915050600190039060005260206000200160009091909190916101000a81548173ffffffffffffffffffffffffffffffffffffffff021916908373ffffffffffffffffffffffffffffffffffffffff1602179055503373ffffffffffffffffffffffffffffffffffffffff167f990c442e6adb818b8fa7db3cf1023decd07f7b66e5306928c7ed527d974192bb60405160405180910390a2346004600082825461157f919061244f565b925050819055503373ffffffffffffffffffffffffffffffffffffffff167fe1fffcc4923d04b559f4d29a8bfc6cda04eb5b0d3c460751c2402c5c5cc9109c346040516115cc919061233a565b60405180910390a2600960003373ffffffffffffffffffffffffffffffffffffffff1673ffffffffffffffffffffffffffffffffffffffff16815260200190815260200160002060009054906101000a900460ff16905090565b6060600780548060200260200160405190810160405280929190818152602001828054801561167457602002820191906000526020600020905b815481526020019060010190808311611660575b5050505050905090565b6000600554905090565b6000600654905060405180608001604052808381526020018573ffffffffffffffffffffffffffffffffffffffff168152602001848152602001600160028111156116fc577f4e487b7100000000000000000000000000000000000000000000000000000000600052602160045260246000fd5b815250600a6000838152602001908152602001600020600082015181600001908051906020019061172e929190611cba565b5060208201518160010160006101000a81548173ffffffffffffffffffffffffffffffffffffffff021916908373ffffffffffffffffffffffffffffffffffffffff1602179055506040820151816002015560608201518160030160006101000a81548160ff021916908360028111156117d1577f4e487b7100000000000000000000000000000000000000000000000000000000600052602160045260246000fd5b02179055509050506007819080600181540180825580915050600190039060005260206000200160009091909190915055600160066000828254611815919061244f565b92505081905550807fc0ba8fe4b176c1714197d43b9cc6bcf797a4a7461c5fe8d0ef6e184ae7601e5160405160405180910390a29392505050565b600280811115611889577f4e487b7100000000000000000000000000000000000000000000000000000000600052602160045260246000fd5b600a600083815260200190815260200160002060030160009054906101000a900460ff1660028111156118e5577f4e487b7100000000000000000000000000000000000000000000000000000000600052602160045260246000fd5b146118ef57600080fd5b600454600a600083815260200190815260200160002060020154111561191457600080fd5b61191d81610dc8565b15611b6c576000600a6000838152602001908152602001600020905060008160030160006101000a81548160ff02191690836002811115611987577f4e487b7100000000000000000000000000000000000000000000000000000000600052602160045260246000fd5b0217905550600a6000838152602001908152602001600020600201546004546119b091906124a5565b60048190555060008160010160009054906101000a900473ffffffffffffffffffffffffffffffffffffffff1673ffffffffffffffffffffffffffffffffffffffff1634604051611a009061216a565b60006040518083038185875af1925050503d8060008114611a3d576040519150601f19603f3d011682016040523d82523d6000602084013e611a42565b606091505b505090508015611a7e57827f33e13ecb54c3076d8e8bb8c2881800a4d972b792045ffae98fdf46df365fed7560405160405180910390a2611b69565b827f526441bb6c1aba3c9a4a6ca1d6545da9c2333c8c48343ef398eb858d72b7923660405160405180910390a260028260030160006101000a81548160ff02191690836002811115611af9577f4e487b7100000000000000000000000000000000000000000000000000000000600052602160045260246000fd5b0217905550600a600084815260200190815260200160002060020154600454611b22919061244f565b60048190555080611b68576040517f08c379a0000000000000000000000000000000000000000000000000000000008152600401611b5f906122da565b60405180910390fd5b5b50505b50565b611b776109d3565b611bb6576040517f08c379a0000000000000000000000000000000000000000000000000000000008152600401611bad906122ba565b60405180910390fd5b60008060006101000a81548160ff0219169083151502179055507f5db9ee0a495bf2e6ff9c91a7834c1ba4fdd244a5e8aa4e537bd38aeae4b073aa611bf9611cb2565b604051611c06919061217f565b60405180910390a1565b611c186109d3565b15611c58576040517f08c379a0000000000000000000000000000000000000000000000000000000008152600401611c4f9061231a565b60405180910390fd5b60016000806101000a81548160ff0219169083151502179055507f62e78cea01bee320cd4e420270b5ea74000d11b0c9f74754ebdbfc544b05a258611c9b611cb2565b604051611ca8919061217f565b60405180910390a1565b600033905090565b828054611cc690612588565b90600052602060002090601f016020900481019282611ce85760008555611d2f565b82601f10611d0157805160ff1916838001178555611d2f565b82800160010185558215611d2f579182015b82811115611d2e578251825591602001919060010190611d13565b5b509050611d3c9190611d40565b5090565b5b80821115611d59576000816000905550600101611d41565b5090565b6000611d70611d6b84612386565b612355565b905082815260208101848484011115611d8857600080fd5b611d93848285612546565b509392505050565b600081359050611daa816126e4565b92915050565b600082601f830112611dc157600080fd5b8135611dd1848260208601611d5d565b91505092915050565b600081359050611de9816126fb565b92915050565b600060208284031215611e0157600080fd5b6000611e0f84828501611d9b565b91505092915050565b600060208284031215611e2a57600080fd5b6000611e3884828501611dda565b91505092915050565b60008060408385031215611e5457600080fd5b6000611e6285828601611dda565b9250506020611e7385828601611d9b565b9150509250929050565b60008060408385031215611e9057600080fd5b6000611e9e85828601611dda565b925050602083013567ffffffffffffffff811115611ebb57600080fd5b611ec785828601611db0565b9150509250929050565b6000611edd8383611f01565b60208301905092915050565b6000611ef5838361214c565b60208301905092915050565b611f0a816124d9565b82525050565b611f19816124d9565b82525050565b6000611f2a826123d6565b611f348185612411565b9350611f3f836123b6565b8060005b83811015611f70578151611f578882611ed1565b9750611f62836123f7565b925050600181019050611f43565b5085935050505092915050565b6000611f88826123e1565b611f928185612422565b9350611f9d836123c6565b8060005b83811015611fce578151611fb58882611ee9565b9750611fc083612404565b925050600181019050611fa1565b5085935050505092915050565b611fe4816124eb565b82525050565b611ff381612534565b82525050565b6000612004826123ec565b61200e818561243e565b935061201e818560208601612555565b612027816126bf565b840191505092915050565b600061203f60148361243e565b91507f5061757361626c653a206e6f74207061757365640000000000000000000000006000830152602082019050919050565b600061207f60148361243e565b91507f4661696c656420746f2073656e64206d6f6e65790000000000000000000000006000830152602082019050919050565b60006120bf60138361243e565b91507f4f6e6c79206f776e65727320616c6c6f776564000000000000000000000000006000830152602082019050919050565b60006120ff60108361243e565b91507f5061757361626c653a20706175736564000000000000000000000000000000006000830152602082019050919050565b600061213f600083612433565b9150600082019050919050565b6121558161252a565b82525050565b6121648161252a565b82525050565b600061217582612132565b9150819050919050565b60006020820190506121946000830184611f10565b92915050565b600060208201905081810360008301526121b48184611f1f565b905092915050565b600060208201905081810360008301526121d68184611f7d565b905092915050565b60006020820190506121f36000830184611fdb565b92915050565b600060208201905081810360008301526122138184611ff9565b905092915050565b600060808201905081810360008301526122358187611ff9565b90506122446020830186611f10565b612251604083018561215b565b61225e6060830184611fea565b95945050505050565b600060808201905081810360008301526122818187611ff9565b9050612290602083018661215b565b61229d6040830185611f10565b81810360608301526122af8184611ff9565b905095945050505050565b600060208201905081810360008301526122d381612032565b9050919050565b600060208201905081810360008301526122f381612072565b9050919050565b60006020820190508181036000830152612313816120b2565b9050919050565b60006020820190508181036000830152612333816120f2565b9050919050565b600060208201905061234f600083018461215b565b92915050565b6000604051905081810181811067ffffffffffffffff8211171561237c5761237b612690565b5b8060405250919050565b600067ffffffffffffffff8211156123a1576123a0612690565b5b601f19601f8301169050602081019050919050565b6000819050602082019050919050565b6000819050602082019050919050565b600081519050919050565b600081519050919050565b600081519050919050565b6000602082019050919050565b6000602082019050919050565b600082825260208201905092915050565b600082825260208201905092915050565b600081905092915050565b600082825260208201905092915050565b600061245a8261252a565b91506124658361252a565b9250827fffffffffffffffffffffffffffffffffffffffffffffffffffffffffffffffff0382111561249a57612499612603565b5b828201905092915050565b60006124b08261252a565b91506124bb8361252a565b9250828210156124ce576124cd612603565b5b828203905092915050565b60006124e48261250a565b9050919050565b60008115159050919050565b6000819050612505826126d0565b919050565b600073ffffffffffffffffffffffffffffffffffffffff82169050919050565b6000819050919050565b600061253f826124f7565b9050919050565b82818337600083830152505050565b60005b83811015612573578082015181840152602081019050612558565b83811115612582576000848401525b50505050565b600060028204905060018216806125a057607f821691505b602082108114156125b4576125b3612661565b5b50919050565b60006125c58261252a565b91507fffffffffffffffffffffffffffffffffffffffffffffffffffffffffffffffff8214156125f8576125f7612603565b5b600182019050919050565b7f4e487b7100000000000000000000000000000000000000000000000000000000600052601160045260246000fd5b7f4e487b7100000000000000000000000000000000000000000000000000000000600052602160045260246000fd5b7f4e487b7100000000000000000000000000000000000000000000000000000000600052602260045260246000fd5b7f4e487b7100000000000000000000000000000000000000000000000000000000600052604160045260246000fd5b6000601f19601f8301169050919050565b600381106126e1576126e0612632565b5b50565b6126ed816124d9565b81146126f857600080fd5b50565b6127048161252a565b811461270f57600080fd5b5056fea2646970667358221220588e39d25b0dc0b4092bd1ddcfa5acac44b8edf082783760cdd1dc75e538ce2a64736f6c63430008000033",
  "immutableReferences": {},
  "source": "// SPDX-License-Identifier: MIT\npragma solidity 0.8.0;\n\nimport \"@openzeppelin/contracts/security/Pausable.sol\";\n\n/// @title A smart contract for a South African Burial Stokvel\n/// @author Jurgen Schulte\n/// @notice The contract allows for multiple owners and members After members pay a contribution they are able to submit requests for payment which need to be approved by owners.\n/// @dev Deletion and non approval of request will be implemented in later version\ncontract BurialStokvelAccount is Pausable {\n    address[] public owners;\n    address[] public members;\n    uint256 public required;\n    uint256 public balance;\n    uint256 public contribution;\n    uint256 public transactionCount;\n    uint256[] private transactionIDs;\n\n    mapping(address => bool) public isOwner;\n    mapping(address => bool) public isMember;\n    mapping(uint256 => Transaction) public transactions;\n    mapping(uint256 => mapping(address => bool)) public confirmations;\n\n    enum State {\n        Executed,\n        Pending,\n        Approved\n    }\n\n    struct Transaction {\n        string name;\n        address destination;\n        uint256 value;\n        State state;\n    }\n\n    /// @notice Emitted when a request is submitted\n    /// @param transactionId transaction id\n    event Submission(uint256 indexed transactionId);\n\n    /// @notice Emitted when a submitted request is confirmed\n    /// @param sender sender address\n    /// @param transactionId transaction id\n    /// @param approved a boolean indication if the confirmed transaction is approved\n    event Confirmation(\n        address indexed sender,\n        uint256 indexed transactionId,\n        string approved\n    );\n\n    /// @notice Emitted when a transfer of funds is executed\n    /// @param transactionId transaction id\n    event Execution(uint256 indexed transactionId);\n\n    /// @notice Emitted when a transfer of funds fails\n    /// @param transactionId transaction id\n    event ExecutionFailure(uint256 indexed transactionId);\n\n    /// @notice Emitted when a address is enrolled as a member\n    /// @param accountAddress account of member\n    event LogEnrolled(address indexed accountAddress);\n\n    /// @notice Emitted when a member deposits his contribution\n    /// @param sender sender address\n    /// @param value value of contribution\n    event Deposit(address indexed sender, uint256 value);\n\n    /// @dev Fallback function allows to deposit ether.\n    fallback() external payable {\n        if (msg.value > 0) {\n            emit Deposit(msg.sender, msg.value);\n            balance++;\n        }\n    }\n\n    /// @dev Receive function allows to deposit ether.\n    receive() external payable {\n        if (msg.value > 0) {\n            emit Deposit(msg.sender, msg.value);\n            balance++;\n        }\n    }\n\n    // NOT a valid modifier\n    modifier validRequirement(uint256 _ownerCount, uint256 _required) {\n        if (_required > _ownerCount || _required == 0 || _ownerCount == 0)\n            revert();\n        _;\n    }\n\n    modifier onlyOwners(address _address) {\n        require(isOwner[_address], \"Only owners allowed\");\n        _;\n    }\n\n    modifier onlyMembers(address _address) {\n        require(isMember[_address], \"Only members allowed\");\n        _;\n    }\n\n    function unpause() public onlyOwners(msg.sender) {\n        _unpause();\n    }\n\n    function pause() public {\n        _pause();\n    }\n\n    /// @dev Contract constructor sets initial owners of the stokvel account and required number of confirmations.\n    /// @param _owners List of initial owners.\n    /// @param _required Number of required confirmations.\n    /// @param _contribution Required minimum contribution.\n    constructor(\n        address[] memory _owners,\n        uint256 _required,\n        uint256 _contribution\n    ) validRequirement(_owners.length, _required) {\n        require(_contribution > 0);\n        require(_owners.length >= _required);\n        for (uint256 i = 0; i < _owners.length; i++) {\n            isOwner[_owners[i]] = true;\n        }\n        owners = _owners;\n        required = _required;\n        contribution = _contribution;\n    }\n\n    function enroll() public payable returns (bool) {\n        require(isMember[msg.sender] == false);\n        require(msg.value >= contribution);\n        isMember[msg.sender] = true;\n        members.push(msg.sender);\n        emit LogEnrolled(msg.sender);\n        balance += msg.value;\n        emit Deposit(msg.sender, msg.value);\n        return isMember[msg.sender];\n    }\n\n    /// @dev Allows a member to submit a transaction request.\n    /// @param _value Amount requested.\n    function submitRequest(uint256 _value, string memory _name)\n        public\n        returns (uint256)\n    {\n        require(isMember[msg.sender]);\n        require(_value <= balance);\n        uint256 transactionId = addTransaction(msg.sender, _value, _name);\n        return transactionId;\n    }\n\n    /// @dev Adds a new transaction to the transaction mapping, if transaction does not exist yet.\n    /// @param _destination Transaction target address.\n    /// @param _value Transaction ether value.\n    /// @return transactionId Returns transaction ID.\n    function addTransaction(\n        address _destination,\n        uint256 _value,\n        string memory _name\n    ) internal returns (uint256 transactionId) {\n        transactionId = transactionCount;\n        transactions[transactionId] = Transaction({\n            name: _name,\n            destination: _destination,\n            value: _value,\n            state: State.Pending\n        });\n        transactionIDs.push(transactionId);\n        transactionCount += 1;\n        emit Submission(transactionId);\n    }\n\n    /// @dev Allows an owner to confirm a transaction.\n    /// @param _transactionId Transaction ID.\n    function confirmTransaction(uint256 _transactionId) public {\n        require(isOwner[msg.sender]);\n        require(transactions[_transactionId].destination != address(0));\n        require(confirmations[_transactionId][msg.sender] == false);\n\n        confirmations[_transactionId][msg.sender] = true;\n        string memory approved = \"false\";\n        if (isConfirmed(_transactionId)) {\n            transactions[_transactionId].state = State.Approved;\n            approved = \"true\";\n        }\n\n        emit Confirmation(msg.sender, _transactionId, approved);\n    }\n\n    /// @dev Returns the confirmation status of a transaction.\n    /// @param _transactionId Transaction ID.\n    /// @return confirmed Confirmation status.\n    function isConfirmed(uint256 _transactionId)\n        public\n        view\n        returns (bool confirmed)\n    {\n        uint256 count = 0;\n        confirmed = false;\n        for (uint256 i = 0; i < owners.length; i++) {\n            if (confirmations[_transactionId][owners[i]]) count += 1;\n            if (count == required) confirmed = true;\n        }\n        return confirmed;\n    }\n\n    function withdraw(uint256 _transactionId) public whenNotPaused {\n        require(transactions[_transactionId].destination == msg.sender);\n        executeTransaction(_transactionId);\n    }\n\n    /// @dev Transaction is executed if enough confirmations have been\n    /// received and the balance is sufficient.\n    /// @param _transactionId Transaction ID.\n    function executeTransaction(uint256 _transactionId) internal {\n        require(transactions[_transactionId].state == State.Approved);\n        // Check balance\n        require(transactions[_transactionId].value <= balance);\n        if (isConfirmed(_transactionId)) {\n            Transaction storage t = transactions[_transactionId]; // using the \"storage\" keyword makes \"t\" a pointer to storage\n            t.state = State.Executed;\n            balance = balance - transactions[_transactionId].value;\n            (bool success, ) = t.destination.call{value: msg.value}(\"\");\n            if (success) emit Execution(_transactionId);\n            else {\n                emit ExecutionFailure(_transactionId);\n                t.state = State.Approved;\n                balance = balance + transactions[_transactionId].value;\n                require(success, \"Failed to send money\");\n            }\n        }\n    }\n\n    function getAllTransactionIDs() public view returns (uint256[] memory) {\n        // Only three pending transactions allowed\n        return transactionIDs;\n    }\n\n    //\n    function fetchTransaction(uint256 _transactionId)\n        public\n        view\n        returns (\n            string memory name,\n            uint256 value,\n            address destination,\n            string memory state\n        )\n    {\n        name = transactions[_transactionId].name;\n        value = transactions[_transactionId].value;\n        destination = transactions[_transactionId].destination;\n        if (transactions[_transactionId].state == State.Executed) {\n            state = \"Executed\";\n        } else if (transactions[_transactionId].state == State.Pending) {\n            state = \"Pending\";\n        } else if (transactions[_transactionId].state == State.Approved) {\n            state = \"Approved\";\n        } else {\n            state = \"\";\n        }\n\n        return (name, value, destination, state);\n    }\n\n    function getOwners() public view returns (address[] memory) {\n        return owners;\n    }\n\n    function getMinimumContribution() public view returns (uint256) {\n        return contribution;\n    }\n\n    function getNumberofRequiredApprovals() public view returns (uint256) {\n        return required;\n    }\n\n    function getBalance() public view returns (uint256) {\n        return balance;\n    }\n\n    function getMembers() public view returns (address[] memory) {\n        return members;\n    }\n\n    /// @notice Allows approver to cancel submitted transaction\n    /// @dev This function will allow owners to cancel submitted requests by members\n    function cancelTransaction() external {\n        // TODO: this will allow owners to cancel transaction. We will need to ensure that a\n        // transaction is only cancelled when enough owners cancel.\n    }\n\n    /// @notice Allows approvers to remove members\n    /// @dev This function will allow owners to remove members members\n    function removeMember() external {\n        // TODO: this will allow owners to remove members and refund their contributions.\n        // This mechanism will ensure owners can remove misbehaving members.\n    }\n}\n",
  "sourcePath": "/Users/jurgen/Consensys/blockchain-developer-bootcamp-final-project/contracts/BurialStokvelAccount.sol",
  "compiler": {
    "name": "solc",
    "version": "0.8.0+commit.c7dfd78e.Emscripten.clang"
  },
  "schemaVersion": "3.4.3",
  "updatedAt": "2021-12-12T15:33:12.407Z",
  "networkType": "ethereum",
  "devdoc": {
    "author": "Jurgen Schulte",
    "details": "Deletion and non approval of request will be implemented in later version",
    "events": {
      "Confirmation(address,uint256,string)": {
        "params": {
          "approved": "a boolean indication if the confirmed transaction is approved",
          "sender": "sender address",
          "transactionId": "transaction id"
        }
      },
      "Deposit(address,uint256)": {
        "params": {
          "sender": "sender address",
          "value": "value of contribution"
        }
      },
      "Execution(uint256)": {
        "params": {
          "transactionId": "transaction id"
        }
      },
      "ExecutionFailure(uint256)": {
        "params": {
          "transactionId": "transaction id"
        }
      },
      "LogEnrolled(address)": {
        "params": {
          "accountAddress": "account of member"
        }
      },
      "Submission(uint256)": {
        "params": {
          "transactionId": "transaction id"
        }
      }
    },
    "kind": "dev",
    "methods": {
      "cancelTransaction()": {
        "details": "This function will allow owners to cancel submitted requests by members"
      },
      "confirmTransaction(uint256)": {
        "details": "Allows an owner to confirm a transaction.",
        "params": {
          "_transactionId": "Transaction ID."
        }
      },
      "constructor": {
        "details": "Contract constructor sets initial owners of the stokvel account and required number of confirmations.",
        "params": {
          "_contribution": "Required minimum contribution.",
          "_owners": "List of initial owners.",
          "_required": "Number of required confirmations."
        }
      },
      "isConfirmed(uint256)": {
        "details": "Returns the confirmation status of a transaction.",
        "params": {
          "_transactionId": "Transaction ID."
        },
        "returns": {
          "confirmed": "Confirmation status."
        }
      },
      "paused()": {
        "details": "Returns true if the contract is paused, and false otherwise."
      },
      "removeMember()": {
        "details": "This function will allow owners to remove members members"
      },
      "submitRequest(uint256,string)": {
        "details": "Allows a member to submit a transaction request.",
        "params": {
          "_value": "Amount requested."
        }
      }
    },
    "title": "A smart contract for a South African Burial Stokvel",
    "version": 1
  },
  "userdoc": {
    "events": {
      "Confirmation(address,uint256,string)": {
        "notice": "Emitted when a submitted request is confirmed"
      },
      "Deposit(address,uint256)": {
        "notice": "Emitted when a member deposits his contribution"
      },
      "Execution(uint256)": {
        "notice": "Emitted when a transfer of funds is executed"
      },
      "ExecutionFailure(uint256)": {
        "notice": "Emitted when a transfer of funds fails"
      },
      "LogEnrolled(address)": {
        "notice": "Emitted when a address is enrolled as a member"
      },
      "Submission(uint256)": {
        "notice": "Emitted when a request is submitted"
      }
    },
    "kind": "user",
    "methods": {
      "cancelTransaction()": {
        "notice": "Allows approver to cancel submitted transaction"
      },
      "removeMember()": {
        "notice": "Allows approvers to remove members"
      }
    },
    "notice": "The contract allows for multiple owners and members After members pay a contribution they are able to submit requests for payment which need to be approved by owners.",
    "version": 1
  }
}