{
  "contractName": "BurialStokvelAccount",
  "abi": [
    {
      "inputs": [
        {
          "internalType": "address[]",
          "name": "_owners",
          "type": "address[]"
        },
        {
          "internalType": "uint256",
          "name": "_required",
          "type": "uint256"
        },
        {
          "internalType": "uint256",
          "name": "_contribution",
          "type": "uint256"
        }
      ],
      "stateMutability": "nonpayable",
      "type": "constructor"
    },
    {
      "anonymous": false,
      "inputs": [
        {
          "indexed": true,
          "internalType": "address",
          "name": "sender",
          "type": "address"
        },
        {
          "indexed": true,
          "internalType": "uint256",
          "name": "transactionId",
          "type": "uint256"
        },
        {
          "indexed": false,
          "internalType": "string",
          "name": "approved",
          "type": "string"
        }
      ],
      "name": "Confirmation",
      "type": "event"
    },
    {
      "anonymous": false,
      "inputs": [
        {
          "indexed": true,
          "internalType": "address",
          "name": "sender",
          "type": "address"
        },
        {
          "indexed": false,
          "internalType": "uint256",
          "name": "value",
          "type": "uint256"
        }
      ],
      "name": "Deposit",
      "type": "event"
    },
    {
      "anonymous": false,
      "inputs": [
        {
          "indexed": true,
          "internalType": "uint256",
          "name": "transactionId",
          "type": "uint256"
        }
      ],
      "name": "Execution",
      "type": "event"
    },
    {
      "anonymous": false,
      "inputs": [
        {
          "indexed": true,
          "internalType": "uint256",
          "name": "transactionId",
          "type": "uint256"
        }
      ],
      "name": "ExecutionFailure",
      "type": "event"
    },
    {
      "anonymous": false,
      "inputs": [
        {
          "indexed": true,
          "internalType": "address",
          "name": "accountAddress",
          "type": "address"
        }
      ],
      "name": "LogEnrolled",
      "type": "event"
    },
    {
      "anonymous": false,
      "inputs": [
        {
          "indexed": false,
          "internalType": "address",
          "name": "account",
          "type": "address"
        }
      ],
      "name": "Paused",
      "type": "event"
    },
    {
      "anonymous": false,
      "inputs": [
        {
          "indexed": true,
          "internalType": "uint256",
          "name": "transactionId",
          "type": "uint256"
        }
      ],
      "name": "Submission",
      "type": "event"
    },
    {
      "anonymous": false,
      "inputs": [
        {
          "indexed": false,
          "internalType": "address",
          "name": "account",
          "type": "address"
        }
      ],
      "name": "Unpaused",
      "type": "event"
    },
    {
      "stateMutability": "payable",
      "type": "fallback"
    },
    {
      "inputs": [],
      "name": "balance",
      "outputs": [
        {
          "internalType": "uint256",
          "name": "",
          "type": "uint256"
        }
      ],
      "stateMutability": "view",
      "type": "function"
    },
    {
      "inputs": [
        {
          "internalType": "uint256",
          "name": "",
          "type": "uint256"
        },
        {
          "internalType": "address",
          "name": "",
          "type": "address"
        }
      ],
      "name": "confirmations",
      "outputs": [
        {
          "internalType": "bool",
          "name": "",
          "type": "bool"
        }
      ],
      "stateMutability": "view",
      "type": "function"
    },
    {
      "inputs": [],
      "name": "contribution",
      "outputs": [
        {
          "internalType": "uint256",
          "name": "",
          "type": "uint256"
        }
      ],
      "stateMutability": "view",
      "type": "function"
    },
    {
      "inputs": [
        {
          "internalType": "address",
          "name": "",
          "type": "address"
        }
      ],
      "name": "isMember",
      "outputs": [
        {
          "internalType": "bool",
          "name": "",
          "type": "bool"
        }
      ],
      "stateMutability": "view",
      "type": "function"
    },
    {
      "inputs": [
        {
          "internalType": "address",
          "name": "",
          "type": "address"
        }
      ],
      "name": "isOwner",
      "outputs": [
        {
          "internalType": "bool",
          "name": "",
          "type": "bool"
        }
      ],
      "stateMutability": "view",
      "type": "function"
    },
    {
      "inputs": [
        {
          "internalType": "uint256",
          "name": "",
          "type": "uint256"
        }
      ],
      "name": "members",
      "outputs": [
        {
          "internalType": "address",
          "name": "",
          "type": "address"
        }
      ],
      "stateMutability": "view",
      "type": "function"
    },
    {
      "inputs": [
        {
          "internalType": "uint256",
          "name": "",
          "type": "uint256"
        }
      ],
      "name": "owners",
      "outputs": [
        {
          "internalType": "address",
          "name": "",
          "type": "address"
        }
      ],
      "stateMutability": "view",
      "type": "function"
    },
    {
      "inputs": [],
      "name": "paused",
      "outputs": [
        {
          "internalType": "bool",
          "name": "",
          "type": "bool"
        }
      ],
      "stateMutability": "view",
      "type": "function"
    },
    {
      "inputs": [],
      "name": "required",
      "outputs": [
        {
          "internalType": "uint256",
          "name": "",
          "type": "uint256"
        }
      ],
      "stateMutability": "view",
      "type": "function"
    },
    {
      "inputs": [],
      "name": "transactionCount",
      "outputs": [
        {
          "internalType": "uint256",
          "name": "",
          "type": "uint256"
        }
      ],
      "stateMutability": "view",
      "type": "function"
    },
    {
      "inputs": [
        {
          "internalType": "uint256",
          "name": "",
          "type": "uint256"
        }
      ],
      "name": "transactions",
      "outputs": [
        {
          "internalType": "string",
          "name": "name",
          "type": "string"
        },
        {
          "internalType": "address",
          "name": "destination",
          "type": "address"
        },
        {
          "internalType": "uint256",
          "name": "value",
          "type": "uint256"
        },
        {
          "internalType": "enum BurialStokvelAccount.State",
          "name": "state",
          "type": "uint8"
        }
      ],
      "stateMutability": "view",
      "type": "function"
    },
    {
      "stateMutability": "payable",
      "type": "receive"
    },
    {
      "inputs": [],
      "name": "unpause",
      "outputs": [],
      "stateMutability": "nonpayable",
      "type": "function"
    },
    {
      "inputs": [],
      "name": "pause",
      "outputs": [],
      "stateMutability": "nonpayable",
      "type": "function"
    },
    {
      "inputs": [],
      "name": "enroll",
      "outputs": [
        {
          "internalType": "bool",
          "name": "",
          "type": "bool"
        }
      ],
      "stateMutability": "payable",
      "type": "function"
    },
    {
      "inputs": [
        {
          "internalType": "uint256",
          "name": "_value",
          "type": "uint256"
        },
        {
          "internalType": "string",
          "name": "_name",
          "type": "string"
        }
      ],
      "name": "submitRequest",
      "outputs": [
        {
          "internalType": "uint256",
          "name": "",
          "type": "uint256"
        }
      ],
      "stateMutability": "nonpayable",
      "type": "function"
    },
    {
      "inputs": [
        {
          "internalType": "uint256",
          "name": "_transactionId",
          "type": "uint256"
        }
      ],
      "name": "confirmTransaction",
      "outputs": [],
      "stateMutability": "nonpayable",
      "type": "function"
    },
    {
      "inputs": [
        {
          "internalType": "uint256",
          "name": "_transactionId",
          "type": "uint256"
        }
      ],
      "name": "isConfirmed",
      "outputs": [
        {
          "internalType": "bool",
          "name": "confirmed",
          "type": "bool"
        }
      ],
      "stateMutability": "view",
      "type": "function"
    },
    {
      "inputs": [
        {
          "internalType": "uint256",
          "name": "_transactionId",
          "type": "uint256"
        }
      ],
      "name": "withdraw",
      "outputs": [],
      "stateMutability": "nonpayable",
      "type": "function"
    },
    {
      "inputs": [],
      "name": "getAllTransactionIDs",
      "outputs": [
        {
          "internalType": "uint256[]",
          "name": "",
          "type": "uint256[]"
        }
      ],
      "stateMutability": "view",
      "type": "function"
    },
    {
      "inputs": [
        {
          "internalType": "uint256",
          "name": "_transactionId",
          "type": "uint256"
        }
      ],
      "name": "fetchTransaction",
      "outputs": [
        {
          "internalType": "string",
          "name": "name",
          "type": "string"
        },
        {
          "internalType": "uint256",
          "name": "value",
          "type": "uint256"
        },
        {
          "internalType": "address",
          "name": "destination",
          "type": "address"
        },
        {
          "internalType": "string",
          "name": "state",
          "type": "string"
        }
      ],
      "stateMutability": "view",
      "type": "function"
    },
    {
      "inputs": [],
      "name": "getOwners",
      "outputs": [
        {
          "internalType": "address[]",
          "name": "",
          "type": "address[]"
        }
      ],
      "stateMutability": "view",
      "type": "function"
    },
    {
      "inputs": [],
      "name": "getMembers",
      "outputs": [
        {
          "internalType": "address[]",
          "name": "",
          "type": "address[]"
        }
      ],
      "stateMutability": "view",
      "type": "function"
    },
    {
      "inputs": [],
      "name": "getMinimumContribution",
      "outputs": [
        {
          "internalType": "uint256",
          "name": "",
          "type": "uint256"
        }
      ],
      "stateMutability": "view",
      "type": "function"
    },
    {
      "inputs": [],
      "name": "getNumberofRequiredApprovals",
      "outputs": [
        {
          "internalType": "uint256",
          "name": "",
          "type": "uint256"
        }
      ],
      "stateMutability": "view",
      "type": "function"
    },
    {
      "inputs": [],
      "name": "getBalance",
      "outputs": [
        {
          "internalType": "uint256",
          "name": "",
          "type": "uint256"
        }
      ],
      "stateMutability": "view",
      "type": "function"
    },
    {
      "inputs": [],
      "name": "cancelTransaction",
      "outputs": [],
      "stateMutability": "nonpayable",
      "type": "function"
    },
    {
      "inputs": [],
      "name": "removeMember",
      "outputs": [],
      "stateMutability": "nonpayable",
      "type": "function"
    }
  ],
  "bytecode": "0x60806040523480156200001157600080fd5b5060405162002e4e38038062002e4e833981810160405281019062000037919062000304565b60008060006101000a81548160ff02191690831515021790555082518281811180620000635750600081145b806200006f5750600082145b156200007a57600080fd5b600083116200008857600080fd5b83855110156200009757600080fd5b60005b85518110156200015357600160086000888481518110620000e4577f4e487b7100000000000000000000000000000000000000000000000000000000600052603260045260246000fd5b602002602001015173ffffffffffffffffffffffffffffffffffffffff1673ffffffffffffffffffffffffffffffffffffffff16815260200190815260200160002060006101000a81548160ff02191690831515021790555080806200014a9062000414565b9150506200009a565b5084600190805190602001906200016c92919062000186565b5083600381905550826005819055505050505050620004f4565b82805482825590600052602060002090810192821562000202579160200282015b82811115620002015782518260006101000a81548173ffffffffffffffffffffffffffffffffffffffff021916908373ffffffffffffffffffffffffffffffffffffffff16021790555091602001919060010190620001a7565b5b50905062000211919062000215565b5090565b5b808211156200023057600081600090555060010162000216565b5090565b60006200024b6200024584620003a7565b62000373565b905080838252602082019050828560208602820111156200026b57600080fd5b60005b858110156200029f5781620002848882620002a9565b8452602084019350602083019250506001810190506200026e565b5050509392505050565b600081519050620002ba81620004c0565b92915050565b600082601f830112620002d257600080fd5b8151620002e484826020860162000234565b91505092915050565b600081519050620002fe81620004da565b92915050565b6000806000606084860312156200031a57600080fd5b600084015167ffffffffffffffff8111156200033557600080fd5b6200034386828701620002c0565b93505060206200035686828701620002ed565b92505060406200036986828701620002ed565b9150509250925092565b6000604051905081810181811067ffffffffffffffff821117156200039d576200039c62000491565b5b8060405250919050565b600067ffffffffffffffff821115620003c557620003c462000491565b5b602082029050602081019050919050565b6000620003e382620003ea565b9050919050565b600073ffffffffffffffffffffffffffffffffffffffff82169050919050565b6000819050919050565b600062000421826200040a565b91507fffffffffffffffffffffffffffffffffffffffffffffffffffffffffffffffff82141562000457576200045662000462565b5b600182019050919050565b7f4e487b7100000000000000000000000000000000000000000000000000000000600052601160045260246000fd5b7f4e487b7100000000000000000000000000000000000000000000000000000000600052604160045260246000fd5b620004cb81620003d6565b8114620004d757600080fd5b50565b620004e5816200040a565b8114620004f157600080fd5b50565b61294a80620005046000396000f3fe6080604052600436106101a05760003560e01c80638456cb59116100ec578063b77bf6001161008a578063dc8452cd11610064578063dc8452cd146106ba578063e65f2a7e146106e5578063eafa23bd14610703578063f84038b11461072e57610217565b8063b77bf6001461063b578063b8d437bd14610666578063c01a8c841461069157610217565b80639eab5253116100c65780639eab52531461057d578063a0e67e2b146105a8578063a230c524146105d3578063b69ef8a81461061057610217565b80638456cb591461050f578063904c0b3a146105265780639ace38c21461053d57610217565b80633f4ba83a116101595780635c975abb116101335780635c975abb1461042a5780635daf08ca14610455578063685067d514610492578063784547a7146104d257610217565b80633f4ba83a146103d157806350520b1f146103e85780635c8cf7501461041357610217565b8063025e7c271461028957806312065fe0146102c657806316366b26146102f15780632e1a7d4d1461032e5780632f54bf6e146103575780633411c81c1461039457610217565b36610217576000341115610215573373ffffffffffffffffffffffffffffffffffffffff167fe1fffcc4923d04b559f4d29a8bfc6cda04eb5b0d3c460751c2402c5c5cc9109c346040516101f4919061253c565b60405180910390a26004600081548092919061020f906127bc565b91905055505b005b6000341115610287573373ffffffffffffffffffffffffffffffffffffffff167fe1fffcc4923d04b559f4d29a8bfc6cda04eb5b0d3c460751c2402c5c5cc9109c34604051610266919061253c565b60405180910390a260046000815480929190610281906127bc565b91905055505b005b34801561029557600080fd5b506102b060048036038101906102ab9190611fba565b610759565b6040516102bd9190612361565b60405180910390f35b3480156102d257600080fd5b506102db610798565b6040516102e8919061253c565b60405180910390f35b3480156102fd57600080fd5b506103186004803603810190610313919061201f565b6107a2565b604051610325919061253c565b60405180910390f35b34801561033a57600080fd5b5061035560048036038101906103509190611fba565b6108ae565b005b34801561036357600080fd5b5061037e60048036038101906103799190611f91565b610970565b60405161038b91906123c0565b60405180910390f35b3480156103a057600080fd5b506103bb60048036038101906103b69190611fe3565b610990565b6040516103c891906123c0565b60405180910390f35b3480156103dd57600080fd5b506103e66109bf565b005b3480156103f457600080fd5b506103fd610a55565b60405161040a919061253c565b60405180910390f35b34801561041f57600080fd5b50610428610a5b565b005b34801561043657600080fd5b5061043f610a5d565b60405161044c91906123c0565b60405180910390f35b34801561046157600080fd5b5061047c60048036038101906104779190611fba565b610a73565b6040516104899190612361565b60405180910390f35b34801561049e57600080fd5b506104b960048036038101906104b49190611fba565b610ab2565b6040516104c99493929190612449565b60405180910390f35b3480156104de57600080fd5b506104f960048036038101906104f49190611fba565b610e52565b60405161050691906123c0565b60405180910390f35b34801561051b57600080fd5b50610524610f6d565b005b34801561053257600080fd5b5061053b611003565b005b34801561054957600080fd5b50610564600480360381019061055f9190611fba565b611005565b60405161057494939291906123fd565b60405180910390f35b34801561058957600080fd5b506105926110ea565b60405161059f919061237c565b60405180910390f35b3480156105b457600080fd5b506105bd611178565b6040516105ca919061237c565b60405180910390f35b3480156105df57600080fd5b506105fa60048036038101906105f59190611f91565b611206565b60405161060791906123c0565b60405180910390f35b34801561061c57600080fd5b50610625611226565b604051610632919061253c565b60405180910390f35b34801561064757600080fd5b5061065061122c565b60405161065d919061253c565b60405180910390f35b34801561067257600080fd5b5061067b611232565b604051610688919061253c565b60405180910390f35b34801561069d57600080fd5b506106b860048036038101906106b39190611fba565b61123c565b005b3480156106c657600080fd5b506106cf61159e565b6040516106dc919061253c565b60405180910390f35b6106ed6115a4565b6040516106fa91906123c0565b60405180910390f35b34801561070f57600080fd5b506107186117c8565b604051610725919061239e565b60405180910390f35b34801561073a57600080fd5b50610743611820565b604051610750919061253c565b60405180910390f35b6001818154811061076957600080fd5b906000526020600020016000915054906101000a900473ffffffffffffffffffffffffffffffffffffffff1681565b6000600454905090565b6000600960003373ffffffffffffffffffffffffffffffffffffffff1673ffffffffffffffffffffffffffffffffffffffff16815260200190815260200160002060009054906101000a900460ff16610830576040517f08c379a00000000000000000000000000000000000000000000000000000000081526004016108279061251c565b60405180910390fd5b600960003373ffffffffffffffffffffffffffffffffffffffff1673ffffffffffffffffffffffffffffffffffffffff16815260200190815260200160002060009054906101000a900460ff1661088657600080fd5b60045483111561089557600080fd5b60006108a233858561182a565b90508091505092915050565b6108b6610a5d565b156108f6576040517f08c379a00000000000000000000000000000000000000000000000000000000081526004016108ed906124fc565b60405180910390fd5b3373ffffffffffffffffffffffffffffffffffffffff16600a600083815260200190815260200160002060010160009054906101000a900473ffffffffffffffffffffffffffffffffffffffff1673ffffffffffffffffffffffffffffffffffffffff161461096457600080fd5b61096d816119f2565b50565b60086020528060005260406000206000915054906101000a900460ff1681565b600b6020528160005260406000206020528060005260406000206000915091509054906101000a900460ff1681565b600860003373ffffffffffffffffffffffffffffffffffffffff1673ffffffffffffffffffffffffffffffffffffffff16815260200190815260200160002060009054906101000a900460ff16610a4b576040517f08c379a0000000000000000000000000000000000000000000000000000000008152600401610a42906124dc565b60405180910390fd5b610a53611d11565b565b60055481565b565b60008060009054906101000a900460ff16905090565b60028181548110610a8357600080fd5b906000526020600020016000915054906101000a900473ffffffffffffffffffffffffffffffffffffffff1681565b60606000806060600a60008681526020019081526020016000206000018054610ada9061278a565b80601f0160208091040260200160405190810160405280929190818152602001828054610b069061278a565b8015610b535780601f10610b2857610100808354040283529160200191610b53565b820191906000526020600020905b815481529060010190602001808311610b3657829003601f168201915b50505050509350600a6000868152602001908152602001600020600201549250600a600086815260200190815260200160002060010160009054906101000a900473ffffffffffffffffffffffffffffffffffffffff16915060006002811115610be6577f4e487b7100000000000000000000000000000000000000000000000000000000600052602160045260246000fd5b600a600087815260200190815260200160002060030160009054906101000a900460ff166002811115610c42577f4e487b7100000000000000000000000000000000000000000000000000000000600052602160045260246000fd5b1415610c85576040518060400160405280600881526020017f45786563757465640000000000000000000000000000000000000000000000008152509050610e4b565b60016002811115610cbf577f4e487b7100000000000000000000000000000000000000000000000000000000600052602160045260246000fd5b600a600087815260200190815260200160002060030160009054906101000a900460ff166002811115610d1b577f4e487b7100000000000000000000000000000000000000000000000000000000600052602160045260246000fd5b1415610d5e576040518060400160405280600781526020017f50656e64696e67000000000000000000000000000000000000000000000000008152509050610e4a565b600280811115610d97577f4e487b7100000000000000000000000000000000000000000000000000000000600052602160045260246000fd5b600a600087815260200190815260200160002060030160009054906101000a900460ff166002811115610df3577f4e487b7100000000000000000000000000000000000000000000000000000000600052602160045260246000fd5b1415610e36576040518060400160405280600881526020017f417070726f7665640000000000000000000000000000000000000000000000008152509050610e49565b6040518060200160405280600081525090505b5b5b9193509193565b600080600090506000915060005b600180549050811015610f6657600b6000858152602001908152602001600020600060018381548110610ebc577f4e487b7100000000000000000000000000000000000000000000000000000000600052603260045260246000fd5b9060005260206000200160009054906101000a900473ffffffffffffffffffffffffffffffffffffffff1673ffffffffffffffffffffffffffffffffffffffff1673ffffffffffffffffffffffffffffffffffffffff16815260200190815260200160002060009054906101000a900460ff1615610f4457600182610f419190612651565b91505b600354821415610f5357600192505b8080610f5e906127bc565b915050610e60565b5050919050565b600860003373ffffffffffffffffffffffffffffffffffffffff1673ffffffffffffffffffffffffffffffffffffffff16815260200190815260200160002060009054906101000a900460ff16610ff9576040517f08c379a0000000000000000000000000000000000000000000000000000000008152600401610ff0906124dc565b60405180910390fd5b611001611db2565b565b565b600a6020528060005260406000206000915090508060000180546110289061278a565b80601f01602080910402602001604051908101604052809291908181526020018280546110549061278a565b80156110a15780601f10611076576101008083540402835291602001916110a1565b820191906000526020600020905b81548152906001019060200180831161108457829003601f168201915b5050505050908060010160009054906101000a900473ffffffffffffffffffffffffffffffffffffffff16908060020154908060030160009054906101000a900460ff16905084565b6060600280548060200260200160405190810160405280929190818152602001828054801561116e57602002820191906000526020600020905b8160009054906101000a900473ffffffffffffffffffffffffffffffffffffffff1673ffffffffffffffffffffffffffffffffffffffff1681526020019060010190808311611124575b5050505050905090565b606060018054806020026020016040519081016040528092919081815260200182805480156111fc57602002820191906000526020600020905b8160009054906101000a900473ffffffffffffffffffffffffffffffffffffffff1673ffffffffffffffffffffffffffffffffffffffff16815260200190600101908083116111b2575b5050505050905090565b60096020528060005260406000206000915054906101000a900460ff1681565b60045481565b60065481565b6000600354905090565b600860003373ffffffffffffffffffffffffffffffffffffffff1673ffffffffffffffffffffffffffffffffffffffff16815260200190815260200160002060009054906101000a900460ff166112c8576040517f08c379a00000000000000000000000000000000000000000000000000000000081526004016112bf906124dc565b60405180910390fd5b600860003373ffffffffffffffffffffffffffffffffffffffff1673ffffffffffffffffffffffffffffffffffffffff16815260200190815260200160002060009054906101000a900460ff1661131e57600080fd5b600073ffffffffffffffffffffffffffffffffffffffff16600a600083815260200190815260200160002060010160009054906101000a900473ffffffffffffffffffffffffffffffffffffffff1673ffffffffffffffffffffffffffffffffffffffff16141561138e57600080fd5b60001515600b600083815260200190815260200160002060003373ffffffffffffffffffffffffffffffffffffffff1673ffffffffffffffffffffffffffffffffffffffff16815260200190815260200160002060009054906101000a900460ff161515146113fc57600080fd5b6001600b600083815260200190815260200160002060003373ffffffffffffffffffffffffffffffffffffffff1673ffffffffffffffffffffffffffffffffffffffff16815260200190815260200160002060006101000a81548160ff02191690831515021790555060006040518060400160405280600581526020017f66616c736500000000000000000000000000000000000000000000000000000081525090506114a882610e52565b1561154b576002600a600084815260200190815260200160002060030160006101000a81548160ff0219169083600281111561150d577f4e487b7100000000000000000000000000000000000000000000000000000000600052602160045260246000fd5b02179055506040518060400160405280600481526020017f747275650000000000000000000000000000000000000000000000000000000081525090505b813373ffffffffffffffffffffffffffffffffffffffff167fbbd347b0b26e5ecc8cd8676faf574878fdbc8fc0d744f3a8d42f72ce24eb22518360405161159291906123db565b60405180910390a35050565b60035481565b6000801515600960003373ffffffffffffffffffffffffffffffffffffffff1673ffffffffffffffffffffffffffffffffffffffff16815260200190815260200160002060009054906101000a900460ff1615151461160257600080fd5b60055434101561161157600080fd5b6001600960003373ffffffffffffffffffffffffffffffffffffffff1673ffffffffffffffffffffffffffffffffffffffff16815260200190815260200160002060006101000a81548160ff0219169083151502179055506002339080600181540180825580915050600190039060005260206000200160009091909190916101000a81548173ffffffffffffffffffffffffffffffffffffffff021916908373ffffffffffffffffffffffffffffffffffffffff1602179055503373ffffffffffffffffffffffffffffffffffffffff167f990c442e6adb818b8fa7db3cf1023decd07f7b66e5306928c7ed527d974192bb60405160405180910390a234600460008282546117219190612651565b925050819055503373ffffffffffffffffffffffffffffffffffffffff167fe1fffcc4923d04b559f4d29a8bfc6cda04eb5b0d3c460751c2402c5c5cc9109c3460405161176e919061253c565b60405180910390a2600960003373ffffffffffffffffffffffffffffffffffffffff1673ffffffffffffffffffffffffffffffffffffffff16815260200190815260200160002060009054906101000a900460ff16905090565b6060600780548060200260200160405190810160405280929190818152602001828054801561181657602002820191906000526020600020905b815481526020019060010190808311611802575b5050505050905090565b6000600554905090565b6000600654905060405180608001604052808381526020018573ffffffffffffffffffffffffffffffffffffffff1681526020018481526020016001600281111561189e577f4e487b7100000000000000000000000000000000000000000000000000000000600052602160045260246000fd5b815250600a600083815260200190815260200160002060008201518160000190805190602001906118d0929190611e5c565b5060208201518160010160006101000a81548173ffffffffffffffffffffffffffffffffffffffff021916908373ffffffffffffffffffffffffffffffffffffffff1602179055506040820151816002015560608201518160030160006101000a81548160ff02191690836002811115611973577f4e487b7100000000000000000000000000000000000000000000000000000000600052602160045260246000fd5b021790555090505060078190806001815401808255809150506001900390600052602060002001600090919091909150556001600660008282546119b79190612651565b92505081905550807fc0ba8fe4b176c1714197d43b9cc6bcf797a4a7461c5fe8d0ef6e184ae7601e5160405160405180910390a29392505050565b600280811115611a2b577f4e487b7100000000000000000000000000000000000000000000000000000000600052602160045260246000fd5b600a600083815260200190815260200160002060030160009054906101000a900460ff166002811115611a87577f4e487b7100000000000000000000000000000000000000000000000000000000600052602160045260246000fd5b14611a9157600080fd5b600454600a6000838152602001908152602001600020600201541115611ab657600080fd5b611abf81610e52565b15611d0e576000600a6000838152602001908152602001600020905060008160030160006101000a81548160ff02191690836002811115611b29577f4e487b7100000000000000000000000000000000000000000000000000000000600052602160045260246000fd5b0217905550600a600083815260200190815260200160002060020154600454611b5291906126a7565b60048190555060008160010160009054906101000a900473ffffffffffffffffffffffffffffffffffffffff1673ffffffffffffffffffffffffffffffffffffffff1634604051611ba29061234c565b60006040518083038185875af1925050503d8060008114611bdf576040519150601f19603f3d011682016040523d82523d6000602084013e611be4565b606091505b505090508015611c2057827f33e13ecb54c3076d8e8bb8c2881800a4d972b792045ffae98fdf46df365fed7560405160405180910390a2611d0b565b827f526441bb6c1aba3c9a4a6ca1d6545da9c2333c8c48343ef398eb858d72b7923660405160405180910390a260028260030160006101000a81548160ff02191690836002811115611c9b577f4e487b7100000000000000000000000000000000000000000000000000000000600052602160045260246000fd5b0217905550600a600084815260200190815260200160002060020154600454611cc49190612651565b60048190555080611d0a576040517f08c379a0000000000000000000000000000000000000000000000000000000008152600401611d01906124bc565b60405180910390fd5b5b50505b50565b611d19610a5d565b611d58576040517f08c379a0000000000000000000000000000000000000000000000000000000008152600401611d4f9061249c565b60405180910390fd5b60008060006101000a81548160ff0219169083151502179055507f5db9ee0a495bf2e6ff9c91a7834c1ba4fdd244a5e8aa4e537bd38aeae4b073aa611d9b611e54565b604051611da89190612361565b60405180910390a1565b611dba610a5d565b15611dfa576040517f08c379a0000000000000000000000000000000000000000000000000000000008152600401611df1906124fc565b60405180910390fd5b60016000806101000a81548160ff0219169083151502179055507f62e78cea01bee320cd4e420270b5ea74000d11b0c9f74754ebdbfc544b05a258611e3d611e54565b604051611e4a9190612361565b60405180910390a1565b600033905090565b828054611e689061278a565b90600052602060002090601f016020900481019282611e8a5760008555611ed1565b82601f10611ea357805160ff1916838001178555611ed1565b82800160010185558215611ed1579182015b82811115611ed0578251825591602001919060010190611eb5565b5b509050611ede9190611ee2565b5090565b5b80821115611efb576000816000905550600101611ee3565b5090565b6000611f12611f0d84612588565b612557565b905082815260208101848484011115611f2a57600080fd5b611f35848285612748565b509392505050565b600081359050611f4c816128e6565b92915050565b600082601f830112611f6357600080fd5b8135611f73848260208601611eff565b91505092915050565b600081359050611f8b816128fd565b92915050565b600060208284031215611fa357600080fd5b6000611fb184828501611f3d565b91505092915050565b600060208284031215611fcc57600080fd5b6000611fda84828501611f7c565b91505092915050565b60008060408385031215611ff657600080fd5b600061200485828601611f7c565b925050602061201585828601611f3d565b9150509250929050565b6000806040838503121561203257600080fd5b600061204085828601611f7c565b925050602083013567ffffffffffffffff81111561205d57600080fd5b61206985828601611f52565b9150509250929050565b600061207f83836120a3565b60208301905092915050565b6000612097838361232e565b60208301905092915050565b6120ac816126db565b82525050565b6120bb816126db565b82525050565b60006120cc826125d8565b6120d68185612613565b93506120e1836125b8565b8060005b838110156121125781516120f98882612073565b9750612104836125f9565b9250506001810190506120e5565b5085935050505092915050565b600061212a826125e3565b6121348185612624565b935061213f836125c8565b8060005b83811015612170578151612157888261208b565b975061216283612606565b925050600181019050612143565b5085935050505092915050565b612186816126ed565b82525050565b61219581612736565b82525050565b60006121a6826125ee565b6121b08185612640565b93506121c0818560208601612757565b6121c9816128c1565b840191505092915050565b60006121e1601483612640565b91507f5061757361626c653a206e6f74207061757365640000000000000000000000006000830152602082019050919050565b6000612221601483612640565b91507f4661696c656420746f2073656e64206d6f6e65790000000000000000000000006000830152602082019050919050565b6000612261601383612640565b91507f4f6e6c79206f776e65727320616c6c6f776564000000000000000000000000006000830152602082019050919050565b60006122a1601083612640565b91507f5061757361626c653a20706175736564000000000000000000000000000000006000830152602082019050919050565b60006122e1601483612640565b91507f4f6e6c79206d656d6265727320616c6c6f7765640000000000000000000000006000830152602082019050919050565b6000612321600083612635565b9150600082019050919050565b6123378161272c565b82525050565b6123468161272c565b82525050565b600061235782612314565b9150819050919050565b600060208201905061237660008301846120b2565b92915050565b6000602082019050818103600083015261239681846120c1565b905092915050565b600060208201905081810360008301526123b8818461211f565b905092915050565b60006020820190506123d5600083018461217d565b92915050565b600060208201905081810360008301526123f5818461219b565b905092915050565b60006080820190508181036000830152612417818761219b565b905061242660208301866120b2565b612433604083018561233d565b612440606083018461218c565b95945050505050565b60006080820190508181036000830152612463818761219b565b9050612472602083018661233d565b61247f60408301856120b2565b8181036060830152612491818461219b565b905095945050505050565b600060208201905081810360008301526124b5816121d4565b9050919050565b600060208201905081810360008301526124d581612214565b9050919050565b600060208201905081810360008301526124f581612254565b9050919050565b6000602082019050818103600083015261251581612294565b9050919050565b60006020820190508181036000830152612535816122d4565b9050919050565b6000602082019050612551600083018461233d565b92915050565b6000604051905081810181811067ffffffffffffffff8211171561257e5761257d612892565b5b8060405250919050565b600067ffffffffffffffff8211156125a3576125a2612892565b5b601f19601f8301169050602081019050919050565b6000819050602082019050919050565b6000819050602082019050919050565b600081519050919050565b600081519050919050565b600081519050919050565b6000602082019050919050565b6000602082019050919050565b600082825260208201905092915050565b600082825260208201905092915050565b600081905092915050565b600082825260208201905092915050565b600061265c8261272c565b91506126678361272c565b9250827fffffffffffffffffffffffffffffffffffffffffffffffffffffffffffffffff0382111561269c5761269b612805565b5b828201905092915050565b60006126b28261272c565b91506126bd8361272c565b9250828210156126d0576126cf612805565b5b828203905092915050565b60006126e68261270c565b9050919050565b60008115159050919050565b6000819050612707826128d2565b919050565b600073ffffffffffffffffffffffffffffffffffffffff82169050919050565b6000819050919050565b6000612741826126f9565b9050919050565b82818337600083830152505050565b60005b8381101561277557808201518184015260208101905061275a565b83811115612784576000848401525b50505050565b600060028204905060018216806127a257607f821691505b602082108114156127b6576127b5612863565b5b50919050565b60006127c78261272c565b91507fffffffffffffffffffffffffffffffffffffffffffffffffffffffffffffffff8214156127fa576127f9612805565b5b600182019050919050565b7f4e487b7100000000000000000000000000000000000000000000000000000000600052601160045260246000fd5b7f4e487b7100000000000000000000000000000000000000000000000000000000600052602160045260246000fd5b7f4e487b7100000000000000000000000000000000000000000000000000000000600052602260045260246000fd5b7f4e487b7100000000000000000000000000000000000000000000000000000000600052604160045260246000fd5b6000601f19601f8301169050919050565b600381106128e3576128e2612834565b5b50565b6128ef816126db565b81146128fa57600080fd5b50565b6129068161272c565b811461291157600080fd5b5056fea2646970667358221220ad84feadeedd80746dcbc35eb4cdef254409052e560af239515f41e3e4d6a20164736f6c63430008000033",
  "immutableReferences": {},
  "source": "// SPDX-License-Identifier: MIT\npragma solidity 0.8.0;\n\nimport \"@openzeppelin/contracts/security/Pausable.sol\";\n\n/// @title A smart contract for a South African Burial Stokvel\n/// @author Jurgen Schulte\n/// @notice The contract allows for multiple owners and members After members pay a contribution they are able to submit requests for payment which need to be approved by owners.\n/// @dev Deletion and non approval of request will be implemented in later version\ncontract BurialStokvelAccount is Pausable {\n    address[] public owners;\n    address[] public members;\n    uint256 public required;\n    uint256 public balance;\n    uint256 public contribution;\n    uint256 public transactionCount;\n    uint256[] private transactionIDs;\n\n    mapping(address => bool) public isOwner;\n    mapping(address => bool) public isMember;\n    mapping(uint256 => Transaction) public transactions;\n    mapping(uint256 => mapping(address => bool)) public confirmations;\n\n    enum State {\n        Executed,\n        Pending,\n        Approved\n    }\n\n    struct Transaction {\n        string name;\n        address destination;\n        uint256 value;\n        State state;\n    }\n\n    /// @notice Emitted when a request is submitted\n    /// @param transactionId Transaction ID\n    event Submission(uint256 indexed transactionId);\n\n    /// @notice Emitted when a submitted request is confirmed\n    /// @param sender Sender address\n    /// @param transactionId Transaction id\n    /// @param approved A boolean indication if the confirmed transaction is approved\n    event Confirmation(\n        address indexed sender,\n        uint256 indexed transactionId,\n        string approved\n    );\n\n    /// @notice Emitted when a transfer of funds is executed\n    /// @param transactionId Transaction ID\n    event Execution(uint256 indexed transactionId);\n\n    /// @notice Emitted when a transfer of funds fails\n    /// @param transactionId Transaction ID\n    event ExecutionFailure(uint256 indexed transactionId);\n\n    /// @notice Emitted when a address is enrolled as a member\n    /// @param accountAddress Account of member\n    event LogEnrolled(address indexed accountAddress);\n\n    /// @notice Emitted when a member deposits his contribution\n    /// @param sender Sender address\n    /// @param value Value of contribution\n    event Deposit(address indexed sender, uint256 value);\n\n    /// @dev Fallback function allows to deposit ether.\n    fallback() external payable {\n        if (msg.value > 0) {\n            emit Deposit(msg.sender, msg.value);\n            balance++;\n        }\n    }\n\n    /// @dev Receive function allows to deposit ether.\n    receive() external payable {\n        if (msg.value > 0) {\n            emit Deposit(msg.sender, msg.value);\n            balance++;\n        }\n    }\n\n    // NOT a valid modifier\n    modifier validRequirement(uint256 _ownerCount, uint256 _required) {\n        if (_required > _ownerCount || _required == 0 || _ownerCount == 0)\n            revert();\n        _;\n    }\n\n    modifier onlyOwners() {\n        require(isOwner[msg.sender], \"Only owners allowed\");\n        _;\n    }\n\n    modifier onlyMembers() {\n        require(isMember[msg.sender], \"Only members allowed\");\n        _;\n    }\n\n    /// @notice Unpause the contract by owners only.\n    /// @dev This function controls the unpause/pause modifier which is used to prevent withdrawals in case an attack on the contract.\n    function unpause() public onlyOwners {\n        _unpause();\n    }\n\n    /// @notice Pause the contract by owners only.\n    /// @dev This function controls the unpause/pause modifier which is used to prevent withdrawals in case an attack on the contract.\n    function pause() public onlyOwners {\n        _pause();\n    }\n\n    /// @notice Contract constructor sets initial owners of the stokvel\n    // account and required number of confirmations.\n    /// @dev Contract constructor sets initial owners of the stokvel account\n    /// and required number of confirmations.\n    /// @param _owners List of initial owners.\n    /// @param _required Number of required confirmations.\n    /// @param _contribution Required minimum contribution.\n    constructor(\n        address[] memory _owners,\n        uint256 _required,\n        uint256 _contribution\n    ) validRequirement(_owners.length, _required) {\n        require(_contribution > 0);\n        require(_owners.length >= _required);\n        for (uint256 i = 0; i < _owners.length; i++) {\n            isOwner[_owners[i]] = true;\n        }\n        owners = _owners;\n        required = _required;\n        contribution = _contribution;\n    }\n\n    /// @notice Enrolls the address as a member\n    /// @dev Checks that the address is not already a member\n    /// @return bool Returns a boolean confirming member has been added.\n    function enroll() public payable returns (bool) {\n        require(isMember[msg.sender] == false);\n        require(msg.value >= contribution);\n        isMember[msg.sender] = true;\n        members.push(msg.sender);\n        emit LogEnrolled(msg.sender);\n        balance += msg.value;\n        emit Deposit(msg.sender, msg.value);\n        return isMember[msg.sender];\n    }\n\n    /// @notice Allows member to submit a payment request\n    /// @dev The value of the contribution is checked aaginst the minimum contribution\n    /// stipulated during contract creation\n    /// @param _value Value of contribution in Wei\n    /// @param _name Name of request\n    function submitRequest(uint256 _value, string memory _name)\n        public\n        onlyMembers\n        returns (uint256)\n    {\n        require(isMember[msg.sender]);\n        require(_value <= balance);\n        uint256 transactionId = addTransaction(msg.sender, _value, _name);\n        return transactionId;\n    }\n\n    /// @dev Adds a new transaction to the transaction mapping, if transaction does not exist yet.\n    /// @param _destination Transaction target address.\n    /// @param _value Transaction wei value.\n    /// @param _name Name of submitted request.\n    /// @return transactionId Returns transaction ID.\n    function addTransaction(\n        address _destination,\n        uint256 _value,\n        string memory _name\n    ) internal returns (uint256 transactionId) {\n        transactionId = transactionCount;\n        transactions[transactionId] = Transaction({\n            name: _name,\n            destination: _destination,\n            value: _value,\n            state: State.Pending\n        });\n        transactionIDs.push(transactionId);\n        transactionCount += 1;\n        emit Submission(transactionId);\n    }\n\n    /// @dev Allows an owner to confirm a transaction.\n    /// @param _transactionId Transaction ID.\n    function confirmTransaction(uint256 _transactionId) public onlyOwners {\n        require(isOwner[msg.sender]);\n        require(transactions[_transactionId].destination != address(0));\n        require(confirmations[_transactionId][msg.sender] == false);\n\n        confirmations[_transactionId][msg.sender] = true;\n        string memory approved = \"false\";\n        if (isConfirmed(_transactionId)) {\n            transactions[_transactionId].state = State.Approved;\n            approved = \"true\";\n        }\n\n        emit Confirmation(msg.sender, _transactionId, approved);\n    }\n\n    /// @notice Returns the confirmation status of a transaction.\n    /// @param _transactionId Transaction ID.\n    /// @return confirmed Confirmation status.\n    function isConfirmed(uint256 _transactionId)\n        public\n        view\n        returns (bool confirmed)\n    {\n        uint256 count = 0;\n        confirmed = false;\n        for (uint256 i = 0; i < owners.length; i++) {\n            if (confirmations[_transactionId][owners[i]]) count += 1;\n            if (count == required) confirmed = true;\n        }\n        return confirmed;\n    }\n\n    /// @notice Withdraws the reqiested amount by the member.\n    /// @dev The sender address is checked to ensure it matches that of the initial requestor\n    /// @param _transactionId Transaction ID.\n    function withdraw(uint256 _transactionId) public whenNotPaused {\n        require(transactions[_transactionId].destination == msg.sender);\n        executeTransaction(_transactionId);\n    }\n\n    /// @notice Executes the submitted request.\n    /// @dev Transaction is executed if enough confirmations have been\n    /// received and the balance is sufficient.\n    /// @param _transactionId Transaction ID.\n    function executeTransaction(uint256 _transactionId) internal {\n        require(transactions[_transactionId].state == State.Approved);\n        // Check balance\n        require(transactions[_transactionId].value <= balance);\n        if (isConfirmed(_transactionId)) {\n            Transaction storage t = transactions[_transactionId]; // using the \"storage\" keyword makes \"t\" a pointer to storage\n            t.state = State.Executed;\n            balance = balance - transactions[_transactionId].value;\n            (bool success, ) = t.destination.call{value: msg.value}(\"\");\n            if (success) emit Execution(_transactionId);\n            else {\n                emit ExecutionFailure(_transactionId);\n                t.state = State.Approved;\n                balance = balance + transactions[_transactionId].value;\n                require(success, \"Failed to send money\");\n            }\n        }\n    }\n\n    /// @notice Returns all transaction IDs.\n    /// @return memory All transaction IDs.\n    function getAllTransactionIDs() public view returns (uint256[] memory) {\n        // Only three pending transactions allowed\n        return transactionIDs;\n    }\n\n    /// @notice Returns the details of a transaction.\n    /// @param _transactionId The transaction ID.\n    function fetchTransaction(uint256 _transactionId)\n        public\n        view\n        returns (\n            string memory name,\n            uint256 value,\n            address destination,\n            string memory state\n        )\n    {\n        name = transactions[_transactionId].name;\n        value = transactions[_transactionId].value;\n        destination = transactions[_transactionId].destination;\n        if (transactions[_transactionId].state == State.Executed) {\n            state = \"Executed\";\n        } else if (transactions[_transactionId].state == State.Pending) {\n            state = \"Pending\";\n        } else if (transactions[_transactionId].state == State.Approved) {\n            state = \"Approved\";\n        } else {\n            state = \"\";\n        }\n\n        return (name, value, destination, state);\n    }\n\n    /// @notice Get all owners.\n    /// @return memory All owner addresses.\n    function getOwners() public view returns (address[] memory) {\n        return owners;\n    }\n\n    /// @notice Get all members.\n    /// @return memory All member addresses.\n    function getMembers() public view returns (address[] memory) {\n        return members;\n    }\n\n    /// @notice Get minimum contribution required.\n    /// @return uint256 Minimum contribution.\n    function getMinimumContribution() public view returns (uint256) {\n        return contribution;\n    }\n\n    /// @notice Get number of required approvals.\n    /// @return uint256 Number of required approvals.\n    function getNumberofRequiredApprovals() public view returns (uint256) {\n        return required;\n    }\n\n    /// @notice Get balance of contract.\n    /// @return uint256 Balance of contract.\n    function getBalance() public view returns (uint256) {\n        return balance;\n    }\n\n    /// @notice Allows approver to cancel submitted transaction\n    /// @dev This function will allow owners to cancel submitted requests by members\n    function cancelTransaction() external {\n        // TODO: this will allow owners to cancel transaction. We will need to ensure that a\n        // transaction is only cancelled when enough owners cancel.\n    }\n\n    /// @notice Allows approvers to remove members\n    /// @dev This function will allow owners to remove members members\n    function removeMember() external {\n        // TODO: this will allow owners to remove members and refund their contributions.\n        // This mechanism will ensure owners can remove misbehaving members.\n    }\n}\n",
  "sourcePath": "/Users/jurgen/Consensys/blockchain-developer-bootcamp-final-project/contracts/BurialStokvelAccount.sol",
  "compiler": {
    "name": "solc",
    "version": "0.8.0+commit.c7dfd78e.Emscripten.clang"
  },
  "schemaVersion": "3.4.3",
  "updatedAt": "2021-12-12T17:47:39.655Z",
  "devdoc": {
    "author": "Jurgen Schulte",
    "details": "Deletion and non approval of request will be implemented in later version",
    "events": {
      "Confirmation(address,uint256,string)": {
        "params": {
          "approved": "A boolean indication if the confirmed transaction is approved",
          "sender": "Sender address",
          "transactionId": "Transaction id"
        }
      },
      "Deposit(address,uint256)": {
        "params": {
          "sender": "Sender address",
          "value": "Value of contribution"
        }
      },
      "Execution(uint256)": {
        "params": {
          "transactionId": "Transaction ID"
        }
      },
      "ExecutionFailure(uint256)": {
        "params": {
          "transactionId": "Transaction ID"
        }
      },
      "LogEnrolled(address)": {
        "params": {
          "accountAddress": "Account of member"
        }
      },
      "Submission(uint256)": {
        "params": {
          "transactionId": "Transaction ID"
        }
      }
    },
    "kind": "dev",
    "methods": {
      "cancelTransaction()": {
        "details": "This function will allow owners to cancel submitted requests by members"
      },
      "confirmTransaction(uint256)": {
        "details": "Allows an owner to confirm a transaction.",
        "params": {
          "_transactionId": "Transaction ID."
        }
      },
      "constructor": {
        "details": "Contract constructor sets initial owners of the stokvel account and required number of confirmations.",
        "params": {
          "_contribution": "Required minimum contribution.",
          "_owners": "List of initial owners.",
          "_required": "Number of required confirmations."
        }
      },
      "enroll()": {
        "details": "Checks that the address is not already a member",
        "returns": {
          "_0": "bool Returns a boolean confirming member has been added."
        }
      },
      "fetchTransaction(uint256)": {
        "params": {
          "_transactionId": "The transaction ID."
        }
      },
      "getAllTransactionIDs()": {
        "returns": {
          "_0": "memory All transaction IDs."
        }
      },
      "getBalance()": {
        "returns": {
          "_0": "uint256 Balance of contract."
        }
      },
      "getMembers()": {
        "returns": {
          "_0": "memory All member addresses."
        }
      },
      "getMinimumContribution()": {
        "returns": {
          "_0": "uint256 Minimum contribution."
        }
      },
      "getNumberofRequiredApprovals()": {
        "returns": {
          "_0": "uint256 Number of required approvals."
        }
      },
      "getOwners()": {
        "returns": {
          "_0": "memory All owner addresses."
        }
      },
      "isConfirmed(uint256)": {
        "params": {
          "_transactionId": "Transaction ID."
        },
        "returns": {
          "confirmed": "Confirmation status."
        }
      },
      "pause()": {
        "details": "This function controls the unpause/pause modifier which is used to prevent withdrawals in case an attack on the contract."
      },
      "paused()": {
        "details": "Returns true if the contract is paused, and false otherwise."
      },
      "removeMember()": {
        "details": "This function will allow owners to remove members members"
      },
      "submitRequest(uint256,string)": {
        "details": "The value of the contribution is checked aaginst the minimum contribution stipulated during contract creation",
        "params": {
          "_name": "Name of request",
          "_value": "Value of contribution in Wei"
        }
      },
      "unpause()": {
        "details": "This function controls the unpause/pause modifier which is used to prevent withdrawals in case an attack on the contract."
      },
      "withdraw(uint256)": {
        "details": "The sender address is checked to ensure it matches that of the initial requestor",
        "params": {
          "_transactionId": "Transaction ID."
        }
      }
    },
    "title": "A smart contract for a South African Burial Stokvel",
    "version": 1
  },
  "userdoc": {
    "events": {
      "Confirmation(address,uint256,string)": {
        "notice": "Emitted when a submitted request is confirmed"
      },
      "Deposit(address,uint256)": {
        "notice": "Emitted when a member deposits his contribution"
      },
      "Execution(uint256)": {
        "notice": "Emitted when a transfer of funds is executed"
      },
      "ExecutionFailure(uint256)": {
        "notice": "Emitted when a transfer of funds fails"
      },
      "LogEnrolled(address)": {
        "notice": "Emitted when a address is enrolled as a member"
      },
      "Submission(uint256)": {
        "notice": "Emitted when a request is submitted"
      }
    },
    "kind": "user",
    "methods": {
      "cancelTransaction()": {
        "notice": "Allows approver to cancel submitted transaction"
      },
      "enroll()": {
        "notice": "Enrolls the address as a member"
      },
      "fetchTransaction(uint256)": {
        "notice": "Returns the details of a transaction."
      },
      "getAllTransactionIDs()": {
        "notice": "Returns all transaction IDs."
      },
      "getBalance()": {
        "notice": "Get balance of contract."
      },
      "getMembers()": {
        "notice": "Get all members."
      },
      "getMinimumContribution()": {
        "notice": "Get minimum contribution required."
      },
      "getNumberofRequiredApprovals()": {
        "notice": "Get number of required approvals."
      },
      "getOwners()": {
        "notice": "Get all owners."
      },
      "isConfirmed(uint256)": {
        "notice": "Returns the confirmation status of a transaction."
      },
      "pause()": {
        "notice": "Pause the contract by owners only."
      },
      "removeMember()": {
        "notice": "Allows approvers to remove members"
      },
      "submitRequest(uint256,string)": {
        "notice": "Allows member to submit a payment request"
      },
      "unpause()": {
        "notice": "Unpause the contract by owners only."
      },
      "withdraw(uint256)": {
        "notice": "Withdraws the reqiested amount by the member."
      }
    },
    "notice": "The contract allows for multiple owners and members After members pay a contribution they are able to submit requests for payment which need to be approved by owners.",
    "version": 1
  }
}