{
  "contractName": "BurialStokvelAccount",
  "abi": [
    {
      "inputs": [
        {
          "internalType": "address[]",
          "name": "_owners",
          "type": "address[]"
        },
        {
          "internalType": "uint256",
          "name": "_required",
          "type": "uint256"
        },
        {
          "internalType": "uint256",
          "name": "_contribution",
          "type": "uint256"
        }
      ],
      "payable": false,
      "stateMutability": "nonpayable",
      "type": "constructor"
    },
    {
      "anonymous": false,
      "inputs": [
        {
          "indexed": true,
          "internalType": "address",
          "name": "sender",
          "type": "address"
        },
        {
          "indexed": true,
          "internalType": "uint256",
          "name": "transactionId",
          "type": "uint256"
        },
        {
          "indexed": false,
          "internalType": "string",
          "name": "approved",
          "type": "string"
        }
      ],
      "name": "Confirmation",
      "type": "event"
    },
    {
      "anonymous": false,
      "inputs": [
        {
          "indexed": true,
          "internalType": "address",
          "name": "sender",
          "type": "address"
        },
        {
          "indexed": false,
          "internalType": "uint256",
          "name": "value",
          "type": "uint256"
        }
      ],
      "name": "Deposit",
      "type": "event"
    },
    {
      "anonymous": false,
      "inputs": [
        {
          "indexed": true,
          "internalType": "uint256",
          "name": "transactionId",
          "type": "uint256"
        }
      ],
      "name": "Execution",
      "type": "event"
    },
    {
      "anonymous": false,
      "inputs": [
        {
          "indexed": true,
          "internalType": "uint256",
          "name": "transactionId",
          "type": "uint256"
        }
      ],
      "name": "ExecutionFailure",
      "type": "event"
    },
    {
      "anonymous": false,
      "inputs": [
        {
          "indexed": true,
          "internalType": "address",
          "name": "accountAddress",
          "type": "address"
        }
      ],
      "name": "LogEnrolled",
      "type": "event"
    },
    {
      "anonymous": false,
      "inputs": [
        {
          "indexed": true,
          "internalType": "uint256",
          "name": "transactionId",
          "type": "uint256"
        }
      ],
      "name": "Submission",
      "type": "event"
    },
    {
      "payable": true,
      "stateMutability": "payable",
      "type": "fallback"
    },
    {
      "constant": true,
      "inputs": [],
      "name": "balance",
      "outputs": [
        {
          "internalType": "uint256",
          "name": "",
          "type": "uint256"
        }
      ],
      "payable": false,
      "stateMutability": "view",
      "type": "function"
    },
    {
      "constant": true,
      "inputs": [
        {
          "internalType": "uint256",
          "name": "",
          "type": "uint256"
        },
        {
          "internalType": "address",
          "name": "",
          "type": "address"
        }
      ],
      "name": "confirmations",
      "outputs": [
        {
          "internalType": "bool",
          "name": "",
          "type": "bool"
        }
      ],
      "payable": false,
      "stateMutability": "view",
      "type": "function"
    },
    {
      "constant": true,
      "inputs": [],
      "name": "contribution",
      "outputs": [
        {
          "internalType": "uint256",
          "name": "",
          "type": "uint256"
        }
      ],
      "payable": false,
      "stateMutability": "view",
      "type": "function"
    },
    {
      "constant": true,
      "inputs": [
        {
          "internalType": "address",
          "name": "",
          "type": "address"
        }
      ],
      "name": "isMember",
      "outputs": [
        {
          "internalType": "bool",
          "name": "",
          "type": "bool"
        }
      ],
      "payable": false,
      "stateMutability": "view",
      "type": "function"
    },
    {
      "constant": true,
      "inputs": [
        {
          "internalType": "address",
          "name": "",
          "type": "address"
        }
      ],
      "name": "isOwner",
      "outputs": [
        {
          "internalType": "bool",
          "name": "",
          "type": "bool"
        }
      ],
      "payable": false,
      "stateMutability": "view",
      "type": "function"
    },
    {
      "constant": true,
      "inputs": [
        {
          "internalType": "uint256",
          "name": "",
          "type": "uint256"
        }
      ],
      "name": "members",
      "outputs": [
        {
          "internalType": "address",
          "name": "",
          "type": "address"
        }
      ],
      "payable": false,
      "stateMutability": "view",
      "type": "function"
    },
    {
      "constant": true,
      "inputs": [
        {
          "internalType": "uint256",
          "name": "",
          "type": "uint256"
        }
      ],
      "name": "owners",
      "outputs": [
        {
          "internalType": "address",
          "name": "",
          "type": "address"
        }
      ],
      "payable": false,
      "stateMutability": "view",
      "type": "function"
    },
    {
      "constant": true,
      "inputs": [],
      "name": "required",
      "outputs": [
        {
          "internalType": "uint256",
          "name": "",
          "type": "uint256"
        }
      ],
      "payable": false,
      "stateMutability": "view",
      "type": "function"
    },
    {
      "constant": true,
      "inputs": [],
      "name": "transactionCount",
      "outputs": [
        {
          "internalType": "uint256",
          "name": "",
          "type": "uint256"
        }
      ],
      "payable": false,
      "stateMutability": "view",
      "type": "function"
    },
    {
      "constant": true,
      "inputs": [
        {
          "internalType": "uint256",
          "name": "",
          "type": "uint256"
        }
      ],
      "name": "transactions",
      "outputs": [
        {
          "internalType": "string",
          "name": "name",
          "type": "string"
        },
        {
          "internalType": "address",
          "name": "destination",
          "type": "address"
        },
        {
          "internalType": "uint256",
          "name": "value",
          "type": "uint256"
        },
        {
          "internalType": "enum BurialStokvelAccount.State",
          "name": "state",
          "type": "uint8"
        }
      ],
      "payable": false,
      "stateMutability": "view",
      "type": "function"
    },
    {
      "constant": false,
      "inputs": [],
      "name": "enroll",
      "outputs": [
        {
          "internalType": "bool",
          "name": "",
          "type": "bool"
        }
      ],
      "payable": true,
      "stateMutability": "payable",
      "type": "function"
    },
    {
      "constant": false,
      "inputs": [
        {
          "internalType": "uint256",
          "name": "_value",
          "type": "uint256"
        },
        {
          "internalType": "string",
          "name": "_name",
          "type": "string"
        }
      ],
      "name": "submitRequest",
      "outputs": [
        {
          "internalType": "uint256",
          "name": "",
          "type": "uint256"
        }
      ],
      "payable": false,
      "stateMutability": "nonpayable",
      "type": "function"
    },
    {
      "constant": false,
      "inputs": [
        {
          "internalType": "uint256",
          "name": "_transactionId",
          "type": "uint256"
        }
      ],
      "name": "confirmTransaction",
      "outputs": [],
      "payable": false,
      "stateMutability": "nonpayable",
      "type": "function"
    },
    {
      "constant": true,
      "inputs": [
        {
          "internalType": "uint256",
          "name": "_transactionId",
          "type": "uint256"
        }
      ],
      "name": "isConfirmed",
      "outputs": [
        {
          "internalType": "bool",
          "name": "",
          "type": "bool"
        }
      ],
      "payable": false,
      "stateMutability": "view",
      "type": "function"
    },
    {
      "constant": false,
      "inputs": [
        {
          "internalType": "uint256",
          "name": "_transactionId",
          "type": "uint256"
        }
      ],
      "name": "withdraw",
      "outputs": [],
      "payable": false,
      "stateMutability": "nonpayable",
      "type": "function"
    },
    {
      "constant": true,
      "inputs": [],
      "name": "getAllTransactionIDs",
      "outputs": [
        {
          "internalType": "uint256[]",
          "name": "",
          "type": "uint256[]"
        }
      ],
      "payable": false,
      "stateMutability": "view",
      "type": "function"
    },
    {
      "constant": true,
      "inputs": [
        {
          "internalType": "uint256",
          "name": "_transactionId",
          "type": "uint256"
        }
      ],
      "name": "fetchTransaction",
      "outputs": [
        {
          "internalType": "string",
          "name": "name",
          "type": "string"
        },
        {
          "internalType": "uint256",
          "name": "value",
          "type": "uint256"
        },
        {
          "internalType": "address",
          "name": "destination",
          "type": "address"
        },
        {
          "internalType": "string",
          "name": "state",
          "type": "string"
        }
      ],
      "payable": false,
      "stateMutability": "view",
      "type": "function"
    },
    {
      "constant": true,
      "inputs": [],
      "name": "getOwners",
      "outputs": [
        {
          "internalType": "address[]",
          "name": "",
          "type": "address[]"
        }
      ],
      "payable": false,
      "stateMutability": "view",
      "type": "function"
    },
    {
      "constant": true,
      "inputs": [],
      "name": "getMinimumContribution",
      "outputs": [
        {
          "internalType": "uint256",
          "name": "",
          "type": "uint256"
        }
      ],
      "payable": false,
      "stateMutability": "view",
      "type": "function"
    },
    {
      "constant": true,
      "inputs": [],
      "name": "getNumberofRequiredApprovals",
      "outputs": [
        {
          "internalType": "uint256",
          "name": "",
          "type": "uint256"
        }
      ],
      "payable": false,
      "stateMutability": "view",
      "type": "function"
    },
    {
      "constant": true,
      "inputs": [],
      "name": "getBalance",
      "outputs": [
        {
          "internalType": "uint256",
          "name": "",
          "type": "uint256"
        }
      ],
      "payable": false,
      "stateMutability": "view",
      "type": "function"
    },
    {
      "constant": true,
      "inputs": [],
      "name": "getMembers",
      "outputs": [
        {
          "internalType": "address[]",
          "name": "",
          "type": "address[]"
        }
      ],
      "payable": false,
      "stateMutability": "view",
      "type": "function"
    }
  ],
  "bytecode": "0x60806040523480156200001157600080fd5b5060405162001f4a38038062001f4a833981810160405260608110156200003757600080fd5b81019080805160405193929190846401000000008211156200005857600080fd5b838201915060208201858111156200006f57600080fd5b82518660208202830111640100000000821117156200008d57600080fd5b8083526020830192505050908051906020019060200280838360005b83811015620000c6578082015181840152602081019050620000a9565b50505050905001604052602001805190602001909291908051906020019092919050505082518281811180620000fc5750600081145b80620001085750600082145b156200011357600080fd5b600083116200012157600080fd5b83855110156200013057600080fd5b60008090505b8551811015620001ba576001600560008884815181106200015357fe5b602002602001015173ffffffffffffffffffffffffffffffffffffffff1673ffffffffffffffffffffffffffffffffffffffff16815260200190815260200160002060006101000a81548160ff021916908315150217905550808060010191505062000136565b508460009080519060200190620001d3929190620001ed565b5083600281905550826004819055505050505050620002c2565b82805482825590600052602060002090810192821562000269579160200282015b82811115620002685782518260006101000a81548173ffffffffffffffffffffffffffffffffffffffff021916908373ffffffffffffffffffffffffffffffffffffffff160217905550916020019190600101906200020e565b5b5090506200027891906200027c565b5090565b620002bf91905b80821115620002bb57600081816101000a81549073ffffffffffffffffffffffffffffffffffffffff02191690555060010162000283565b5090565b90565b611c7880620002d26000396000f3fe6080604052600436106101355760003560e01c80639eab5253116100ab578063b8d437bd1161006f578063b8d437bd1461091f578063c01a8c841461094a578063dc8452cd14610985578063e65f2a7e146109b0578063eafa23bd146109d2578063f84038b114610a3e57610135565b80639eab525314610788578063a0e67e2b146107f4578063a230c52414610860578063b69ef8a8146108c9578063b77bf600146108f457610135565b80633411c81c116100fd5780633411c81c146103bf57806350520b1f146104325780635daf08ca1461045d578063685067d5146104d8578063784547a7146106325780639ace38c21461068557610135565b8063025e7c271461018f57806312065fe01461020a57806316366b26146102355780632e1a7d4d1461031b5780632f54bf6e14610356575b600034111561018d573373ffffffffffffffffffffffffffffffffffffffff167fe1fffcc4923d04b559f4d29a8bfc6cda04eb5b0d3c460751c2402c5c5cc9109c346040518082815260200191505060405180910390a25b005b34801561019b57600080fd5b506101c8600480360360208110156101b257600080fd5b8101908080359060200190929190505050610a69565b604051808273ffffffffffffffffffffffffffffffffffffffff1673ffffffffffffffffffffffffffffffffffffffff16815260200191505060405180910390f35b34801561021657600080fd5b5061021f610aa5565b6040518082815260200191505060405180910390f35b34801561024157600080fd5b506103056004803603604081101561025857600080fd5b81019080803590602001909291908035906020019064010000000081111561027f57600080fd5b82018360208201111561029157600080fd5b803590602001918460018302840111640100000000831117156102b357600080fd5b91908080601f016020809104026020016040519081016040528093929190818152602001838380828437600081840152601f19601f820116905080830192505050505050509192919290505050610aaf565b6040518082815260200191505060405180910390f35b34801561032757600080fd5b506103546004803603602081101561033e57600080fd5b8101908080359060200190929190505050610b2f565b005b34801561036257600080fd5b506103a56004803603602081101561037957600080fd5b81019080803573ffffffffffffffffffffffffffffffffffffffff169060200190929190505050610ba9565b604051808215151515815260200191505060405180910390f35b3480156103cb57600080fd5b50610418600480360360408110156103e257600080fd5b8101908080359060200190929190803573ffffffffffffffffffffffffffffffffffffffff169060200190929190505050610bc9565b604051808215151515815260200191505060405180910390f35b34801561043e57600080fd5b50610447610bf8565b6040518082815260200191505060405180910390f35b34801561046957600080fd5b506104966004803603602081101561048057600080fd5b8101908080359060200190929190505050610bfe565b604051808273ffffffffffffffffffffffffffffffffffffffff1673ffffffffffffffffffffffffffffffffffffffff16815260200191505060405180910390f35b3480156104e457600080fd5b50610511600480360360208110156104fb57600080fd5b8101908080359060200190929190505050610c3a565b60405180806020018581526020018473ffffffffffffffffffffffffffffffffffffffff1673ffffffffffffffffffffffffffffffffffffffff16815260200180602001838103835287818151815260200191508051906020019080838360005b8381101561058d578082015181840152602081019050610572565b50505050905090810190601f1680156105ba5780820380516001836020036101000a031916815260200191505b50838103825284818151815260200191508051906020019080838360005b838110156105f35780820151818401526020810190506105d8565b50505050905090810190601f1680156106205780820380516001836020036101000a031916815260200191505b50965050505050505060405180910390f35b34801561063e57600080fd5b5061066b6004803603602081101561065557600080fd5b8101908080359060200190929190505050610ee8565b604051808215151515815260200191505060405180910390f35b34801561069157600080fd5b506106be600480360360208110156106a857600080fd5b8101908080359060200190929190505050610fcc565b60405180806020018573ffffffffffffffffffffffffffffffffffffffff1673ffffffffffffffffffffffffffffffffffffffff16815260200184815260200183600281111561070a57fe5b60ff168152602001828103825286818151815260200191508051906020019080838360005b8381101561074a57808201518184015260208101905061072f565b50505050905090810190601f1680156107775780820380516001836020036101000a031916815260200191505b509550505050505060405180910390f35b34801561079457600080fd5b5061079d6110c1565b6040518080602001828103825283818151815260200191508051906020019060200280838360005b838110156107e05780820151818401526020810190506107c5565b505050509050019250505060405180910390f35b34801561080057600080fd5b5061080961114f565b6040518080602001828103825283818151815260200191508051906020019060200280838360005b8381101561084c578082015181840152602081019050610831565b505050509050019250505060405180910390f35b34801561086c57600080fd5b506108af6004803603602081101561088357600080fd5b81019080803573ffffffffffffffffffffffffffffffffffffffff1690602001909291905050506111dd565b604051808215151515815260200191505060405180910390f35b3480156108d557600080fd5b506108de6111fd565b6040518082815260200191505060405180910390f35b34801561090057600080fd5b50610909611203565b6040518082815260200191505060405180910390f35b34801561092b57600080fd5b50610934611209565b6040518082815260200191505060405180910390f35b34801561095657600080fd5b506109836004803603602081101561096d57600080fd5b8101908080359060200190929190505050611213565b005b34801561099157600080fd5b5061099a611521565b6040518082815260200191505060405180910390f35b6109b8611527565b604051808215151515815260200191505060405180910390f35b3480156109de57600080fd5b506109e7611747565b6040518080602001828103825283818151815260200191508051906020019060200280838360005b83811015610a2a578082015181840152602081019050610a0f565b505050509050019250505060405180910390f35b348015610a4a57600080fd5b50610a5361179f565b6040518082815260200191505060405180910390f35b60008181548110610a7657fe5b906000526020600020016000915054906101000a900473ffffffffffffffffffffffffffffffffffffffff1681565b6000600354905090565b6000600660003373ffffffffffffffffffffffffffffffffffffffff1673ffffffffffffffffffffffffffffffffffffffff16815260200190815260200160002060009054906101000a900460ff16610b0757600080fd5b600354831115610b1657600080fd5b6000610b233385856117a9565b90508091505092915050565b3373ffffffffffffffffffffffffffffffffffffffff166009600083815260200190815260200160002060010160009054906101000a900473ffffffffffffffffffffffffffffffffffffffff1673ffffffffffffffffffffffffffffffffffffffff1614610b9d57600080fd5b610ba681611911565b50565b60056020528060005260406000206000915054906101000a900460ff1681565b600a6020528160005260406000206020528060005260406000206000915091509054906101000a900460ff1681565b60045481565b60018181548110610c0b57fe5b906000526020600020016000915054906101000a900473ffffffffffffffffffffffffffffffffffffffff1681565b60606000806060600960008681526020019081526020016000206000018054600181600116156101000203166002900480601f016020809104026020016040519081016040528092919081815260200182805460018160011615610100020316600290048015610ceb5780601f10610cc057610100808354040283529160200191610ceb565b820191906000526020600020905b815481529060010190602001808311610cce57829003601f168201915b50505050509350600960008681526020019081526020016000206002015492506009600086815260200190815260200160002060010160009054906101000a900473ffffffffffffffffffffffffffffffffffffffff16915060006002811115610d5157fe5b6009600087815260200190815260200160002060030160009054906101000a900460ff166002811115610d8057fe5b1415610dc3576040518060400160405280600881526020017f45786563757465640000000000000000000000000000000000000000000000008152509050610ed5565b60016002811115610dd057fe5b6009600087815260200190815260200160002060030160009054906101000a900460ff166002811115610dff57fe5b1415610e42576040518060400160405280600781526020017f50656e64696e67000000000000000000000000000000000000000000000000008152509050610ed4565b600280811115610e4e57fe5b6009600087815260200190815260200160002060030160009054906101000a900460ff166002811115610e7d57fe5b1415610ec0576040518060400160405280600881526020017f417070726f7665640000000000000000000000000000000000000000000000008152509050610ed3565b6040518060200160405280600081525090505b5b5b8383838393509350935093509193509193565b6000806000905060008090505b600080549050811015610fc457600a60008581526020019081526020016000206000808381548110610f2357fe5b9060005260206000200160009054906101000a900473ffffffffffffffffffffffffffffffffffffffff1673ffffffffffffffffffffffffffffffffffffffff1673ffffffffffffffffffffffffffffffffffffffff16815260200190815260200160002060009054906101000a900460ff1615610fa2576001820191505b600254821415610fb757600192505050610fc7565b8080600101915050610ef5565b50505b919050565b6009602052806000526040600020600091509050806000018054600181600116156101000203166002900480601f0160208091040260200160405190810160405280929190818152602001828054600181600116156101000203166002900480156110785780601f1061104d57610100808354040283529160200191611078565b820191906000526020600020905b81548152906001019060200180831161105b57829003601f168201915b5050505050908060010160009054906101000a900473ffffffffffffffffffffffffffffffffffffffff16908060020154908060030160009054906101000a900460ff16905084565b6060600180548060200260200160405190810160405280929190818152602001828054801561114557602002820191906000526020600020905b8160009054906101000a900473ffffffffffffffffffffffffffffffffffffffff1673ffffffffffffffffffffffffffffffffffffffff16815260200190600101908083116110fb575b5050505050905090565b606060008054806020026020016040519081016040528092919081815260200182805480156111d357602002820191906000526020600020905b8160009054906101000a900473ffffffffffffffffffffffffffffffffffffffff1673ffffffffffffffffffffffffffffffffffffffff1681526020019060010190808311611189575b5050505050905090565b60066020528060005260406000206000915054906101000a900460ff1681565b60035481565b60075481565b6000600254905090565b600560003373ffffffffffffffffffffffffffffffffffffffff1673ffffffffffffffffffffffffffffffffffffffff16815260200190815260200160002060009054906101000a900460ff1661126957600080fd5b600073ffffffffffffffffffffffffffffffffffffffff166009600083815260200190815260200160002060010160009054906101000a900473ffffffffffffffffffffffffffffffffffffffff1673ffffffffffffffffffffffffffffffffffffffff1614156112d957600080fd5b60001515600a600083815260200190815260200160002060003373ffffffffffffffffffffffffffffffffffffffff1673ffffffffffffffffffffffffffffffffffffffff16815260200190815260200160002060009054906101000a900460ff1615151461134757600080fd5b6001600a600083815260200190815260200160002060003373ffffffffffffffffffffffffffffffffffffffff1673ffffffffffffffffffffffffffffffffffffffff16815260200190815260200160002060006101000a81548160ff02191690831515021790555060606040518060400160405280600581526020017f66616c736500000000000000000000000000000000000000000000000000000081525090506113f382610ee8565b156114695760026009600084815260200190815260200160002060030160006101000a81548160ff0219169083600281111561142b57fe5b02179055506040518060400160405280600481526020017f747275650000000000000000000000000000000000000000000000000000000081525090505b813373ffffffffffffffffffffffffffffffffffffffff167fbbd347b0b26e5ecc8cd8676faf574878fdbc8fc0d744f3a8d42f72ce24eb2251836040518080602001828103825283818151815260200191508051906020019080838360005b838110156114e35780820151818401526020810190506114c8565b50505050905090810190601f1680156115105780820380516001836020036101000a031916815260200191505b509250505060405180910390a35050565b60025481565b600034600454811061153857600080fd5b60001515600660003373ffffffffffffffffffffffffffffffffffffffff1673ffffffffffffffffffffffffffffffffffffffff16815260200190815260200160002060009054906101000a900460ff1615151461159557600080fd5b6001600660003373ffffffffffffffffffffffffffffffffffffffff1673ffffffffffffffffffffffffffffffffffffffff16815260200190815260200160002060006101000a81548160ff02191690831515021790555060013390806001815401808255809150509060018203906000526020600020016000909192909190916101000a81548173ffffffffffffffffffffffffffffffffffffffff021916908373ffffffffffffffffffffffffffffffffffffffff160217905550503373ffffffffffffffffffffffffffffffffffffffff167f990c442e6adb818b8fa7db3cf1023decd07f7b66e5306928c7ed527d974192bb60405160405180910390a2346003600082825401925050819055503373ffffffffffffffffffffffffffffffffffffffff167fe1fffcc4923d04b559f4d29a8bfc6cda04eb5b0d3c460751c2402c5c5cc9109c346040518082815260200191505060405180910390a2600660003373ffffffffffffffffffffffffffffffffffffffff1673ffffffffffffffffffffffffffffffffffffffff16815260200190815260200160002060009054906101000a900460ff1691505090565b6060600880548060200260200160405190810160405280929190818152602001828054801561179557602002820191906000526020600020905b815481526020019060010190808311611781575b5050505050905090565b6000600454905090565b6000600754905060405180608001604052808381526020018573ffffffffffffffffffffffffffffffffffffffff168152602001848152602001600160028111156117f057fe5b815250600960008381526020019081526020016000206000820151816000019080519060200190611822929190611b9e565b5060208201518160010160006101000a81548173ffffffffffffffffffffffffffffffffffffffff021916908373ffffffffffffffffffffffffffffffffffffffff1602179055506040820151816002015560608201518160030160006101000a81548160ff0219169083600281111561189857fe5b021790555090505060088190806001815401808255809150509060018203906000526020600020016000909192909190915055506001600760008282540192505081905550807fc0ba8fe4b176c1714197d43b9cc6bcf797a4a7461c5fe8d0ef6e184ae7601e5160405160405180910390a29392505050565b60028081111561191d57fe5b6009600083815260200190815260200160002060030160009054906101000a900460ff16600281111561194c57fe5b1461195657600080fd5b6003546009600083815260200190815260200160002060020154111561197b57600080fd5b61198481610ee8565b15611b9b57600060096000838152602001908152602001600020905060008160030160006101000a81548160ff021916908360028111156119c157fe5b021790555060096000838152602001908152602001600020600201546003540360038190555060008160010160009054906101000a900473ffffffffffffffffffffffffffffffffffffffff1673ffffffffffffffffffffffffffffffffffffffff16826002015460405180600001905060006040518083038185875af1925050503d8060008114611a6f576040519150601f19603f3d011682016040523d82523d6000602084013e611a74565b606091505b505090508015611ab057827f33e13ecb54c3076d8e8bb8c2881800a4d972b792045ffae98fdf46df365fed7560405160405180910390a2611b98565b827f526441bb6c1aba3c9a4a6ca1d6545da9c2333c8c48343ef398eb858d72b7923660405160405180910390a260028260030160006101000a81548160ff02191690836002811115611afe57fe5b021790555060096000848152602001908152602001600020600201546003540160038190555080611b97576040517f08c379a00000000000000000000000000000000000000000000000000000000081526004018080602001828103825260148152602001807f4661696c656420746f2073656e64206d6f6e657900000000000000000000000081525060200191505060405180910390fd5b5b50505b50565b828054600181600116156101000203166002900490600052602060002090601f016020900481019282601f10611bdf57805160ff1916838001178555611c0d565b82800160010185558215611c0d579182015b82811115611c0c578251825591602001919060010190611bf1565b5b509050611c1a9190611c1e565b5090565b611c4091905b80821115611c3c576000816000905550600101611c24565b5090565b9056fea265627a7a723158200486dcd48b9b9d7a8d6cc8252b4c9c682a6d21e3e0488f391294025dd73a1ddb64736f6c63430005100032",
  "source": "// SPDX-License-Identifier: MIT\npragma solidity >=0.4.22 <0.9.0;\n\ncontract BurialStokvelAccount {\n    address[] public owners;\n    address[] public members;\n    uint256 public required;\n    uint256 public balance;\n    uint256 public contribution;\n\n    mapping(address => bool) public isOwner;\n    mapping(address => bool) public isMember;\n\n    uint256 public transactionCount;\n    uint256[] private transactionIDs;\n    mapping(uint256 => Transaction) public transactions;\n\n    mapping(uint256 => mapping(address => bool)) public confirmations;\n\n    // <enum State: Executed, Pending, Cancelled>\n    enum State {\n        Executed,\n        Pending,\n        Approved\n    }\n\n    struct Transaction {\n        string name;\n        address destination;\n        uint256 value;\n        State state;\n    }\n\n    //Events\n    event Submission(uint256 indexed transactionId);\n    event Confirmation(\n        address indexed sender,\n        uint256 indexed transactionId,\n        string approved\n    );\n    event Execution(uint256 indexed transactionId);\n    event ExecutionFailure(uint256 indexed transactionId);\n    event LogEnrolled(address indexed accountAddress);\n    event Deposit(address indexed sender, uint256 value);\n\n    /// @dev Fallback function allows to deposit ether.\n    function() external payable {\n        if (msg.value > 0) {\n            emit Deposit(msg.sender, msg.value);\n        }\n    }\n\n    /// @dev Contract constructor sets initial owners of the stokvel account and required number of confirmations.\n    /// @param _owners List of initial owners.\n    /// @param _required Number of required confirmations.\n    /// @param _contribution Required minimum contribution.\n    constructor(\n        address[] memory _owners,\n        uint256 _required,\n        uint256 _contribution\n    ) public validRequirement(_owners.length, _required) {\n        require(_contribution > 0);\n        require(_owners.length >= _required);\n        for (uint256 i = 0; i < _owners.length; i++) {\n            isOwner[_owners[i]] = true;\n        }\n        owners = _owners;\n        required = _required;\n        contribution = _contribution;\n    }\n\n    modifier validRequirement(uint256 _ownerCount, uint256 _required) {\n        if (_required > _ownerCount || _required == 0 || _ownerCount == 0)\n            revert();\n        _;\n    }\n\n    modifier validContribution(uint256 _contribution) {\n        if (_contribution >= contribution) revert();\n        _;\n    }\n\n    function enroll()\n        public\n        payable\n        validContribution(msg.value)\n        returns (bool)\n    {\n        require(isMember[msg.sender] == false);\n        isMember[msg.sender] = true;\n        members.push(msg.sender);\n        emit LogEnrolled(msg.sender);\n        balance += msg.value;\n        emit Deposit(msg.sender, msg.value);\n        return isMember[msg.sender];\n    }\n\n    /// @dev Allows a member to submit a transaction request.\n    /// @param _value Amount requested.\n    function submitRequest(uint256 _value, string memory _name)\n        public\n        returns (uint256)\n    {\n        require(isMember[msg.sender]);\n        require(_value <= balance);\n        uint256 transactionId = addTransaction(msg.sender, _value, _name);\n        return transactionId;\n    }\n\n    /// @dev Adds a new transaction to the transaction mapping, if transaction does not exist yet.\n    /// @param _destination Transaction target address.\n    /// @param _value Transaction ether value.\n    /// @return Returns transaction ID.\n    function addTransaction(\n        address _destination,\n        uint256 _value,\n        string memory _name\n    ) internal returns (uint256 transactionId) {\n        transactionId = transactionCount;\n        transactions[transactionId] = Transaction({\n            name: _name,\n            destination: _destination,\n            value: _value,\n            state: State.Pending\n        });\n        transactionIDs.push(transactionId);\n        transactionCount += 1;\n        emit Submission(transactionId);\n    }\n\n    /// @dev Allows an owner to confirm a transaction.\n    /// @param _transactionId Transaction ID.\n    function confirmTransaction(uint256 _transactionId) public {\n        require(isOwner[msg.sender]);\n        require(transactions[_transactionId].destination != address(0));\n        require(confirmations[_transactionId][msg.sender] == false);\n\n        confirmations[_transactionId][msg.sender] = true;\n        string memory approved = \"false\";\n        if (isConfirmed(_transactionId)) {\n            transactions[_transactionId].state = State.Approved;\n            approved = \"true\";\n        }\n\n        emit Confirmation(msg.sender, _transactionId, approved);\n    }\n\n    /// @dev Returns the confirmation status of a transaction.\n    /// @param _transactionId Transaction ID.\n    /// @return Confirmation status.\n    function isConfirmed(uint256 _transactionId) public view returns (bool) {\n        uint256 count = 0;\n        for (uint256 i = 0; i < owners.length; i++) {\n            if (confirmations[_transactionId][owners[i]]) count += 1;\n            if (count == required) return true;\n        }\n    }\n\n    function withdraw(uint256 _transactionId) public {\n        require(transactions[_transactionId].destination == msg.sender);\n        executeTransaction(_transactionId);\n    }\n\n    /// @dev Transaction is executed if enough confirmations have been\n    /// received and the balance is sufficient.\n    /// @param _transactionId Transaction ID.\n    function executeTransaction(uint256 _transactionId) internal {\n        require(transactions[_transactionId].state == State.Approved);\n        // Check balance\n        require(transactions[_transactionId].value <= balance);\n        if (isConfirmed(_transactionId)) {\n            Transaction storage t = transactions[_transactionId]; // using the \"storage\" keyword makes \"t\" a pointer to storage\n            t.state = State.Executed;\n            balance = balance - transactions[_transactionId].value;\n            (bool success, ) = t.destination.call.value(t.value)(\"\");\n\n            if (success) emit Execution(_transactionId);\n            else {\n                emit ExecutionFailure(_transactionId);\n                t.state = State.Approved;\n                balance = balance + transactions[_transactionId].value;\n                require(success, \"Failed to send money\");\n            }\n        }\n    }\n\n    function getAllTransactionIDs() public view returns (uint256[] memory) {\n        // Only three pending transactions allowed\n        return transactionIDs;\n    }\n\n    //\n    function fetchTransaction(uint256 _transactionId)\n        public\n        view\n        returns (\n            string memory name,\n            uint256 value,\n            address destination,\n            string memory state\n        )\n    {\n        name = transactions[_transactionId].name;\n        value = transactions[_transactionId].value;\n        destination = transactions[_transactionId].destination;\n        if (transactions[_transactionId].state == State.Executed) {\n            state = \"Executed\";\n        } else if (transactions[_transactionId].state == State.Pending) {\n            state = \"Pending\";\n        } else if (transactions[_transactionId].state == State.Approved) {\n            state = \"Approved\";\n        } else {\n            state = \"\";\n        }\n\n        return (name, value, destination, state);\n    }\n\n    function getOwners() public view returns (address[] memory) {\n        return owners;\n    }\n\n    function getMinimumContribution() public view returns (uint256) {\n        return contribution;\n    }\n\n    function getNumberofRequiredApprovals() public view returns (uint256) {\n        return required;\n    }\n\n    function getBalance() public view returns (uint256) {\n        return balance;\n    }\n\n    function getMembers() public view returns (address[] memory) {\n        return members;\n    }\n}\n",
  "sourcePath": "/Users/jurgen/Consensys/blockchain-developer-bootcamp-final-project/contracts/BurialStokvelAccount.sol",
  "compiler": {
    "name": "solc",
    "version": "0.5.16+commit.9c3226ce.Emscripten.clang"
  },
  "schemaVersion": "3.4.3",
  "updatedAt": "2021-11-20T18:51:37.990Z",
  "networkType": "ethereum",
  "devdoc": {
    "methods": {
      "confirmTransaction(uint256)": {
        "details": "Allows an owner to confirm a transaction.",
        "params": {
          "_transactionId": "Transaction ID."
        }
      },
      "constructor": {
        "details": "Contract constructor sets initial owners of the stokvel account and required number of confirmations.",
        "params": {
          "_contribution": "Required minimum contribution.",
          "_owners": "List of initial owners.",
          "_required": "Number of required confirmations."
        }
      },
      "isConfirmed(uint256)": {
        "details": "Returns the confirmation status of a transaction.",
        "params": {
          "_transactionId": "Transaction ID."
        },
        "return": "Confirmation status."
      },
      "submitRequest(uint256,string)": {
        "details": "Allows a member to submit a transaction request.",
        "params": {
          "_value": "Amount requested."
        }
      }
    }
  },
  "userdoc": {
    "methods": {}
  }
}