{
  "contractName": "BurialStokvelAccount",
  "abi": [
    {
      "inputs": [
        {
          "internalType": "address[]",
          "name": "_owners",
          "type": "address[]"
        },
        {
          "internalType": "uint256",
          "name": "_required",
          "type": "uint256"
        },
        {
          "internalType": "uint256",
          "name": "_contribution",
          "type": "uint256"
        }
      ],
      "payable": false,
      "stateMutability": "nonpayable",
      "type": "constructor"
    },
    {
      "anonymous": false,
      "inputs": [
        {
          "indexed": true,
          "internalType": "address",
          "name": "sender",
          "type": "address"
        },
        {
          "indexed": true,
          "internalType": "uint256",
          "name": "transactionId",
          "type": "uint256"
        }
      ],
      "name": "Confirmation",
      "type": "event"
    },
    {
      "anonymous": false,
      "inputs": [
        {
          "indexed": true,
          "internalType": "address",
          "name": "sender",
          "type": "address"
        },
        {
          "indexed": false,
          "internalType": "uint256",
          "name": "value",
          "type": "uint256"
        }
      ],
      "name": "Deposit",
      "type": "event"
    },
    {
      "anonymous": false,
      "inputs": [
        {
          "indexed": true,
          "internalType": "uint256",
          "name": "transactionId",
          "type": "uint256"
        }
      ],
      "name": "Execution",
      "type": "event"
    },
    {
      "anonymous": false,
      "inputs": [
        {
          "indexed": true,
          "internalType": "uint256",
          "name": "transactionId",
          "type": "uint256"
        }
      ],
      "name": "ExecutionFailure",
      "type": "event"
    },
    {
      "anonymous": false,
      "inputs": [
        {
          "indexed": false,
          "internalType": "address",
          "name": "accountAddress",
          "type": "address"
        }
      ],
      "name": "LogEnrolled",
      "type": "event"
    },
    {
      "anonymous": false,
      "inputs": [
        {
          "indexed": true,
          "internalType": "uint256",
          "name": "transactionId",
          "type": "uint256"
        }
      ],
      "name": "Submission",
      "type": "event"
    },
    {
      "payable": true,
      "stateMutability": "payable",
      "type": "fallback"
    },
    {
      "constant": true,
      "inputs": [],
      "name": "balance",
      "outputs": [
        {
          "internalType": "uint256",
          "name": "",
          "type": "uint256"
        }
      ],
      "payable": false,
      "stateMutability": "view",
      "type": "function"
    },
    {
      "constant": true,
      "inputs": [
        {
          "internalType": "uint256",
          "name": "",
          "type": "uint256"
        },
        {
          "internalType": "address",
          "name": "",
          "type": "address"
        }
      ],
      "name": "confirmations",
      "outputs": [
        {
          "internalType": "bool",
          "name": "",
          "type": "bool"
        }
      ],
      "payable": false,
      "stateMutability": "view",
      "type": "function"
    },
    {
      "constant": true,
      "inputs": [],
      "name": "contribution",
      "outputs": [
        {
          "internalType": "uint256",
          "name": "",
          "type": "uint256"
        }
      ],
      "payable": false,
      "stateMutability": "view",
      "type": "function"
    },
    {
      "constant": true,
      "inputs": [
        {
          "internalType": "address",
          "name": "",
          "type": "address"
        }
      ],
      "name": "isMember",
      "outputs": [
        {
          "internalType": "bool",
          "name": "",
          "type": "bool"
        }
      ],
      "payable": false,
      "stateMutability": "view",
      "type": "function"
    },
    {
      "constant": true,
      "inputs": [
        {
          "internalType": "address",
          "name": "",
          "type": "address"
        }
      ],
      "name": "isOwner",
      "outputs": [
        {
          "internalType": "bool",
          "name": "",
          "type": "bool"
        }
      ],
      "payable": false,
      "stateMutability": "view",
      "type": "function"
    },
    {
      "constant": true,
      "inputs": [
        {
          "internalType": "uint256",
          "name": "",
          "type": "uint256"
        }
      ],
      "name": "owners",
      "outputs": [
        {
          "internalType": "address",
          "name": "",
          "type": "address"
        }
      ],
      "payable": false,
      "stateMutability": "view",
      "type": "function"
    },
    {
      "constant": true,
      "inputs": [],
      "name": "required",
      "outputs": [
        {
          "internalType": "uint256",
          "name": "",
          "type": "uint256"
        }
      ],
      "payable": false,
      "stateMutability": "view",
      "type": "function"
    },
    {
      "constant": true,
      "inputs": [],
      "name": "storedData",
      "outputs": [
        {
          "internalType": "uint256",
          "name": "",
          "type": "uint256"
        }
      ],
      "payable": false,
      "stateMutability": "view",
      "type": "function"
    },
    {
      "constant": true,
      "inputs": [],
      "name": "transactionCount",
      "outputs": [
        {
          "internalType": "uint256",
          "name": "",
          "type": "uint256"
        }
      ],
      "payable": false,
      "stateMutability": "view",
      "type": "function"
    },
    {
      "constant": true,
      "inputs": [
        {
          "internalType": "uint256",
          "name": "",
          "type": "uint256"
        }
      ],
      "name": "transactions",
      "outputs": [
        {
          "internalType": "address",
          "name": "destination",
          "type": "address"
        },
        {
          "internalType": "uint256",
          "name": "value",
          "type": "uint256"
        },
        {
          "internalType": "bool",
          "name": "executed",
          "type": "bool"
        }
      ],
      "payable": false,
      "stateMutability": "view",
      "type": "function"
    },
    {
      "constant": false,
      "inputs": [
        {
          "internalType": "uint256",
          "name": "x",
          "type": "uint256"
        }
      ],
      "name": "set",
      "outputs": [],
      "payable": false,
      "stateMutability": "nonpayable",
      "type": "function"
    },
    {
      "constant": true,
      "inputs": [],
      "name": "get",
      "outputs": [
        {
          "internalType": "uint256",
          "name": "",
          "type": "uint256"
        }
      ],
      "payable": false,
      "stateMutability": "view",
      "type": "function"
    },
    {
      "constant": false,
      "inputs": [],
      "name": "enroll",
      "outputs": [
        {
          "internalType": "bool",
          "name": "",
          "type": "bool"
        }
      ],
      "payable": true,
      "stateMutability": "payable",
      "type": "function"
    },
    {
      "constant": false,
      "inputs": [
        {
          "internalType": "uint256",
          "name": "value",
          "type": "uint256"
        }
      ],
      "name": "submitRequest",
      "outputs": [
        {
          "internalType": "uint256",
          "name": "transactionId",
          "type": "uint256"
        }
      ],
      "payable": false,
      "stateMutability": "nonpayable",
      "type": "function"
    },
    {
      "constant": false,
      "inputs": [
        {
          "internalType": "uint256",
          "name": "transactionId",
          "type": "uint256"
        }
      ],
      "name": "confirmTransaction",
      "outputs": [],
      "payable": false,
      "stateMutability": "nonpayable",
      "type": "function"
    },
    {
      "constant": true,
      "inputs": [
        {
          "internalType": "uint256",
          "name": "transactionId",
          "type": "uint256"
        }
      ],
      "name": "isConfirmed",
      "outputs": [
        {
          "internalType": "bool",
          "name": "",
          "type": "bool"
        }
      ],
      "payable": false,
      "stateMutability": "view",
      "type": "function"
    },
    {
      "constant": true,
      "inputs": [],
      "name": "getAllPendingTransactionIDs",
      "outputs": [
        {
          "internalType": "uint256[]",
          "name": "",
          "type": "uint256[]"
        }
      ],
      "payable": false,
      "stateMutability": "view",
      "type": "function"
    }
  ],
  "bytecode": "0x6080604052600080553480156200001557600080fd5b506040516200143738038062001437833981810160405260608110156200003b57600080fd5b81019080805160405193929190846401000000008211156200005c57600080fd5b838201915060208201858111156200007357600080fd5b82518660208202830111640100000000821117156200009157600080fd5b8083526020830192505050908051906020019060200280838360005b83811015620000ca578082015181840152602081019050620000ad565b50505050905001604052602001805190602001909291908051906020019092919050505082518281811180620001005750600081145b806200010c5750600082145b156200011757600080fd5b600083116200012557600080fd5b83855110156200013457600080fd5b60008090505b8551811015620001be576001600360008884815181106200015757fe5b602002602001015173ffffffffffffffffffffffffffffffffffffffff1673ffffffffffffffffffffffffffffffffffffffff16815260200190815260200160002060006101000a81548160ff02191690831515021790555080806001019150506200013a565b508460019080519060200190620001d7929190620001f1565b508360028190555082600a819055505050505050620002c6565b8280548282559060005260206000209081019282156200026d579160200282015b828111156200026c5782518260006101000a81548173ffffffffffffffffffffffffffffffffffffffff021916908373ffffffffffffffffffffffffffffffffffffffff1602179055509160200191906001019062000212565b5b5090506200027c919062000280565b5090565b620002c391905b80821115620002bf57600081816101000a81549073ffffffffffffffffffffffffffffffffffffffff02191690555060010162000287565b5090565b90565b61116180620002d66000396000f3fe6080604052600436106100fe5760003560e01c8063784547a711610095578063b69ef8a811610064578063b69ef8a81461056f578063b77bf6001461059a578063c01a8c84146105c5578063dc8452cd14610600578063e65f2a7e1461062b576100fe565b8063784547a7146103ba5780639ace38c21461040d578063a1e5132f1461049a578063a230c52414610506576100fe565b80633411c81c116100d15780633411c81c146102b657806350520b1f1461032957806360fe47b1146103545780636d4ce63c1461038f576100fe565b8063025e7c27146101585780631cdd1653146101d35780632a1afcd9146102225780632f54bf6e1461024d575b6000341115610156573373ffffffffffffffffffffffffffffffffffffffff167fe1fffcc4923d04b559f4d29a8bfc6cda04eb5b0d3c460751c2402c5c5cc9109c346040518082815260200191505060405180910390a25b005b34801561016457600080fd5b506101916004803603602081101561017b57600080fd5b810190808035906020019092919050505061064d565b604051808273ffffffffffffffffffffffffffffffffffffffff1673ffffffffffffffffffffffffffffffffffffffff16815260200191505060405180910390f35b3480156101df57600080fd5b5061020c600480360360208110156101f657600080fd5b8101908080359060200190929190505050610689565b6040518082815260200191505060405180910390f35b34801561022e57600080fd5b506102376106fb565b6040518082815260200191505060405180910390f35b34801561025957600080fd5b5061029c6004803603602081101561027057600080fd5b81019080803573ffffffffffffffffffffffffffffffffffffffff169060200190929190505050610701565b604051808215151515815260200191505060405180910390f35b3480156102c257600080fd5b5061030f600480360360408110156102d957600080fd5b8101908080359060200190929190803573ffffffffffffffffffffffffffffffffffffffff169060200190929190505050610721565b604051808215151515815260200191505060405180910390f35b34801561033557600080fd5b5061033e610750565b6040518082815260200191505060405180910390f35b34801561036057600080fd5b5061038d6004803603602081101561037757600080fd5b8101908080359060200190929190505050610756565b005b34801561039b57600080fd5b506103a4610760565b6040518082815260200191505060405180910390f35b3480156103c657600080fd5b506103f3600480360360208110156103dd57600080fd5b8101908080359060200190929190505050610769565b604051808215151515815260200191505060405180910390f35b34801561041957600080fd5b506104466004803603602081101561043057600080fd5b810190808035906020019092919050505061084e565b604051808473ffffffffffffffffffffffffffffffffffffffff1673ffffffffffffffffffffffffffffffffffffffff16815260200183815260200182151515158152602001935050505060405180910390f35b3480156104a657600080fd5b506104af6108a5565b6040518080602001828103825283818151815260200191508051906020019060200280838360005b838110156104f25780820151818401526020810190506104d7565b505050509050019250505060405180910390f35b34801561051257600080fd5b506105556004803603602081101561052957600080fd5b81019080803573ffffffffffffffffffffffffffffffffffffffff1690602001909291905050506108fd565b604051808215151515815260200191505060405180910390f35b34801561057b57600080fd5b5061058461091d565b6040518082815260200191505060405180910390f35b3480156105a657600080fd5b506105af610923565b6040518082815260200191505060405180910390f35b3480156105d157600080fd5b506105fe600480360360208110156105e857600080fd5b8101908080359060200190929190505050610929565b005b34801561060c57600080fd5b50610615610b16565b6040518082815260200191505060405180910390f35b610633610b1c565b604051808215151515815260200191505060405180910390f35b6001818154811061065a57fe5b906000526020600020016000915054906101000a900473ffffffffffffffffffffffffffffffffffffffff1681565b6000600460003373ffffffffffffffffffffffffffffffffffffffff1673ffffffffffffffffffffffffffffffffffffffff16815260200190815260200160002060009054906101000a900460ff166106e157600080fd5b6106eb3383610cf6565b90506106f681610929565b919050565b60005481565b60036020528060005260406000206000915054906101000a900460ff1681565b60086020528160005260406000206020528060005260406000206000915091509054906101000a900460ff1681565b600a5481565b8060008190555050565b60008054905090565b6000806000905060008090505b60018054905081101561084657600860008581526020019081526020016000206000600183815481106107a557fe5b9060005260206000200160009054906101000a900473ffffffffffffffffffffffffffffffffffffffff1673ffffffffffffffffffffffffffffffffffffffff1673ffffffffffffffffffffffffffffffffffffffff16815260200190815260200160002060009054906101000a900460ff1615610824576001820191505b60025482141561083957600192505050610849565b8080600101915050610776565b50505b919050565b60076020528060005260406000206000915090508060000160009054906101000a900473ffffffffffffffffffffffffffffffffffffffff16908060010154908060020160009054906101000a900460ff16905083565b606060068054806020026020016040519081016040528092919081815260200182805480156108f357602002820191906000526020600020905b8154815260200190600101908083116108df575b5050505050905090565b60046020528060005260406000206000915054906101000a900460ff1681565b60095481565b60055481565b600360003373ffffffffffffffffffffffffffffffffffffffff1673ffffffffffffffffffffffffffffffffffffffff16815260200190815260200160002060009054906101000a900460ff1661097f57600080fd5b600073ffffffffffffffffffffffffffffffffffffffff166007600083815260200190815260200160002060000160009054906101000a900473ffffffffffffffffffffffffffffffffffffffff1673ffffffffffffffffffffffffffffffffffffffff1614156109ef57600080fd5b600015156008600083815260200190815260200160002060003373ffffffffffffffffffffffffffffffffffffffff1673ffffffffffffffffffffffffffffffffffffffff16815260200190815260200160002060009054906101000a900460ff16151514610a5d57600080fd5b60016008600083815260200190815260200160002060003373ffffffffffffffffffffffffffffffffffffffff1673ffffffffffffffffffffffffffffffffffffffff16815260200190815260200160002060006101000a81548160ff021916908315150217905550803373ffffffffffffffffffffffffffffffffffffffff167f4a504a94899432a9846e1aa406dceb1bcfd538bb839071d49d1e5e23f5be30ef60405160405180910390a3610b1381610dfc565b50565b60025481565b600034600a548110610b2d57600080fd5b60001515600460003373ffffffffffffffffffffffffffffffffffffffff1673ffffffffffffffffffffffffffffffffffffffff16815260200190815260200160002060009054906101000a900460ff16151514610b8a57600080fd5b6001600460003373ffffffffffffffffffffffffffffffffffffffff1673ffffffffffffffffffffffffffffffffffffffff16815260200190815260200160002060006101000a81548160ff0219169083151502179055507f990c442e6adb818b8fa7db3cf1023decd07f7b66e5306928c7ed527d974192bb33604051808273ffffffffffffffffffffffffffffffffffffffff1673ffffffffffffffffffffffffffffffffffffffff16815260200191505060405180910390a1346009600082825401925050819055503373ffffffffffffffffffffffffffffffffffffffff167fe1fffcc4923d04b559f4d29a8bfc6cda04eb5b0d3c460751c2402c5c5cc9109c346040518082815260200191505060405180910390a2600460003373ffffffffffffffffffffffffffffffffffffffff1673ffffffffffffffffffffffffffffffffffffffff16815260200190815260200160002060009054906101000a900460ff1691505090565b6000600554905060405180606001604052808473ffffffffffffffffffffffffffffffffffffffff168152602001838152602001600015158152506007600083815260200190815260200160002060008201518160000160006101000a81548173ffffffffffffffffffffffffffffffffffffffff021916908373ffffffffffffffffffffffffffffffffffffffff1602179055506020820151816001015560408201518160020160006101000a81548160ff0219169083151502179055509050506001600560008282540192505081905550807fc0ba8fe4b176c1714197d43b9cc6bcf797a4a7461c5fe8d0ef6e184ae7601e5160405160405180910390a292915050565b600015156007600083815260200190815260200160002060020160009054906101000a900460ff16151514610e3057600080fd5b610e3981610769565b1561103157600060076000838152602001908152602001600020905060018160020160006101000a81548160ff02191690831515021790555060008160000160009054906101000a900473ffffffffffffffffffffffffffffffffffffffff1673ffffffffffffffffffffffffffffffffffffffff16826001015460405180600001905060006040518083038185875af1925050503d8060008114610efa576040519150601f19603f3d011682016040523d82523d6000602084013e610eff565b606091505b50509050610f0c83611034565b8015610f4457827f33e13ecb54c3076d8e8bb8c2881800a4d972b792045ffae98fdf46df365fed7560405160405180910390a261102e565b827f526441bb6c1aba3c9a4a6ca1d6545da9c2333c8c48343ef398eb858d72b7923660405160405180910390a260008260020160006101000a81548160ff02191690831515021790555060068390806001815401808255809150509060018203906000526020600020016000909192909190915055508061102d576040517f08c379a00000000000000000000000000000000000000000000000000000000081526004018080602001828103825260148152602001807f4661696c656420746f2073656e64206d6f6e657900000000000000000000000081525060200191505060405180910390fd5b5b50505b50565b60068054905081106110ae576040517f08c379a00000000000000000000000000000000000000000000000000000000081526004018080602001828103825260128152602001807f696e646578206f7574206f6620626f756e64000000000000000000000000000081525060200191505060405180910390fd5b60008190505b60016006805490500381101561110757600660018201815481106110d457fe5b9060005260206000200154600682815481106110ec57fe5b906000526020600020018190555080806001019150506110b4565b50600680548061111357fe5b600190038181906000526020600020016000905590555056fea265627a7a723158202c049ff576b4d4f311d1c386183f788bcb56ce22b75a9d4509815a5e9751c65f64736f6c63430005100032",
  "source": "// SPDX-License-Identifier: MIT\npragma solidity >=0.4.22 <0.9.0;\n\ncontract BurialStokvelAccount {\n    uint256 public storedData = 0;\n\n    function set(uint256 x) public {\n        storedData = x;\n    }\n\n    function get() public view returns (uint256) {\n        return storedData;\n    }\n\n    address[] public owners;\n    uint256 public required;\n\n    mapping(address => bool) public isOwner;\n    mapping(address => bool) public isMember;\n\n    uint256 public transactionCount;\n    uint256[] private pendingTransactionIDs;\n    mapping(uint256 => Transaction) public transactions;\n\n    mapping(uint256 => mapping(address => bool)) public confirmations;\n\n    struct Transaction {\n        address destination;\n        uint256 value;\n        bool executed;\n    }\n\n    uint256 public balance;\n    uint256 public contribution;\n\n    //Events\n    event Submission(uint256 indexed transactionId);\n    event Confirmation(address indexed sender, uint256 indexed transactionId);\n    event Execution(uint256 indexed transactionId);\n    event ExecutionFailure(uint256 indexed transactionId);\n    event LogEnrolled(address accountAddress);\n\n    event Deposit(address indexed sender, uint256 value);\n\n    /// @dev Fallback function allows to deposit ether.\n    function() external payable {\n        if (msg.value > 0) {\n            emit Deposit(msg.sender, msg.value);\n        }\n    }\n\n    /// @dev Contract constructor sets initial owners of the stokvel account and required number of confirmations.\n    /// @param _owners List of initial owners.\n    /// @param _required Number of required confirmations.\n    /// @param _contribution Required minimum contribution.\n    constructor(\n        address[] memory _owners,\n        uint256 _required,\n        uint256 _contribution\n    ) public validRequirement(_owners.length, _required) {\n        require(_contribution > 0);\n        require(_owners.length >= _required);\n        for (uint256 i = 0; i < _owners.length; i++) {\n            isOwner[_owners[i]] = true;\n        }\n        owners = _owners;\n        required = _required;\n        contribution = _contribution;\n    }\n\n    modifier validRequirement(uint256 ownerCount, uint256 _required) {\n        if (_required > ownerCount || _required == 0 || ownerCount == 0)\n            revert();\n        _;\n    }\n\n    modifier validContribution(uint256 _contribution) {\n        if (_contribution >= contribution) revert();\n        _;\n    }\n\n    function enroll()\n        public\n        payable\n        validContribution(msg.value)\n        returns (bool)\n    {\n        require(isMember[msg.sender] == false);\n        isMember[msg.sender] = true;\n        emit LogEnrolled(msg.sender);\n        balance += msg.value;\n        emit Deposit(msg.sender, msg.value);\n        return isMember[msg.sender];\n    }\n\n    /// @dev Allows an owner to confirm a transaction.\n    /// @param value Amount requested.\n    function submitRequest(uint256 value)\n        public\n        returns (uint256 transactionId)\n    {\n        require(isMember[msg.sender]);\n        transactionId = addTransaction(msg.sender, value);\n        confirmTransaction(transactionId);\n    }\n\n    /// @dev Adds a new transaction to the transaction mapping, if transaction does not exist yet.\n    /// @param destination Transaction target address.\n    /// @param value Transaction ether value.\n    /// @return Returns transaction ID.\n    function addTransaction(address destination, uint256 value)\n        internal\n        returns (uint256 transactionId)\n    {\n        transactionId = transactionCount;\n        transactions[transactionId] = Transaction({\n            destination: destination,\n            value: value,\n            executed: false\n        });\n        transactionCount += 1;\n        emit Submission(transactionId);\n    }\n\n    /// @dev Allows an owner to confirm a transaction.\n    /// @param transactionId Transaction ID.\n    function confirmTransaction(uint256 transactionId) public {\n        require(isOwner[msg.sender]);\n        require(transactions[transactionId].destination != address(0));\n        require(confirmations[transactionId][msg.sender] == false);\n        confirmations[transactionId][msg.sender] = true;\n        emit Confirmation(msg.sender, transactionId);\n        executeTransaction(transactionId);\n    }\n\n    /// @dev Returns the confirmation status of a transaction.\n    /// @param transactionId Transaction ID.\n    /// @return Confirmation status.\n    function isConfirmed(uint256 transactionId) public view returns (bool) {\n        uint256 count = 0;\n        for (uint256 i = 0; i < owners.length; i++) {\n            if (confirmations[transactionId][owners[i]]) count += 1;\n            if (count == required) return true;\n        }\n    }\n\n    /// @dev Transaction is executed if enough confirmations have been\n    /// received and the balance is not sufficient.\n    /// @param transactionId Transaction ID.\n    function executeTransaction(uint256 transactionId) internal {\n        require(transactions[transactionId].executed == false);\n        // Check balance\n        if (isConfirmed(transactionId)) {\n            Transaction storage t = transactions[transactionId]; // using the \"storage\" keyword makes \"t\" a pointer to storage\n            t.executed = true;\n            (bool success, ) = t.destination.call.value(t.value)(\"\");\n            removePendingTransactionID(transactionId);\n            if (success) emit Execution(transactionId);\n            else {\n                emit ExecutionFailure(transactionId);\n                t.executed = false;\n                pendingTransactionIDs.push(transactionId);\n                require(success, \"Failed to send money\");\n            }\n        }\n    }\n\n    function removePendingTransactionID(uint256 _index) internal {\n        require(_index < pendingTransactionIDs.length, \"index out of bound\");\n\n        for (uint256 i = _index; i < pendingTransactionIDs.length - 1; i++) {\n            pendingTransactionIDs[i] = pendingTransactionIDs[i + 1];\n        }\n        pendingTransactionIDs.pop();\n    }\n\n    function getAllPendingTransactionIDs()\n        public\n        view\n        returns (uint256[] memory)\n    {\n        // Only three pending transactions allowed\n        return pendingTransactionIDs;\n    }\n}\n",
  "sourcePath": "/Users/jurgen/Consensys/blockchain-developer-bootcamp-final-project/contracts/BurialStokvelAccount.sol",
  "compiler": {
    "name": "solc",
    "version": "0.5.16+commit.9c3226ce.Emscripten.clang"
  },
  "schemaVersion": "3.4.3",
  "updatedAt": "2021-11-08T14:01:14.525Z",
  "networkType": "ethereum",
  "devdoc": {
    "methods": {
      "confirmTransaction(uint256)": {
        "details": "Allows an owner to confirm a transaction.",
        "params": {
          "transactionId": "Transaction ID."
        }
      },
      "constructor": {
        "details": "Contract constructor sets initial owners of the stokvel account and required number of confirmations.",
        "params": {
          "_contribution": "Required minimum contribution.",
          "_owners": "List of initial owners.",
          "_required": "Number of required confirmations."
        }
      },
      "isConfirmed(uint256)": {
        "details": "Returns the confirmation status of a transaction.",
        "params": {
          "transactionId": "Transaction ID."
        },
        "return": "Confirmation status."
      },
      "submitRequest(uint256)": {
        "details": "Allows an owner to confirm a transaction.",
        "params": {
          "value": "Amount requested."
        }
      }
    }
  },
  "userdoc": {
    "methods": {}
  }
}