{
  "contractName": "BurialStokvelAccount",
  "abi": [
    {
      "inputs": [
        {
          "internalType": "address[]",
          "name": "_owners",
          "type": "address[]"
        },
        {
          "internalType": "uint256",
          "name": "_required",
          "type": "uint256"
        },
        {
          "internalType": "uint256",
          "name": "_contribution",
          "type": "uint256"
        }
      ],
      "stateMutability": "nonpayable",
      "type": "constructor"
    },
    {
      "anonymous": false,
      "inputs": [
        {
          "indexed": true,
          "internalType": "address",
          "name": "sender",
          "type": "address"
        },
        {
          "indexed": true,
          "internalType": "uint256",
          "name": "transactionId",
          "type": "uint256"
        },
        {
          "indexed": false,
          "internalType": "string",
          "name": "approved",
          "type": "string"
        }
      ],
      "name": "Confirmation",
      "type": "event"
    },
    {
      "anonymous": false,
      "inputs": [
        {
          "indexed": true,
          "internalType": "address",
          "name": "sender",
          "type": "address"
        },
        {
          "indexed": false,
          "internalType": "uint256",
          "name": "value",
          "type": "uint256"
        }
      ],
      "name": "Deposit",
      "type": "event"
    },
    {
      "anonymous": false,
      "inputs": [
        {
          "indexed": true,
          "internalType": "uint256",
          "name": "transactionId",
          "type": "uint256"
        }
      ],
      "name": "Execution",
      "type": "event"
    },
    {
      "anonymous": false,
      "inputs": [
        {
          "indexed": true,
          "internalType": "uint256",
          "name": "transactionId",
          "type": "uint256"
        }
      ],
      "name": "ExecutionFailure",
      "type": "event"
    },
    {
      "anonymous": false,
      "inputs": [
        {
          "indexed": true,
          "internalType": "address",
          "name": "accountAddress",
          "type": "address"
        }
      ],
      "name": "LogEnrolled",
      "type": "event"
    },
    {
      "anonymous": false,
      "inputs": [
        {
          "indexed": false,
          "internalType": "address",
          "name": "account",
          "type": "address"
        }
      ],
      "name": "Paused",
      "type": "event"
    },
    {
      "anonymous": false,
      "inputs": [
        {
          "indexed": true,
          "internalType": "bytes32",
          "name": "role",
          "type": "bytes32"
        },
        {
          "indexed": true,
          "internalType": "bytes32",
          "name": "previousAdminRole",
          "type": "bytes32"
        },
        {
          "indexed": true,
          "internalType": "bytes32",
          "name": "newAdminRole",
          "type": "bytes32"
        }
      ],
      "name": "RoleAdminChanged",
      "type": "event"
    },
    {
      "anonymous": false,
      "inputs": [
        {
          "indexed": true,
          "internalType": "bytes32",
          "name": "role",
          "type": "bytes32"
        },
        {
          "indexed": true,
          "internalType": "address",
          "name": "account",
          "type": "address"
        },
        {
          "indexed": true,
          "internalType": "address",
          "name": "sender",
          "type": "address"
        }
      ],
      "name": "RoleGranted",
      "type": "event"
    },
    {
      "anonymous": false,
      "inputs": [
        {
          "indexed": true,
          "internalType": "bytes32",
          "name": "role",
          "type": "bytes32"
        },
        {
          "indexed": true,
          "internalType": "address",
          "name": "account",
          "type": "address"
        },
        {
          "indexed": true,
          "internalType": "address",
          "name": "sender",
          "type": "address"
        }
      ],
      "name": "RoleRevoked",
      "type": "event"
    },
    {
      "anonymous": false,
      "inputs": [
        {
          "indexed": true,
          "internalType": "uint256",
          "name": "transactionId",
          "type": "uint256"
        }
      ],
      "name": "Submission",
      "type": "event"
    },
    {
      "anonymous": false,
      "inputs": [
        {
          "indexed": false,
          "internalType": "address",
          "name": "account",
          "type": "address"
        }
      ],
      "name": "Unpaused",
      "type": "event"
    },
    {
      "stateMutability": "payable",
      "type": "fallback"
    },
    {
      "inputs": [],
      "name": "DEFAULT_ADMIN_ROLE",
      "outputs": [
        {
          "internalType": "bytes32",
          "name": "",
          "type": "bytes32"
        }
      ],
      "stateMutability": "view",
      "type": "function"
    },
    {
      "inputs": [],
      "name": "MEMBER_ROLE",
      "outputs": [
        {
          "internalType": "bytes32",
          "name": "",
          "type": "bytes32"
        }
      ],
      "stateMutability": "view",
      "type": "function"
    },
    {
      "inputs": [],
      "name": "OWNER_ROLE",
      "outputs": [
        {
          "internalType": "bytes32",
          "name": "",
          "type": "bytes32"
        }
      ],
      "stateMutability": "view",
      "type": "function"
    },
    {
      "inputs": [],
      "name": "balance",
      "outputs": [
        {
          "internalType": "uint256",
          "name": "",
          "type": "uint256"
        }
      ],
      "stateMutability": "view",
      "type": "function"
    },
    {
      "inputs": [
        {
          "internalType": "uint256",
          "name": "",
          "type": "uint256"
        },
        {
          "internalType": "address",
          "name": "",
          "type": "address"
        }
      ],
      "name": "confirmations",
      "outputs": [
        {
          "internalType": "bool",
          "name": "",
          "type": "bool"
        }
      ],
      "stateMutability": "view",
      "type": "function"
    },
    {
      "inputs": [],
      "name": "contribution",
      "outputs": [
        {
          "internalType": "uint256",
          "name": "",
          "type": "uint256"
        }
      ],
      "stateMutability": "view",
      "type": "function"
    },
    {
      "inputs": [
        {
          "internalType": "bytes32",
          "name": "role",
          "type": "bytes32"
        }
      ],
      "name": "getRoleAdmin",
      "outputs": [
        {
          "internalType": "bytes32",
          "name": "",
          "type": "bytes32"
        }
      ],
      "stateMutability": "view",
      "type": "function"
    },
    {
      "inputs": [
        {
          "internalType": "bytes32",
          "name": "role",
          "type": "bytes32"
        },
        {
          "internalType": "address",
          "name": "account",
          "type": "address"
        }
      ],
      "name": "grantRole",
      "outputs": [],
      "stateMutability": "nonpayable",
      "type": "function"
    },
    {
      "inputs": [
        {
          "internalType": "bytes32",
          "name": "role",
          "type": "bytes32"
        },
        {
          "internalType": "address",
          "name": "account",
          "type": "address"
        }
      ],
      "name": "hasRole",
      "outputs": [
        {
          "internalType": "bool",
          "name": "",
          "type": "bool"
        }
      ],
      "stateMutability": "view",
      "type": "function"
    },
    {
      "inputs": [
        {
          "internalType": "address",
          "name": "",
          "type": "address"
        }
      ],
      "name": "isMember",
      "outputs": [
        {
          "internalType": "bool",
          "name": "",
          "type": "bool"
        }
      ],
      "stateMutability": "view",
      "type": "function"
    },
    {
      "inputs": [
        {
          "internalType": "address",
          "name": "",
          "type": "address"
        }
      ],
      "name": "isOwner",
      "outputs": [
        {
          "internalType": "bool",
          "name": "",
          "type": "bool"
        }
      ],
      "stateMutability": "view",
      "type": "function"
    },
    {
      "inputs": [
        {
          "internalType": "uint256",
          "name": "",
          "type": "uint256"
        }
      ],
      "name": "members",
      "outputs": [
        {
          "internalType": "address",
          "name": "",
          "type": "address"
        }
      ],
      "stateMutability": "view",
      "type": "function"
    },
    {
      "inputs": [
        {
          "internalType": "uint256",
          "name": "",
          "type": "uint256"
        }
      ],
      "name": "owners",
      "outputs": [
        {
          "internalType": "address",
          "name": "",
          "type": "address"
        }
      ],
      "stateMutability": "view",
      "type": "function"
    },
    {
      "inputs": [],
      "name": "paused",
      "outputs": [
        {
          "internalType": "bool",
          "name": "",
          "type": "bool"
        }
      ],
      "stateMutability": "view",
      "type": "function"
    },
    {
      "inputs": [
        {
          "internalType": "bytes32",
          "name": "role",
          "type": "bytes32"
        },
        {
          "internalType": "address",
          "name": "account",
          "type": "address"
        }
      ],
      "name": "renounceRole",
      "outputs": [],
      "stateMutability": "nonpayable",
      "type": "function"
    },
    {
      "inputs": [],
      "name": "required",
      "outputs": [
        {
          "internalType": "uint256",
          "name": "",
          "type": "uint256"
        }
      ],
      "stateMutability": "view",
      "type": "function"
    },
    {
      "inputs": [
        {
          "internalType": "bytes32",
          "name": "role",
          "type": "bytes32"
        },
        {
          "internalType": "address",
          "name": "account",
          "type": "address"
        }
      ],
      "name": "revokeRole",
      "outputs": [],
      "stateMutability": "nonpayable",
      "type": "function"
    },
    {
      "inputs": [
        {
          "internalType": "bytes4",
          "name": "interfaceId",
          "type": "bytes4"
        }
      ],
      "name": "supportsInterface",
      "outputs": [
        {
          "internalType": "bool",
          "name": "",
          "type": "bool"
        }
      ],
      "stateMutability": "view",
      "type": "function"
    },
    {
      "inputs": [],
      "name": "transactionCount",
      "outputs": [
        {
          "internalType": "uint256",
          "name": "",
          "type": "uint256"
        }
      ],
      "stateMutability": "view",
      "type": "function"
    },
    {
      "inputs": [
        {
          "internalType": "uint256",
          "name": "",
          "type": "uint256"
        }
      ],
      "name": "transactions",
      "outputs": [
        {
          "internalType": "string",
          "name": "name",
          "type": "string"
        },
        {
          "internalType": "address",
          "name": "destination",
          "type": "address"
        },
        {
          "internalType": "uint256",
          "name": "value",
          "type": "uint256"
        },
        {
          "internalType": "enum BurialStokvelAccount.State",
          "name": "state",
          "type": "uint8"
        }
      ],
      "stateMutability": "view",
      "type": "function"
    },
    {
      "stateMutability": "payable",
      "type": "receive"
    },
    {
      "inputs": [],
      "name": "unpause",
      "outputs": [],
      "stateMutability": "nonpayable",
      "type": "function"
    },
    {
      "inputs": [],
      "name": "pause",
      "outputs": [],
      "stateMutability": "nonpayable",
      "type": "function"
    },
    {
      "inputs": [],
      "name": "enroll",
      "outputs": [],
      "stateMutability": "payable",
      "type": "function"
    },
    {
      "inputs": [
        {
          "internalType": "uint256",
          "name": "_value",
          "type": "uint256"
        },
        {
          "internalType": "string",
          "name": "_name",
          "type": "string"
        }
      ],
      "name": "submitRequest",
      "outputs": [
        {
          "internalType": "uint256",
          "name": "",
          "type": "uint256"
        }
      ],
      "stateMutability": "nonpayable",
      "type": "function"
    },
    {
      "inputs": [
        {
          "internalType": "uint256",
          "name": "_transactionId",
          "type": "uint256"
        }
      ],
      "name": "confirmTransaction",
      "outputs": [],
      "stateMutability": "nonpayable",
      "type": "function"
    },
    {
      "inputs": [
        {
          "internalType": "uint256",
          "name": "_transactionId",
          "type": "uint256"
        }
      ],
      "name": "isConfirmed",
      "outputs": [
        {
          "internalType": "bool",
          "name": "confirmed",
          "type": "bool"
        }
      ],
      "stateMutability": "view",
      "type": "function"
    },
    {
      "inputs": [
        {
          "internalType": "uint256",
          "name": "_transactionId",
          "type": "uint256"
        }
      ],
      "name": "withdraw",
      "outputs": [],
      "stateMutability": "nonpayable",
      "type": "function"
    },
    {
      "inputs": [],
      "name": "getAllTransactionIDs",
      "outputs": [
        {
          "internalType": "uint256[]",
          "name": "",
          "type": "uint256[]"
        }
      ],
      "stateMutability": "view",
      "type": "function"
    },
    {
      "inputs": [
        {
          "internalType": "uint256",
          "name": "_transactionId",
          "type": "uint256"
        }
      ],
      "name": "fetchTransaction",
      "outputs": [
        {
          "internalType": "string",
          "name": "name",
          "type": "string"
        },
        {
          "internalType": "uint256",
          "name": "value",
          "type": "uint256"
        },
        {
          "internalType": "address",
          "name": "destination",
          "type": "address"
        },
        {
          "internalType": "string",
          "name": "state",
          "type": "string"
        }
      ],
      "stateMutability": "view",
      "type": "function"
    },
    {
      "inputs": [],
      "name": "getOwners",
      "outputs": [
        {
          "internalType": "address[]",
          "name": "",
          "type": "address[]"
        }
      ],
      "stateMutability": "view",
      "type": "function"
    },
    {
      "inputs": [],
      "name": "getMembers",
      "outputs": [
        {
          "internalType": "address[]",
          "name": "",
          "type": "address[]"
        }
      ],
      "stateMutability": "view",
      "type": "function"
    },
    {
      "inputs": [],
      "name": "getMinimumContribution",
      "outputs": [
        {
          "internalType": "uint256",
          "name": "",
          "type": "uint256"
        }
      ],
      "stateMutability": "view",
      "type": "function"
    },
    {
      "inputs": [],
      "name": "getNumberofRequiredApprovals",
      "outputs": [
        {
          "internalType": "uint256",
          "name": "",
          "type": "uint256"
        }
      ],
      "stateMutability": "view",
      "type": "function"
    },
    {
      "inputs": [],
      "name": "getBalance",
      "outputs": [
        {
          "internalType": "uint256",
          "name": "",
          "type": "uint256"
        }
      ],
      "stateMutability": "view",
      "type": "function"
    },
    {
      "inputs": [],
      "name": "cancelTransaction",
      "outputs": [],
      "stateMutability": "nonpayable",
      "type": "function"
    },
    {
      "inputs": [],
      "name": "removeMember",
      "outputs": [],
      "stateMutability": "nonpayable",
      "type": "function"
    }
  ],
  "bytecode": "0x60806040523480156200001157600080fd5b50604051620039273803806200392783398181016040528101906200003791906200043a565b60008060006101000a81548160ff021916908315150217905550600081118015620000625750600082115b6200006c57600080fd5b81835110156200007b57600080fd5b60005b83518110156200011157620000fb7fb19546dff01e856fb3f010c267a7b1c60363cf8a4664e21cc89c26224620214e858381518110620000e7577f4e487b7100000000000000000000000000000000000000000000000000000000600052603260045260246000fd5b60200260200101516200014260201b60201c565b808062000108906200054a565b9150506200007e565b5082600290805190602001906200012a929190620002bc565b5081600481905550806006819055505050506200062a565b6200015482826200015860201b60201c565b5050565b6200016a82826200024960201b60201c565b6200024557600180600084815260200190815260200160002060000160008373ffffffffffffffffffffffffffffffffffffffff1673ffffffffffffffffffffffffffffffffffffffff16815260200190815260200160002060006101000a81548160ff021916908315150217905550620001ea620002b460201b60201c565b73ffffffffffffffffffffffffffffffffffffffff168173ffffffffffffffffffffffffffffffffffffffff16837f2f8788117e7eff1d82e926ec794901d17c78024a50270940304540a733656f0d60405160405180910390a45b5050565b60006001600084815260200190815260200160002060000160008373ffffffffffffffffffffffffffffffffffffffff1673ffffffffffffffffffffffffffffffffffffffff16815260200190815260200160002060009054906101000a900460ff16905092915050565b600033905090565b82805482825590600052602060002090810192821562000338579160200282015b82811115620003375782518260006101000a81548173ffffffffffffffffffffffffffffffffffffffff021916908373ffffffffffffffffffffffffffffffffffffffff16021790555091602001919060010190620002dd565b5b5090506200034791906200034b565b5090565b5b80821115620003665760008160009055506001016200034c565b5090565b6000620003816200037b84620004dd565b620004a9565b90508083825260208201905082856020860282011115620003a157600080fd5b60005b85811015620003d55781620003ba8882620003df565b845260208401935060208301925050600181019050620003a4565b5050509392505050565b600081519050620003f081620005f6565b92915050565b600082601f8301126200040857600080fd5b81516200041a8482602086016200036a565b91505092915050565b600081519050620004348162000610565b92915050565b6000806000606084860312156200045057600080fd5b600084015167ffffffffffffffff8111156200046b57600080fd5b6200047986828701620003f6565b93505060206200048c8682870162000423565b92505060406200049f8682870162000423565b9150509250925092565b6000604051905081810181811067ffffffffffffffff82111715620004d357620004d2620005c7565b5b8060405250919050565b600067ffffffffffffffff821115620004fb57620004fa620005c7565b5b602082029050602081019050919050565b6000620005198262000520565b9050919050565b600073ffffffffffffffffffffffffffffffffffffffff82169050919050565b6000819050919050565b6000620005578262000540565b91507fffffffffffffffffffffffffffffffffffffffffffffffffffffffffffffffff8214156200058d576200058c62000598565b5b600182019050919050565b7f4e487b7100000000000000000000000000000000000000000000000000000000600052601160045260246000fd5b7f4e487b7100000000000000000000000000000000000000000000000000000000600052604160045260246000fd5b62000601816200050c565b81146200060d57600080fd5b50565b6200061b8162000540565b81146200062757600080fd5b50565b6132ed806200063a6000396000f3fe6080604052600436106102135760003560e01c8063904c0b3a11610118578063b77bf600116100a0578063dc8452cd1161006f578063dc8452cd146108b5578063e58378bb146108e0578063e65f2a7e1461090b578063eafa23bd14610915578063f84038b1146109405761028a565b8063b77bf6001461080d578063b8d437bd14610838578063c01a8c8414610863578063d547741f1461088c5761028a565b8063a0e67e2b116100e7578063a0e67e2b14610724578063a10f469e1461074f578063a217fddf1461077a578063a230c524146107a5578063b69ef8a8146107e25761028a565b8063904c0b3a1461066557806391d148541461067c5780639ace38c2146106b95780639eab5253146106f95761028a565b806336568abe1161019b5780635c975abb1161016a5780635c975abb146105695780635daf08ca14610594578063685067d5146105d1578063784547a7146106115780638456cb591461064e5761028a565b806336568abe146104e75780633f4ba83a1461051057806350520b1f146105275780635c8cf750146105525761028a565b8063248a9ca3116101e2578063248a9ca3146103de5780632e1a7d4d1461041b5780632f2ff15d146104445780632f54bf6e1461046d5780633411c81c146104aa5761028a565b806301ffc9a7146102fc578063025e7c271461033957806312065fe01461037657806316366b26146103a15761028a565b3661028a576000341115610288573373ffffffffffffffffffffffffffffffffffffffff167fe1fffcc4923d04b559f4d29a8bfc6cda04eb5b0d3c460751c2402c5c5cc9109c346040516102679190612dec565b60405180910390a26005600081548092919061028290613131565b91905055505b005b60003411156102fa573373ffffffffffffffffffffffffffffffffffffffff167fe1fffcc4923d04b559f4d29a8bfc6cda04eb5b0d3c460751c2402c5c5cc9109c346040516102d99190612dec565b60405180910390a2600560008154809291906102f490613131565b91905055505b005b34801561030857600080fd5b50610323600480360381019061031e9190612706565b61096b565b6040516103309190612c55565b60405180910390f35b34801561034557600080fd5b50610360600480360381019061035b919061272f565b6109e5565b60405161036d9190612bf6565b60405180910390f35b34801561038257600080fd5b5061038b610a24565b6040516103989190612dec565b60405180910390f35b3480156103ad57600080fd5b506103c860048036038101906103c39190612794565b610a2e565b6040516103d59190612dec565b60405180910390f35b3480156103ea57600080fd5b50610405600480360381019061040091906126a1565b610a8b565b6040516104129190612c70565b60405180910390f35b34801561042757600080fd5b50610442600480360381019061043d919061272f565b610aab565b005b34801561045057600080fd5b5061046b600480360381019061046691906126ca565b610b6d565b005b34801561047957600080fd5b50610494600480360381019061048f9190612678565b610b96565b6040516104a19190612c55565b60405180910390f35b3480156104b657600080fd5b506104d160048036038101906104cc9190612758565b610bb6565b6040516104de9190612c55565b60405180910390f35b3480156104f357600080fd5b5061050e600480360381019061050991906126ca565b610be5565b005b34801561051c57600080fd5b50610525610c68565b005b34801561053357600080fd5b5061053c610ca5565b6040516105499190612dec565b60405180910390f35b34801561055e57600080fd5b50610567610cab565b005b34801561057557600080fd5b5061057e610cad565b60405161058b9190612c55565b60405180910390f35b3480156105a057600080fd5b506105bb60048036038101906105b6919061272f565b610cc3565b6040516105c89190612bf6565b60405180910390f35b3480156105dd57600080fd5b506105f860048036038101906105f3919061272f565b610d02565b6040516106089493929190612cf9565b60405180910390f35b34801561061d57600080fd5b506106386004803603810190610633919061272f565b6110a2565b6040516106459190612c55565b60405180910390f35b34801561065a57600080fd5b506106636111bd565b005b34801561067157600080fd5b5061067a6111fa565b005b34801561068857600080fd5b506106a3600480360381019061069e91906126ca565b6111fc565b6040516106b09190612c55565b60405180910390f35b3480156106c557600080fd5b506106e060048036038101906106db919061272f565b611267565b6040516106f09493929190612cad565b60405180910390f35b34801561070557600080fd5b5061070e61134c565b60405161071b9190612c11565b60405180910390f35b34801561073057600080fd5b506107396113da565b6040516107469190612c11565b60405180910390f35b34801561075b57600080fd5b50610764611468565b6040516107719190612c70565b60405180910390f35b34801561078657600080fd5b5061078f61148c565b60405161079c9190612c70565b60405180910390f35b3480156107b157600080fd5b506107cc60048036038101906107c79190612678565b611493565b6040516107d99190612c55565b60405180910390f35b3480156107ee57600080fd5b506107f76114b3565b6040516108049190612dec565b60405180910390f35b34801561081957600080fd5b506108226114b9565b60405161082f9190612dec565b60405180910390f35b34801561084457600080fd5b5061084d6114bf565b60405161085a9190612dec565b60405180910390f35b34801561086f57600080fd5b5061088a6004803603810190610885919061272f565b6114c9565b005b34801561089857600080fd5b506108b360048036038101906108ae91906126ca565b61177c565b005b3480156108c157600080fd5b506108ca6117a5565b6040516108d79190612dec565b60405180910390f35b3480156108ec57600080fd5b506108f56117ab565b6040516109029190612c70565b60405180910390f35b6109136117cf565b005b34801561092157600080fd5b5061092a6118b4565b6040516109379190612c33565b60405180910390f35b34801561094c57600080fd5b5061095561190c565b6040516109629190612dec565b60405180910390f35b60007f7965db0b000000000000000000000000000000000000000000000000000000007bffffffffffffffffffffffffffffffffffffffffffffffffffffffff1916827bffffffffffffffffffffffffffffffffffffffffffffffffffffffff191614806109de57506109dd82611916565b5b9050919050565b600281815481106109f557600080fd5b906000526020600020016000915054906101000a900473ffffffffffffffffffffffffffffffffffffffff1681565b6000600554905090565b60007f829b824e2329e205435d941c9f13baf578548505283d29261236d8e6596d4636610a6281610a5d611980565b611988565b600554841115610a7157600080fd5b6000610a7e338686611a25565b9050809250505092915050565b600060016000838152602001908152602001600020600101549050919050565b610ab3610cad565b15610af3576040517f08c379a0000000000000000000000000000000000000000000000000000000008152600401610aea90612dac565b60405180910390fd5b3373ffffffffffffffffffffffffffffffffffffffff16600b600083815260200190815260200160002060010160009054906101000a900473ffffffffffffffffffffffffffffffffffffffff1673ffffffffffffffffffffffffffffffffffffffff1614610b6157600080fd5b610b6a81611bed565b50565b610b7682610a8b565b610b8781610b82611980565b611988565b610b918383611f0c565b505050565b60096020528060005260406000206000915054906101000a900460ff1681565b600c6020528160005260406000206020528060005260406000206000915091509054906101000a900460ff1681565b610bed611980565b73ffffffffffffffffffffffffffffffffffffffff168173ffffffffffffffffffffffffffffffffffffffff1614610c5a576040517f08c379a0000000000000000000000000000000000000000000000000000000008152600401610c5190612dcc565b60405180910390fd5b610c648282611fec565b5050565b7fb19546dff01e856fb3f010c267a7b1c60363cf8a4664e21cc89c26224620214e610c9a81610c95611980565b611988565b610ca26120ce565b50565b60065481565b565b60008060009054906101000a900460ff16905090565b60038181548110610cd357600080fd5b906000526020600020016000915054906101000a900473ffffffffffffffffffffffffffffffffffffffff1681565b60606000806060600b60008681526020019081526020016000206000018054610d2a906130ff565b80601f0160208091040260200160405190810160405280929190818152602001828054610d56906130ff565b8015610da35780601f10610d7857610100808354040283529160200191610da3565b820191906000526020600020905b815481529060010190602001808311610d8657829003601f168201915b50505050509350600b6000868152602001908152602001600020600201549250600b600086815260200190815260200160002060010160009054906101000a900473ffffffffffffffffffffffffffffffffffffffff16915060006002811115610e36577f4e487b7100000000000000000000000000000000000000000000000000000000600052602160045260246000fd5b600b600087815260200190815260200160002060030160009054906101000a900460ff166002811115610e92577f4e487b7100000000000000000000000000000000000000000000000000000000600052602160045260246000fd5b1415610ed5576040518060400160405280600881526020017f4578656375746564000000000000000000000000000000000000000000000000815250905061109b565b60016002811115610f0f577f4e487b7100000000000000000000000000000000000000000000000000000000600052602160045260246000fd5b600b600087815260200190815260200160002060030160009054906101000a900460ff166002811115610f6b577f4e487b7100000000000000000000000000000000000000000000000000000000600052602160045260246000fd5b1415610fae576040518060400160405280600781526020017f50656e64696e6700000000000000000000000000000000000000000000000000815250905061109a565b600280811115610fe7577f4e487b7100000000000000000000000000000000000000000000000000000000600052602160045260246000fd5b600b600087815260200190815260200160002060030160009054906101000a900460ff166002811115611043577f4e487b7100000000000000000000000000000000000000000000000000000000600052602160045260246000fd5b1415611086576040518060400160405280600881526020017f417070726f7665640000000000000000000000000000000000000000000000008152509050611099565b6040518060200160405280600081525090505b5b5b9193509193565b600080600090506000915060005b6002805490508110156111b657600c600085815260200190815260200160002060006002838154811061110c577f4e487b7100000000000000000000000000000000000000000000000000000000600052603260045260246000fd5b9060005260206000200160009054906101000a900473ffffffffffffffffffffffffffffffffffffffff1673ffffffffffffffffffffffffffffffffffffffff1673ffffffffffffffffffffffffffffffffffffffff16815260200190815260200160002060009054906101000a900460ff1615611194576001826111919190612f0c565b91505b6004548214156111a357600192505b80806111ae90613131565b9150506110b0565b5050919050565b7fb19546dff01e856fb3f010c267a7b1c60363cf8a4664e21cc89c26224620214e6111ef816111ea611980565b611988565b6111f761216f565b50565b565b60006001600084815260200190815260200160002060000160008373ffffffffffffffffffffffffffffffffffffffff1673ffffffffffffffffffffffffffffffffffffffff16815260200190815260200160002060009054906101000a900460ff16905092915050565b600b60205280600052604060002060009150905080600001805461128a906130ff565b80601f01602080910402602001604051908101604052809291908181526020018280546112b6906130ff565b80156113035780601f106112d857610100808354040283529160200191611303565b820191906000526020600020905b8154815290600101906020018083116112e657829003601f168201915b5050505050908060010160009054906101000a900473ffffffffffffffffffffffffffffffffffffffff16908060020154908060030160009054906101000a900460ff16905084565b606060038054806020026020016040519081016040528092919081815260200182805480156113d057602002820191906000526020600020905b8160009054906101000a900473ffffffffffffffffffffffffffffffffffffffff1673ffffffffffffffffffffffffffffffffffffffff1681526020019060010190808311611386575b5050505050905090565b6060600280548060200260200160405190810160405280929190818152602001828054801561145e57602002820191906000526020600020905b8160009054906101000a900473ffffffffffffffffffffffffffffffffffffffff1673ffffffffffffffffffffffffffffffffffffffff1681526020019060010190808311611414575b5050505050905090565b7f829b824e2329e205435d941c9f13baf578548505283d29261236d8e6596d463681565b6000801b81565b600a6020528060005260406000206000915054906101000a900460ff1681565b60055481565b60075481565b6000600454905090565b7fb19546dff01e856fb3f010c267a7b1c60363cf8a4664e21cc89c26224620214e6114fb816114f6611980565b611988565b600073ffffffffffffffffffffffffffffffffffffffff16600b600084815260200190815260200160002060010160009054906101000a900473ffffffffffffffffffffffffffffffffffffffff1673ffffffffffffffffffffffffffffffffffffffff16141561156b57600080fd5b60001515600c600084815260200190815260200160002060003373ffffffffffffffffffffffffffffffffffffffff1673ffffffffffffffffffffffffffffffffffffffff16815260200190815260200160002060009054906101000a900460ff161515146115d957600080fd5b6001600c600084815260200190815260200160002060003373ffffffffffffffffffffffffffffffffffffffff1673ffffffffffffffffffffffffffffffffffffffff16815260200190815260200160002060006101000a81548160ff02191690831515021790555060006040518060400160405280600581526020017f66616c73650000000000000000000000000000000000000000000000000000008152509050611685836110a2565b15611728576002600b600085815260200190815260200160002060030160006101000a81548160ff021916908360028111156116ea577f4e487b7100000000000000000000000000000000000000000000000000000000600052602160045260246000fd5b02179055506040518060400160405280600481526020017f747275650000000000000000000000000000000000000000000000000000000081525090505b823373ffffffffffffffffffffffffffffffffffffffff167fbbd347b0b26e5ecc8cd8676faf574878fdbc8fc0d744f3a8d42f72ce24eb22518360405161176f9190612c8b565b60405180910390a3505050565b61178582610a8b565b61179681611791611980565b611988565b6117a08383611fec565b505050565b60045481565b7fb19546dff01e856fb3f010c267a7b1c60363cf8a4664e21cc89c26224620214e81565b6006543410156117de57600080fd5b6118087f829b824e2329e205435d941c9f13baf578548505283d29261236d8e6596d463633612211565b3373ffffffffffffffffffffffffffffffffffffffff167f990c442e6adb818b8fa7db3cf1023decd07f7b66e5306928c7ed527d974192bb60405160405180910390a2346005600082825461185d9190612f0c565b925050819055503373ffffffffffffffffffffffffffffffffffffffff167fe1fffcc4923d04b559f4d29a8bfc6cda04eb5b0d3c460751c2402c5c5cc9109c346040516118aa9190612dec565b60405180910390a2565b6060600880548060200260200160405190810160405280929190818152602001828054801561190257602002820191906000526020600020905b8154815260200190600101908083116118ee575b5050505050905090565b6000600654905090565b60007f01ffc9a7000000000000000000000000000000000000000000000000000000007bffffffffffffffffffffffffffffffffffffffffffffffffffffffff1916827bffffffffffffffffffffffffffffffffffffffffffffffffffffffff1916149050919050565b600033905090565b61199282826111fc565b611a21576119b78173ffffffffffffffffffffffffffffffffffffffff16601461221f565b6119c58360001c602061221f565b6040516020016119d6929190612bbc565b6040516020818303038152906040526040517f08c379a0000000000000000000000000000000000000000000000000000000008152600401611a189190612c8b565b60405180910390fd5b5050565b6000600754905060405180608001604052808381526020018573ffffffffffffffffffffffffffffffffffffffff16815260200184815260200160016002811115611a99577f4e487b7100000000000000000000000000000000000000000000000000000000600052602160045260246000fd5b815250600b60008381526020019081526020016000206000820151816000019080519060200190611acb929190612519565b5060208201518160010160006101000a81548173ffffffffffffffffffffffffffffffffffffffff021916908373ffffffffffffffffffffffffffffffffffffffff1602179055506040820151816002015560608201518160030160006101000a81548160ff02191690836002811115611b6e577f4e487b7100000000000000000000000000000000000000000000000000000000600052602160045260246000fd5b02179055509050506008819080600181540180825580915050600190039060005260206000200160009091909190915055600160076000828254611bb29190612f0c565b92505081905550807fc0ba8fe4b176c1714197d43b9cc6bcf797a4a7461c5fe8d0ef6e184ae7601e5160405160405180910390a29392505050565b600280811115611c26577f4e487b7100000000000000000000000000000000000000000000000000000000600052602160045260246000fd5b600b600083815260200190815260200160002060030160009054906101000a900460ff166002811115611c82577f4e487b7100000000000000000000000000000000000000000000000000000000600052602160045260246000fd5b14611c8c57600080fd5b600554600b6000838152602001908152602001600020600201541115611cb157600080fd5b611cba816110a2565b15611f09576000600b6000838152602001908152602001600020905060008160030160006101000a81548160ff02191690836002811115611d24577f4e487b7100000000000000000000000000000000000000000000000000000000600052602160045260246000fd5b0217905550600b600083815260200190815260200160002060020154600554611d4d9190612fbc565b60058190555060008160010160009054906101000a900473ffffffffffffffffffffffffffffffffffffffff1673ffffffffffffffffffffffffffffffffffffffff1634604051611d9d90612ba7565b60006040518083038185875af1925050503d8060008114611dda576040519150601f19603f3d011682016040523d82523d6000602084013e611ddf565b606091505b505090508015611e1b57827f33e13ecb54c3076d8e8bb8c2881800a4d972b792045ffae98fdf46df365fed7560405160405180910390a2611f06565b827f526441bb6c1aba3c9a4a6ca1d6545da9c2333c8c48343ef398eb858d72b7923660405160405180910390a260028260030160006101000a81548160ff02191690836002811115611e96577f4e487b7100000000000000000000000000000000000000000000000000000000600052602160045260246000fd5b0217905550600b600084815260200190815260200160002060020154600554611ebf9190612f0c565b60058190555080611f05576040517f08c379a0000000000000000000000000000000000000000000000000000000008152600401611efc90612d8c565b60405180910390fd5b5b50505b50565b611f1682826111fc565b611fe857600180600084815260200190815260200160002060000160008373ffffffffffffffffffffffffffffffffffffffff1673ffffffffffffffffffffffffffffffffffffffff16815260200190815260200160002060006101000a81548160ff021916908315150217905550611f8d611980565b73ffffffffffffffffffffffffffffffffffffffff168173ffffffffffffffffffffffffffffffffffffffff16837f2f8788117e7eff1d82e926ec794901d17c78024a50270940304540a733656f0d60405160405180910390a45b5050565b611ff682826111fc565b156120ca5760006001600084815260200190815260200160002060000160008373ffffffffffffffffffffffffffffffffffffffff1673ffffffffffffffffffffffffffffffffffffffff16815260200190815260200160002060006101000a81548160ff02191690831515021790555061206f611980565b73ffffffffffffffffffffffffffffffffffffffff168173ffffffffffffffffffffffffffffffffffffffff16837ff6391f5c32d9c69d2a47ea670b442974b53935d1edc7fd64eb21e047a839171b60405160405180910390a45b5050565b6120d6610cad565b612115576040517f08c379a000000000000000000000000000000000000000000000000000000000815260040161210c90612d6c565b60405180910390fd5b60008060006101000a81548160ff0219169083151502179055507f5db9ee0a495bf2e6ff9c91a7834c1ba4fdd244a5e8aa4e537bd38aeae4b073aa612158611980565b6040516121659190612bf6565b60405180910390a1565b612177610cad565b156121b7576040517f08c379a00000000000000000000000000000000000000000000000000000000081526004016121ae90612dac565b60405180910390fd5b60016000806101000a81548160ff0219169083151502179055507f62e78cea01bee320cd4e420270b5ea74000d11b0c9f74754ebdbfc544b05a2586121fa611980565b6040516122079190612bf6565b60405180910390a1565b61221b8282611f0c565b5050565b6060600060028360026122329190612f62565b61223c9190612f0c565b67ffffffffffffffff81111561227b577f4e487b7100000000000000000000000000000000000000000000000000000000600052604160045260246000fd5b6040519080825280601f01601f1916602001820160405280156122ad5781602001600182028036833780820191505090505b5090507f30000000000000000000000000000000000000000000000000000000000000008160008151811061230b577f4e487b7100000000000000000000000000000000000000000000000000000000600052603260045260246000fd5b60200101907effffffffffffffffffffffffffffffffffffffffffffffffffffffffffffff1916908160001a9053507f780000000000000000000000000000000000000000000000000000000000000081600181518110612395577f4e487b7100000000000000000000000000000000000000000000000000000000600052603260045260246000fd5b60200101907effffffffffffffffffffffffffffffffffffffffffffffffffffffffffffff1916908160001a905350600060018460026123d59190612f62565b6123df9190612f0c565b90505b60018111156124cb577f3031323334353637383961626364656600000000000000000000000000000000600f861660108110612447577f4e487b7100000000000000000000000000000000000000000000000000000000600052603260045260246000fd5b1a60f81b828281518110612484577f4e487b7100000000000000000000000000000000000000000000000000000000600052603260045260246000fd5b60200101907effffffffffffffffffffffffffffffffffffffffffffffffffffffffffffff1916908160001a905350600485901c9450806124c4906130d5565b90506123e2565b506000841461250f576040517f08c379a000000000000000000000000000000000000000000000000000000000815260040161250690612d4c565b60405180910390fd5b8091505092915050565b828054612525906130ff565b90600052602060002090601f016020900481019282612547576000855561258e565b82601f1061256057805160ff191683800117855561258e565b8280016001018555821561258e579182015b8281111561258d578251825591602001919060010190612572565b5b50905061259b919061259f565b5090565b5b808211156125b85760008160009055506001016125a0565b5090565b60006125cf6125ca84612e38565b612e07565b9050828152602081018484840111156125e757600080fd5b6125f2848285613093565b509392505050565b6000813590506126098161325b565b92915050565b60008135905061261e81613272565b92915050565b60008135905061263381613289565b92915050565b600082601f83011261264a57600080fd5b813561265a8482602086016125bc565b91505092915050565b600081359050612672816132a0565b92915050565b60006020828403121561268a57600080fd5b6000612698848285016125fa565b91505092915050565b6000602082840312156126b357600080fd5b60006126c18482850161260f565b91505092915050565b600080604083850312156126dd57600080fd5b60006126eb8582860161260f565b92505060206126fc858286016125fa565b9150509250929050565b60006020828403121561271857600080fd5b600061272684828501612624565b91505092915050565b60006020828403121561274157600080fd5b600061274f84828501612663565b91505092915050565b6000806040838503121561276b57600080fd5b600061277985828601612663565b925050602061278a858286016125fa565b9150509250929050565b600080604083850312156127a757600080fd5b60006127b585828601612663565b925050602083013567ffffffffffffffff8111156127d257600080fd5b6127de85828601612639565b9150509250929050565b60006127f48383612818565b60208301905092915050565b600061280c8383612b89565b60208301905092915050565b61282181612ff0565b82525050565b61283081612ff0565b82525050565b600061284182612e88565b61284b8185612ec3565b935061285683612e68565b8060005b8381101561288757815161286e88826127e8565b975061287983612ea9565b92505060018101905061285a565b5085935050505092915050565b600061289f82612e93565b6128a98185612ed4565b93506128b483612e78565b8060005b838110156128e55781516128cc8882612800565b97506128d783612eb6565b9250506001810190506128b8565b5085935050505092915050565b6128fb81613002565b82525050565b61290a8161300e565b82525050565b61291981613081565b82525050565b600061292a82612e9e565b6129348185612ef0565b93506129448185602086016130a2565b61294d81613236565b840191505092915050565b600061296382612e9e565b61296d8185612f01565b935061297d8185602086016130a2565b80840191505092915050565b6000612996602083612ef0565b91507f537472696e67733a20686578206c656e67746820696e73756666696369656e746000830152602082019050919050565b60006129d6601483612ef0565b91507f5061757361626c653a206e6f74207061757365640000000000000000000000006000830152602082019050919050565b6000612a16601483612ef0565b91507f4661696c656420746f2073656e64206d6f6e65790000000000000000000000006000830152602082019050919050565b6000612a56601083612ef0565b91507f5061757361626c653a20706175736564000000000000000000000000000000006000830152602082019050919050565b6000612a96600083612ee5565b9150600082019050919050565b6000612ab0601783612f01565b91507f416363657373436f6e74726f6c3a206163636f756e74200000000000000000006000830152601782019050919050565b6000612af0601183612f01565b91507f206973206d697373696e6720726f6c65200000000000000000000000000000006000830152601182019050919050565b6000612b30602f83612ef0565b91507f416363657373436f6e74726f6c3a2063616e206f6e6c792072656e6f756e636560008301527f20726f6c657320666f722073656c6600000000000000000000000000000000006020830152604082019050919050565b612b9281613077565b82525050565b612ba181613077565b82525050565b6000612bb282612a89565b9150819050919050565b6000612bc782612aa3565b9150612bd38285612958565b9150612bde82612ae3565b9150612bea8284612958565b91508190509392505050565b6000602082019050612c0b6000830184612827565b92915050565b60006020820190508181036000830152612c2b8184612836565b905092915050565b60006020820190508181036000830152612c4d8184612894565b905092915050565b6000602082019050612c6a60008301846128f2565b92915050565b6000602082019050612c856000830184612901565b92915050565b60006020820190508181036000830152612ca5818461291f565b905092915050565b60006080820190508181036000830152612cc7818761291f565b9050612cd66020830186612827565b612ce36040830185612b98565b612cf06060830184612910565b95945050505050565b60006080820190508181036000830152612d13818761291f565b9050612d226020830186612b98565b612d2f6040830185612827565b8181036060830152612d41818461291f565b905095945050505050565b60006020820190508181036000830152612d6581612989565b9050919050565b60006020820190508181036000830152612d85816129c9565b9050919050565b60006020820190508181036000830152612da581612a09565b9050919050565b60006020820190508181036000830152612dc581612a49565b9050919050565b60006020820190508181036000830152612de581612b23565b9050919050565b6000602082019050612e016000830184612b98565b92915050565b6000604051905081810181811067ffffffffffffffff82111715612e2e57612e2d613207565b5b8060405250919050565b600067ffffffffffffffff821115612e5357612e52613207565b5b601f19601f8301169050602081019050919050565b6000819050602082019050919050565b6000819050602082019050919050565b600081519050919050565b600081519050919050565b600081519050919050565b6000602082019050919050565b6000602082019050919050565b600082825260208201905092915050565b600082825260208201905092915050565b600081905092915050565b600082825260208201905092915050565b600081905092915050565b6000612f1782613077565b9150612f2283613077565b9250827fffffffffffffffffffffffffffffffffffffffffffffffffffffffffffffffff03821115612f5757612f5661317a565b5b828201905092915050565b6000612f6d82613077565b9150612f7883613077565b9250817fffffffffffffffffffffffffffffffffffffffffffffffffffffffffffffffff0483118215151615612fb157612fb061317a565b5b828202905092915050565b6000612fc782613077565b9150612fd283613077565b925082821015612fe557612fe461317a565b5b828203905092915050565b6000612ffb82613057565b9050919050565b60008115159050919050565b6000819050919050565b60007fffffffff0000000000000000000000000000000000000000000000000000000082169050919050565b600081905061305282613247565b919050565b600073ffffffffffffffffffffffffffffffffffffffff82169050919050565b6000819050919050565b600061308c82613044565b9050919050565b82818337600083830152505050565b60005b838110156130c05780820151818401526020810190506130a5565b838111156130cf576000848401525b50505050565b60006130e082613077565b915060008214156130f4576130f361317a565b5b600182039050919050565b6000600282049050600182168061311757607f821691505b6020821081141561312b5761312a6131d8565b5b50919050565b600061313c82613077565b91507fffffffffffffffffffffffffffffffffffffffffffffffffffffffffffffffff82141561316f5761316e61317a565b5b600182019050919050565b7f4e487b7100000000000000000000000000000000000000000000000000000000600052601160045260246000fd5b7f4e487b7100000000000000000000000000000000000000000000000000000000600052602160045260246000fd5b7f4e487b7100000000000000000000000000000000000000000000000000000000600052602260045260246000fd5b7f4e487b7100000000000000000000000000000000000000000000000000000000600052604160045260246000fd5b6000601f19601f8301169050919050565b60038110613258576132576131a9565b5b50565b61326481612ff0565b811461326f57600080fd5b50565b61327b8161300e565b811461328657600080fd5b50565b61329281613018565b811461329d57600080fd5b50565b6132a981613077565b81146132b457600080fd5b5056fea2646970667358221220a9985df1e7ae0468ccaa73fe56889660166ad02d5f4d91c36aaf61ba9ea3872e64736f6c63430008000033",
  "immutableReferences": {},
  "source": "// SPDX-License-Identifier: MIT\npragma solidity 0.8.0;\n\nimport \"@openzeppelin/contracts/security/Pausable.sol\";\nimport \"@openzeppelin/contracts/access/AccessControl.sol\";\n\n/// @title A smart contract for a South African Burial Stokvel\n/// @author Jurgen Schulte\n/// @notice The contract allows for multiple owners and members After members pay a contribution they are able to submit requests for payment which need to be approved by owners.\n/// @dev Deletion and non approval of request will be implemented in later version\ncontract BurialStokvelAccount is Pausable, AccessControl {\n    address[] public owners;\n    address[] public members;\n\n    bytes32 public constant OWNER_ROLE = keccak256(\"OWNER_ROLE\");\n    bytes32 public constant MEMBER_ROLE = keccak256(\"MEMBER_ROLE\");\n\n    uint256 public required;\n    uint256 public balance;\n    uint256 public contribution;\n    uint256 public transactionCount;\n    uint256[] private transactionIDs;\n\n    mapping(address => bool) public isOwner;\n    mapping(address => bool) public isMember;\n    mapping(uint256 => Transaction) public transactions;\n    mapping(uint256 => mapping(address => bool)) public confirmations;\n\n    enum State {\n        Executed,\n        Pending,\n        Approved\n    }\n\n    struct Transaction {\n        string name;\n        address destination;\n        uint256 value;\n        State state;\n    }\n\n    /// @notice Emitted when a request is submitted\n    /// @param transactionId Transaction ID\n    event Submission(uint256 indexed transactionId);\n\n    /// @notice Emitted when a submitted request is confirmed\n    /// @param sender Sender address\n    /// @param transactionId Transaction id\n    /// @param approved A boolean indication if the confirmed transaction is approved\n    event Confirmation(\n        address indexed sender,\n        uint256 indexed transactionId,\n        string approved\n    );\n\n    /// @notice Emitted when a transfer of funds is executed\n    /// @param transactionId Transaction ID\n    event Execution(uint256 indexed transactionId);\n\n    /// @notice Emitted when a transfer of funds fails\n    /// @param transactionId Transaction ID\n    event ExecutionFailure(uint256 indexed transactionId);\n\n    /// @notice Emitted when a address is enrolled as a member\n    /// @param accountAddress Account of member\n    event LogEnrolled(address indexed accountAddress);\n\n    /// @notice Emitted when a member deposits his contribution\n    /// @param sender Sender address\n    /// @param value Value of contribution\n    event Deposit(address indexed sender, uint256 value);\n\n    /// @dev Fallback function allows to deposit ether.\n    fallback() external payable {\n        if (msg.value > 0) {\n            emit Deposit(msg.sender, msg.value);\n            balance++;\n        }\n    }\n\n    /// @dev Receive function allows to deposit ether.\n    receive() external payable {\n        if (msg.value > 0) {\n            emit Deposit(msg.sender, msg.value);\n            balance++;\n        }\n    }\n\n    modifier notMember(address _address) {\n        require(hasRole(MEMBER_ROLE, _address), \"Applicant is already member\");\n        _;\n    }\n\n    /// @notice Unpause the contract by owners only.\n    /// @dev This function controls the unpause/pause modifier which is used to prevent withdrawals in case an attack on the contract.\n    function unpause() public onlyRole(OWNER_ROLE) {\n        _unpause();\n    }\n\n    /// @notice Pause the contract by owners only.\n    /// @dev This function controls the unpause/pause modifier which is used to prevent withdrawals in case an attack on the contract.\n    function pause() public onlyRole(OWNER_ROLE) {\n        _pause();\n    }\n\n    /// @notice Contract constructor sets initial owners of the stokvel\n    // account and required number of confirmations.\n    /// @dev Contract constructor sets initial owners of the stokvel account\n    /// and required number of confirmations.\n    /// @param _owners List of initial owners.\n    /// @param _required Number of required confirmations.\n    /// @param _contribution Required minimum contribution.\n    constructor(\n        address[] memory _owners,\n        uint256 _required,\n        uint256 _contribution\n    ) {\n        require(_contribution > 0 && _required > 0);\n        require(_owners.length >= _required);\n        for (uint256 i = 0; i < _owners.length; i++) {\n            _setupRole(OWNER_ROLE, _owners[i]);\n        }\n        owners = _owners;\n        required = _required;\n        contribution = _contribution;\n    }\n\n    /// @notice Enrolls the address as a member\n    /// @dev Checks that the address is not already a member\n    function enroll() public payable {\n        //require(hasRole(msg.sender) == false);\n        require(msg.value >= contribution);\n        _setupRole(MEMBER_ROLE, msg.sender);\n        emit LogEnrolled(msg.sender);\n        balance += msg.value;\n        emit Deposit(msg.sender, msg.value);\n    }\n\n    /// @notice Allows member to submit a payment request\n    /// @dev The value of the contribution is checked aaginst the minimum contribution\n    /// stipulated during contract creation\n    /// @param _value Value of contribution in Wei\n    /// @param _name Name of request\n    function submitRequest(uint256 _value, string memory _name)\n        public\n        onlyRole(MEMBER_ROLE)\n        returns (uint256)\n    {\n        require(_value <= balance);\n        uint256 transactionId = addTransaction(msg.sender, _value, _name);\n        return transactionId;\n    }\n\n    /// @dev Adds a new transaction to the transaction mapping, if transaction does not exist yet.\n    /// @param _destination Transaction target address.\n    /// @param _value Transaction wei value.\n    /// @param _name Name of submitted request.\n    /// @return transactionId Returns transaction ID.\n    function addTransaction(\n        address _destination,\n        uint256 _value,\n        string memory _name\n    ) internal returns (uint256 transactionId) {\n        transactionId = transactionCount;\n        transactions[transactionId] = Transaction({\n            name: _name,\n            destination: _destination,\n            value: _value,\n            state: State.Pending\n        });\n        transactionIDs.push(transactionId);\n        transactionCount += 1;\n        emit Submission(transactionId);\n    }\n\n    /// @dev Allows an owner to confirm a transaction.\n    /// @param _transactionId Transaction ID.\n    function confirmTransaction(uint256 _transactionId)\n        public\n        onlyRole(OWNER_ROLE)\n    {\n        //require(isOwner[msg.sender]);\n        require(transactions[_transactionId].destination != address(0));\n        require(confirmations[_transactionId][msg.sender] == false);\n\n        confirmations[_transactionId][msg.sender] = true;\n        string memory approved = \"false\";\n        if (isConfirmed(_transactionId)) {\n            transactions[_transactionId].state = State.Approved;\n            approved = \"true\";\n        }\n\n        emit Confirmation(msg.sender, _transactionId, approved);\n    }\n\n    /// @notice Returns the confirmation status of a transaction.\n    /// @param _transactionId Transaction ID.\n    /// @return confirmed Confirmation status.\n    function isConfirmed(uint256 _transactionId)\n        public\n        view\n        returns (bool confirmed)\n    {\n        uint256 count = 0;\n        confirmed = false;\n        for (uint256 i = 0; i < owners.length; i++) {\n            if (confirmations[_transactionId][owners[i]]) count += 1;\n            if (count == required) confirmed = true;\n        }\n        return confirmed;\n    }\n\n    /// @notice Withdraws the reqiested amount by the member.\n    /// @dev The sender address is checked to ensure it matches that of the initial requestor\n    /// @param _transactionId Transaction ID.\n    function withdraw(uint256 _transactionId) public whenNotPaused {\n        require(transactions[_transactionId].destination == msg.sender);\n        executeTransaction(_transactionId);\n    }\n\n    /// @notice Executes the submitted request.\n    /// @dev Transaction is executed if enough confirmations have been\n    /// received and the balance is sufficient.\n    /// @param _transactionId Transaction ID.\n    function executeTransaction(uint256 _transactionId) internal {\n        require(transactions[_transactionId].state == State.Approved);\n        // Check balance\n        require(transactions[_transactionId].value <= balance);\n        if (isConfirmed(_transactionId)) {\n            Transaction storage t = transactions[_transactionId]; // using the \"storage\" keyword makes \"t\" a pointer to storage\n            t.state = State.Executed;\n            balance = balance - transactions[_transactionId].value;\n            (bool success, ) = t.destination.call{value: msg.value}(\"\");\n            if (success) emit Execution(_transactionId);\n            else {\n                emit ExecutionFailure(_transactionId);\n                t.state = State.Approved;\n                balance = balance + transactions[_transactionId].value;\n                require(success, \"Failed to send money\");\n            }\n        }\n    }\n\n    /// @notice Returns all transaction IDs.\n    /// @return memory All transaction IDs.\n    function getAllTransactionIDs() public view returns (uint256[] memory) {\n        // Only three pending transactions allowed\n        return transactionIDs;\n    }\n\n    /// @notice Returns the details of a transaction.\n    /// @param _transactionId The transaction ID.\n    function fetchTransaction(uint256 _transactionId)\n        public\n        view\n        returns (\n            string memory name,\n            uint256 value,\n            address destination,\n            string memory state\n        )\n    {\n        name = transactions[_transactionId].name;\n        value = transactions[_transactionId].value;\n        destination = transactions[_transactionId].destination;\n        if (transactions[_transactionId].state == State.Executed) {\n            state = \"Executed\";\n        } else if (transactions[_transactionId].state == State.Pending) {\n            state = \"Pending\";\n        } else if (transactions[_transactionId].state == State.Approved) {\n            state = \"Approved\";\n        } else {\n            state = \"\";\n        }\n\n        return (name, value, destination, state);\n    }\n\n    /// @notice Get all owners.\n    /// @return memory All owner addresses.\n    function getOwners() public view returns (address[] memory) {\n        return owners;\n    }\n\n    /// @notice Get all members.\n    /// @return memory All member addresses.\n    function getMembers() public view returns (address[] memory) {\n        return members;\n    }\n\n    /// @notice Get minimum contribution required.\n    /// @return uint256 Minimum contribution.\n    function getMinimumContribution() public view returns (uint256) {\n        return contribution;\n    }\n\n    /// @notice Get number of required approvals.\n    /// @return uint256 Number of required approvals.\n    function getNumberofRequiredApprovals() public view returns (uint256) {\n        return required;\n    }\n\n    /// @notice Get balance of contract.\n    /// @return uint256 Balance of contract.\n    function getBalance() public view returns (uint256) {\n        return balance;\n    }\n\n    /// @notice Allows approver to cancel submitted transaction\n    /// @dev This function will allow owners to cancel submitted requests by members\n    function cancelTransaction() external {\n        // TODO: this will allow owners to cancel transaction. We will need to ensure that a\n        // transaction is only cancelled when enough owners cancel.\n    }\n\n    /// @notice Allows approvers to remove members\n    /// @dev This function will allow owners to remove members members\n    function removeMember() external {\n        // TODO: this will allow owners to remove members and refund their contributions.\n        // This mechanism will ensure owners can remove misbehaving members.\n    }\n}\n",
  "sourcePath": "/Users/jurgen/Consensys/blockchain-developer-bootcamp-final-project/contracts/BurialStokvelAccount.sol",
  "compiler": {
    "name": "solc",
    "version": "0.8.0+commit.c7dfd78e.Emscripten.clang"
  },
  "schemaVersion": "3.4.3",
  "updatedAt": "2021-12-17T11:22:15.183Z",
  "devdoc": {
    "author": "Jurgen Schulte",
    "details": "Deletion and non approval of request will be implemented in later version",
    "events": {
      "Confirmation(address,uint256,string)": {
        "params": {
          "approved": "A boolean indication if the confirmed transaction is approved",
          "sender": "Sender address",
          "transactionId": "Transaction id"
        }
      },
      "Deposit(address,uint256)": {
        "params": {
          "sender": "Sender address",
          "value": "Value of contribution"
        }
      },
      "Execution(uint256)": {
        "params": {
          "transactionId": "Transaction ID"
        }
      },
      "ExecutionFailure(uint256)": {
        "params": {
          "transactionId": "Transaction ID"
        }
      },
      "LogEnrolled(address)": {
        "params": {
          "accountAddress": "Account of member"
        }
      },
      "Submission(uint256)": {
        "params": {
          "transactionId": "Transaction ID"
        }
      }
    },
    "kind": "dev",
    "methods": {
      "cancelTransaction()": {
        "details": "This function will allow owners to cancel submitted requests by members"
      },
      "confirmTransaction(uint256)": {
        "details": "Allows an owner to confirm a transaction.",
        "params": {
          "_transactionId": "Transaction ID."
        }
      },
      "constructor": {
        "details": "Contract constructor sets initial owners of the stokvel account and required number of confirmations.",
        "params": {
          "_contribution": "Required minimum contribution.",
          "_owners": "List of initial owners.",
          "_required": "Number of required confirmations."
        }
      },
      "enroll()": {
        "details": "Checks that the address is not already a member"
      },
      "fetchTransaction(uint256)": {
        "params": {
          "_transactionId": "The transaction ID."
        }
      },
      "getAllTransactionIDs()": {
        "returns": {
          "_0": "memory All transaction IDs."
        }
      },
      "getBalance()": {
        "returns": {
          "_0": "uint256 Balance of contract."
        }
      },
      "getMembers()": {
        "returns": {
          "_0": "memory All member addresses."
        }
      },
      "getMinimumContribution()": {
        "returns": {
          "_0": "uint256 Minimum contribution."
        }
      },
      "getNumberofRequiredApprovals()": {
        "returns": {
          "_0": "uint256 Number of required approvals."
        }
      },
      "getOwners()": {
        "returns": {
          "_0": "memory All owner addresses."
        }
      },
      "getRoleAdmin(bytes32)": {
        "details": "Returns the admin role that controls `role`. See {grantRole} and {revokeRole}. To change a role's admin, use {_setRoleAdmin}."
      },
      "grantRole(bytes32,address)": {
        "details": "Grants `role` to `account`. If `account` had not been already granted `role`, emits a {RoleGranted} event. Requirements: - the caller must have ``role``'s admin role."
      },
      "hasRole(bytes32,address)": {
        "details": "Returns `true` if `account` has been granted `role`."
      },
      "isConfirmed(uint256)": {
        "params": {
          "_transactionId": "Transaction ID."
        },
        "returns": {
          "confirmed": "Confirmation status."
        }
      },
      "pause()": {
        "details": "This function controls the unpause/pause modifier which is used to prevent withdrawals in case an attack on the contract."
      },
      "paused()": {
        "details": "Returns true if the contract is paused, and false otherwise."
      },
      "removeMember()": {
        "details": "This function will allow owners to remove members members"
      },
      "renounceRole(bytes32,address)": {
        "details": "Revokes `role` from the calling account. Roles are often managed via {grantRole} and {revokeRole}: this function's purpose is to provide a mechanism for accounts to lose their privileges if they are compromised (such as when a trusted device is misplaced). If the calling account had been granted `role`, emits a {RoleRevoked} event. Requirements: - the caller must be `account`."
      },
      "revokeRole(bytes32,address)": {
        "details": "Revokes `role` from `account`. If `account` had been granted `role`, emits a {RoleRevoked} event. Requirements: - the caller must have ``role``'s admin role."
      },
      "submitRequest(uint256,string)": {
        "details": "The value of the contribution is checked aaginst the minimum contribution stipulated during contract creation",
        "params": {
          "_name": "Name of request",
          "_value": "Value of contribution in Wei"
        }
      },
      "supportsInterface(bytes4)": {
        "details": "See {IERC165-supportsInterface}."
      },
      "unpause()": {
        "details": "This function controls the unpause/pause modifier which is used to prevent withdrawals in case an attack on the contract."
      },
      "withdraw(uint256)": {
        "details": "The sender address is checked to ensure it matches that of the initial requestor",
        "params": {
          "_transactionId": "Transaction ID."
        }
      }
    },
    "title": "A smart contract for a South African Burial Stokvel",
    "version": 1
  },
  "userdoc": {
    "events": {
      "Confirmation(address,uint256,string)": {
        "notice": "Emitted when a submitted request is confirmed"
      },
      "Deposit(address,uint256)": {
        "notice": "Emitted when a member deposits his contribution"
      },
      "Execution(uint256)": {
        "notice": "Emitted when a transfer of funds is executed"
      },
      "ExecutionFailure(uint256)": {
        "notice": "Emitted when a transfer of funds fails"
      },
      "LogEnrolled(address)": {
        "notice": "Emitted when a address is enrolled as a member"
      },
      "Submission(uint256)": {
        "notice": "Emitted when a request is submitted"
      }
    },
    "kind": "user",
    "methods": {
      "cancelTransaction()": {
        "notice": "Allows approver to cancel submitted transaction"
      },
      "enroll()": {
        "notice": "Enrolls the address as a member"
      },
      "fetchTransaction(uint256)": {
        "notice": "Returns the details of a transaction."
      },
      "getAllTransactionIDs()": {
        "notice": "Returns all transaction IDs."
      },
      "getBalance()": {
        "notice": "Get balance of contract."
      },
      "getMembers()": {
        "notice": "Get all members."
      },
      "getMinimumContribution()": {
        "notice": "Get minimum contribution required."
      },
      "getNumberofRequiredApprovals()": {
        "notice": "Get number of required approvals."
      },
      "getOwners()": {
        "notice": "Get all owners."
      },
      "isConfirmed(uint256)": {
        "notice": "Returns the confirmation status of a transaction."
      },
      "pause()": {
        "notice": "Pause the contract by owners only."
      },
      "removeMember()": {
        "notice": "Allows approvers to remove members"
      },
      "submitRequest(uint256,string)": {
        "notice": "Allows member to submit a payment request"
      },
      "unpause()": {
        "notice": "Unpause the contract by owners only."
      },
      "withdraw(uint256)": {
        "notice": "Withdraws the reqiested amount by the member."
      }
    },
    "notice": "The contract allows for multiple owners and members After members pay a contribution they are able to submit requests for payment which need to be approved by owners.",
    "version": 1
  }
}